:020000040800F2
:10000000C43A01205D070008B9070008B9070008D5
:10001000B9070008B9070008B90700080000000088
:10002000000000000000000000000000B907000808
:10003000B907000800000000B9070008B907000868
:10004000B9070008B9070008B9070008B907000890
:10005000B9070008B9070008B9070008B907000880
:10006000B9070008B9070008B9070008B907000870
:10007000B9070008B9070008B9070008B907000860
:10008000B9070008B9070008B9070008B907000850
:10009000B9070008B9070008B9070008B907000840
:1000A000B9070008B9070008B9070008B907000830
:1000B000B9670008B9070008B9070008B9070008C0
:1000C000B9070008B9070008B9070008B907000810
:1000D000B9070008B907000825060008B907000895
:1000E000B9070008B9070008B9070008B9070008F0
:1000F000B9070008B9070008B9070008B9070008E0
:10010000B9070008B9070008B9070008B9070008CF
:10011000B9070008B9070008B9070008B9070008BF
:10012000B9070008B9070008B9070008B9070008AF
:10013000B9070008B9070008B9070008B90700089F
:10014000B9070008B9070008B9070008B90700088F
:1001500071680008B9070008B9070008B907000866
:10016000B9070008B9070008B9070008B90700086F
:10017000B9070008B9070008B9070008B90700085F
:10018000B9070008B907000880B582B000AF7860F1
:100190007868002100F0B6FA786806F015FE083796
:1001A000BD4680BD80B58AB000AF7860396000235D
:1001B0007B6200233B620023FB610023BB617B6801
:1001C0001B8A9BB27B627B6A23F440537B623B6851
:1001D000DB887A6A13437B627B6A9AB27B681A82F5
:1001E0007B689B899BB27B627B6A23F4B05323F0CC
:1001F0000C037B623B689A883B681B8913439AB265
:100200003B685B8913439BB27A6A13437B627B6AC8
:100210009AB27B689A817B689B8A9BB27B627B6A7D
:1002200023F440737B623B689B897A6A13437B6249
:100230007B6A9AB27B689A8207F10803184600F03D
:10024000D5FA7A68314B9A4203D07A68304B9A4299
:1002500002D17B693B6201E03B693B627B689B8921
:100260009BB29BB21BB2002B0CDA3A6A13469B007E
:1002700013449A001A443B681B685B00B2FBF3F31B
:10028000FB610BE03A6A13469B0013449A001A4440
:100290003B681B689B00B2FBF3F3FB61FA691D4BE3
:1002A000A3FB02135B091B017B627B6A1B096422AF
:1002B00002FB03F3FA69D31ABB617B689B899BB28B
:1002C0009BB21BB2002B0DDABB69DB0003F13202DB
:1002D000104BA3FB02135B0903F007037A6A134375
:1002E0007B620CE0BB691B0103F13202094BA3FBEB
:1002F00002135B0903F00F037A6A13437B627B6A84
:100300009AB27B681A812837BD4680BD0010014033
:10031000001401401F85EB5180B483B000AF7860BA
:100320000B46FB70FB78002B08D07B689B899BB247
:1003300043F400539AB27B689A8107E07B689B89FB
:100340009BB223F400539AB27B689A810C37BD4666
:100350005DF8047B704700BF80B483B000AF786065
:100360000B467B807B88C3F308039AB27B689A8034
:100370000C37BD465DF8047B704700BF80B487B082
:1003800000AF786013460A467A807B7000233B6199
:100390000023FB600023BB6000237B617B687B61E3
:1003A0007B88DBB25B09DBB23B617B8803F01F0318
:1003B000FB60FB68012202FA03F3BB603B69012B7F
:1003C00003D17B690C337B6109E03B69022B03D1CC
:1003D0007B6910337B6102E07B6914337B617B783E
:1003E000002B06D07B697A691168BA680A431A60E3
:1003F00006E07B697A691168BA68D2430A401A60DC
:100400001C37BD465DF8047B704700BF80B485B0E3
:1004100000AF78600B467B800023FB737B681B88F2
:100420009AB27B8813409BB2002B02D00123FB734E
:1004300001E00023FB73FB7B18461437BD465DF8D3
:10044000047B704780B487B000AF78600B467B8038
:100450000023FB6000237B610023BB600023FB744F
:100460007B88DBB25B09DBB2BB607B8803F01F03D8
:100470007B617B69012202FA03F37B61BB68012B7C
:1004800006D17B689B899BB27A6913407B610FE040
:10049000BB68022B06D17B681B8A9BB27A6913402A
:1004A0007B6105E07B689B8A9BB27A6913407B6124
:1004B0007B881B0A9BB2FB60FB68012202FA03F3F4
:1004C000FB607B681B889BB2FA681340FB607B690A
:1004D000002B05D0FB68002B02D00123FB7401E048
:1004E0000023FB74FB7C18461C37BD465DF8047B7B
:1004F000704700BF80B485B000AF78600B467B804A
:100500000023FB810023BB817B881B0AFB81FB89C5
:10051000012202FA03F3BB81BB89DB439AB27B68F9
:100520001A801437BD465DF8047B704780B586B0ED
:1005300000AF4FF40030012100F020FA012001212A
:1005400000F0FEF90C233B6102233B750023BB75D1
:100550000123FB7502237B7507F11003164819462A
:1005600005F0F6FB14480221072205F07FFC124833
:100570000321072205F07AFC4FF4E1333B600023AE
:10058000BB800023FB8000233B810023BB810C2325
:100590007B813B4609481946FFF704FE074840F2B5
:1005A00025510122FFF7EAFE04480121FFF7B4FEBE
:1005B0001837BD4680BD00BF000002400044004027
:1005C00080B582B000AF0346FB7100BF07488021B1
:1005D000FFF71CFF0346002BF8D0FB799BB20348C2
:1005E0001946FFF7B9FE0837BD4680BD00440040FC
:1005F00080B584B000AF78600023FB6009E0FB6841
:100600007A6813441B781846FFF7DAFFFB6801335A
:10061000FB60FB687A6813441B78002BEFD110371E
:10062000BD4680BD80B582B000AF274840F225515D
:10063000FFF708FF0346002B43D0234840F2255123
:10064000FFF758FF204B9B889BB2FB70FB78402B39
:1006500005D9FB785A2B02D8FB782033FB70FB7846
:100660000D2B1CD800237B600AE0184A7B681344DA
:100670001B7815481946FFF76FFE7B6801337B60D6
:10068000134B1B687A689A42EFDB114B00221A6009
:10069000FB789BB20C481946FFF75EFE09E00C4B55
:1006A0001B680A4AF978D154094B1B685A1C084B3D
:1006B0001A6000BF04484021FFF7A8FE0346002B44
:1006C000F8D00837BD4680BD00440040AC0400208F
:1006D0004404002080B582B000AFFF23FB710848BE
:1006E0002021FFF793FE0346012B03D1044B9B8887
:1006F0009BB2FB71FB7918460837BD4680BD00BF31
:100700000044004080B582B000AF78603960FFF7E8
:10071000E1FF03461A467B681A707B681B78FF2B43
:1007200003D07B681B780A2B01D100BFEFE73B6841
:10073000002B04D07B681B781846FFF741FF7B68CD
:100740001B780D2B03D17B6800221A7003E07B68B5
:1007500001337B60DBE70837BD4680BD80B582B0E2
:1007600000AF104B7B60104B3B6007E03B681A1DED
:100770003A607A68111D796012681A603A680B4B0A
:100780009A42F3D30A480B494FF000028842B8BF9F
:1007900040F8042BFFF6FAAF00F012F80837BD4618
:1007A00080BD00BFB093000800000020440400207A
:1007B00044040020C832012080B400AFFEE700BF2F
:1007C00080B500AF05F098FBFFF7B0FE05F03EFEE8
:1007D000002005F07BFE0348FFF70AFF0248FFF701
:1007E000D3FCFBE7908600084804002080B489B061
:1007F00000AF78600023BB6100237B610023FB61B5
:1008000002233B610023FB600223BB60484B9B68D3
:1008100003F00C03BB61BB69042B07D0082B09D084
:10082000002B3FD17B68434A1A603FE07B68424A15
:100830001A603BE03E4B5B6803F480039B0DFB605A
:100840003B4B5B6803F03F03BB60FB68002B0DD0A4
:10085000394ABB68B2FBF3F2354B596847F6C073AF
:100860000B409B0903FB02F3FB610CE0314ABB68C0
:10087000B2FBF3F22E4B596847F6C0730B409B094D
:1008800003FB02F3FB612A4B5B6803F440331B0C50
:1008900001335B003B61FA693B69B2FBF3F27B68B1
:1008A0001A6003E07B68234A1A6000BF204B9B68F4
:1008B00003F0F003BB61BB691B09BB611F4ABB6945
:1008C00013441B78DBB27B617B681A687B69DA4072
:1008D0007B685A60164B9B6803F4E053BB61BB69AD
:1008E0009B0ABB61154ABB6913441B78DBB27B6171
:1008F0007B685A687B69DA407B689A600C4B9B681E
:1009000003F46043BB61BB695B0BBB610B4ABB6912
:1009100013441B78DBB27B617B685A687B69DA40E1
:100920007B68DA602437BD465DF8047B704700BF02
:10093000003802400024F40000127A000000002079
:1009400080B483B000AF78600B46FB70FB78002B5F
:1009500006D0094B084A116B7A680A431A6306E00D
:10096000054B054A116B7A68D2430A401A630C376B
:10097000BD465DF8047B70470038024080B483B008
:1009800000AF78600B46FB70FB78002B06D0094B5C
:10099000084A116C7A680A431A6406E0054B054A56
:1009A000116C7A68D2430A401A640C37BD465DF870
:1009B000047B70470038024080B483B000AF786099
:1009C0000B46FB70FB78002B06D0094B084A516C94
:1009D0007A680A435A6406E0054B054A516C7A6806
:1009E000D2430A405A640C37BD465DF8047B704719
:1009F00000380240B0B594B000AFF860B9607A60DA
:100A00003B60F86807F0F0FAF864B86807F0ECFAB1
:100A1000B864786807F0E8FA7864386807F0E4FAB0
:100A20003864386E07F0E0FA386300237B63FA6CB1
:100A30007B6CD31A83EAE372A2EBE372B96C3B6C72
:100A4000CB1A002BB8BF5B429A420DDAFB6CFB62FB
:100A5000BB6CFB64FB6ABB647B6CBB623B6C7B6402
:100A6000BB6A3B6401237B63FA6C7B6C9A420BDDAF
:100A7000FB6C7B627B6CFB647B6A7B64BB6C3B6264
:100A80003B6CBB643B6A3B640023BB6375E0FA6C60
:100A9000BB6B1344FB617A6CBB6B1344BB61FB699A
:100AA000FB6363E0FA6BFB69D31A184607F0F8F8AA
:100AB0000446BA69FB69D31A184607F0F1F80346F1
:100AC0002046194607F0F4F903467B61B86C06F03E
:100AD0006DFD04460D46786906F07AFD02460B4628
:100AE0004FF00000284906F013FC02460B46204652
:100AF000294606F0C1FD02460B4614461D46386CD9
:100B000007F0CEF803461846796907F01DF9034649
:100B1000184606F05DFD02460B462046294606F0C3
:100B2000F9FB02460B461046194606F0B7FF03468E
:100B30003B617B6B012B0BD13B6999B2FB6B9AB28A
:100B40007B6EDBB2084611461A4605F0E3FC0AE06C
:100B5000FB6B99B23B699AB27B6EDBB208461146D9
:100B60001A4605F0D7FCFB6B0133FB63FA6BBB69DC
:100B70009A4297DBBB6B0133BB63BA6B3B6B9A4208
:100B800085DB5037BD46B0BD0000F03F80B58AB070
:100B900000AFF860B9607A603B60F86807F024FA4B
:100BA000F861B86807F020FAB861786807F01CFAB5
:100BB0007861386807F018FA38613B695B427B62FC
:100BC00041E07B695B423B6236E03B6A3A6A02FB8A
:100BD00003F33A6902FB03F33A6902FB03F27B6A0F
:100BE000796A01FB03F3796901FB03F3796901FB7E
:100BF00003F31A443B69396901FB03F3796901FB8B
:100C000003F3796901FB03F39A4212DCFB699AB2A0
:100C10003B6A9BB2134499B2BB699AB27B6A9BB29E
:100C200013449AB23B6BDBB2084611461A4605F0F4
:100C300071FC3B6A01333B623A6A7B699A42C4DDCC
:100C40007B6A01337B627A6A3B699A42B9DD283755
:100C5000BD4680BD80B58CB000AFF860B9607A60E9
:100C60003B60F86807F0C0F9F862B86807F0BCF9B3
:100C7000B862786807F0B8F97862386807F0B4F9B4
:100C800038623A6ABB6A9A4205DD3B6A7B61BB6A9D
:100C90003B627B69BB627A6AFB6A9A4205DA7B6ACD
:100CA0003B61FB6A7B623B69FB62FB6AFB6117E0AD
:100CB0003B6ABB610DE0FB6999B2BB699AB2BB6B41
:100CC000DBB2084611461A4605F024FCBB69013325
:100CD000BB61BA69BB6A9A42EDDBFB690133FB6118
:100CE000FA697B6A9A42E3DB3037BD4680BD00BFBC
:100CF00080B58CB002AFF860B9607A603B60F8688C
:100D000007F072F97862B86807F06EF938627868AF
:100D100007F06AF9F861386807F066F9B861386B6E
:100D200007F062F97861786B07F05EF938610123AA
:100D30000093BB6B0193786A396AFA69BB6900F06A
:100D400017F801230093BB6B0193F869B9697A69BD
:100D50003B6900F00DF801230093BB6B01937869A8
:100D600039697A6A3B6A00F003F82837BD4680BDCE
:100D7000B0B590B000AFF860B9607A603B60002316
:100D80007B63FA687B68D31A83EAE372A2EBE372AF
:100D9000B9683B68CB1A002BB8BF5B429A420DDAA8
:100DA000FB683B63BB68FB603B6BBB607B68FB62C3
:100DB0003B687B60FB6A3B6001237B63FA687B686E
:100DC0009A420BDDFB68BB627B68FB60BB6A7B60A1
:100DD000BB687B623B68BB607B6A3B600023BB6394
:100DE00075E0FA68BB6B13443B627A68BB6B1344D3
:100DF000FB613B6AFB6363E0FA6B3B6AD31A1846FC
:100E000006F04EFF0446FA693B6AD31A184606F00C
:100E100047FF03462046194607F04AF80346BB61E0
:100E2000B86806F0C3FB04460D46B86906F0D0FB6F
:100E300002460B464FF00000284906F069FA0246C8
:100E40000B462046294606F017FC02460B46144680
:100E50001D46386806F024FF03461846B96906F0B7
:100E600073FF0346184606F0B3FB02460B462046C6
:100E7000294606F04FFA02460B461046194606F080
:100E80000DFE03467B617B6B012B0BD17B6999B215
:100E9000FB6B9AB27B6DDBB2084611461A4605F031
:100EA00039FB0AE0FB6B99B27B699AB27B6DDBB2CE
:100EB000084611461A4605F02DFBFB6B0133FB6318
:100EC000FA6BFB699A4297DBBB6B0133BB63BA6B6E
:100ED0003B6D9A4285DB4037BD46B0BD0000F03F18
:100EE00090B5ADF5245D83B000AF07F148043C3CFC
:100EF000206007F10800016007F1080104390A6069
:100F000007F10802083A136007F148033C3B1868F0
:100F100007F06AF807F5245101F10401086007F1B0
:100F20000803186807F060F807F52452106007F509
:100F3000245C0CF1040CDCF8003007F5235000F1C0
:100F40002C000360002307F5235101F13C010B60E5
:100F500021E007F5235303F13C031A6807F1080366
:100F6000043B1B6813441A7807F5225101F1340140
:100F700007F5235C0CF13C0CDCF800300B441A70D4
:100F800007F5235000F13C000368013307F52351B6
:100F900001F13C010B6007F5235202F13C0213689A
:100FA0002C2BD6DD07F51C5303F124031A464FF40E
:100FB000C873104600211A4607F0B4F807F51C5311
:100FC00003F1240307F5245C0CF1180CDCF8002075
:100FD0001A6107F51C5303F1240307F5245000F1AF
:100FE000180002685A6107F51C5303F1240307F542
:100FF000245101F118010A685A6307F51C5303F1E3
:10100000240307F5245C0CF1180CDCF800201A64AA
:1010100007F51C5303F1240307F5245000F11800D1
:1010200002689A6507F51C5303F1240307F5245160
:1010300001F118010A68DA6607F51C5303F124036D
:1010400007F5245C0CF1180CDCF80020C3F88020B4
:1010500007F51C5303F1240307F5245000F1180091
:101060000268C3F8942007F51C5303F1240307F525
:10107000245101F118010A68C3F8A42007F51C5394
:1010800003F1240307F5245C0CF1180CDCF80020B4
:10109000C3F8C02007F51C5303F1240307F52450BF
:1010A00000F118000268C3F8CC2007F51C5303F1C7
:1010B000240307F5245101F118010A68C3F8D02070
:1010C00007F51C5303F1240307F5245C0CF1180CFD
:1010D000DCF80020C3F8D42007F51C5303F12403E7
:1010E00007F5245000F118000268C3F8D82007F56E
:1010F0001C5303F1240307F5245101F118010A6878
:10110000C3F8DC2007F51C5303F1240307F5245C26
:101110000CF1180CDCF80020C3F8E02007F51C5394
:1011200003F1240307F5245000F118000268C3F806
:10113000E42007F51C5303F1240307F5245101F1C2
:1011400018010A68C3F8E82007F51C5303F12403CB
:1011500007F5245C0CF1180CDCF80020C3F8F4202F
:1011600007F51C5303F1240307F5245000F1180080
:101170000268C3F8102107F51C5303F1240307F597
:10118000245101F118010A68C3F81C2107F51C530A
:1011900003F1240307F5245C0CF1180CDCF80020A3
:1011A000C3F8382107F51C5303F1240307F5245035
:1011B00000F118000268C3F8442107F51C5303F13D
:1011C000240307F5245101F118010A68C3F86021CE
:1011D00007F5165303F1140300221A6007F516539E
:1011E00003F1140300225A6007F5165303F11403A8
:1011F00000229A6007F5165303F114030022DA6007
:1012000007F5165303F1140300221A6107F516536C
:1012100003F1140300225A6107F5165303F1140376
:1012200000229A6107F5165303F114030022DA61D4
:1012300007F5165303F1140300221A6207F516533B
:1012400003F1140300225A6207F5165303F1140345
:1012500000229A6207F5165303F1140307F5245C84
:101260000CF1180CDCF80020DA6207F5165303F1D4
:10127000140307F5245000F1180002681A6307F5FB
:10128000165303F1140307F5245101F118010A68FC
:101290005A6307F5165303F1140307F5245C0CF1A8
:1012A000180CDCF800209A6307F5165303F11403B9
:1012B00007F5245000F118000268DA6307F51653A9
:1012C00003F1140300221A6407F5165303F1140303
:1012D00000225A6407F5165303F1140300229A649E
:1012E00007F5165303F114030022DA6407F51653C9
:1012F00003F1140300221A6507F5165303F11403D2
:1013000007F5245101F118010A685A6507F51653CB
:1013100003F1140300229A6507F5165303F1140331
:101320000022DA6507F5165303F1140300221A664A
:1013300007F5165303F1140300225A6607F51653F6
:1013400003F1140307F5245C0CF1180CDCF8002001
:101350009A6607F5165303F114030022DA6607F5BF
:10136000165303F1140300221A6707F5165303F10D
:10137000140300225A6707F5165303F114030022E1
:101380009A6707F5165303F1140307F5245000F18B
:1013900018000268DA6707F5165303F114030022F8
:1013A000C3F8802007F5165303F114030022C3F895
:1013B000842007F5165303F114030022C3F8882094
:1013C00007F5165303F114030022C3F88C2007F528
:1013D000165303F1140307F5245101F118010A68AB
:1013E000C3F8902007F5165303F114030022C3F845
:1013F000942007F5165303F114030022C3F8982034
:1014000007F5165303F114030022C3F89C2007F5D7
:10141000165303F114030022C3F8A02007F5165356
:1014200003F1140307F5245C0CF1180CDCF8002020
:10143000C3F8A42007F5165303F1140307F524504D
:1014400000F118000268C3F8A82007F5165303F14D
:10145000140307F5245101F118010A68C3F8AC2000
:1014600007F5165303F1140307F5245C0CF1180C6F
:10147000DCF80020C3F8B02007F5165303F114037D
:1014800007F5245000F118000268C3F8B42007F5EE
:10149000165303F114030022C3F8B82007F51653BE
:1014A00003F114030022C3F8BC2007F5165303F11F
:1014B00014030022C3F8C02007F5165303F11403E8
:1014C0000022C3F8C42007F5165303F114030022C9
:1014D000C3F8C82007F5165303F1140307F5245188
:1014E00001F118010A68C3F8CC2007F5165303F17F
:1014F00014030022C3F8D02007F5165303F1140398
:101500000022C3F8D42007F5165303F11403002278
:10151000C3F8D82007F5165303F114030022C3F8CB
:10152000DC2007F5165303F1140307F5245C0CF1D6
:10153000180CDCF80020C3F8E02007F5165303F17F
:10154000140307F5245000F118000268C3F8E420E2
:1015500007F5165303F114030022C3F8E82007F53A
:10156000165303F114030022C3F8EC2007F51653B9
:1015700003F114030022C3F8F02007F5165303F11A
:10158000140307F5245101F118010A68C3F8F42087
:1015900007F5165303F114030022C3F8F82007F5EA
:1015A000165303F114030022C3F8FC2007F5165369
:1015B00003F114030022C3F8002107F5165303F1C9
:1015C00014030022C3F8042107F5165303F1140392
:1015D0000022C3F8082107F5165303F1140307F599
:1015E000245C0CF1180CDCF80020C3F80C2107F582
:1015F000165303F114030022C3F8102107F5165304
:1016000003F114030022C3F8142107F5165303F164
:1016100014030022C3F8182107F5165303F114032D
:1016200007F5245000F118000268C3F81C2107F5E3
:10163000165303F114030022C3F8202107F51653B3
:1016400003F114030022C3F8242107F5165303F114
:1016500014030022C3F8282107F5165303F11403DD
:101660000022C3F82C2107F5165303F1140307F5E4
:10167000245101F118010A68C3F8302107F5165307
:1016800003F1140307F5245C0CF1180CDCF80020BE
:10169000C3F8342107F5165303F114030022C3F8ED
:1016A000382107F5165303F114030022C3F83C2137
:1016B00007F5165303F114030022C3F8402107F580
:1016C000165303F1140307F5245000F118000268C3
:1016D000C3F8442107F5165303F1140307F5245109
:1016E00001F118010A68C3F8482107F5165303F100
:1016F000140307F5245C0CF1180CDCF80020C3F887
:101700004C2107F5165303F1140307F5245000F19B
:1017100018000268C3F8502107F5165303F11403AB
:1017200007F5245101F118010A68C3F8542107F59F
:10173000165303F114030022C3F8582107F516537A
:1017400003F114030022C3F85C2107F5165303F1DB
:1017500014030022C3F8602107F5165303F11403A4
:101760000022C3F8642107F5165303F11403002285
:10177000C3F8682107F5165303F114030022C3F8D8
:101780006C2107F5165303F114030022C3F87021EE
:1017900007F5165303F114030022C3F8742107F56B
:1017A000165303F114030022C3F8782107F51653EA
:1017B00003F114030022C3F87C2107F5165303F14B
:1017C00014030022C3F8802107F5165303F1140314
:1017D0000022C3F8842107F5165303F114030022F5
:1017E000C3F8882107F5165303F114030022C3F848
:1017F0008C2107F5105303F104031A464FF4C87304
:10180000104600211A4606F08DFC07F5105303F12F
:10181000040307F5245C0CF1180CDCF800205A6373
:1018200007F5105303F1040307F5245000F11800E5
:1018300002689A6307F5105303F1040307F5245176
:1018400001F118010A68DA6307F5105303F1040384
:1018500007F5245C0CF1180CDCF800201A6407F57D
:10186000105303F1040307F5245000F11800026837
:101870009A6507F5105303F1040307F5245101F1AC
:1018800018010A68DA6607F5105303F1040307F537
:10189000245C0CF1180CDCF80020DA6707F5105313
:1018A00003F1040307F5245000F118000268C3F89F
:1018B000982007F5105303F1040307F5245101F1B3
:1018C00018010A68C3F8A42007F5105303F10403B4
:1018D00007F5245C0CF1180CDCF80020C3F8CC20D0
:1018E00007F5105303F1040307F5245000F1180025
:1018F0000268C3F8F42007F5105303F1040307F559
:10190000245101F118010A68C3F8102107F510539A
:1019100003F1040307F5245C0CF1180CDCF800203B
:10192000C3F8202107F5105303F1040307F52450F1
:1019300000F118000268C3F8342107F5105303F1D1
:10194000040307F5245101F118010A68C3F84C217A
:1019500007F5105303F1040307F5245C0CF1180C90
:10196000DCF80020C3F8502107F5105303F10403FD
:1019700007F5245000F118000268C3F8542107F558
:10198000105303F1040307F5245101F118010A680B
:10199000C3F8582107F5095303F134031A464FF4ED
:1019A000C873104600211A4606F0BCFB07F5095320
:1019B00003F1340307F5245C0CF1180CDCF800206B
:1019C000DA6207F5095303F1340307F5245000F1F7
:1019D000180002681A6307F5095303F1340307F589
:1019E000245101F118010A685A6307F5095303F1FC
:1019F000340307F5245C0CF1180CDCF800209A6322
:101A000007F5095303F1340307F5245000F11800DA
:101A10000268DA6307F5095303F1340307F524512B
:101A200001F118010A681A6407F5095303F1340338
:101A300007F5245C0CF1180CDCF800205A6507F55A
:101A4000095303F1340307F5245000F1180002682C
:101A5000DA6607F5095303F1340307F5245101F160
:101A600018010A68DA6707F5095303F1340307F52B
:101A7000245C0CF1180CDCF80020C3F8982007F562
:101A8000095303F1340307F5245000F118000268EC
:101A9000C3F8A42007F5095303F1340307F52451D3
:101AA00001F118010A68C3F8C02007F5095303F1D2
:101AB000340307F5245C0CF1180CDCF80020C3F8A3
:101AC000CC2007F5095303F1340307F5245000F146
:101AD00018000268C3F8E82007F5095303F134033E
:101AE00007F5245101F118010A68C3F8F42007F53D
:101AF000095303F1340307F5245C0CF1180CDCF8EE
:101B00000020C3F8102107F5095303F1340307F54A
:101B1000245000F118000268C3F81C2107F509538E
:101B200003F1340307F5245101F118010A68C3F8E1
:101B3000342107F5095303F1340307F5245C0CF154
:101B4000180CDCF80020C3F8442107F5095303F111
:101B5000340307F5245000F118000268C3F8482147
:101B600007F5095303F1340307F5245101F1180176
:101B70000A68C3F84C2107F5095303F1340307F54C
:101B8000245C0CF1180CDCF80020C3F8502107F598
:101B9000095303F1340307F5245000F118000268DB
:101BA000C3F8542107F5095303F1340307F5245111
:101BB00001F118010A68C3F8582107F5035303F12E
:101BC000240300221A6007F5035303F124030022C3
:101BD0005A6007F5035303F1240300229A6007F5C6
:101BE000035303F124030022DA6007F5035303F1E2
:101BF000240300221A6107F5035303F12403002292
:101C00005A6107F5035303F1240300229A6107F593
:101C1000035303F124030022DA6107F5035303F1B0
:101C2000240300221A6207F5035303F12403002260
:101C30005A6207F5035303F1240300229A6207F561
:101C4000035303F1240307F5245C0CF1180CDCF8B2
:101C50000020DA6207F5035303F1240307F524504B
:101C600000F1180002681A6307F5035303F1240317
:101C700007F5245101F118010A685A6307F5035367
:101C800003F1240307F5245C0CF1180CDCF80020A8
:101C90009A6307F5035303F1240307F5245000F179
:101CA00018000268DA6307F5035303F1240307F50C
:101CB000245101F118010A681A6407F5035303F16E
:101CC000240307F5245C0CF1180CDCF800205A649E
:101CD00007F5035303F1240307F5245000F118001E
:101CE00002689A6407F5035303F124030022DA64BF
:101CF00007F5035303F1240300221A6507F5035384
:101D000003F1240307F5245101F118010A685A650B
:101D100007F5035303F1240300229A6507F50353E3
:101D200003F124030022DA6507F5035303F12403CA
:101D300000221A6607F5035303F1240300225A66B2
:101D400007F5035303F1240300229A6607F50353B2
:101D500003F124030022DA6607F5035303F1240399
:101D600000221A6707F5035303F1240300225A6780
:101D700007F5035303F1240300229A6707F5035381
:101D800003F1240307F5245C0CF1180CDCF80020A7
:101D9000DA6707F5035303F124030022C3F8802018
:101DA00007F5035303F124030022C3F8842007F549
:101DB000035303F124030022C3F8882007F50353DB
:101DC00003F124030022C3F88C2007F5035303F129
:101DD00024030022C3F8902007F5035303F12403E2
:101DE0000022C3F8942007F5035303F124030022D3
:101DF000C3F8982007F5035303F124030022C3F826
:101E00009C2007F5035303F124030022C3F8A0200C
:101E100007F5035303F1240307F5245000F11800DC
:101E20000268C3F8A42007F5035303F1240307F560
:101E3000245101F118010A68C3F8A82007F50353DB
:101E400003F1240307F5245C0CF1180CDCF80020E6
:101E5000C3F8AC2007F5035303F1240307F524501E
:101E600000F118000268C3F8B02007F5035303F12E
:101E700024030022C3F8B42007F5035303F124031D
:101E80000022C3F8B82007F5035303F1240300220E
:101E9000C3F8BC2007F5035303F124030022C3F861
:101EA000C02007F5035303F124030022C3F8C42024
:101EB00007F5035303F124030022C3F8C82007F5F4
:101EC000035303F1240307F5245101F118010A68B3
:101ED000C3F8CC2007F5035303F124030022C3F811
:101EE000D02007F5035303F124030022C3F8D420C4
:101EF00007F5035303F124030022C3F8D82007F5A4
:101F0000035303F124030022C3F8DC2007F5035335
:101F100003F124030022C3F8E02007F5035303F183
:101F200024030022C3F8E42007F5035303F124033C
:101F30000022C3F8E82007F5035303F1240300222D
:101F4000C3F8EC2007F5035303F124030022C3F880
:101F5000F02007F5035303F1240307F5245C0CF18B
:101F6000180CDCF80020C3F8F42007F5035303F144
:101F700024030022C3F8F82007F5035303F12403D8
:101F80000022C3F8FC2007F5035303F124030022C9
:101F9000C3F8002107F5035303F124030022C3F81B
:101FA000042107F5035303F124030022C3F8082199
:101FB00007F5035303F124030022C3F80C2107F5AE
:101FC000035303F124030022C3F8102107F5035340
:101FD00003F124030022C3F8142107F5035303F18E
:101FE00024030022C3F8182107F5035303F1240347
:101FF00007F5245000F118000268C3F81C2107F50A
:10200000035303F124030022C3F8202107F50353EF
:1020100003F124030022C3F8242107F5035303F13D
:1020200024030022C3F8282107F5035303F12403F6
:102030000022C3F82C2107F5035303F124030022E7
:10204000C3F8302107F5035303F124030022C3F83A
:10205000342107F5035303F124030022C3F8382188
:1020600007F5035303F124030022C3F83C2107F5CD
:10207000035303F124030022C3F8402107F503535F
:1020800003F1240307F5245101F118010A68C3F88C
:10209000442107F5035303F1240307F5245C0CF1F5
:1020A000180CDCF80020C3F8482107F5035303F1AE
:1020B000240307F5245000F118000268C3F84C21EE
:1020C00007F5035303F1240307F5245101F1180127
:1020D0000A68C3F8502107F5035303F1240307F5F9
:1020E000245C0CF1180CDCF80020C3F8542107F52F
:1020F000035303F1240307F5245000F1180002688C
:10210000C3F8582107F5035303F1240307F52451BD
:1021100001F118010A68C3F85C2107F5035303F1C4
:10212000240307F5245C0CF1180CDCF80020C3F83C
:10213000602107F5035303F124030022C3F864214F
:1021400007F5035303F124030022C3F8682107F5C0
:10215000035303F124030022C3F86C2107F5035352
:1021600003F124030022C3F8702107F5035303F1A0
:1021700024030022C3F8742107F5035303F1240359
:102180000022C3F8782107F5035303F1240300224A
:10219000C3F87C2107F5035303F124030022C3F89D
:1021A000802107F5035303F124030022C3F884219F
:1021B00007F5035303F124030022C3F8882107F530
:1021C000035303F124030022C3F88C2107F5FA53CB
:1021D00003F114031A464FF4C873104600211A463F
:1021E00005F0A0FF07F5FA5303F1140307F5245097
:1021F00000F1180002681A6307F5FA5303F114039B
:1022000007F5245101F118010A685A6307F5FA53DA
:1022100003F1140307F5245C0CF1180CDCF8002022
:102220009A6307F5FA5303F1140307F5245000F1FC
:1022300018000268DA6307F5FA5303F1140307F58F
:10224000245101F118010A681A6407F5FA5303F1E1
:10225000140307F5245C0CF1180CDCF800205A6418
:1022600007F5FA5303F1140307F5245000F11800A1
:1022700002689A6507F5FA5303F1140307F5245130
:1022800001F118010A68C3F8802007F5FA5303F139
:10229000140307F5245C0CF1180CDCF80020C3F8DB
:1022A000A82007F5FA5303F1140307F5245000F1B1
:1022B00018000268C3F8AC2007F5FA5303F11403C1
:1022C00007F5245101F118010A68C3F8B02007F599
:1022D000FA5303F1140307F5245C0CF1180CDCF835
:1022E0000020C3F8D02007F5FA5303F1140307F5D3
:1022F000245000F118000268C3F8F82007F5FA53DB
:1023000003F1140307F5245101F118010A68C3F819
:10231000202107F5FA5303F1140307F5245C0CF1AF
:10232000180CDCF80020C3F8482107F5EE5303F140
:1023300004031A464FF4C873104600211A4605F0EC
:10234000F1FE07F5EE5303F1040307F5245000F105
:10235000180002685A6307F5EE5303F1040307F50A
:10236000245101F118010A689A6307F5EE5303F14D
:10237000040307F5245C0CF1180CDCF80020DA6388
:1023800007F5EE5303F1040307F5245000F118009C
:1023900002681A6407F5EE5303F1040307F52451AC
:1023A00001F118010A689A6507F5EE5303F1040379
:1023B00007F5245C0CF1180CDCF80020DA6607F550
:1023C000EE5303F1040307F5245000F118000268EE
:1023D000DA6707F5EE5303F1040307F5245101F121
:1023E00018010A68C3F8A42007F5EE5303F10403AB
:1023F00007F5245C0CF1180CDCF80020C3F8CC20A5
:1024000007F5EE5303F1040307F5245000F118001B
:102410000268C3F8E02007F5EE5303F1040307F563
:10242000245101F118010A68C3F8E42007F5EE53BE
:1024300003F1040307F5245C0CF1180CDCF8002010
:10244000C3F8E82007F5EE5303F1040307F5245021
:1024500000F118000268C3F8F42007F5EE5303F109
:10246000040307F5245101F118010A68C3F80C218F
:1024700007F5EE5303F1040307F5245C0CF1180C87
:10248000DCF80020C3F8202107F5EE5303F1040324
:1024900007F5245000F118000268C3F8302107F551
:1024A000EE5303F1040307F5245101F118010A6802
:1024B000C3F84C2107F5EE5303F1040307F5245C40
:1024C0000CF1180CDCF80020C3F8502107F5EE538E
:1024D00003F1040307F5245000F118000268C3F863
:1024E000542107F5E15303F114031A464FF4C8735E
:1024F000104600211A4605F015FE07F5E15303F1D9
:10250000140307F5245101F118010A68DA6207F58E
:10251000E15303F1140307F5245C0CF1180CDCF80B
:1025200000209A6407F5E15303F1140307F52450E2
:1025300000F1180002685A6507F5E15303F114032E
:1025400007F5245101F118010A681A6707F5E153EC
:1025500003F1140307F5245C0CF1180CDCF80020DF
:10256000DA6707F5E15303F1140307F5245000F18E
:1025700018000268C3F8982007F5E15303F114032B
:1025800007F5245101F118010A68C3F8A42007F5E2
:10259000E15303F1140307F5245C0CF1180CDCF88B
:1025A0000020C3F8C02007F5E15303F1140307F539
:1025B000245000F118000268C3F8CC2007F5E1535D
:1025C00003F1140307F5245101F118010A68C3F857
:1025D000D02007F5E15303F1140307F5245C0CF157
:1025E000180CDCF80020C3F8D42007F5E15303F100
:1025F000140307F5245000F118000268C3F8D8202E
:1026000007F5E15303F1140307F5245101F1180113
:102610000A68C3F8DC2007F5E15303F1140307F55A
:10262000245C0CF1180CDCF80020C3F8E02007F55E
:10263000E15303F1140307F5245000F11800026878
:10264000C3F8E42007F5E15303F1140307F524511F
:1026500001F118010A68C3F8E82007F5E15303F116
:10266000140307F5245C0CF1180CDCF80020C3F807
:10267000F42007F5E15303F1140307F5245000F1AA
:1026800018000268C3F8102107F5E15303F11403A1
:1026900007F5245101F118010A68C3F81C2107F558
:1026A000E15303F1140307F5245C0CF1180CDCF87A
:1026B0000020C3F8382107F5E15303F1140307F5AF
:1026C000245000F118000268C3F8442107F5E153D3
:1026D00003F1140307F5245101F118010A68C3F846
:1026E000602107F5D55303F104031A464FF4C8736C
:1026F000104600211A4605F015FD07F5D55303F1E4
:10270000040307F5245C0CF1180CDCF80020DA62F5
:1027100007F5D55303F1040307F5245000F1180021
:1027200002681A6307F5D55303F1040307F5245132
:1027300001F118010A685A6307F5D55303F1040340
:1027400007F5245C0CF1180CDCF800209A6307F5FF
:10275000D55303F1040307F5245000F11800026873
:10276000DA6307F5D55303F1040307F5245101F1AA
:1027700018010A681A6407F5D55303F1040307F535
:10278000245C0CF1180CDCF800205A6407F5D553D2
:1027900003F1040307F5245000F1180002681A66DB
:1027A00007F5D55303F1040307F5245101F118018E
:1027B0000A68C3F8882007F5D55303F1040307F529
:1027C000245C0CF1180CDCF80020C3F8B02007F5ED
:1027D000D55303F1040307F5245000F118000268F3
:1027E000C3F8D82007F5D55303F1040307F52451A6
:1027F00001F118010A68C3F8002107F5D55303F168
:10280000040307F5245C0CF1180CDCF80020C3F875
:10281000282107F5D55303F1040307F5245000F1EF
:1028200018000268C3F8442107F5D55303F10403E7
:1028300007F5245101F118010A68C3F8482107F58A
:10284000D55303F1040307F5245C0CF1180CDCF8F4
:102850000020C3F84C2107F5D55303F1040307F515
:10286000245000F118000268C3F8502107F5D55331
:1028700003F1040307F5245101F118010A68C3F8B4
:10288000542107F5D55303F1040307F5245C0CF13B
:10289000180CDCF80020C3F8582107F5D55303F1D4
:1028A000040307F5245000F118000268C3F85C2106
:1028B00007F5C85303F114031A464FF4C8731046C2
:1028C00000211A4605F02EFC07F5C85303F1140346
:1028D00007F5245101F118010A689A6307F5C853F6
:1028E00003F1140307F5245C0CF1180CDCF800204C
:1028F000DA6307F5C85303F1140307F5245000F118
:10290000180002681A6407F5C85303F1140307F5A9
:10291000245101F118010A685A6407F5C85303F1FC
:10292000140307F5245C0CF1180CDCF800209A6401
:1029300007F5C85303F1140307F5245000F11800FC
:1029400002681A6707F5C85303F1140307F5245109
:1029500001F118010A68C3F8982007F5C85303F17C
:10296000140307F5245C0CF1180CDCF80020C3F804
:10297000C02007F5C85303F1140307F5245000F1F4
:1029800018000268C3F8E82007F5C85303F11403E0
:1029900007F5245101F118010A68C3F8F82007F57A
:1029A000C85303F1140307F5245C0CF1180CDCF890
:1029B0000020C3F8102107F5C85303F1140307F5ED
:1029C000245000F118000268C3F8242107F5C85309
:1029D00003F1140307F5245101F118010A68C3F843
:1029E000342107F5C85303F1140307F5245C0CF1F7
:1029F000180CDCF80020C3F8502107F5C85303F188
:102A0000140307F5245000F118000268C3F854219C
:102A100007F5C85303F1140307F5245101F1180118
:102A20000A68C3F8582107F5BC5303F10803043BB7
:102A30001A464FF4C873104600211A4605F072FB7F
:102A400007F5BC5303F10803043B07F5245C0CF1C4
:102A5000180CDCF800201A6307F5BC5303F10803D7
:102A6000043B07F5245000F1180002685A6407F58A
:102A7000BC5303F10803043B07F5245101F118018D
:102A80000A689A6507F5BC5303F10803043B07F590
:102A9000245C0CF1180CDCF800209A6607F5BC5396
:102AA00003F10803043B07F5245000F11800026805
:102AB000C3F8802007F5BC5303F10803043B07F576
:102AC000245101F118010A68C3F88C2007F5BC53A2
:102AD00003F10803043B07F5245C0CF1180CDCF847
:102AE0000020C3F8A82007F5BC5303F10803043BFA
:102AF00007F5245000F118000268C3F8AC2007F570
:102B0000BC5303F10803043B07F5245101F11801FC
:102B10000A68C3F8B02007F5BC5303F10803043B6F
:102B200007F5245C0CF1180CDCF80020C3F8D02069
:102B300007F5BC5303F10803043B07F5245000F1EB
:102B400018000268C3F8D42007F5BC5303F108034A
:102B5000043B07F5245101F118010A68C3F8F82075
:102B600007F5BC5303F10803043B07F5245C0CF1A3
:102B7000180CDCF80020C3F8002107F5BC5303F162
:102B80000803043B07F5245000F118000268C3F85D
:102B9000042107F5BC5303F10803043B07F5245156
:102BA00001F118010A68C3F8202107F5BC5303F1AD
:102BB0000803043B07F5245C0CF1180CDCF800203A
:102BC000C3F8302107F5BC5303F10803043B07F5B4
:102BD000245000F118000268C3F8482107F5BC53DF
:102BE00003F10803043B07F5245101F118010A68B9
:102BF000C3F85C2107F5B05303F10803143B1A46F0
:102C00004FF4C873104600211A4605F08BFA07F5F9
:102C1000B05303F10803143B07F5245C0CF1180CC6
:102C2000DCF800201A6307F5B05303F10803143BE6
:102C300007F5245000F1180002689A6507F5B053B3
:102C400003F10803143B07F5245101F118010A6848
:102C5000C3F8802007F5B05303F10803143B07F5D0
:102C6000245C0CF1180CDCF80020C3F8A82007F550
:102C7000B05303F10803143B07F5245000F118008A
:102C80000268C3F8D02007F5B05303F10803143BE2
:102C900007F5245101F118010A68C3F8F82007F577
:102CA000B05303F10803143B07F5245C0CF1180C36
:102CB000DCF80020C3F8202107F5B05303F1080326
:102CC000143B07F5245000F118000268C3F84821AE
:102CD00007F5B05303F10803143B07F5245101F144
:102CE00018010A68C3F84C2107F5B05303F1080333
:102CF000143B07F5245C0CF1180CDCF80020C3F839
:102D0000502107F5B05303F10803143B07F5245095
:102D100000F118000268C3F8542107F5B05303F11D
:102D20000803143B07F5245101F118010A68C3F8A0
:102D3000582107F5B05303F10803143B07F5245C51
:102D40000CF1180CDCF80020C3F85C2107F5A35344
:102D500003F10803043B1A464FF4C87310460021E0
:102D60001A4605F0DFF907F5A35303F10803043B06
:102D700007F5245000F118000268DA6207F5A35342
:102D800003F10803043B07F5245101F118010A6817
:102D90001A6307F5A35303F10803043B07F5245C0A
:102DA0000CF1180CDCF800205A6407F5A35303F16A
:102DB0000803043B07F5245000F1180002689A64E8
:102DC00007F5A35303F10803043B07F5245101F170
:102DD00018010A685A6507F5A35303F10803043B79
:102DE00007F5245C0CF1180CDCF80020DA6507F517
:102DF000A35303F10803043B07F5245000F1180026
:102E000002689A6607F5A35303F10803043B07F52C
:102E1000245101F118010A681A6707F5A35303F159
:102E20000803043B07F5245C0CF1180CDCF80020C7
:102E3000DA6707F5A35303F10803043B07F52450B1
:102E400000F118000268C3F8842007F5A35303F1CA
:102E50000803043B07F5245101F118010A68C3F87F
:102E6000902007F5A35303F10803043B07F5245C06
:102E70000CF1180CDCF80020C3F8982007F5A353D8
:102E800003F10803043B07F5245000F11800026821
:102E9000C3F8A42007F5A35303F10803043B07F587
:102EA000245101F118010A68C3F8B02007F5A353B3
:102EB00003F10803043B07F5245C0CF1180CDCF863
:102EC0000020C3F8B42007F5A35303F10803043B23
:102ED00007F5245000F118000268C3F8C02007F578
:102EE000A35303F10803043B07F5245101F1180132
:102EF0000A68C3F8CC2007F5A35303F10803043B89
:102F000007F5245C0CF1180CDCF80020C3F8E8206D
:102F100007F5A35303F10803043B07F5245000F120
:102F200018000268C3F8F42007F5A35303F108035F
:102F3000043B07F5245101F118010A68C3F8102178
:102F400007F5A35303F10803043B07F5245C0CF1D8
:102F5000180CDCF80020C3F81C2107F5A35303F17B
:102F60000803043B07F5245000F118000268C3F879
:102F7000382107F5A35303F10803043B07F5245157
:102F800001F118010A68C3F8442107F5A35303F1BE
:102F90000803043B07F5245C0CF1180CDCF8002056
:102FA000C3F8602107F5975303F10803143B1A4651
:102FB0004FF4C873104600211A4605F0B3F807F520
:102FC000975303F10803143B07F5245000F1180050
:102FD0000268DA6207F5975303F10803143B07F51B
:102FE000245101F118010A689A6407F5975303F117
:102FF0000803143B07F5245C0CF1180CDCF80020E6
:103000005A6507F5975303F10803143B07F524505D
:1030100000F1180002689A6507F5975303F1080359
:10302000143B07F5245101F118010A681A6707F5E6
:10303000975303F10803143B07F5245C0CF1180CBB
:10304000DCF80020DA6707F5975303F10803143B17
:1030500007F5245000F118000268C3F8842007F532
:10306000975303F10803143B07F5245101F11801AC
:103070000A68C3F8982007F5975303F10803143B37
:1030800007F5245C0CF1180CDCF80020C3F8A42030
:1030900007F5975303F10803143B07F5245000F19B
:1030A00018000268C3F8B02007F5975303F108032E
:1030B000143B07F5245101F118010A68C3F8C02038
:1030C00007F5975303F10803143B07F5245C0CF153
:1030D000180CDCF80020C3F8CC2007F5975303F157
:1030E0000803143B07F5245000F118000268C3F8E8
:1030F000DC2007F5975303F10803143B07F524512F
:1031000001F118010A68C3F8E82007F5975303F1A5
:103110000803143B07F5245C0CF1180CDCF80020C4
:10312000C3F8F42007F5975303F10803143B07F5A0
:10313000245000F118000268C3F8082107F59753DE
:1031400003F10803143B07F5245101F118010A6843
:10315000C3F8102107F5975303F10803143B07F553
:10316000245C0CF1180CDCF80020C3F81C2107F5D6
:10317000975303F10803143B07F5245000F118009E
:103180000268C3F8342107F5975303F10803143B91
:1031900007F5245101F118010A68C3F8382107F531
:1031A000975303F10803143B07F5245C0CF1180C4A
:1031B000DCF80020C3F8442107F5975303F1080316
:1031C000143B07F5245000F118000268C3F8602191
:1031D00007F58A5303F10803043B1A464FF4C873FA
:1031E000104600211A4604F09DFF07F58A5303F1AB
:1031F0000803043B07F5245101F118010A685A63DA
:1032000007F58A5303F10803043B07F5245C0CF12E
:10321000180CDCF800209A6307F58A5303F10803C1
:10322000043B07F5245000F118000268DA6307F543
:103230008A5303F10803043B07F5245101F11801F7
:103240000A681A6407F58A5303F10803043B07F57B
:10325000245C0CF1180CDCF800209A6507F58A5301
:1032600003F10803043B07F5245000F1180002683D
:10327000DA6607F58A5303F10803043B07F5245186
:1032800001F118010A68DA6707F58A5303F10803A8
:10329000043B07F5245C0CF1180CDCF80020C3F8A3
:1032A000982007F58A5303F10803043B07F52450DF
:1032B00000F118000268C3F8A42007F58A5303F14F
:1032C0000803043B07F5245101F118010A68C3F80B
:1032D000C02007F58A5303F10803043B07F5245C7B
:1032E0000CF1180CDCF80020C3F8CC2007F58A5349
:1032F00003F10803043B07F5245000F118000268AD
:10330000C3F8E82007F58A5303F10803043B07F5E7
:10331000245101F118010A68C3F8F42007F58A5313
:1033200003F10803043B07F5245C0CF1180CDCF8EE
:103330000020C3F8102107F58A5303F10803043B6A
:1033400007F5245000F118000268C3F8202107F5A2
:103350008A5303F10803043B07F5245101F11801D6
:103360000A68C3F8342107F58A5303F10803043BC4
:1033700007F5245C0CF1180CDCF80020C3F84C2194
:1033800007F58A5303F10803043B07F5245000F1C5
:1033900018000268C3F8502107F58A5303F10803A7
:1033A000043B07F5245101F118010A68C3F85421C0
:1033B00007F58A5303F10803043B07F5245C0CF17D
:1033C000180CDCF80020C3F8582107F6C873143B2A
:1033D0001A464FF4C873104600211A4604F0A2FEA4
:1033E00007F6C873143B07F5245000F11800026873
:1033F0001A6307F6C873143B07F5245101F118014D
:103400000A685A6307F6C873143B07F5245C0CF18D
:10341000180CDCF800209A6307F6C873143B07F514
:10342000245000F118000268DA6307F6C873143BF1
:1034300007F5245101F118010A681A6407F6C873E8
:10344000143B07F5245C0CF1180CDCF800209A659D
:1034500007F6C873143B07F5245000F11800026802
:10346000DA6607F6C873143B07F5245101F1180119
:103470000A68C3F8802007F6C873143B07F5245C7C
:103480000CF1180CDCF80020C3F8942007F6C87380
:10349000143B07F5245000F118000268C3F8A82077
:1034A00007F6C873143B07F5245101F118010A68A7
:1034B000C3F8AC2007F6C873143B07F5245C0CF185
:1034C000180CDCF80020C3F8B02007F6C873143BD2
:1034D00007F5245000F118000268C3F8B42007F67D
:1034E000C873143B07F5245101F118010A68C3F8A9
:1034F000B82007F6C873143B07F5245C0CF1180CD0
:10350000DCF80020C3F8D02007F6C873143B07F599
:10351000245000F118000268C3F8F82007F6C873B9
:10352000143B07F5245101F118010A68C3F8202162
:1035300007F6C873143B07F5245C0CF1180CDCF893
:103540000020C3F8482107F62863043B1A464FF4CD
:10355000C873104600211A4604F0E4FD07F62863FC
:10356000043B07F5245000F1180002685A6307F67F
:103570002863043B07F5245101F118010A689A6396
:1035800007F62863043B07F5245C0CF1180CDCF803
:103590000020DA6307F62863043B07F5245000F1A6
:1035A000180002681A6407F62863043B07F52451E3
:1035B00001F118010A689A6507F62863043B07F5CC
:1035C000245C0CF1180CDCF80020DA6607F628639E
:1035D000043B07F5245000F118000268DA6707F68B
:1035E0002863043B07F5245101F118010A68C3F868
:1035F000982007F62863043B07F5245C0CF1180CAF
:10360000DCF80020C3F8A42007F62863043B07F584
:10361000245000F118000268C3F8C02007F62863A0
:10362000043B07F5245101F118010A68C3F8CC20C6
:1036300007F62863043B07F5245C0CF1180CDCF852
:103640000020C3F8E82007F62863043B07F5245060
:1036500000F118000268C3F8F42007F62863043B61
:1036600007F5245101F118010A68C3F8082107F68B
:103670002863043B07F5245C0CF1180CDCF80020EF
:10368000C3F8102107F62863043B07F5245000F126
:1036900018000268C3F8202107F62863043B07F5E9
:1036A000245101F118010A68C3F8342107F6286390
:1036B000043B07F5245C0CF1180CDCF80020C3F87F
:1036C0004C2107F62863043B07F5245000F118004D
:1036D0000268C3F8502107F62863043B07F524511C
:1036E00001F118010A68C3F8542107F62863043B66
:1036F00007F5245C0CF1180CDCF80020C3F8582105
:1037000007F62863043B07F5245000F1180002680F
:10371000C3F8602107F6A843143B00221A6007F69D
:10372000A843143B00225A6007F6A843143B00222A
:103730009A6007F6A843143B0022DA6007F6A84314
:10374000143B00221A6107F6A843143B00225A6179
:1037500007F6A843143B00229A6107F6A843143BDE
:103760000022DA6107F6A843143B00221A6207F62A
:10377000A843143B00225A6207F6A843143B0022D8
:103780009A6207F6A843143B07F5245101F118018A
:103790000A68DA6207F6A843143B07F5245C0CF1CB
:1037A000180CDCF800201A6307F6A843143B07F551
:1037B000245000F1180002685A6307F6A843143B2E
:1037C00007F5245101F118010A689A6307F6A84326
:1037D000143B07F5245C0CF1180CDCF80020DA63CC
:1037E00007F6A843143B07F5245000F118000268BF
:1037F0001A6407F6A843143B00225A6407F6A8434C
:10380000143B00229A6407F6A843143B0022DA64B2
:1038100007F6A843143B00221A6507F6A843143B99
:1038200007F5245101F118010A685A6507F6A84303
:10383000143B00229A6507F6A843143B0022DA6580
:1038400007F6A843143B00221A6607F6A843143B68
:1038500000225A6607F6A843143B00229A6607F630
:10386000A843143B07F5245C0CF1180CDCF800208D
:10387000DA6607F6A843143B00221A6707F6A84346
:10388000143B00225A6707F6A843143B00229A67AC
:1038900007F6A843143B07F5245000F1180002680E
:1038A000DA6707F6A843143B0022C3F8802007F626
:1038B000A843143B0022C3F8842007F6A843143B16
:1038C0000022C3F8882007F6A843143B0022C3F85F
:1038D0008C2007F6A843143B0022C3F8902007F67B
:1038E000A843143B07F5245101F118010A68C3F8F5
:1038F000942007F6A843143B0022C3F8982007F64B
:10390000A843143B0022C3F89C2007F6A843143BAD
:103910000022C3F8A02007F6A843143B07F5245C57
:103920000CF1180CDCF80020C3F8A42007F6A8431B
:10393000143B07F5245000F118000268C3F8A820D2
:1039400007F6A843143B07F5245101F118010A6852
:10395000C3F8AC2007F6A843143B07F5245C0CF130
:10396000180CDCF80020C3F8B02007F6A843143B7D
:1039700007F5245000F118000268C3F8B42007F6D8
:10398000A843143B07F5245101F118010A68C3F854
:10399000B82007F6A843143B0022C3F8BC2007F662
:1039A000A843143B0022C3F8C02007F6A843143BE9
:1039B0000022C3F8C42007F6A843143B0022C3F832
:1039C000C82007F6A843143B07F5245C0CF1180C3B
:1039D000DCF80020C3F8CC2007F6A843143B07F519
:1039E000245000F118000268C3F8D02007F6A8435D
:1039F000143B07F5245101F118010A68C3F8D420DB
:103A000007F6A843143B0022C3F8D82007F6A843C2
:103A1000143B0022C3F8DC2007F6A843143B002225
:103A2000C3F8E02007F6A843143B0022C3F8E420C3
:103A300007F6A843143B0022C3F8E82007F6A84382
:103A4000143B0022C3F8EC2007F6A843143B0022E5
:103A5000C3F8F02007F6A843143B07F5245C0CF1EB
:103A6000180CDCF80020C3F8F42007F6A843143B38
:103A70000022C3F8F82007F6A843143B07F52450AA
:103A800000F118000268C3F8FC2007F6A843143BB5
:103A900007F5245101F118010A68C3F8002107F65F
:103AA000A843143B07F5245C0CF1180CDCF800204B
:103AB000C3F8042107F6A843143B0022C3F80821E9
:103AC00007F6A843143B0022C3F80C2107F6A843CD
:103AD000143B0022C3F8102107F6A843143B002230
:103AE000C3F8142107F6A843143B0022C3F8182199
:103AF00007F6A843143B07F5245000F118000268AC
:103B0000C3F81C2107F6A843143B0022C3F8202168
:103B100007F6A843143B0022C3F8242107F6A84364
:103B2000143B0022C3F8282107F6A843143B07F5ED
:103B3000245101F118010A68C3F82C2107F6A843A3
:103B4000143B07F5245C0CF1180CDCF80020C3F8DA
:103B5000302107F6A843143B0022C3F8342107F6AE
:103B6000A843143B0022C3F8382107F6A843143BAE
:103B70000022C3F83C2107F6A843143B0022C3F8F7
:103B8000402107F6A843143B07F5245000F1180024
:103B90000268C3F8442107F6A843143B0022C3F887
:103BA000482107F6A843143B0022C3F84C2107F62E
:103BB000A843143B0022C3F8502107F6A843143B46
:103BC0000022C3F8542107F6A843143B07F52451FB
:103BD00001F118010A68C3F8582107F6A843143BFD
:103BE00007F5245C0CF1180CDCF80020C3F85C210C
:103BF00007F6A843143B0022C3F8602107F6A84348
:103C0000143B0022C3F8642107F6A843143B0022AA
:103C1000C3F8682107F6A843143B0022C3F86C21BF
:103C200007F6A843143B0022C3F8702107F6A84307
:103C3000143B0022C3F8742107F6A843143B00226A
:103C4000C3F8782107F6A843143B0022C3F87C216F
:103C500007F6A843143B0022C3F8802107F6A843C7
:103C6000143B0022C3F8842107F6A843143B00222A
:103C7000C3F8882107F6A843143B0022C3F88C211F
:103C800007F60833043B1A464FF4C8731046002168
:103C90001A4604F047FA07F60833043B07F52450A8
:103CA00000F118000268DA6507F60833043B07F5EF
:103CB000245101F118010A681A6607F60833043B1B
:103CC00007F5245C0CF1180CDCF800205A6607F6A6
:103CD0000833043B07F5245000F1180002689A6687
:103CE00007F60833043B07F5245101F118010A686F
:103CF000DA6607F60833043B07F5245C0CF1180C70
:103D0000DCF80020C3F8802007F60833043B07F5F1
:103D1000245000F118000268C3F8A82007F6083301
:103D2000043B07F5245101F118010A68C3F8D420B7
:103D300007F60833043B07F5245C0CF1180CDCF89B
:103D40000020C3F8D82007F60833043B07F52450B9
:103D500000F118000268C3F8DC2007F60833043BC2
:103D600007F5245101F118010A68C3F8E02007F6AD
:103D70000833043B07F5245C0CF1180CDCF8002038
:103D8000C3F80C2107F60833043B07F5245000F173
:103D900018000268C3F8342107F60833043B07F51E
:103DA000245101F118010A68C3F8482107F60833C5
:103DB000043B07F5245C0CF1180CDCF80020C3F878
:103DC0004C2107F60833043B07F5245000F1180096
:103DD0000268C3F8502107F60833043B07F5245165
:103DE00001F118010A68C3F8542107F60833043BAF
:103DF00007F5245C0CF1180CDCF80020C3F85821FE
:103E000007F68813143B1A464FF4C8731046002176
:103E10001A4604F087F907F68813143B07F5245077
:103E200000F118000268DA6207F68813143B07F500
:103E3000245101F118010A681A6307F68813143B2C
:103E400007F5245C0CF1180CDCF800205A6307F627
:103E50008813143B07F5245000F1180002689A6398
:103E600007F68813143B07F5245101F118010A687D
:103E7000DA6307F68813143B07F5245C0CF1180C81
:103E8000DCF800201A6407F68813143B07F5245069
:103E900000F1180002685A6407F68813143B07F50E
:103EA000245101F118010A681A6607F68813143BB9
:103EB00007F5245C0CF1180CDCF80020C3F888200E
:103EC00007F68813143B07F5245000F11800026828
:103ED000C3F8B02007F68813143B07F5245101F10D
:103EE00018010A68C3F8D82007F68813143B07F5B1
:103EF000245C0CF1180CDCF80020C3F8002107F654
:103F00008813143B07F5245000F118000268C3F829
:103F1000282107F68813143B07F5245101F11801F5
:103F20000A68C3F8502107F60803243B1A464FF4E9
:103F3000C873104600211A4604F0F4F807F6080387
:103F4000243B07F5245C0CF1180CDCF80020DA6245
:103F500007F60803243B07F5245000F11800026817
:103F60005A6407F60803243B07F5245101F11801B0
:103F70000A685A6507F60803243B07F5245C0CF130
:103F8000180CDCF80020DA6607F60803243B07F576
:103F9000245000F118000268DA6707F60803243B92
:103FA00007F5245101F118010A68C3F8942007F6B7
:103FB0000803243B07F5245C0CF1180CDCF8002006
:103FC000C3F8A42007F60803243B07F5245000F1AA
:103FD00018000268C3F8BC2007F60803243B07F565
:103FE000245101F118010A68C3F8CC2007F6080330
:103FF000243B07F5245C0CF1180CDCF80020C3F816
:10400000E42007F60803243B07F5245000F11800CC
:104010000268C3F8F42007F60803243B07F524518F
:1040200001F118010A68C3F80C2107F60803243BC4
:1040300007F5245C0CF1180CDCF80020C3F82021F3
:1040400007F60803243B07F5245000F11800026826
:10405000C3F8302107F60803243B07F5245101F18A
:1040600018010A68C3F84C2107F60803243B07F53A
:10407000245C0CF1180CDCF80020C3F8502107F682
:104080000803243B07F5245000F118000268C3F828
:10409000542107F5D163343B1A464FF4C8731046D8
:1040A00000211A4604F03EF807F5D163343B07F5CA
:1040B000245101F118010A68DA6207F5D163343B33
:1040C00007F5245C0CF1180CDCF800209A6407F565
:1040D000D163343B07F5245000F1180002685A659B
:1040E00007F5D163343B07F5245101F118010A6843
:1040F0001A6707F5D163343B07F5245C0CF1180C03
:10410000DCF80020DA6707F5D163343B07F524506B
:1041100000F118000268C3F8982007F5D163343B1A
:1041200007F5245101F118010A68C3F8A82007F522
:10413000D163343B07F5245C0CF1180CDCF800204B
:10414000C3F8BC2007F5D163343B07F5245000F1D8
:1041500018000268C3F8D02007F5D163343B07F597
:10416000245101F118010A68C3F8E42007F5D1636E
:10417000343B07F5245C0CF1180CDCF80020C3F884
:10418000FC2007F5D163343B07F5245000F11800FB
:104190000268C3F8082107F5D163343B07F52451C1
:1041A00001F118010A68C3F8242107F5D163343BF3
:1041B00007F5245C0CF1180CDCF80020C3F8302162
:1041C00007F5D163343B07F5245000F1180002686D
:1041D000C3F8502107F5D163343B07F5245101F1B1
:1041E00018010A68C3F8542107F59963043B0022BB
:1041F0001A6007F59963043B00225A6007F599633A
:10420000043B00229A6007F59963043B0022DA60C0
:1042100007F59963043B00221A6107F59963043B93
:1042200000225A6107F59963043B00229A6107F561
:104230009963043B0022DA6107F59963043B00228D
:104240001A6207F59963043B00225A6207F59963E5
:10425000043B00229A6207F59963043B07F5245C4E
:104260000CF1180CDCF80020DA6207F59963043BC6
:1042700000221A6307F59963043B00225A6307F58D
:104280009963043B07F5245000F1180002689A6313
:1042900007F59963043B0022DA6307F59963043B51
:1042A00000221A6407F59963043B07F5245101F1D4
:1042B00018010A685A6407F59963043B00229A645E
:1042C00007F59963043B0022DA6407F59963043B20
:1042D00000221A6507F59963043B07F5245C0CF18D
:1042E000180CDCF800205A6507F59963043B00229E
:1042F0009A6507F59963043B0022DA6507F599632F
:10430000043B07F5245000F1180002681A6607F50F
:104310009963043B00225A6607F59963043B002227
:104320009A6607F59963043B07F5245101F11801DA
:104330000A68DA6607F59963043B00221A6707F5F5
:104340009963043B00225A6707F59963043B0022F6
:104350009A6707F59963043B07F5245C0CF1180C88
:10436000DCF80020DA6707F59963043B0022C3F804
:10437000802007F59963043B0022C3F8842007F5E9
:104380009963043B07F5245000F118000268C3F854
:10439000882007F59963043B0022C3F88C2007F5B9
:1043A0009963043B0022C3F8902007F59963043B0E
:1043B00007F5245101F118010A68C3F8942007F5A4
:1043C0009963043B0022C3F8982007F59963043BE6
:1043D0000022C3F89C2007F59963043B0022C3F830
:1043E000A02007F59963043B07F5245C0CF1180C39
:1043F000DCF80020C3F8A42007F59963043B0022F1
:10440000C3F8A82007F59963043B07F5245000F191
:1044100018000268C3F8AC2007F59963043B00223A
:10442000C3F8B02007F59963043B07F5245101F167
:1044300018010A68C3F8B42007F59963043B002209
:10444000C3F8B82007F59963043B07F5245C0CF129
:10445000180CDCF80020C3F8BC2007F59963043B76
:104460000022C3F8C02007F59963043B0022C3F87B
:10447000C42007F59963043B0022C3F8C82007F560
:104480009963043B07F5245000F118000268C3F853
:10449000CC2007F59963043B0022C3F8D02007F530
:1044A0009963043B07F5245101F118010A68C3F828
:1044B000D42007F59963043B0022C3F8D82007F500
:1044C0009963043B07F5245C0CF1180CDCF8002020
:1044D000C3F8DC2007F59963043B0022C3F8E02011
:1044E00007F59963043B07F5245000F118000268B2
:1044F000C3F8E42007F59963043B0022C3F8E820E1
:1045000007F59963043B0022C3F8EC2007F5996393
:10451000043B0022C3F8F02007F59963043B07F53C
:10452000245101F118010A68C3F8F42007F59963D2
:10453000043B0022C3F8F82007F59963043B07F514
:10454000245C0CF1180CDCF80020C3F8FC2007F503
:104550009963043B0022C3F8002107F59963043BEB
:1045600007F5245000F118000268C3F8042107F58C
:104570009963043B0022C3F8082107F59963043BC3
:1045800007F5245101F118010A68C3F80C2107F559
:104590009963043B0022C3F8102107F59963043B9B
:1045A0000022C3F8142107F59963043B0022C3F8E5
:1045B000182107F59963043B07F5245C0CF1180CEE
:1045C000DCF80020C3F81C2107F59963043B0022A6
:1045D000C3F8202107F59963043B07F5245000F147
:1045E00018000268C3F8242107F59963043B0022F0
:1045F000C3F8282107F59963043B07F5245101F11D
:1046000018010A68C3F82C2107F59963043B0022BE
:10461000C3F8302107F59963043B07F5245C0CF1DE
:10462000180CDCF80020C3F8342107F59963043B2B
:104630000022C3F8382107F59963043B0022C3F830
:104640003C2107F59963043B0022C3F8402107F59C
:104650009963043B0022C3F8442107F59963043BA6
:1046600007F5245000F118000268C3F8482107F547
:104670009963043B0022C3F84C2107F59963043B7E
:104680000022C3F8502107F59963043B0022C3F8C8
:10469000542107F59963043B07F5245101F11801F2
:1046A0000A68C3F8582107F59963043B0022C3F850
:1046B0005C2107F59963043B0022C3F8602107F5EC
:1046C0009963043B0022C3F8642107F59963043B16
:1046D0000022C3F8682107F59963043B0022C3F860
:1046E0006C2107F59963043B0022C3F8702107F59C
:1046F0009963043B0022C3F8742107F59963043BD6
:104700000022C3F8782107F59963043B0022C3F81F
:104710007C2107F59963043B0022C3F8802107F54B
:104720009963043B0022C3F8842107F59963043B95
:104730000022C3F8882107F59963043B0022C3F8DF
:104740008C2107F55273143B1A464FF4C873104678
:1047500000211A4603F0E6FC07F55273143B07F5F7
:10476000245C0CF1180CDCF80020DA6207F55273B7
:10477000143B07F5245000F1180002689A6407F50D
:104780005273143B07F5245101F118010A689A6528
:1047900007F55273143B07F5245C0CF1180CDCF898
:1047A0000020DA6607F55273143B07F5245000F138
:1047B00018000268C3F8842007F55273143B07F50C
:1047C000245101F118010A68C3F8902007F55273CB
:1047D000143B07F5245C0CF1180CDCF80020C3F83E
:1047E000B02007F55273143B07F5245000F1180070
:1047F0000268C3F8B42007F55273143B07F524513F
:1048000001F118010A68C3F8D82007F55273143B68
:1048100007F5245C0CF1180CDCF80020C3F8DC2050
:1048200007F55273143B07F5245000F11800026895
:10483000C3F8FC2007F55273143B07F5245101F12E
:1048400018010A68C3F8082107F55273143B07F5ED
:10485000245C0CF1180CDCF80020C3F8202107F5CB
:104860005273143B07F5245000F118000268C3F896
:10487000342107F55273143B07F5245101F1180157
:104880000A68C3F8442107F55273143B07F5245C0A
:104890000CF1180CDCF80020C3F8602107F5E47374
:1048A000243B1A464FF4C873104600211A4603F001
:1048B00039FC07F5E473243B07F5245000F1180098
:1048C0000268DA6207F5E473243B07F5245101F12D
:1048D00018010A689A6407F5E473243B07F5245C21
:1048E0000CF1180CDCF800209A6507F5E473243B02
:1048F00007F5245000F118000268DA6607F5E47342
:10490000243B07F5245101F118010A68C3F88420FB
:1049100007F5E473243B07F5245C0CF1180CDCF874
:104920000020C3F8902007F5E473243B07F52450DA
:1049300000F118000268C3F8B02007F5E473243BC7
:1049400007F5245101F118010A68C3F8B42007F5EE
:10495000E473243B07F5245C0CF1180CDCF8002010
:10496000C3F8D82007F5E473243B07F5245000F181
:1049700018000268C3F8DC2007F5E473243B07F550
:10498000245101F118010A68C3F8002107F5E47306
:10499000243B07F5245C0CF1180CDCF80020C3F86C
:1049A000042107F5E473243B07F5245000F11800B7
:1049B0000268C3F8282107F5E473243B07F5245166
:1049C00001F118010A68C3F82C2107F5E473243BB0
:1049D00007F5245C0CF1180CDCF80020C3F850211A
:1049E00007F5E473243B07F5245000F11800026832
:1049F000C3F8542107F14803343B1A464FF4C873F7
:104A0000104600211A4603F08DFB07F14803343BA2
:104A100007F5245101F118010A68DA6207F1480329
:104A2000343B07F5245C0CF1180CDCF800201A6309
:104A300007F14803343B07F5245000F118000268E1
:104A40005A6307F14803343B07F5245101F118017B
:104A50000A689A6307F14803343B07F5245C0CF1BC
:104A6000180CDCF80020DA6307F14803343B07F543
:104A7000245000F1180002681A6407F14803343B1F
:104A800007F5245101F118010A685A6407F1480337
:104A9000343B07F5245C0CF1180CDCF800209A6418
:104AA00007F14803343B07F5245000F11800026871
:104AB000DA6607F14803343B07F5245101F1180188
:104AC0000A68C3F8902007F14803343B07F5245CDB
:104AD0000CF1180CDCF80020C3F8B42007F14803EF
:104AE000343B07F5245000F118000268C3F8D820C1
:104AF00007F14803343B07F5245101F118010A6816
:104B0000C3F8FC2007F14803343B07F5245C0CF1A3
:104B1000180CDCF80020C3F8202107F14803343BCF
:104B200007F5245000F118000268C3F8442107F18A
:104B30004803343B07F5245101F118010A68C3F812
:104B4000482107F14803343B07F5245C0CF1180CAD
:104B5000DCF80020C3F84C2107F14803343B07F58B
:104B6000245000F118000268C3F8502107F14803EF
:104B7000343B07F5245101F118010A68C3F85421A8
:104B800007F14803343B07F5245C0CF1180CDCF802
:104B90000020C3F8582107F14803343B07F524509F
:104BA00000F118000268C3F85C2107F14803343BA8
:104BB00007F5245101F118010A68C3F860210023A8
:104BC00007F5235202F12B021370002307F5235C33
:104BD0000CF1240CCCF8003007F5225303F1340318
:104BE000184603F055FC034607F5235000F1240056
:104BF0000360002307F5235101F130010B6000F041
:104C0000A0BE07F5245202F104021368B3F59B7F9E
:104C100011DD07F5235C0CF12C0CDCF8003007F5F6
:104C2000245000F10400036007F524510B680A3397
:104C300007F52452136007F5225202F1340207F5FA
:104C4000235C0CF1300CDCF8003013441B7807F5C2
:104C5000235000F12B000370002307F5235101F1CD
:104C600034010B6000F04EBE002307F5235202F121
:104C70003802136000F032BE07F5235C0CF12B0CF8
:104C80009CF80030613B192B00F2FB8501A050F825
:104C900023F000BFFD4C0008714D0008E34D0008F3
:104CA000554E0008C74E0008394F0008AB4F0008AA
:104CB0001D5000088F500008FF5000086F51000879
:104CC000E351000857520008CB5200083F53000838
:104CD000B3530008235400089354000803550008F8
:104CE00073550008E355000853560008C3560008E2
:104CF00033570008A35700081358000807F523513D
:104D000001F138010B689AB207F5245C0CF1040C30
:104D1000DCF800309BB2134498B207F5235101F13F
:104D200034010B689AB207F5245CDCF800309BB2C2
:104D300013449BB20A3399B207F51C5404F12404BE
:104D400007F5235303F134031A6813469B001344F9
:104D50005B0007F5235C0CF1380CDCF800201344F1
:104D600054F82330DBB21A4601F0D4FB00F0ABBD9F
:104D700007F5235000F1380003689AB207F5245173
:104D800001F104010B689BB2134498B207F523525A
:104D900002F1340213689AB207F5245CDCF80030A3
:104DA0009BB213449BB20A3399B207F5165404F12F
:104DB000140407F5235303F134031A6813469B00C8
:104DC00013445B0007F5235C0CF1380CDCF8002081
:104DD000134454F82330DBB21A4601F09BFB00F079
:104DE00072BD07F5235000F1380003689AB207F549
:104DF000245101F104010B689BB2134498B207F5EA
:104E0000235202F1340213689AB207F5245CDCF8ED
:104E100000309BB213449BB20A3399B207F5105489
:104E200004F1040407F5235303F134031A6813460D
:104E30009B0013445B0007F5235C0CF1380CDCF895
:104E40000020134454F82330DBB21A4601F062FB11
:104E500000F039BD07F5235000F1380003689AB21D
:104E600007F5245101F104010B689BB2134498B279
:104E700007F5235202F1340213689AB207F5245C55
:104E8000DCF800309BB213449BB20A3399B207F5A9
:104E9000095404F1340407F5235303F134031A6869
:104EA00013469B0013445B0007F5235C0CF1380CA0
:104EB000DCF80020134454F82330DBB21A4601F02A
:104EC00029FB00F000BD07F5235000F1380003680E
:104ED0009AB207F5245101F104010B689BB2134407
:104EE00098B207F5235202F1340213689AB207F51B
:104EF000245CDCF800309BB213449BB20A3399B2B5
:104F000007F5035404F1240407F5235303F1340394
:104F10001A6813469B0013445B0007F5235C0CF1F1
:104F2000380CDCF80020134454F82330DBB21A4666
:104F300001F0F0FA00F0C7BC07F5235000F138008B
:104F400003689AB207F5245101F104010B689BB282
:104F5000134498B207F5235202F1340213689AB24F
:104F600007F5245CDCF800309BB213449BB20A3393
:104F700099B207F5FA5404F1140407F5235303F129
:104F800034031A6813469B0013445B0007F5235C47
:104F90000CF1380CDCF80020134454F82330DBB259
:104FA0001A4601F0B7FA00F08EBC07F5235000F165
:104FB000380003689AB207F5245101F104010B6827
:104FC0009BB2134498B207F5235202F134021368DE
:104FD0009AB207F5245CDCF800309BB213449BB214
:104FE0000A3399B207F5EE5404F1040407F523538C
:104FF00003F134031A6813469B0013445B0007F562
:10500000235C0CF1380CDCF80020134454F82330F6
:10501000DBB21A4601F07EFA00F055BC07F52350CA
:1050200000F1380003689AB207F5245101F1040138
:105030000B689BB2134498B207F5235202F1340275
:1050400013689AB207F5245CDCF800309BB2134475
:105050009BB20A3399B207F5E15404F1140407F541
:10506000235303F134031A6813469B0013445B0077
:1050700007F5235C0CF1380CDCF80020134454F8DD
:105080002330DBB21A4601F045FA00F01CBC07F5EC
:10509000235000F1380003689AB207F5245101F15A
:1050A00004010B689BB2134498B207F5235202F136
:1050B000340213689AB207F5245CDCF800309BB226
:1050C00013449BB20A3399B207F5D55404F1040492
:1050D00007F5235303F134031A6813469B00134466
:1050E0005B0007F5235C0CF1380CDCF8002013445E
:1050F00054F82330DBB21A4601F00CFAE3E307F56B
:10510000235000F1380003689AB207F5245101F1E9
:1051100004010B689BB2134498B207F5235202F1C5
:10512000340213689AB207F5245CDCF800309BB2B5
:1051300013449BB20A3399B207F5C85404F114041E
:1051400007F5235303F134031A6813469B001344F5
:105150005B0007F5235C0CF1380CDCF800201344ED
:1051600054F82330DBB21A4601F0D4F9ABE307F56B
:10517000235000F1380003689AB207F5245101F179
:1051800004010B689BB2134498B207F5235202F155
:10519000340213689AB207F5245CDCF800309BB245
:1051A00013449BB20A339CB207F5BC5202F10802C9
:1051B000043A07F5235303F1340319680B469B00A7
:1051C0000B445B0007F5235C0CF1380CDCF8001095
:1051D0000B4452F82330DBB221461A4601F09AF90B
:1051E00071E307F5235000F1380003689AB207F520
:1051F000245101F104010B689BB2134498B207F5E6
:10520000235202F1340213689AB207F5245CDCF8E9
:1052100000309BB213449BB20A339CB207F5B052E4
:1052200002F10802143A07F5235303F13403196815
:105230000B469B000B445B0007F5235C0CF1380C1C
:10524000DCF800100B4452F82330DBB221461A463A
:1052500001F060F937E307F5235000F138000368E7
:105260009AB207F5245101F104010B689BB2134473
:1052700098B207F5235202F1340213689AB207F587
:10528000245CDCF800309BB213449BB20A339CB21E
:1052900007F5A35202F10802043A07F5235303F17C
:1052A000340319680B469B000B445B0007F5235C35
:1052B0000CF1380CDCF800100B4452F82330DBB250
:1052C00021461A4601F026F9FDE207F5235000F1C8
:1052D000380003689AB207F5245101F104010B6804
:1052E0009BB2134498B207F5235202F134021368BB
:1052F0009AB207F5245CDCF800309BB213449BB2F1
:105300000A339CB207F5975202F10802143A07F5E6
:10531000235303F1340319680B469B000B445B00D5
:1053200007F5235C0CF1380CDCF800100B4452F844
:105330002330DBB221461A4601F0ECF8C3E207F550
:10534000235000F1380003689AB207F5245101F1A7
:1053500004010B689BB2134498B207F5235202F183
:10536000340213689AB207F5245CDCF800309BB273
:1053700013449BB20A339CB207F58A5202F1080229
:10538000043A07F5235303F1340319680B469B00D5
:105390000B445B0007F5235C0CF1380CDCF80010C3
:1053A0000B4452F82330DBB221461A4601F0B2F822
:1053B00089E207F5235000F1380003689AB207F537
:1053C000245101F104010B689BB2134498B207F514
:1053D000235202F1340213689AB207F5245CDCF818
:1053E00000309BB213449BB20A339CB207F6C872DA
:1053F000143A07F5235303F1340319680B469B0055
:105400000B445B0007F5235C0CF1380CDCF8001052
:105410000B4452F82330DBB221461A4601F07AF8E9
:1054200051E207F5235000F1380003689AB207F5FE
:10543000245101F104010B689BB2134498B207F5A3
:10544000235202F1340213689AB207F5245CDCF8A7
:1054500000309BB213449BB20A339CB207F6286219
:10546000043A07F5235303F1340319680B469B00F4
:105470000B445B0007F5235C0CF1380CDCF80010E2
:105480000B4452F82330DBB221461A4601F042F8B1
:1054900019E207F5235000F1380003689AB207F5C6
:1054A000245101F104010B689BB2134498B207F533
:1054B000235202F1340213689AB207F5245CDCF837
:1054C00000309BB213449BB20A339CB207F6A84249
:1054D000143A07F5235303F1340319680B469B0074
:1054E0000B445B0007F5235C0CF1380CDCF8001072
:1054F0000B4452F82330DBB221461A4601F00AF879
:10550000E1E107F5235000F1380003689AB207F58E
:10551000245101F104010B689BB2134498B207F5C2
:10552000235202F1340213689AB207F5245CDCF8C6
:1055300000309BB213449BB20A339CB207F6083288
:10554000043A07F5235303F1340319680B469B0013
:105550000B445B0007F5235C0CF1380CDCF8001001
:105560000B4452F82330DBB221461A4600F0D2FF3A
:10557000A9E107F5235000F1380003689AB207F556
:10558000245101F104010B689BB2134498B207F552
:10559000235202F1340213689AB207F5245CDCF856
:1055A00000309BB213449BB20A339CB207F68812B8
:1055B000143A07F5235303F1340319680B469B0093
:1055C0000B445B0007F5235C0CF1380CDCF8001091
:1055D0000B4452F82330DBB221461A4600F09AFF02
:1055E00071E107F5235000F1380003689AB207F51E
:1055F000245101F104010B689BB2134498B207F5E2
:10560000235202F1340213689AB207F5245CDCF8E5
:1056100000309BB213449BB20A339CB207F60802D7
:10562000243A07F5235303F1340319680B469B0012
:105630000B445B0007F5235C0CF1380CDCF8001020
:105640000B4452F82330DBB221461A4600F062FFC9
:1056500039E107F5235000F1380003689AB207F5E5
:10566000245101F104010B689BB2134498B207F571
:10567000235202F1340213689AB207F5245CDCF875
:1056800000309BB213449BB20A339CB207F5D1623F
:10569000343A07F5235303F1340319680B469B0092
:1056A0000B445B0007F5235C0CF1380CDCF80010B0
:1056B0000B4452F82330DBB221461A4600F02AFF91
:1056C00001E107F5235000F1380003689AB207F5AD
:1056D000245101F104010B689BB2134498B207F501
:1056E000235202F1340213689AB207F5245CDCF805
:1056F00000309BB213449BB20A339CB207F5996207
:10570000043A07F5235303F1340319680B469B0051
:105710000B445B0007F5235C0CF1380CDCF800103F
:105720000B4452F82330DBB221461A4600F0F2FE59
:10573000C9E007F5235000F1380003689AB207F575
:10574000245101F104010B689BB2134498B207F590
:10575000235202F1340213689AB207F5245CDCF894
:1057600000309BB213449BB20A339CB207F55272CD
:10577000143A07F5235303F1340319680B469B00D1
:105780000B445B0007F5235C0CF1380CDCF80010CF
:105790000B4452F82330DBB221461A4600F0BAFE21
:1057A00091E007F5235000F1380003689AB207F53D
:1057B000245101F104010B689BB2134498B207F520
:1057C000235202F1340213689AB207F5245CDCF824
:1057D00000309BB213449BB20A339CB207F5E472CB
:1057E000243A07F5235303F1340319680B469B0051
:1057F0000B445B0007F5235C0CF1380CDCF800105F
:105800000B4452F82330DBB221461A4600F082FEE8
:1058100059E007F5235000F1380003689AB207F504
:10582000245101F104010B689BB2134498B207F5AF
:10583000235202F1340213689AB207F5245CDCF8B3
:1058400000309BB213449BB20A339CB207F148026A
:10585000343A07F5235303F1340319680B469B00D0
:105860000B445B0007F5235C0CF1380CDCF80010EE
:105870000B4452F82330DBB221461A4600F04AFEB0
:1058800021E007F5235000F1380003689AB207F5CC
:10589000245101F104010B689BB213449AB207F53D
:1058A000235C0CF1340CDCF8003099B207F524507D
:1058B00003689BB20B449BB20A339BB21046194655
:1058C000002200F027FE07F5235101F138010B6893
:1058D000013307F5235202F13802136007F5235C08
:1058E0000CF1380CDCF80030092B7FF7C5A907F55F
:1058F000235000F134000368013307F5235101F10F
:1059000034010B6007F5235202F134021368092BAE
:105910007FF7AAA907F5235C0CF1300CDCF8003006
:10592000013307F5235000F13000036007F52451DF
:1059300001F104010B680A3307F5245202F1040255
:10594000136007F5235303F130031A6807F5235C4E
:105950000CF1240CDCF800309A42FFF652A907F54E
:1059600024570C37BD4690BD90B5ADF68C1D00AFE9
:1059700007F10C03186007F1080319603B1D1A605A
:1059800007F10C03186802F02FFBC7F87C0907F138
:105990000803186802F028FBC7F878093B1D18684F
:1059A00002F022FBC7F8740907F2E472B44B114607
:1059B0001A464FF4C873084611461A4602F018FBFF
:1059C00007F25462AF4B11461A464FF4C8730846AB
:1059D00011461A4602F00CFB07F2C442AA4B1146CC
:1059E0001A464FF4C873084611461A4602F000FBE7
:1059F00007F54D72A54B11461A464FF4C873084679
:105A000011461A4602F0F4FA07F5D272A04B11467D
:105A10001A464FF4C873084611461A4602F0E8FACF
:105A200007F114029B4B11461A464FF4C8730846FF
:105A300011461A4602F0DCFA0023C7F8803915E156
:105A40000023C7F8843907E1D7F87C39052B00F229
:105A5000E78001A252F823F0715A0008B95A0008F1
:105A6000015B0008495B0008915B0008D95B0008F6
:105A7000D7F884399AB2D7F878399BB2134498B2E0
:105A8000D7F880399AB2D7F874399BB213449BB2D5
:105A90000A3399B207F2E474D7F8802913469B00C1
:105AA00013445B00D7F88429134454F82330DBB245
:105AB0001A4600F02FFDCAE0D7F884399AB2D7F819
:105AC00078399BB2134498B2D7F880399AB2D7F894
:105AD00074399BB213449BB20A3399B207F25464EF
