:020000040800F2
:10000000246D01206D070008C9070008C907000812
:10001000C9070008C9070008C90700080000000058
:10002000000000000000000000000000C9070008F8
:10003000C907000800000000C9070008C907000838
:10004000C9070008C9070008C9070008C907000850
:10005000C9070008C9070008C9070008C907000840
:10006000C9070008C9070008C9070008C907000830
:10007000C9070008C9070008C9070008C907000820
:10008000C9070008C9070008C9070008C907000810
:10009000C9070008C9070008C9070008C907000800
:1000A000C9070008C9070008C9070008C9070008F0
:1000B000212E0008C9070008C9070008C907000861
:1000C000C9070008C9070008C9070008C9070008D0
:1000D000C9070008C907000831060008C907000859
:1000E000C9070008C9070008C9070008C9070008B0
:1000F000C9070008C9070008C9070008C9070008A0
:10010000C9070008C9070008C9070008C90700088F
:10011000C9070008C9070008C9070008C90700087F
:10012000C9070008C9070008C9070008C90700086F
:10013000C9070008C9070008C9070008C90700085F
:10014000C9070008C9070008C9070008C90700084F
:10015000DD2E0008C9070008C9070008C907000804
:10016000C9070008C9070008C9070008C90700082F
:10017000C9070008C9070008C9070008C90700081F
:10018000C9070008C907000880B500AF002104486E
:1001900000F0C0FA024803F04FF900BF80BD00BF75
:1001A000AC36002080B58AB000AF7860396000239B
:1001B0007B6200233B620023FB610023BB617B6801
:1001C0001B8A9BB27B627B6A23F440537B623B6851
:1001D000DB881A467B6A13437B627B6A9AB27B6830
:1001E0001A827B689B899BB27B627B6A23F4B05343
:1001F00023F00C037B623B689A883B681B8913439E
:100200009AB23B685B8913439BB21A467B6A1343DD
:100210007B627B6A9AB27B689A817B689B8A9BB27D
:100220007B627B6A23F440737B623B689B891A463E
:100230007B6A13437B627B6A9AB27B689A8207F17E
:100240000803184600F0D4FA7B68304A934203D082
:100250007B682F4A934202D17B693B6201E03B6994
:100260003B627B689B899BB21BB2002B0CDA3A6A1B
:1002700013469B0013449A001A443B681B685B00BA
:10028000B2FBF3F3FB610BE03A6A13469B001344A5
:100290009A001A443B681B689B00B2FBF3F3FB61B6
:1002A000FB691C4AA2FB03235B091B017B627B6A7F
:1002B0001B09642202FB03F3FA69D31ABB617B6852
:1002C0009B899BB21BB2002B0CDABB69DB0032337B
:1002D000104AA2FB03235B0903F007037A6A134366
:1002E0007B620BE0BB691B0132330A4AA2FB03238A
:1002F0005B0903F00F037A6A13437B627B6A9AB24D
:100300007B681A8100BF2837BD4680BD00100140C0
:10031000001401401F85EB5180B483B000AF7860BA
:100320000B46FB70FB78002B08D07B689B899BB247
:1003300043F400539AB27B689A8107E07B689B89FB
:100340009BB223F400539AB27B689A8100BF0C37AA
:10035000BD4680BC704700BF80B483B000AF7860FA
:100360000B467B807B88C3F308039AB27B689A8034
:1003700000BF0C37BD4680BC704700BF80B487B05B
:1003800000AF78600B467B8013467B7000233B6197
:100390000023FB600023BB6000237B617B687B61E3
:1003A0007B88DBB25B09DBB23B617B8803F01F0318
:1003B000FB600122FB6802FA03F3BB603B69012B7F
:1003C00003D17B690C337B6109E03B69022B03D1CC
:1003D0007B6910337B6102E07B6914337B617B783E
:1003E000002B06D07B697A691168BA680A431A60E3
:1003F00006E07B697A691168BA68D2430A401A60DC
:1004000000BF1C37BD4680BC704700BF80B485B0BC
:1004100000AF78600B467B800023FB737B681B88F2
:100420009AB27B8813409BB2002B02D00123FB734E
:1004300001E00023FB73FB7B18461437BD4680BCEC
:10044000704700BF80B487B000AF78600B467B80F8
:100450000023FB6000237B610023BB600023FB744F
:100460007B88DBB25B09DBB2BB607B8803F01F03D8
:100470007B6101227B6902FA03F37B61BB68012B7C
:1004800007D17B689B899BB21A467B6913407B61CD
:1004900011E0BB68022B07D17B681B8A9BB21A460E
:1004A0007B6913407B6106E07B689B8A9BB21A469E
:1004B0007B6913407B617B881B0A9BB2FB60012236
:1004C000FB6802FA03F3FB607B681B889BB21A4649
:1004D000FB681340FB607B69002B05D0FB68002B99
:1004E00002D00123FB7401E00023FB74FB7C18465F
:1004F0001C37BD4680BC704780B485B000AF7860C3
:100500000B467B800023FB810023BB817B881B0A79
:10051000FB81FB89012202FA03F3BB81BB89DB4328
:100520009AB27B681A8000BF1437BD4680BC704702
:1005300080B586B000AF01214FF4003000F020FA02
:100540000121012000F0FEF90C233B6102233B75E1
:100550000023BB750123FB7502237B7507F1100394
:100560001946164801F026FF07220221134801F020
:10057000AFFF07220321114801F0AAFF4FF4E13336
:100580003B600023BB800023FB8000233B810023D2
:10059000BB810C237B813B4619460948FFF702FECD
:1005A000012240F225510648FFF7E8FE01210448E8
:1005B000FFF7B2FE00BF1837BD4680BD0000024005
:1005C0000044004080B582B000AF0346FB7100BF1D
:1005D00080210848FFF71AFF0346002BF8D0FB796B
:1005E0009BB219460348FFF7B7FE00BF0837BD4668
:1005F00080BD00BF0044004080B584B000AF78608B
:100600000023FB6009E0FB687A6813441B781846F6
:10061000FFF7D8FFFB680133FB60FB687A6813447F
:100620001B78002BEFD100BF1037BD4680BD00BF47
:1006300080B582B000AF40F225512748FFF702FF96
:100640000346002B44D040F225512348FFF754FFC6
:10065000214B9B889BB2FB70FB78402B05D9FB7824
:100660005A2B02D8FB782033FB70FB780D2B1DD85A
:1006700000237B600BE0194A7B6813441B789BB214
:1006800019461548FFF768FE7B6801337B60144B01
:100690001B687A689A42EEDB114B00221A60FB78E5
:1006A0009BB219460C48FFF757FE09E00C4B1B683C
:1006B0000A49FA78CA540A4B1B680133084A136086
:1006C00000BF40210448FFF7A1FE0346002BF8D0ED
:1006D00000BF0837BD4680BD004400400C640120C7
:1006E0004436002080B582B000AFFF23FB7120218B
:1006F0000748FFF78BFE0346012B03D1044B9B8871
:100700009BB2FB71FB7918460837BD4680BD00BF20
:100710000044004080B582B000AF78603960FFF7D8
:10072000E1FF03461A467B681A707B681B78FF2B33
:1007300017D07B681B780A2B13D03B68002B04D0A2
:100740007B681B781846FFF73DFF7B681B780D2BF5
:1007500003D17B6800221A7005E07B6801337B605F
:10076000DDE700BFDBE70837BD4680BD80B582B05E
:1007700000AF104B7B60104B3B6007E03B681A1DDD
:100780003A607A68111D796012681A603B680B4AFA
:100790009342F3D30A480B494FF000028842B8BF96
:1007A00040F8042BFADB00F013F800BF0837BD4611
:1007B00080BD00BF684E00080000002044360020C5
:1007C000443600202465012080B400AFFEE700BF5E
:1007D00080B500AF01F0E4FD002002F0ABF9034862
:1007E000FFF70AFFFFF7D0FCFCE700BFD04B000883
:1007F00080B489B000AF78600023BB6100237B61C7
:100800000023FB6102233B610023FB600223BB60EA
:10081000484B9B6803F00C03BB61BB69042B07D0FA
:10082000082B09D0002B3FD17B68434A1A603FE078
:100830007B68424A1A603BE03E4B5B6803F48003EE
:100840009B0DFB603B4B5B6803F03F03BB60FB68A9
:10085000002B0DD0394ABB68B2FBF3F2354B596817
:1008600047F6C0730B409B0903FB02F3FB610CE0EE
:10087000314ABB68B2FBF3F22E4B596847F6C0739E
:100880000B409B0903FB02F3FB612A4B5B6803F4FB
:1008900040331B0C01335B003B61FA693B69B2FBDF
:1008A000F3F27B681A6003E07B68234A1A6000BF9A
:1008B000204B9B6803F0F003BB61BB691B09BB6164
:1008C0001F4ABB6913441B78DBB27B617B681A68E3
:1008D0007B69DA407B685A60164B9B6803F4E053EF
:1008E000BB61BB699B0ABB61154ABB6913441B789A
:1008F000DBB27B617B685A687B69DA407B689A600F
:100900000C4B9B6803F46043BB61BB695B0BBB6131
:100910000B4ABB6913441B78DBB27B617B685A6866
:100920007B69DA407B68DA6000BF2437BD4680BC53
:10093000704700BF003802400024F40000127A0023
:100940000000002080B483B000AF78600B46FB70DD
:10095000FB78002B06D00949084B1A6B7B681343C0
:100960000B6306E00549054B1A6B7B68DB431340BC
:100970000B6300BF0C37BD4680BC70470038024097
:1009800080B483B000AF78600B46FB70FB78002B1F
:1009900006D00949084B1A6C7B6813430B6406E0C8
:1009A0000549054B1A6C7B68DB4313400B6400BFA1
:1009B0000C37BD4680BC70470038024080B483B01D
:1009C00000AF78600B46FB70FB78002B06D009491E
:1009D000084B5A6C7B6813434B6406E00549054B92
:1009E0005A6C7B68DB4313404B6400BF0C37BD4639
:1009F00080BC704700380240B0B594B000AFF860DA
:100A0000B9607A603B60F86803F0C2FDF864B868CA
:100A100003F0BEFDB864786803F0BAFD7864386806
:100A200003F0B6FD3864386E03F0B2FD386300237E
:100A30007B63FA6C7B6CD31A83EAE372A2EBE372FA
:100A4000B96C3B6CCB1A002BB8BF5B429A420DDAF3
:100A5000FB6CFB62BB6CFB64FB6ABB647B6CBB62C4
:100A60003B6C7B64BB6A3B6401237B63FA6C7B6CED
:100A70009A420BDDFB6C7B627B6CFB647B6A7B6464
:100A8000BB6C3B623B6CBB643B6A3B640023BB6357
:100A900071E0FA6CBB6B1344FB617A6CBB6B134463
:100AA000BB61FB69FB635FE0FA6BFB69D31A184615
:100AB00003F0CAFB0446BA69FB69D31A184603F06F
:100AC000C3FB03461946204603F0C6FC03467B6180
:100AD000B86C03F03FF804460D46786903F04CF813
:100AE00002460B464FF00000274902F0E5FE0246A1
:100AF0000B462046294603F093F803460C4625464C
:100B00001C46386C03F0A0FB03467969184603F0D5
:100B1000EFFB0346184603F02FF802460B4620462B
:100B2000294602F0CBFE03460C461846214603F048
:100B300089FA03463B617B6B012B09D13B699BB270
:100B4000FA6B91B27A6ED2B2184602F015F808E04C
:100B5000FB6B9BB23A6991B27A6ED2B2184602F040
:100B60000BF8FB6B0133FB63FA6BBB699A429BDBAF
:100B7000BB6B0133BB63BA6B3B6B9A4289DB00BF33
:100B80005037BD46B0BD00BF0000F03F80B58AB011
:100B900000AFF860B9607A603B60F86803F0F8FC79
:100BA000F861B86803F0F4FCB861786803F0F0FC11
:100BB0007861386803F0ECFC38613B695B427B622A
:100BC0003FE07B695B423B6234E03B6A3A6A02FB8E
:100BD00003F33A6902FB03F33A6902FB03F27B6A0F
:100BE000796A01FB03F3796901FB03F3796901FB7E
:100BF00003F31A443B69396901FB03F3796901FB8B
:100C000003F3796901FB03F39A4210DCFB699AB2A2
:100C10003B6A9BB2134498B2BB699AB27B6A9BB29F
:100C200013449BB23A6BD2B2194601F0A5FF3B6A5E
:100C300001333B623A6A7B699A42C6DD7B6A0133C3
:100C40007B627A6A3B699A42BBDD00BF2837BD46AA
:100C500080BD00BF80B58CB000AFF860B9607A602D
:100C60003B60F86803F094FCF862B86803F090FC0D
:100C7000B862786803F08CFC7862386803F088FC0E
:100C800038623A6ABB6A9A4205DD3B6A7B61BB6A9D
:100C90003B627B69BB627A6AFB6A9A4205DA7B6ACD
:100CA0003B61FB6A7B623B69FB62FB6AFB6115E0AF
:100CB0003B6ABB610BE0FB699BB2BA6991B2BA6B4C
:100CC000D2B2184601F058FFBB690133BB61BA6963
:100CD000BB6A9A42EFDBFB690133FB61FA697B6A0D
:100CE0009A42E5DB00BF3037BD4680BD80B58CB091
:100CF00002AFF860B9607A603B60F86803F048FCC6
:100D00007862B86803F044FC3862786803F040FC0D
:100D1000F861386803F03CFCB861386B03F038FCCC
:100D20007861786B03F034FC3861BB6B019301236D
:100D30000093BB69FA69396A786A00F019F8BB6BED
:100D40000193012300933B697A69B969F86900F05E
:100D50000FF8BB6B0193012300933B6A7A6A3969F0
:100D6000786900F005F800BF2837BD4680BD00BF98
:100D7000B0B590B000AFF860B9607A603B60002316
:100D80007B63FA687B68D31A83EAE372A2EBE372AF
:100D9000B9683B68CB1A002BB8BF5B429A420DDAA8
:100DA000FB683B63BB68FB603B6BBB607B68FB62C3
:100DB0003B687B60FB6A3B6001237B63FA687B686E
:100DC0009A420BDDFB68BB627B68FB60BB6A7B60A1
:100DD000BB687B623B68BB607B6A3B600023BB6394
:100DE00071E0FA68BB6B13443B627A68BB6B1344D7
:100DF000FB613B6AFB635FE0FA6B3B6AD31A184600
:100E000003F022FA0446FA693B6AD31A184603F043
:100E10001BFA03461946204603F01EFB0346BB613E
:100E2000B86802F097FE04460D46B86902F0A4FEC9
:100E300002460B464FF00000274902F03DFD0246F6
:100E40000B462046294602F0EBFE03460C4625469B
:100E50001C46386803F0F8F90346B969184603F0F0
:100E600047FA0346184602F087FE02460B46204624
:100E7000294602F023FD03460C461846214603F09E
:100E8000E1F803467B617B6B012B09D17B699BB247
:100E9000FA6B91B27A6DD2B2184601F06DFE08E09D
:100EA000FB6B9BB27A6991B27A6DD2B2184601F0AF
:100EB00063FEFB6B0133FB63FA6BFB699A429BDBBE
:100EC000BB6B0133BB63BA6B3B6D9A4289DB00BFDE
:100ED0004037BD46B0BD00BF0000F03F90B599B0AF
:100EE00000AFF860B9607A603B60F86803F050FBCF
:100EF000F865B86803F04CFBB865FB6D7B640023B4
:100F00007B650CE07B6D7A681344197807F1140255
:100F10007B6D13440A461A707B6D01337B657B6DD4
:100F2000272BEFDD002387F843300023FB6307F115
:100F30001403184603F004FD0346FB630023BB645F
:100F400001F0ACB8FB6DB3F59B7F04DD7B6CFB65FA
:100F5000BB6D0A33BB6507F11402BB6C13441B78ED
:100F600087F843300023FB6401F08EB800233B6513
:100F700001F083B897F84330613B192B01F27A8076
:100F800001A252F823F000BFF10F00088D100008F5
:100F900029110008C5110008711200080D1300087E
:100FA000A913000845140008F11400088D15000865
:100FB00029160008C5160008711700080D1800084A
:100FC000A718000841190008ED190008871A000841
:100FD000211B0008BB1B0008651C0008FF1C000843
:100FE000991D0008331E0008DD1E0008771F000849
:100FF0009B49FA6C13469B0013445B003A6D134403
:1010000051F82330012B0AD19549FA6C13469B0005
:1010100013445B003A6D13443A6F41F82320904922
:10102000FA6C13469B0013445B003A6D134451F86D
:101030002330002B00F0EB873B6D9AB2FB6D9BB227
:10104000134498B2FB6C9AB2BB6D9BB213449BB233
:101050000A339CB28249FA6C13469B0013445B002E
:101060003A6D134451F82330DBB21A46214601F0A1
:1010700083FD7B49FA6C13469B0013445B003A6D79
:101080001344012241F8232000F0C1BF7549FA6CD6
:1010900013469B0013445B003A6D134451F8233010
:1010A000012B0AD16F49FA6C13469B0013445B0075
:1010B0003A6D13443A6F41F823206A49FA6C13469B
:1010C0009B0013445B003A6D134451F82330002B0E
:1010D00000F09F873B6D9AB2FB6D9BB2134498B2B0
:1010E000FB6C9AB2BB6D9BB213449BB20A339CB2A9
:1010F0005C49FA6C13469B0013445B003A6D134441
:1011000051F82330DBB21A46214601F035FD55492E
:10111000FA6C13469B0013445B003A6D13440122A2
:1011200041F8232000F075BF4F49FA6C13469B002D
:1011300013445B003A6D134451F82330012B0AD15C
:101140004949FA6C13469B0013445B003A6D134403
:101150003A6F41F823204449FA6C13469B0013442C
:101160005B003A6D134451F82330002B00F0538795
:101170003B6D9AB2FB6D9BB2134498B2FB6C9AB272
:10118000BB6D9BB213449BB20A339CB23649FA6CD6
:1011900013469B0013445B003A6D134451F823300F
:1011A000DBB21A46214601F0E7FC2F49FA6C1346E0
:1011B0009B0013445B003A6D1344012241F8232045
:1011C00000F029BF2949FA6C13469B0013445B00C9
:1011D0003A6D134451F82330012B0AD12349FA6C9C
:1011E00013469B0013445B003A6D13443A6F41F879
:1011F00023201E49FA6C13469B0013445B003A6D92
:10120000134451F82330002B00F007873B6D9AB24E
:10121000FB6D9BB2134498B2FB6C9AB2BB6D9BB250
:1012200013449BB20A339CB21049FA6C13469B00DC
:1012300013445B003A6D134451F82330DBB21A4675
:10124000214601F099FC0949FA6C13469B001344AE
:101250005B003A6D1344012241F8232000F0DDBE0B
:1012600070090020000B0020900C0020200E0020B0
:101270009B49FA6C13469B0013445B003A6D134480
:1012800051F82330012B0AD19549FA6C13469B0083
:1012900013445B003A6D13443A6F41F823209049A0
:1012A000FA6C13469B0013445B003A6D134451F8EB
:1012B0002330002B00F0B3863B6D9AB2FB6D9BB2DE
:1012C000134498B2FB6C9AB2BB6D9BB213449BB2B1
:1012D0000A339CB28249FA6C13469B0013445B00AC
:1012E0003A6D134451F82330DBB21A46214601F01F
:1012F00043FC7B49FA6C13469B0013445B003A6D38
:101300001344012241F8232000F089BE7549FA6C8C
:1013100013469B0013445B003A6D134451F823308D
:10132000012B0AD16F49FA6C13469B0013445B00F2
:101330003A6D13443A6F41F823206A49FA6C134618
:101340009B0013445B003A6D134451F82330002B8B
:1013500000F067863B6D9AB2FB6D9BB2134498B266
:10136000FB6C9AB2BB6D9BB213449BB20A339CB226
:101370005C49FA6C13469B0013445B003A6D1344BE
:1013800051F82330DBB21A46214601F0F5FB5549EE
:10139000FA6C13469B0013445B003A6D1344012220
:1013A00041F8232000F03DBE4F49FA6C13469B00E4
:1013B00013445B003A6D134451F82330012B0AD1DA
:1013C0004949FA6C13469B0013445B003A6D134481
:1013D0003A6F41F823204449FA6C13469B001344AA
:1013E0005B003A6D134451F82330002B00F01B864C
:1013F0003B6D9AB2FB6D9BB2134498B2FB6C9AB2F0
:10140000BB6D9BB213449BB20A339CB23649FA6C53
:1014100013469B0013445B003A6D134451F823308C
:10142000DBB21A46214601F0A7FB2F49FA6C13469E
:101430009B0013445B003A6D1344012241F82320C2
:1014400000F0F1BD2949FA6C13469B0013445B0080
:101450003A6D134451F82330012B0AD12349FA6C19
:1014600013469B0013445B003A6D13443A6F41F8F6
:1014700023201E49FA6C13469B0013445B003A6D0F
:10148000134451F82330002B00F0CF853B6D9AB206
:10149000FB6D9BB2134498B2FB6C9AB2BB6D9BB2CE
:1014A00013449BB20A339CB21049FA6C13469B005A
:1014B00013445B003A6D134451F82330DBB21A46F3
:1014C000214601F059FB0949FA6C13469B0013446D
:1014D0005B003A6D1344012241F8232000F0A5BDC2
:1014E000B00F002040110020D01200206014002016
:1014F0009B49FA6C13469B0013445B003A6D1344FE
:1015000051F82330012B0AD19549FA6C13469B0000
:1015100013445B003A6D13443A6F41F8232090491D
:10152000FA6C13469B0013445B003A6D134451F868
:101530002330002B00F07B853B6D9AB2FB6D9BB294
:10154000134498B2FB6C9AB2BB6D9BB213449BB22E
:101550000A339CB28249FA6C13469B0013445B0029
:101560003A6D134451F82330DBB21A46214601F09C
:1015700003FB7B49FA6C13469B0013445B003A6DF6
:101580001344012241F8232000F051BD7549FA6C43
:1015900013469B0013445B003A6D134451F823300B
:1015A000012B0AD16F49FA6C13469B0013445B0070
:1015B0003A6D13443A6F41F823206A49FA6C134696
:1015C0009B0013445B003A6D134451F82330002B09
:1015D00000F02F853B6D9AB2FB6D9BB2134498B21D
:1015E000FB6C9AB2BB6D9BB213449BB20A339CB2A4
:1015F0005C49FA6C13469B0013445B003A6D13443C
:1016000051F82330DBB21A46214601F0B5FA5549AC
:10161000FA6C13469B0013445B003A6D134401229D
:1016200041F8232000F005BD4F49FA6C13469B009A
:1016300013445B003A6D134451F82330012B0AD157
:101640004949FA6C13469B0013445B003A6D1344FE
:101650003A6F41F823204449FA6C13469B00134427
:101660005B003A6D134451F82330002B00F0E38403
:101670003B6D9AB2FB6D9BB2134498B2FB6C9AB26D
:10168000BB6D9BB213449BB20A339CB23649FA6CD1
:1016900013469B0013445B003A6D134451F823300A
:1016A000DBB21A46214601F067FA2F49FA6C13465D
:1016B0009B0013445B003A6D1344012241F8232040
:1016C00000F0B9BC2949FA6C13469B0013445B0037
:1016D0003A6D134451F82330012B0AD12349FA6C97
:1016E00013469B0013445B003A6D13443A6F41F874
:1016F00023201E49FA6C13469B0013445B003A6D8D
:10170000134451F82330002B00F097843B6D9AB2BC
:10171000FB6D9BB2134498B2FB6C9AB2BB6D9BB24B
:1017200013449BB20A339CB21049FA6C13469B00D7
:1017300013445B003A6D134451F82330DBB21A4670
:10174000214601F019FA0949FA6C13469B0013442B
:101750005B003A6D1344012241F8232000F06DBC78
:10176000F01500208017002010190020A01A00207A
:101770009A49FA6C13469B0013445B003A6D13447C
:1017800051F82330012B0AD19449FA6C13469B007F
:1017900013445B003A6D13443A6F41F823208F499C
:1017A000FA6C13469B0013445B003A6D134451F8E6
:1017B0002330002B00F043843B6D9AB2FB6D9BB24B
:1017C000134498B2FB6C9AB2BB6D9BB213449BB2AC
:1017D0000A339CB28149FA6C13469B0013445B00A8
:1017E0003A6D134451F82330DBB21A46214601F01A
:1017F000C3F97A49FA6C13469B0013445B003A6DB7
:101800001344012241F8232000F019BC7449FA6CFA
:1018100013469B0013445B003A6D134451F8233088
:10182000012B0AD16E49FA6C13469B0013445B00EE
:101830003A6D13443A6F41F823206949FA6C134614
:101840009B0013445B003A6D134451F82330002B86
:1018500000F0F7833B6D9AB2FB6D9BB2134498B2D4
:10186000FB6C9AB2BB6D9BB213449BB20A339CB221
:101870005B49FA6C13469B0013445B003A6D1344BA
:1018800051F82330DBB21A46214601F075F954496C
:10189000FA6C13469B0013445B003A6D134401221B
:1018A00041F82320CDE34F49FA6C13469B001344C3
:1018B0005B003A6D134451F82330012B0AD149499A
:1018C000FA6C13469B0013445B003A6D13443A6F65
:1018D00041F823204349FA6C13469B0013445B00F4
:1018E0003A6D134451F82330002B00F0AC833B6D6C
:1018F0009AB2FB6D9BB2134498B2FB6C9AB2BB6D6B
:101900009BB213449BB20A339CB23649FA6C13461D
:101910009B0013445B003A6D134451F82330DBB253
:101920001A46214601F028F92E49FA6C13469B000D
:1019300013445B003A6D1344012241F8232082E3F3
:101940002949FA6C13469B0013445B003A6D13441B
:1019500051F82330012B0AD12349FA6C13469B001E
:1019600013445B003A6D13443A6F41F823201E493B
:10197000FA6C13469B0013445B003A6D134451F814
:101980002330002B00F061833B6D9AB2FB6D9BB25C
:10199000134498B2FB6C9AB2BB6D9BB213449BB2DA
:1019A0000A339CB21049FA6C13469B0013445B0047
:1019B0003A6D134451F82330DBB21A46214601F048
:1019C000DBF80949FA6C13469B0013445B003A6D3F
:1019D0001344012241F8232037E300BF301C0020CC
:1019E000C01D0020501F0020E02000209949FA6C03
:1019F00013469B0013445B003A6D134451F82330A7
:101A0000012B0AD19349FA6C13469B0013445B00E7
:101A10003A6D13443A6F41F823208E49FA6C13460D
:101A20009B0013445B003A6D134451F82330002BA4
:101A300000F00D833B6D9AB2FB6D9BB2134498B2DC
:101A4000FB6C9AB2BB6D9BB213449BB20A339CB23F
:101A50008049FA6C13469B0013445B003A6D1344B3
:101A600051F82330DBB21A46214601F085F8794956
:101A7000FA6C13469B0013445B003A6D1344012239
:101A800041F82320E3E27449FA6C13469B001344A7
:101A90005B003A6D134451F82330012B0AD16E4993
:101AA000FA6C13469B0013445B003A6D13443A6F83
:101AB00041F823206849FA6C13469B0013445B00ED
:101AC0003A6D134451F82330002B00F0C2823B6D75
:101AD0009AB2FB6D9BB2134498B2FB6C9AB2BB6D89
:101AE0009BB213449BB20A339CB25B49FA6C134617
:101AF0009B0013445B003A6D134451F82330DBB272
:101B00001A46214601F038F85349FA6C13469B00F7
:101B100013445B003A6D1344012241F8232098E2FC
:101B20004E49FA6C13469B0013445B003A6D134414
:101B300051F82330012B0AD14849FA6C13469B0017
:101B400013445B003A6D13443A6F41F82320434934
:101B5000FA6C13469B0013445B003A6D134451F832
:101B60002330002B00F077823B6D9AB2FB6D9BB265
:101B7000134498B2FB6C9AB2BB6D9BB213449BB2F8
:101B80000A339CB23549FA6C13469B0013445B0040
:101B90003A6D134451F82330DBB21A46214600F067
:101BA000EBFF2E49FA6C13469B0013445B003A6D21
:101BB0001344012241F823204DE22949FA6C1346CF
:101BC0009B0013445B003A6D134451F82330012B02
:101BD0000AD12349FA6C13469B0013445B003A6D0B
:101BE00013443A6F41F823201D49FA6C13469B00B9
:101BF00013445B003A6D134451F82330002B00F07E
:101C00002C823B6D9AB2FB6D9BB2134498B2FB6C75
:101C10009AB2BB6D9BB213449BB20A339CB210497B
:101C2000FA6C13469B0013445B003A6D134451F861
:101C30002330DBB21A46214600F09EFF0849FA6CB9
:101C400013469B0013445B003A6D1344012241F894
:101C5000232002E270220020002400209025002092
:101C6000202700209949FA6C13469B0013445B001F
:101C70003A6D134451F82330012B0AD19349FA6C81
:101C800013469B0013445B003A6D13443A6F41F8CE
:101C900023208E49FA6C13469B0013445B003A6D77
:101CA000134451F82330002B00F0D9813B6D9AB2D8
:101CB000FB6D9BB2134498B2FB6C9AB2BB6D9BB2A6
:101CC00013449BB20A339CB28049FA6C13469B00C2
:101CD00013445B003A6D134451F82330DBB21A46CB
:101CE000214600F049FF7949FA6C13469B001344E2
:101CF0005B003A6D1344012241F82320AFE174499F
:101D0000FA6C13469B0013445B003A6D134451F880
:101D10002330012B0AD16E49FA6C13469B00134401
:101D20005B003A6D13443A6F41F823206849FA6C1E
:101D300013469B0013445B003A6D134451F8233063
:101D4000002B00F08E813B6D9AB2FB6D9BB2134469
:101D500098B2FB6C9AB2BB6D9BB213449BB20A3330
:101D60009CB25B49FA6C13469B0013445B003A6DCE
:101D7000134451F82330DBB21A46214600F0FCFE32
:101D80005349FA6C13469B0013445B003A6D1344AD
:101D9000012241F8232064E14E49FA6C13469B006E
:101DA00013445B003A6D134451F82330012B0AD1E0
:101DB0004849FA6C13469B0013445B003A6D134488
:101DC0003A6F41F823204349FA6C13469B001344B1
:101DD0005B003A6D134451F82330002B00F043812F
:101DE0003B6D9AB2FB6D9BB2134498B2FB6C9AB2F6
:101DF000BB6D9BB213449BB20A339CB23549FA6C5B
:101E000013469B0013445B003A6D134451F8233092
:101E1000DBB21A46214600F0AFFE2E49FA6C13469B
:101E20009B0013445B003A6D1344012241F82320C8
:101E300019E12949FA6C13469B0013445B003A6D83
:101E4000134451F82330012B0AD12349FA6C13466D
:101E50009B0013445B003A6D13443A6F41F8232012
:101E60001D49FA6C13469B0013445B003A6D134402
:101E700051F82330002B00F0F8803B6D9AB2FB6DD7
:101E80009BB2134498B2FB6C9AB2BB6D9BB21344E5
:101E90009BB20A339CB21049FA6C13469B00134460
:101EA0005B003A6D134451F82330DBB21A462146E9
:101EB00000F062FE0849FA6C13469B0013445B0075
:101EC0003A6D1344012241F82320CEE0B0280020CF
:101ED000402A0020D02B0020602D00207449FA6C8D
:101EE00013469B0013445B003A6D134451F82330B2
:101EF000012B0AD16E49FA6C13469B0013445B0018
:101F00003A6D13443A6F41F823206949FA6C13463D
:101F10009B0013445B003A6D134451F82330002BAF
:101F200000F0A5803B6D9AB2FB6D9BB2134498B252
:101F3000FB6C9AB2BB6D9BB213449BB20A339CB24A
:101F40005B49FA6C13469B0013445B003A6D1344E3
:101F500051F82330DBB21A46214600F00DFE5449F9
:101F6000FA6C13469B0013445B003A6D1344012244
:101F700041F823207BE04F49FA6C13469B00134441
:101F80005B003A6D134451F82330012B0AD14949C3
:101F9000FA6C13469B0013445B003A6D13443A6F8E
:101FA00041F823204349FA6C13469B0013445B001D
:101FB0003A6D134451F82330002B5AD03B6D9AB23E
:101FC000FB6D9BB2134498B2FB6C9AB2BB6D9BB293
:101FD00013449BB20A339CB23649FA6C13469B00F9
:101FE00013445B003A6D134451F82330DBB21A46B8
:101FF000214600F0C1FD2F49FA6C13469B001344A3
:102000005B003A6D1344012241F8232031E000BF08
:1020100030E000BF2EE000BF2CE000BF2AE000BF90
:1020200028E000BF26E000BF24E000BF22E000BFA0
:1020300020E000BF1EE000BF1CE000BF1AE000BFB0
:1020400018E000BF16E000BF14E000BF12E000BFC0
:1020500010E000BF0EE000BF0CE000BF0AE000BFD0
:1020600008E000BF06E000BF04E000BF02E000BFE0
:1020700000E000BF3B6D01333B653B6D092B7EF7F4
:1020800079AFFB6C0133FB64FB6C092B7EF76EAF01
:10209000BB6C0133BB64FB6D0A33FB65BA6CFB6B35
:1020A0009A42FEF64FAF00BF6437BD4690BD00BFF9
:1020B000F02E00208030002090B58BB000AFF8608B
:1020C000B9607A60F86802F063FAF861B86802F003
:1020D0005FFAB861786802F05BFA786100233B62CE
:1020E000E6E000237B62DCE0FB69052B00F2C480A4
:1020F00001A252F823F000BF112100084D21000871
:1021000089210008C5210008012200083D2200089D
:102110007B6A9AB2BB699BB2134498B23B6A9AB28B
:102120007B699BB213449BB20A339CB264493A6AFE
:1021300013469B0013445B007A6A134451F8233022
:10214000DBB21A46214600F017FDA7E07B6A9AB27F
:10215000BB699BB2134498B23B6A9AB27B699BB24B
:1021600013449BB20A339CB256493A6A13469B0009
:1021700013445B007A6A134451F82330DBB21A46E9
:10218000214600F0F9FC89E07B6A9AB2BB699BB2F8
:10219000134498B23B6A9AB27B699BB213449BB2D8
:1021A0000A339CB248493A6A13469B0013445B00C9
:1021B0007A6A134451F82330DBB21A46214600F004
:1021C000DBFC6BE07B6A9AB2BB699BB2134498B2AA
:1021D0003B6A9AB27B699BB213449BB20A339CB2AE
:1021E0003A493A6A13469B0013445B007A6A1344E7
:1021F00051F82330DBB21A46214600F0BDFC4DE019
:102200007B6A9AB2BB699BB2134498B23B6A9AB29A
:102210007B699BB213449BB20A339CB22C493A6A45
:1022200013469B0013445B007A6A134451F8233031
:10223000DBB21A46214600F09FFC2FE07B6A9AB27F
:10224000BB699BB2134498B23B6A9AB27B699BB25A
:1022500013449BB20A339CB21E493A6A13469B0050
:1022600013445B007A6A134451F82330DBB21A46F8
:10227000214600F081FC11E07B6A9AB2BB699BB2F7
:10228000134498B23B6A9AB27B699BB213449BB2E7
:102290000A339BB2E022194600F06EFC7B6A0133E0
:1022A0007B627B6A092B7FF71FAF3B6A01333B627E
:1022B0003B6A092B7FF715AF00BF2C37BD4690BD99
:1022C00010000020A001002030030020C0040020E6
:1022D00050060020E007002080B582B000AF786093
:1022E0007B68DBB2184600F025FC00BF0837BD460E
:1022F00080BD00BF0000000090B58BB000AF7860DB
:10230000786802F045F9786207F10C031846FEF789
:102310006FFAFB683B62204B3B62386A01F00AFCB3
:102320004FF000021D4B01F07BFC03460C461846A3
:10233000214617A3D3E9002301F09CFD03460C4678
:10234000184621464FF000024FF0804301F092FD05
:1023500003460C461846214601F09CFE0346FB61ED
:102360000CE00023BB6002E0BB680133BB60BA68CD
:10237000FB699A42F8D37B6A013B7B627B6A002B44
:10238000EFDC00BF2C37BD4690BD00BFAFF300802F
:10239000000000000094C14080F0FA020000F43F09
:1023A00080B500AF00F0DCF8FEF7C2F800F082FB69
:1023B00000BF80BD80B487B000AF78603960002373
:1023C0007B6100233B610023FB6000237B6176E09F
:1023D00001227B6902FA03F33B613B681A683B699F
:1023E0001340FB60FA683B699A4265D17B681A68C2
:1023F0007B695B00032101FA03F3DB431A407B682E
:102400001A607B681A683B681B7919467B695B0018
:1024100001FA03F31A437B681A603B681B79012BAE
:1024200003D03B681B79022B2ED17B689A687B69AD
:102430005B00032101FA03F3DB431A407B689A60D7
:102440007B689A683B685B7919467B695B0001FA97
:1024500003F31A437B689A607B685A687B699BB276
:10246000012101FA03F3DB431A407B685A607B6861
:102470005A683B689B7919467B699BB201FA03F362
:102480009BB21A437B685A607B68DA687B699BB2AF
:102490005B00032101FA03F3DB431A407B68DA6037
:1024A0007B68DA683B68DB7919467B695B0001FA77
:1024B00003F31A437B68DA607B6901337B617B69D4
:1024C0000F2B85D900BF1C37BD4680BC704700BFAD
:1024D00080B485B000AF78600B467B8013467B707C
:1024E0000023FB600023BB607A787B8803F007033E
:1024F0009B0002FA03F3FB607B88DB089BB2184663
:102500007B88DB089BB21A467B68083253F822208E
:102510007B8803F007039B000F2101FA03F3DB43E1
:1025200002EA03017B6800F1080243F822107B886D
:10253000DB089BB21A467B68083253F82220FB68FE
:102540001343BB607B88DB089BB21A467B6808326A
:10255000B96843F8221000BF1437BD4680BC7047ED
:1025600080B500AF124A124B1B6843F001031360A1
:102570000F4B00229A600E4A0D4B1B6823F08473A8
:1025800023F4803313600A4B0A4A5A60084A084B06
:102590001B6823F480231360054B0022DA6000F0EF
:1025A0000DF8054B4FF000629A6000BF80BD00BF80
:1025B000003802401030002400ED00E080B483B009
:1025C00000AF00237B6000233B60354A344B1B681F
:1025D00043F480331360324B1B6803F400333B60D9
:1025E0007B6801337B603B68002B03D17B68B3F5CC
:1025F000A06FF0D12A4B1B6803F40033002B02D0EC
:1026000001233B6001E000233B603B68012B42D18A
:10261000234A234B1B6C43F080531364214A214B04
:102620001B6843F4804313601D4A1D4B9B689360F5
:102630001B4A1B4B9B6843F400439360184A184B9A
:102640009B6843F4A0539360154B174A5A60144A91
:10265000134B1B6843F08073136000BF104B1B6863
:1026600003F00073002BF9D0104B40F205621A60A2
:102670000B4A0B4B9B6823F003039360084A084BFB
:102680009B6843F00203936000BF054B9B6803F017
:102690000C03082BF9D100BF0C37BD4680BC704736
:1026A000003802400070004008544007003C0240DF
:1026B00080B483B000AF78607B681B6823F00102B0
:1026C0007B681A607B6800221A607B6800225A606F
:1026D0007B6800229A607B680022DA607B680022B7
:1026E0001A617B6821225A617B68454A934203D173
:1026F000444B3D229A607EE07B68434A934204D17A
:10270000404B4FF474629A6075E07B683F4A934295
:1027100004D13C4B4FF474129A606CE07B683C4AE5
:10272000934204D1374B4FF074629A6063E07B6848
:10273000384A934203D1334B374ADA605BE07B6817
:10274000364A934203D12F4B354ADA6053E07B6817
:10275000344A934203D12B4B334ADA604BE07B6817
:10276000324A934204D1274B4FF03D52DA6042E0A7
:102770007B682F4A934203D12E4B3D229A603AE068
:102780007B682D4A934204D12A4B4FF474629A60BD
:1027900031E07B68294A934204D1264B4FF47412EE
:1027A0009A6028E07B68264A934204D1214B4FF07F
:1027B00074629A601FE07B68224A934203D11D4BEA
:1027C000154ADA6017E07B681F4A934203D1194B20
:1027D000134ADA600FE07B681C4A934203D1154B21
:1027E000114ADA6007E07B68194A934203D1114B22
:1027F0004FF03D52DA6000BF0C37BD4680BC7047D9
:1028000010600240006002402860024040600240C8
:1028100058600240706002403D0000208860024025
:10282000400F0020A060024000003D20B860024040
:102830001064024000640240286402404064024088
:10284000586402407064024088640240A064024000
:10285000B864024080B485B000AF7860396000236E
:10286000FB607B681B68FB60FA68244B1340FB60CD
:102870003B681A683B68DB681A433B685B691A432C
:102880003B689B691A433B68DB691A433B681B6AD8
:102890001A433B685B6A1A433B689B6A1A433B686E
:1028A0005B6B1A433B689B6B1343FA681343FB60F3
:1028B0007B68FA681A607B685B69FB60FB6823F0E1
:1028C0000703FB603B68DA6A3B681B6B1343FA68DB
:1028D0001343FB607B68FA685A613B681A697B683E
:1028E0005A603B685A687B689A603B689A687B6864
:1028F000DA6000BF1437BD4680BC70473F801CF0D3
:1029000080B483B000AF78600B46FB70FB78002B7F
:1029100006D07B681B6843F001027B681A6005E003
:102920007B681B6823F001027B681A6000BF0C37CC
:10293000BD4680BC704700BF80B485B000AFF86072
:10294000B9601346FB71BB6803F08003002B0FD006
:10295000FB79002B06D0FB685B6943F08002FB68C3
:102960005A6105E0FB685B6923F08002FB685A61ED
:10297000BB68802B14D0FB79002B08D0FB681A6849
:10298000BB6803F01E031A43FB681A6008E0FB688B
:102990001A68BB6803F01E03DB431A40FB681A6029
:1029A00000BF1437BD4680BC704700BF80B487B0FD
:1029B00000AF786039600023FB750023FB600023C3
:1029C000BB607B68214A934202D8214B3B6101E006
:1029D000204B3B613B6823F0F02323F0C313002B13
:1029E0000AD03B68DB0A03F01E03FB607B681A68B1
:1029F000FB681340BB6004E07B685B6903F0800305
:102A0000BB603B6803F00053002B03D03B695B685D
:102A1000FB6002E03B691B68FB60FB6823F0F0236E
:102A200023F08213FB60FA683B681340002B05D04B
:102A3000BB68002B02D00123FB7501E00023FB756E
:102A4000FB7D18461C37BD4680BC70470F640240B2
:102A5000006002400064024080B485B000AF78603E
:102A600039607B68104A934202D8104BFB6001E04A
:102A70000F4BFB603B6803F00053002B07D03B6813
:102A800023F0F02323F08213FA68D36006E03B685A
:102A900023F0F02323F08213FA68936000BF143709
:102AA000BD4680BC704700BF0F640240006002401A
:102AB0000064024080B582B000AF1B4B00221A8038
:102AC000194B00225A60184B00229A600023BB80E9
:102AD00017E00023FB800DE0BA8813469B001344E7
:102AE0009B011A44FB881344104A0021D154FB88EF
:102AF0000133FB80FB88B3F5A07FEDD9BB880133A0
:102B0000BB80BB88EF2BE4D900F05CF800F0AEF896
:102B100000F03EF900F010F9054B1B68024A936083
:102B200000BF0837BD4680BD103700201C3700208D
:102B30008864024080B584B000AF0346FB71002377
:102B4000BB8112E00023FB8108E0FA79B989FB8997
:102B5000184600F011F8FB890133FB81FB89B3F5BE
:102B6000A07FF2D3BB890133BB81BB89EF2BE9D9AD
:102B700000BF1037BD4680BD80B483B000AF0346B0
:102B8000FB800B46BB801346FB70FB88B3F5A07F30
:102B900001D30023FB80BB88EF2B01D90023BB802E
:102BA000BA8813469B0013449B011A44FB881344C4
:102BB0000349FA78CA5400BF0C37BD4680BC704741
:102BC0001C37002080B582B000AF01211020FDF736
:102BD000B9FE4FF47F433B6001233B710023BB717F
:102BE0000123FB7103237B713B4619461D48FFF708
:102BF000E1FB1C4B4FF47F425A8301210220FDF779
:102C0000A1FE4FF400633B6002233B7103237B7101
:102C10000023BB710123FB713B4619461248FFF7A5
:102C2000C9FB01220B211048FFF752FC01210220B1
:102C3000FDF788FE4FF480533B6001233B71002376
:102C4000BB710123FB7103237B713B461946064888
:102C5000FFF7B0FB044B4FF480521A8300BF0837D4
:102C6000BD4680BD001002400004024080B588B01F
:102C700000AF01210120FDF7A1FE0B23BB61002362
:102C8000BB820023BB830023FB8207F11403194698
:102C9000284800F0A9F901210120FDF771FE40F656
:102CA0006B23BB610023BB820023BB830023FB8219
:102CB00007F1140319464FF0804000F095F96023A6
:102CC0003B8001237B804FF4D273BB600223BB8126
:102CD0003B4619464FF0804000F030FA08214FF093
:102CE000804000F017FB60233B8001237B804FF482
:102CF000A073BB600223BB813B4619464FF0804066
:102D000000F0A2FA08214FF0804000F01FFB0121E3
:102D1000084800F0D3F901214FF0804000F0CEF9CF
:102D200001214FF0804000F0E9F900BF2037BD4697
:102D300080BD00BF0000014080B582B000AF01221D
:102D400010211248FFF7F8FD44233B7100237B71EB
:102D50000023BB710123FB713B1D184600F0E4F812
:102D6000012208214FF0804000F00EFB1C233B7134
:102D700000237B710023BB710123FB713B1D1846AF
:102D800000F0D2F800BF0837BD4680BD886402401D
:102D900080B590B000AF01214FF48000FDF7D2FD67
:102DA00000211B48FFF7ACFD1948FFF781FC4FF0ED
:102DB00040637B60174BBB60174BFB6040233B615C
:102DC00040F241137B610023BB614FF48063FB61E0
:102DD00000233B6200237B620023BB624FF440333D
:102DE000FB6200233B6301237B630023BB6300235F
:102DF000FB633B1D19460648FFF72CFD01224FF4EB
:102E00008071064800F0F4FA00BF4037BD4680BD2F
:102E100088640240151002401C3700200000014069
:102E200080B500AF08214FF0804000F0D1FA264B6A
:102E30001B8801339AB2244B1A80234B1B88B3F5AD
:102E4000037F05D9204B00221A80204A1E4B5A606E
:102E50001D4B1B88012B04D81D4B4FF480525A8305
:102E600003E01B4B4FF480521A83174B1B88232B14
:102E700027D9154B1B8840F20222934221D8154ACC
:102E8000114B9B681360134A0F4B5B68D360124A67
:102E9000114B1B889BB243F001039BB213800D4A78
:102EA0000C4B1B6843F001031360074B1B8803F0B6
:102EB0000103002B05D0044B5B6803F24113024A67
:102EC000536000BF80BD00BF103700201C370020BA
:102ED00000040240886402400000014080B500AF59
:102EE0000D490E48FFF762FD0346002B12D00A4938
:102EF0000A48FFF7B1FD0A4A094B1B889BB223F031
:102F000001039BB21380054B00221A60054B4FF45E
:102F10007F425A8300BF80BD008800208864024041
:102F2000000001400010024080B485B000AF78601E
:102F30000023FB730023BB730F237B737B68DB7859
:102F4000002B38D0264BDB68DB4303F4E0631B0A1D
:102F5000FB73FB7BC3F10403BB737A7BFB7B42FAFD
:102F600003F37B737B685B781A46BB7B02FA03F33F
:102F7000FB737B689A787B7B1340DAB2FB7B13434D
:102F8000FB73FB7B1B01FB73164A7B681B781344A6
:102F9000FA7B83F80023134A7B681B785B09DBB25A
:102FA00018467B681B7803F01F03012101FA03F325
:102FB00042F820300FE00B497B681B785B09DBB2DD
:102FC00018467B681B7803F01F0301229A4000F12A
:102FD000200341F8232000BF1437BD4680BC704752
:102FE00000ED00E000E100E080B485B000AF786063
:102FF00039600023FB817B681B88FB817B68284A42
:10300000934213D07B68274A93420FD07B68B3F179
:10301000804F0BD07B68244A934207D07B68234AB9
:10302000934203D07B68224A934208D1FB8923F064
:103030007003FB813B685A88FB891343FB817B68E3
:103040001C4A93420CD07B681B4A934208D0FB89F0
:1030500023F44073FB813B681A89FB891343FB818E
:103060007B68FA891A803B685A687B68DA623B6839
:103070001A887B681A857B68094A934203D07B686B
:10308000084A934204D13B689B7A9AB27B681A86BD
:103090007B6801229A8200BF1437BD4680BC70470E
:1030A000000001400004014000040040000800400E
:1030B000000C0040001000400014004080B483B0B9
:1030C00000AF78600B46FB70FB78002B08D07B6864
:1030D0001B889BB243F080039AB27B681A8007E09A
:1030E0007B681B889BB223F080039AB27B681A80AE
:1030F00000BF0C37BD4680BC704700BF80B483B0B2
:1031000000AF78600B46FB70FB78002B08D07B6823
:103110001B889BB243F001039AB27B681A8007E0D8
:103120007B681B889BB223F001039AB27B681A80EC
:1031300000BF0C37BD4680BC704700BF80B485B06F
:1031400000AF7860396000237B810023FB8100237E
:10315000BB817B681B8C9BB223F480739AB27B6823
:103160001A847B681B8CFB817B689B88BB817B6896
:103170009B8B7B817B8923F070037B817B8923F090
:1031800003037B813B681A887B8913437B81FB891E
:1031900023F40073FB813B689B891B029AB2FB8975
:1031A0001343FB813B685B881B029AB2FB89134384
:1031B000FB817B68224A934203D07B68214A934279
:1031C0002BD1FB8923F40063FB813B68DB891B0265
:1031D0009AB2FB891343FB81FB8923F48063FB8153
:1031E0003B689B881B029AB2FB891343FB81BB8916
:1031F00023F48053BB81BB8923F40053BB813B681C
:103200001B8A1B019AB2BB891343BB813B685B8A53
:103210001B019AB2BB891343BB817B68BA899A8030
:103220007B687A899A833B689A687B68DA637B68F3
:10323000FA891A8400BF1437BD4680BC704700BFAE
:10324000000001400004014080B485B000AF786008
:1032500039600023BB8100237B810023FB817B68D5
:103260001B8C9BB223F480539AB27B681A847B68D0
:103270001B8C7B817B689B88FB817B689B8BBB81E4
:10328000BB8923F4E043BB81BB8923F44073BB813A
:103290003B681B881B029AB2BB891343BB817B89A5
:1032A00023F400537B813B689B891B039AB27B8983
:1032B00013437B813B685B881B039AB27B89134372
:1032C0007B817B68114A934203D07B68104A93420A
:1032D0000AD1FB8923F48043FB813B681B8A9B0155
:1032E0009AB2FB891343FB817B68FA899A807B68D9
:1032F000BA899A833B689A687B681A647B687A8982
:103300001A8400BF1437BD4680BC704700000140DE
:103310000004014080B485B000AF78600B467B802C
:103320000023FB817B689B8BFB81FB8923F00803D7
:10333000FB81FA897B881343FB817B68FA899A8336
:1033400000BF1437BD4680BC704700BF80B485B055
:1033500000AF78600B467B800023FB817B689B8BF2
:10336000FB81FB8923F40063FB817B881B029AB2FB
:10337000FB891343FB817B68FA899A8300BF14376A
:10338000BD4680BC704700BF80B483B000AF78609A
:103390000B467B8013467B707B78002B08D07B68C4
:1033A0009B899AB27B8813439AB27B689A8109E021
:1033B0007B689B899AB27B88DB439BB213409AB2AD
:1033C0007B689A8100BF0C37BD4680BC704700BF48
:1033D00080B483B000AF78600B467B807B88DB4392
:1033E0009AB27B681A8200BF0C37BD4680BC70471A
:1033F00080B483B000AF78600B467B8013467B704F
:103400007B78002B08D07B689B899AB27B8813431A
:103410009AB27B689A8109E07B689B899AB27B8823
:10342000DB439BB213409AB27B689A8100BF0C3792
:10343000BD4680BC704700BF80B584B000AF7860E7
:103440000023BB601049786801F0E8FAF860BB68B7
:103450005A1CBA60F968184600F018F80BE00A49DF
:10346000002001F0DBFAF860BB685A1CBA60F9680A
:10347000184600F00BF8FB68002BF0D100F058F96B
:1034800000BF1037BD4680BDE84B000880B582B054
:1034900000AF786039607B68072B6BD801A252F8C7
:1034A00023F000BFC5340008DB340008F134000805
:1034B000073500081D350008333500084935000878
:1034C0005F3500082F48FDF797F839682E4801F05E
:1034D000D5F92D48FDF790F850E02C48FDF78CF811
:1034E00039682B4801F0CAF92948FDF785F845E00D
:1034F0002848FDF781F83968274801F0BFF92648C8
:10350000FDF77AF83AE02548FDF776F8396824485F
:1035100001F0B4F92248FDF76FF82FE02148FDF7DC
:103520006BF83968204801F0A9F91F48FDF764F8E5
:1035300024E01E48FDF760F839681D4801F09EF947
:103540001B48FDF759F819E01A48FDF755F8396896
:10355000194801F093F91848FDF74EF80EE01748A6
:10356000FDF74AF83968164801F088F91448FDF764
:1035700043F803E01348FDF73FF800BF00BF0837EA
:10358000BD4680BDEC4B000870640120F44B000880
:1035900084640120FC4B000898640120044C00085E
:1035A000AC6401200C4C0008D4640120144C0008C9
:1035B000E86401201C4C0008FC640120284C000831
:1035C00010650120304C000880B582B000AF7860F3
:1035D0004749786800F0E8FF0346002B01D100233B
:1035E00081E04449786800F0DFFF0346002B01D1F9
:1035F000032378E04049786800F0D6FF0346002BAB
:1036000001D16F236FE03D49786800F0CDFF03469C
:10361000002B01D11C2366E03949786800F0C4FF13
:103620000346002B01D17D235DE03649786800F028
:10363000BBFF0346002B01D11F2354E032497868B9
:1036400000F0B2FF0346002B01D17F234BE02F494E
:10365000786800F0A9FF0346002B01D1E02342E087
:103660002B49786800F0A0FF0346002B01D1ED2321
:1036700039E02849786800F097FF0346002B01D114
:10368000E32330E02449786800F08EFF0346002BE6
:1036900001D1EF2327E02149786800F085FF034638
:1036A000002B01D1FC231EE01D49786800F07CFF4F
:1036B0000346002B01D1442315E01A49786800F035
:1036C00073FF0346002B01D16E230CE01649786886
:1036D00000F06AFF0346002B01D1FF2303E01348EB
:1036E000FCF78AFF002318460837BD4680BD00BF9F
:1036F0004C4C0008544C00085C4C0008684C000816
:10370000704C00087C4C0008844C0008904C000869
:10371000984C0008A44C0008AC4C0008BC4C0008B5
:10372000C44C0008CC4C0008D44C0008D84C00080D
:1037300080B58AB004AF4D494D4800F035FF0346CF
:10374000002B0ED14B48FFF73FFF78617B69019357
:10375000494B0093494B4A4A4A494B48FDF74CF9BB
:103760007FE04A49424800F01FFF0346002B0CD17E
:103770004148FFF729FF38613B6900933F4B404ABE
:1037800040494148FDF702FA6BE04149384800F0F2
:103790000BFF0346002B0CD13748FFF715FFF860ED
:1037A000FB680093354B364A36493748FDF752FAE5
:1037B00057E038492E4800F0F7FE0346002B10D1A1
:1037C0003548FFF701FFB860BB680293294B0193AE
:1037D000294B0093294B2A4A2A492B48FDF786FAA0
:1037E0003FE02E49224800F0DFFE0346002B0ED1B9
:1037F0002148FFF7E9FE78601E4B01937B68009338
:103800001E4B1F4A1F492048FDF768FB29E0244949
:10381000174800F0C9FE0346002B05D1184A194984
:103820001948FEF749FC1CE01E49114800F0BCFE97
:103830000346002B07D11448FFF7C6FE38603868EE
:10384000FEF74AFD0DE01849094800F0ADFE0346B9
:10385000002B03D10C48FEF74FFD02E01348FCF7A4
:10386000CBFE00BF1837BD4680BD00BFF04C00083E
:1038700070640120FC640120E8640120D46401200C
:10388000AC6401209864012084640120F84C000895
:10389000004D00080C4D000810650120184D00086F
:1038A000204D0008284D0008344D00083C4D00080C
:1038B00081F0004102E000BF83F0004330B54FEAE1
:1038C00041044FEA430594EA050F08BF90EA020F4E
:1038D0001FBF54EA000C55EA020C7FEA645C7FEAE1
:1038E000655C00F0E2804FEA5454D4EB5555B8BF04
:1038F0006D420CDD2C4480EA020281EA030382EA75
:10390000000083EA010180EA020281EA0303362D06
:1039100088BF30BD11F0004F4FEA01314FF4801CD9
:103920004CEA113102D0404261EB410113F0004FEB
:103930004FEA03334CEA133302D0524263EB4303A2
:1039400094EA050F00F0A780A4F10104D5F1200E40
:103950000DDB02FA0EFC22FA05F2801841F100019B
:1039600003FA0EF2801843FA05F359410EE0A5F16F
:1039700020050EF1200E012A03FA0EFC28BF4CF0A0
:10398000020C43FA05F3C01851EBE37101F0004556
:1039900007D54FF0000EDCF1000C7EEB00006EEB63
:1039A0000101B1F5801F1BD3B1F5001F0CD34908ED
:1039B0005FEA30004FEA3C0C04F101044FEA445244
:1039C00012F5800F80F09A80BCF1004F08BF5FEACB
:1039D000500C50F1000041EB045141EA050130BDAB
:1039E0005FEA4C0C404141EB010111F4801FA4F14E
:1039F0000104E9D191F0000F04BF01460020B1FAA3
:103A000081F308BF2033A3F10B03B3F120020CDADA
:103A10000C3208DD02F1140CC2F10C0201FA0CF0B8
:103A200021FA02F10CE002F11402D8BFC2F1200C1D
:103A300001FA02F120FA0CFCDCBF41EA0C019040D3
:103A4000E41AA2BF01EB0451294330BD6FEA04041C
:103A50001F3C1CDA0C340EDC04F11404C4F1200207
:103A600020FA04F001FA02F340EA030021FA04F319
:103A700045EA030130BDC4F10C04C4F1200220FA70
:103A800002F001FA04F340EA0300294630BD21FAAE
:103A900004F0294630BD94F0000F83F4801306BF74
:103AA00081F480110134013D4EE77FEA645C18BF68
:103AB0007FEA655C29D094EA050F08BF90EA020FFF
:103AC00005D054EA000C04BF1946104630BD91EAF7
:103AD000030F1EBF0021002030BD5FEA545C05D1FA
:103AE0004000494128BF41F0004130BD14F5800439
:103AF0003CBF01F5801130BD01F0004545F0FE41AD
:103B000041F470014FF0000030BD7FEA645C1ABFE1
:103B1000194610467FEA655C1CBF0B46024650EA18
:103B2000013406BF52EA033591EA030F41F4002144
:103B300030BD00BF90F0000F04BF0021704730B5CA
:103B40004FF4806404F132044FF000054FF000019F
:103B500050E700BF90F0000F04BF0021704730B560
:103B60004FF4806404F1320410F0004548BF404235
:103B70004FF000013EE700BF42004FEAE2014FEA8A
:103B800031014FEA02701FBF12F07F4393F07F4F65
:103B900081F06051704792F0000F14BF93F07F4F97
:103BA000704730B54FF4607401F0004521F00041DA
:103BB00020E700BF50EA010208BF704730B54FF060
:103BC00000050AE050EA010208BF704730B511F065
:103BD000004502D5404261EB41014FF4806404F19D
:103BE00032045FEA915C3FF4DCAE4FF003025FEA1F
:103BF000DC0C18BF03325FEADC0C18BF033202EBA7
:103C0000DC02C2F1200300FA03FC20FA02F001FA00
:103C100003FE40EA0E0021FA02F11444C1E600BF9F
:103C200070B54FF0FF0C4CF4E06C1CEA11541DBF52
:103C30001CEA135594EA0C0F95EA0C0F00F0DEF81D
:103C40002C4481EA030621EA4C5123EA4C5350EA02
:103C5000013518BF52EA033541F4801143F4801353
:103C600038D0A0FB02CE4FF00005E1FB02E506F0E4
:103C70000042E0FB03E54FF00006E1FB03569CF039
:103C8000000F18BF4EF0010EA4F1FF04B6F5007F3F
:103C900064F5407404D25FEA4E0E6D4146EB0606B1
:103CA00042EAC62141EA55514FEAC52040EA5E503A
:103CB0004FEACE2EB4F1FD0C88BFBCF5E06F1ED8E4
:103CC000BEF1004F08BF5FEA500E50F1000041EB1B
:103CD000045170BD06F0004646EA010140EA0200C8
:103CE00081EA0301B4EB5C04C2BFD4EB0C0541EAEA
:103CF000045170BD41F480114FF0000E013C00F3FF
:103D0000AB8014F1360FDEBF002001F0004170BD22
:103D1000C4F10004203C35DA0C341BDC04F114043B
:103D2000C4F1200500FA05F320FA04F001FA05F2C7
:103D300040EA020001F0004221F0004110EBD37094
:103D400021FA04F642EB06015EEA430E08BF20EAC0
:103D5000D37070BDC4F10C04C4F1200500FA04F363
:103D600020FA05F001FA04F240EA020001F00041F5
:103D700010EBD37041F100015EEA430E08BF20EA68
:103D8000D37070BDC4F1200500FA05F24EEA020EB0
:103D900020FA04F301FA05F243EA020321FA04F0DF
:103DA00001F0004121FA04F220EA020000EBD37096
:103DB0005EEA430E08BF20EAD37070BD94F0000F96
:103DC0000FD101F00046400041EB010111F4801FCA
:103DD00008BF013CF7D041EA060195F0000F18BF7B
:103DE000704703F00046520043EB030313F4801FB7
:103DF00008BF013DF7D043EA0603704794EA0C0F71
:103E00000CEA135518BF95EA0C0F0CD050EA410686
:103E100018BF52EA4306D1D181EA030101F0004103
:103E20004FF0000070BD50EA410606BF104619462B
:103E300052EA430619D094EA0C0F02D150EA013637
:103E400013D195EA0C0F05D152EA03361CBF104678
:103E500019460AD181EA030101F0004141F0FE4117
:103E600041F470014FF0000070BD41F0FE4141F49B
:103E7000780170BD70B54FF0FF0C4CF4E06C1CEA9B
:103E800011541DBF1CEA135594EA0C0F95EA0C0F50
:103E900000F0A7F8A4EB050481EA030E52EA03350B
:103EA0004FEA013100F088804FEA03334FF080552C
:103EB00045EA131343EA12634FEA022245EA111559
:103EC00045EA10654FEA00260EF000419D4208BF0A
:103ED000964244F1FD0404F5407402D25B084FEAB7
:103EE0003202B61A65EB03055B084FEA32024FF463
:103EF00080104FF4002CB6EB020E75EB030E22BFC0
:103F0000B61A754640EA0C005B084FEA3202B6EB7F
:103F1000020E75EB030E22BFB61A754640EA5C002E
:103F20005B084FEA3202B6EB020E75EB030E22BFBE
:103F3000B61A754640EA9C005B084FEA3202B6EBBF
:103F4000020E75EB030E22BFB61A754640EADC007E
:103F500055EA060E18D04FEA051545EA16754FEAE0
:103F600006164FEAC30343EA52734FEAC2025FEAFE
:103F70001C1CC0D111F4801F0BD141EA00014FF08D
:103F800000004FF0004CB6E711F4801F04BF01435E
:103F90000020B4F1FD0C88BFBCF5E06F3FF6AFAE7A
:103FA000B5EB030C04BFB6EB020C5FEA500C50F10A
:103FB000000041EB045170BD0EF0004E4EEA11318D
:103FC00014EB5C04C2BFD4EB0C0541EA045170BD94
:103FD00041F480114FF0000E013C90E645EA060ED8
:103FE0008DE60CEA135594EA0C0F08BF95EA0C0F06
:103FF0003FF43BAF94EA0C0F0AD150EA01347FF44E
:1040000034AF95EA0C0F7FF425AF104619462CE724
:1040100095EA0C0F06D152EA03353FF4FDAE104687
:10402000194622E750EA410618BF52EA43067FF4D8
:10403000C5AE50EA41047FF40DAF52EA43057FF468
:10404000EBAE12E74FEA410212F5001215D211D57C
:104050006FF47873B3EB625212D94FEAC12343F085
:10406000004343EA505311F0004F23FA02F018BF07
:10407000404270474FF00000704750EA013005D1D0
:1040800011F0004008BF6FF0004070474FF0000093
:10409000704700BF4A0011D212F5001211D20DD59F
:1040A0006FF47873B3EB62520ED44FEAC12343F03E
:1040B000004343EA505323FA02F070474FF00000E8
:1040C000704750EA013002D14FF0FF3070474FF097
:1040D0000000704780F0004002E000BF81F0004126
:1040E00042001FBF5FEA410392EA030F7FEA226C9E
:1040F0007FEA236C6AD04FEA1262D2EB1363C1BF2E
:10410000D218414048404140B8BF5B42192B88BF9C
:10411000704710F0004F40F4000020F07F4018BFBF
:10412000404211F0004F41F4000121F07F4118BFDF
:10413000494292EA030F3FD0A2F1010241FA03FC87
:1041400010EB0C00C3F1200301FA03F100F000436F
:1041500002D5494260EB4000B0F5000F13D3B0F137
:10416000807F06D340084FEA310102F10102FE2AA6
:1041700051D2B1F1004F40EBC25008BF20F0010016
:1041800040EA03007047490040EB000010F4000FC4
:10419000A2F10102EDD1B0FA80FCACF1080CB2EB57
:1041A0000C0200FA0CF0AABF00EBC25052421843B6
:1041B000BCBFD0401843704792F0000F81F400015B
:1041C00006BF80F400000132013BB5E74FEA41032E
:1041D0007FEA226C18BF7FEA236C21D092EA030F9A
:1041E00004D092F0000F08BF0846704790EA010F14
:1041F0001CBF0020704712F07F4F04D1400028BF41
:1042000040F00040704712F100723CBF00F5000022
:10421000704700F0004343F0FE4040F40000704758
:104220007FEA226216BF08467FEA23630146420204
:1042300006BF5FEA412390EA010F40F48000704717
:104240004FF0000304E000BF10F0004348BF4042BD
:104250005FEA000C08BF704743F0964301464FF0F9
:1042600000001CE050EA010208BF70474FF0000355
:104270000AE000BF50EA010208BF704711F0004396
:1042800002D5404261EB41015FEA010C02BF844666
:104290000146002043F0B64308BFA3F18053A3F5C5
:1042A0000003BCFA8CF2083AA3EBC25310DB01FA0C
:1042B00002FC634400FA02FCC2F12002BCF1004F90
:1042C00020FA02F243EB020008BF20F00100704721
:1042D00002F1200201FA02FCC2F1200250EA4C0075
:1042E00021FA02F243EB020008BF20EADC707047BB
:1042F0004FF0FF0C1CEAD0521EBF1CEAD15392EAC9
:104300000C0F93EA0C0F6FD01A4480EA010C4002A4
:1043100018BF5FEA41211ED04FF0006343EA5010FE
:1043200043EA5111A0FB01310CF00040B1F5000F40
:104330003EBF490041EAD3715B0040EA010062F1EF
:104340007F02FD2A1DD8B3F1004F40EBC25008BFD9
:1043500020F00100704790F0000F0CF0004C08BFF7
:1043600049024CEA502040EA51207F3AC2BFD2F1C4
:10437000FF0340EAC250704740F400004FF00003D2
:10438000013A5DDC12F1190FDCBF00F0004070470C
:10439000C2F10002410021FA02F1C2F1200200FA4A
:1043A00002FC5FEA310040F1000053EA4C0308BF11
:1043B00020EADC70704792F0000F00F0004C02BF62
:1043C000400010F4000F013AF9D040EA0C0093F0DD
:1043D000000F01F0004C02BF490011F4000F013B37
:1043E000F9D041EA0C018FE70CEAD15392EA0C0FA5
:1043F00018BF93EA0C0F0AD030F0004C18BF31F010
:10440000004CD8D180EA010000F00040704790F0E5
:10441000000F17BF90F0004F084691F0000F91F089
:10442000004F14D092EA0C0F01D142020FD193EA4F
:104430000C0F03D14B0218BF084608D180EA0100D7
:1044400000F0004040F0FE4040F40000704740F0B3
:10445000FE4040F4400070474FF0FF0C1CEAD05281
:104460001EBF1CEAD15392EA0C0F93EA0C0F69D0DD
:10447000A2EB030280EA010C49024FEA402037D048
:104480004FF0805343EA111143EA10130CF000403F
:104490008B4238BF5B0042F17D024FF4000C8B422F
:1044A00024BF5B1A40EA0C00B3EB510F24BFA3EB0F
:1044B000510340EA5C00B3EB910F24BFA3EB9103DF
:1044C00040EA9C00B3EBD10F24BFA3EBD10340EA39
:1044D000DC001B0118BF5FEA1C1CE0D1FD2A3FF67F
:1044E00050AF8B4240EBC25008BF20F00100704734
:1044F0000CF0004C4CEA50207F32C2BFD2F1FF03D7
:1045000040EAC250704740F400004FF00003013A07
:1045100037E792F0000F00F0004C02BF400010F4AB
:10452000000F013AF9D040EA0C0093F0000F01F0BF
:10453000004C02BF490011F4000F013BF9D041EAE1
:104540000C0195E70CEAD15392EA0C0F08D1420214
:104550007FF47DAF93EA0C0F7FF470AF084676E7E7
:1045600093EA0C0F04D14B023FF44CAF08466EE7C0
:1045700030F0004C18BF31F0004CCAD130F000428E
:104580007FF45CAF31F000437FF43CAF5FE700BFE6
:104590000A22002100F010BB000000000000000013
:1045A000A2EB0300704700BF02780B78012A28BFF6
:1045B0009A42F5D16DE9044540EA0104CDE902676C
:1045C0006FF0000C4FEA447212B380EA010414F059
:1045D000070F6AD100F0070420F0070004F003057C
:1045E00021F007014FEAC505F0E8042314F0040F99
:1045F000F1E804670CFA05F462EA040266EA0406CC
:104600000AD063EA0403624667EA0407664603E0E9
:10461000F0E80423F1E8046782FA4CF582EA060424
:10462000A4FA8CF46CBB83FA4CF583EA0705A5FA6F
:104630008CF595B950E9022351E9026782FA4CF5ED
:1046400082EA0604A4FA8CF483FA4CF583EA07059F
:10465000A5FA8CF52543DBD09CB92DBAB5FA85F4C3
:1046600024F0070427FA04F1DDE9026723FA04F3D2
:1046700003F0FF0001F0FF01FDE80445A0EB01009D
:10468000704724BAB4FA84F424F0070426FA04F13B
:10469000DDE9026722FA04F202F0FF0001F0FF01F7
:1046A000FDE80445A0EB0100704714F0030F3CD176
:1046B00010F0030428D150F8082B51F8083B82FA77
:1046C0004CF582EA0305A5FA8CF55DB950F8042C87
:1046D00051F8043C82FA4CF582EA0305A5FA8CF500
:1046E000002DE8D02DBAB5FA85F424F0070423FA9A
:1046F00004F122FA04F202F0FF0001F0FF01FDE8EC
:104700000445A0EB010070474FEAC40420F0030009
:1047100050F8082B21F0030151F8083B0CFA04F47F
:1047200062EA040263EA0403C9E710F003041AD042
:10473000A1EB040120F00300E40750F8042B06D09D
:104740000FD28B785FFAA2F4E41A06D12BB1CB78A2
:104750005FFAB2F4E41A00D11BB920465DF8104BA1
:10476000704701F1040150F8042BCC0721F003013C
:1047700051F8043B48D824D222F07F4482FA4CF509
:1047800094EA1325A5FA8CF50AD165B951F8043BD2
:1047900084EA0204B4EB036F0ED150F8042BEBE76C
:1047A0004FEA132355E035F07F454DD10878FDE8F9
:1047B0000445C0F1000070474FEA126203F0FF03A6
:1047C00047E002EA1C4482FA4CF594EA1345A5FA44
:1047D0008CF50AD165B951F8043B84EA0204B4EBC4
:1047E000034F0CD150F8042BEBE74FEA134330E0B2
:1047F00015EA1C4528D10B884FEA124229E04FEAFE
:10480000124203EA1C4324E002F0FF0482FA4CF552
:1048100094EA1365A5FA8CF50AD165B951F8043B01
:1048200084EA0204B4EB032F09D150F8042BEBE720
:104830004FEA13630DE015F0FF0F05D10B684FEA47
:10484000122223F07F4304E04FF00000FDE804450E
:10485000704712BA1BBA82FA4CF482EA0304A4FA33
:104860008CF5B5FA85F402FA04F203FA04F34FEA80
:104870001260FDE80445A0EB1360704780EA010276
:10488000844612F0030F4FD111F0030F32D14DF8CF
:10489000044D11F0040F51F8043B0BD0A3F1013289
:1048A0009A4312F0803F04BF4CF8043B51F8043B9C
:1048B00016D100BF51F8044BA3F101329A4312F014
:1048C000803FA4F101320BD14CF8043BA24312F01B
:1048D000803F04BF51F8043B4CF8044BEAD0234618
:1048E0000CF8013B13F0FF0F4FEA3323F8D15DF8CA
:1048F000044B704711F0010F06D011F8012B0CF892
:10490000012B002A08BF704711F0020FBFD031F809
:10491000022B12F0FF0F16BF2CF8022B8CF8002090
:1049200012F47F4FB3D1704711F8012B0CF8012B13
:10493000002AF9D1704700BF00000000000000000D
:1049400090F800F06DE9024520F007016FF0000CCF
:1049500010F0070491F820F040F049804FF0000477
:104960006FF00700D1E9002391F840F000F1080052
:1049700082FA4CF2A4FA8CF283FA4CF3A2FA8CF38A
:104980004BBBD1E9022382FA4CF200F10800A4FAF1
:104990008CF283FA4CF3A2FA8CF3E3B9D1E9042345
:1049A00082FA4CF200F10800A4FA8CF283FA4CF37C
:1049B000A2FA8CF37BB9D1E9062301F1200182FA36
:1049C0004CF200F10800A4FA8CF283FA4CF3A2FA3C
:1049D0008CF3002BC6D0002A04BF04301A4612BA4A
:1049E000B2FA82F2FDE8024500EBD2007047D1E94D
:1049F000002304F00305C4F100004FEAC50514F0DC
:104A0000040F91F840F00CFA05F562EA05021CBFAC
:104A100063EA050362464FF00004A9E7024B1A68F7
:104A200001235C3200F002B840360020F0B420B31D
:104A300007460D4617F8016B01E0A64216D015F89F
:104A4000014B002CF9D1EEB13E460C4616F8015B45
:104A500000E073B114F8013B9D42FAD15DB100232F
:104A60003B70166006463046F0BC704763B138466E
:104A7000DEE73746E8E72E46F3E710680028D7D18F
:104A80000646F0E71660EEE7176006460370EAE7B1
:104A90002DE9F04F474C83460E46D4F800E000E085
:104AA0002646344614F8015B0EEB0500407800F012
:104AB000080000F0FF080028F2D12D2D5CD02B2D2E
:104AC00004BF7578B41C002B3ED0102B60D09A46E2
:104AD000B8F1000F0CBF6FF000404FF0004000270E
:104AE000B0FBFAF9BC460AFB19000CE0303DAB42C2
:104AF00019DD7E1C05D0CC4523D820D00AFB0C5CE8
:104B0000012714F8015B0EEB0506767816F0040F0A
:104B1000ECD116F0030606D0012E14BF5726372617
:104B2000AD1BAB42E5DC7B1C16D0B8F1000F10D1F9
:104B30006046002A39D0DFB91160BDE8F08F8542A8
:104B4000DCDD4FF0FF37DCE7302D1AD00A239A4620
:104B5000BEE7CCF1000CEBE7B8F1000F4FF02203F9
:104B60000CBF6FF000404FF00040CBF80030F2B1C6
:104B7000611E1160BDE8F08FB41C75784FF001081C
:104B8000A1E7237803F0DF03582B08D008239EE722
:104B9000302D9CD1207800F0DF00582897D14FF0BD
:104BA000100A65785346023492E7BDE8F08FBDE8FD
:104BB000F08F00BF1032002010B4044C13460A4698
:104BC0000146206810BCFFF763BF00BF40360020DD
:104BD00054797065206965747320696E206465205E
:104BE000756172740A0000002C0000000A204565FF
:104BF0006E3D00000A20547765653D000A2044722E
:104C000069653D000A20566965723D000A205669B3
:104C10006A663D000A205A65733D00000A205A6505
:104C200076656E3D000000000A20416368743D0017
:104C30000A204572726F723A205465207665656C61
:104C400020617267756D656E74656E007A7761724A
:104C500074000000626C6175770000006C69636825
:104C600074626C617577000067726F656E0000009A
:104C70006C6963687467726F656E00006379616167
:104C80006E0000006C69636874637961616E000096
:104C9000726F6F64000000006C69636874726F6FFC
:104CA000640000006D6167656E7461006C69636823
:104CB000746D6167656E7461000000006765656C06
:104CC00000000000627275696E0000006772696A18
:104CD00073000000776974000A204572726F723A9F
:104CE000206B6C657572206F6E62656B656E64001B
:104CF0006C696A6E00000000656C6C69707300007E
:104D00007265636874686F656B0000006472696542
:104D1000686F656B0000000074656B7374000000C1
:104D20006269746D61700000636C656172736368C1
:104D300065726D0077616368740000000A20457237
:104D4000726F723A206F6E62656B656E7420656576
:104D50007273746520617267756D656E7400000012
:104D6000002020202020202020202828282828203B
:104D70002020202020202020202020202020202033
:104D8000208810101010101010101010101010109B
:104D9000100404040404040404040410101010108B
:104DA0001010414141414141010101010101010155
:104DB00001010101010101010101010110101010A7
:104DC0001010424242424242020202020202020227
:104DD000020202020202020202020202101010107B
:104DE00020000000000000000000000000000000A3
:104DF00000000000000000000000000000000000B3
:104E000000000000000000000000000000000000A2
:104E10000000000000000000000000000000000092
:104E20000000000000000000000000000000000082
:104E30000000000000000000000000000000000072
:104E40000000000000000000000000000000000062
:104E50000000000000000000000000000000000052
:084E6000000000004300000007
:104E68000000000001020304010203040607080908
:104E7800FF000000FF000000FF000000FF0000002E
:104E88000300000003000000FF000000FF00000016
:104E9800FF000000FF000000FF000000FF0000000E
:104EA800FF000000FF00000003000000FF000000FA
:104EB80003000000FF000000FF000000FF000000EA
:104EC800FF000000FF000000FF000000FF000000DE
:104ED80003000000FF000000FF00000003000000C6
:104EE800FF000000FF0000000300000003000000B6
:104EF800030000000300000003000000FF000000A2
:104F0800FF000000FF00000003000000FF00000099
:104F180003000000FF000000FF000000FF00000089
:104F2800FF000000FF000000FF000000FF0000007D
:104F3800FF0000000300000003000000FF00000065
:104F4800FF000000FF000000FF000000FF0000005D
:104F5800FF000000FF000000FF0000000300000049
:104F6800030000000300000003000000030000002D
:104F780003000000FF000000FF000000FF00000029
:104F880003000000FF000000FF000000FF00000019
:104F9800FF000000FF00000003000000FF00000009
:104FA800FF00000003000000FF000000FF000000F9
:104FB800FF000000FF000000FF000000FF000000ED
:104FC80003000000FF00000003000000FF000000D5
:104FD800FF000000FF000000FF000000FF000000CD
:104FE800FF000000FF0000000300000003000000B5
:104FF800FF000000FF000000FF000000FF000000AD
:10500800FF000000FF000000FF000000FF0000009C
:105018000300000003000000FF000000FF00000084
:10502800FF000000FF000000FF000000FF0000007C
:10503800FF00000003000000FF000000FF00000068
:1050480003000000FF000000FF000000FF00000058
:10505800FF000000FF00000003000000FF00000048
:10506800FF000000FF000000FF0000000300000038
:10507800FF000000FF000000FF0000000300000028
:10508800FF000000FF000000FF000000FF0000001C
:10509800FF000000FF00000003000000FF00000008
:1050A80003000000FF000000FF000000FF000000F8
:1050B800FF000000FF000000FF000000FF000000EC
:1050C800FF000000030000000300000003000000D0
:1050D8000300000003000000FF000000FF000000C4
:1050E80003000000030000000300000003000000AC
:1050F800FF000000FF000000FF00000003000000A8
:10510800FF000000FF00000003000000FF00000097
:10511800FF000000FF000000FF000000FF0000008B
:10512800FF00000003000000FF000000FF00000077
:1051380003000000FF000000FF000000FF00000067
:10514800FF000000FF000000FF0000000300000057
:10515800FF000000FF00000003000000FF00000047
:10516800FF000000FF000000FF000000FF0000003B
:10517800FF0000000300000003000000030000001F
:1051880003000000FF000000FF000000FF00000017
:10519800FF000000FF000000FF000000FF0000000B
:1051A8000300000003000000FF000000FF000000F3
:1051B800FF000000FF000000FF000000FF000000EB
:1051C800FF00000003000000FF00000003000000D3
:1051D800FF000000FF000000FF000000FF000000CB
:1051E800FF000000FF00000003000000FF000000B7
:1051F800FF00000003000000FF000000FF000000A7
:10520800FF000000FF000000FF0000000300000096
:10521800FF000000FF000000FF0000000300000086
:10522800030000000300000003000000030000006A
:1052380003000000FF000000FF000000FF00000066
:10524800FF000000FF000000FF000000FF0000005A
:10525800FF0000000300000003000000FF00000042
:10526800FF000000FF000000FF000000FF0000003A
:10527800FF000000FF000000FF0000000300000026
:10528800FF00000003000000FF000000FF00000016
:10529800FF000000030000000300000003000000FE
:1052A8000300000003000000FF000000FF000000F2
:1052B80003000000FF000000FF00000003000000E2
:1052C800FF000000FF000000FF000000FF000000DA
:1052D800FF000000FF000000FF00000003000000C6
:1052E800FF00000003000000FF000000FF000000B6
:1052F800FF000000FF000000FF000000FF000000AA
:10530800FF000000FF000000030000000300000091
:10531800FF000000FF000000FF000000FF00000089
:10532800FF000000FF000000FF0000000300000075
:10533800030000000300000003000000FF0000005D
:10534800FF000000FF000000FF000000FF00000059
:10535800FF00000003000000FF000000FF00000045
:1053680003000000FF000000FF000000FF00000035
:10537800FF000000FF000000FF0000000300000025
:10538800FF000000FF00000003000000FF00000015
:10539800FF000000FF000000FF000000FF00000009
:1053A800FF00000003000000FF000000FF000000F5
:1053B80003000000FF000000FF000000FF000000E5
:1053C80003000000030000000300000003000000C9
:1053D800FF000000FF0000000300000003000000C1
:1053E800030000000300000003000000FF000000AD
:1053F800FF000000FF000000FF000000FF000000A9
:10540800FF000000FF000000FF0000000300000094
:10541800FF00000003000000FF000000FF00000084
:10542800FF000000FF000000FF000000FF00000078
:1054380003000000FF000000FF000000FF00000064
:1054480003000000FF000000FF000000FF00000054
:10545800FF00000003000000FF000000FF00000044
:10546800FF000000FF000000FF0000000300000034
:10547800FF000000FF00000003000000FF00000024
:10548800FF000000FF000000FF000000FF00000018
:10549800FF000000FF000000030000000300000000
:1054A800FF000000FF000000FF000000FF000000F8
:1054B800FF000000FF000000FF00000003000000E4
:1054C800030000000300000003000000FF000000CC
:1054D800FF000000FF000000FF000000FF000000C8
:1054E80003000000FF000000FF000000FF000000B4
:1054F800FF00000003000000FF000000FF000000A4
:10550800FF00000003000000FF000000FF00000093
:10551800FF000000FF000000FF000000FF00000087
:1055280003000000FF00000003000000FF0000006F
:10553800FF00000003000000FF000000FF00000063
:1055480003000000FF000000FF000000030000004F
:1055580003000000FF000000FF000000FF00000043
:10556800FF000000FF000000FF000000FF00000037
:10557800FF0000000300000003000000FF0000001F
:10558800FF000000FF000000FF000000FF00000017
:10559800FF000000FF000000FF0000000300000003
:1055A80003000000FF000000FF00000003000000EF
:1055B800FF000000FF00000003000000FF000000E3
:1055C800FF00000003000000FF00000003000000CF
:1055D800FF000000FF0000000300000003000000BF
:1055E800FF000000FF00000003000000FF000000B3
:1055F800FF000000FF00000003000000FF000000A3
:10560800FF000000FF000000FF0000000300000092
:10561800FF000000FF000000FF000000FF00000086
:10562800FF0000000300000003000000030000006A
:1056380003000000FF000000FF000000FF00000062
:10564800FF000000FF000000FF0000000300000052
:10565800030000000300000003000000FF0000003A
:10566800FF000000FF000000FF000000FF00000036
:1056780003000000FF000000FF000000FF00000022
:10568800FF00000003000000FF000000FF00000012
:10569800FF00000003000000FF000000FF00000002
:1056A800FF000000FF000000FF000000FF000000F6
:1056B80003000000FF00000003000000FF000000DE
:1056C800FF00000003000000FF000000FF000000D2
:1056D80003000000FF000000FF00000003000000BE
:1056E80003000000FF000000FF000000FF000000B2
:1056F800FF000000FF000000FF000000FF000000A6
:10570800FF0000000300000003000000FF0000008D
:10571800FF000000FF00000003000000030000007D
:10572800FF000000FF000000FF0000000300000071
:1057380003000000FF000000FF000000030000005D
:10574800FF000000FF00000003000000FF00000051
:10575800FF00000003000000FF000000030000003D
:10576800FF000000FF000000FF000000FF00000035
:10577800FF000000FF00000003000000FF00000021
:10578800FF000000FF00000003000000FF00000011
:10579800FF000000FF000000FF0000000300000001
:1057A800FF000000FF000000FF000000FF000000F5
:1057B800FF000000030000000300000003000000D9
:1057C80003000000FF000000FF000000FF000000D1
:1057D80000000000000000000000000000000000C1
:1057E80000000000000000000000000000000000B1
:1057F80000000000000000000000000000000000A1
:10580800000000000000000001000000010000008E
:105818000000000000000000000000000000000080
:10582800000000000000000000000000010000006F
:10583800000000000000000001000000000000005F
:105848000000000000000000000000000000000050
:10585800010000000000000000000000000000003F
:10586800000000000100000000000000000000002F
:10587800000000000100000000000000000000001F
:105888000000000000000000000000000000000010
:1058980001000000000000000000000001000000FE
:1058A80001000000010000000100000001000000EC
:1058B80001000000010000000100000000000000DD
:1058C80000000000010000000000000000000000CF
:1058D80000000000000000000000000000000000C0
:1058E80001000000000000000000000001000000AE
:1058F80000000000000000000000000000000000A0
:10590800000000000000000001000000000000008E
:10591800000000000100000000000000000000007E
:10592800000000000000000000000000000000006F
:10593800010000000000000000000000000000005E
:10594800000000000000000000000000000000004F
:10595800000000000000000000000000000000003F
:10596800000000000000000000000000000000002F
:10597800000000000000000000000000000000001F
:10598800000000000000000000000000010000000E
:1059980001000000010000000100000001000000FB
:1059A80000000000000000000000000000000000EF
:1059B80000000000010000000000000000000000DE
:1059C80000000000000000000100000000000000CE
:1059D80000000000000000000000000001000000BE
:1059E80000000000000000000000000000000000AF
:1059F800010000000000000000000000000000009E
:105A0800000000000100000001000000010000008B
:105A1800010000000100000000000000000000007C
:105A2800000000000000000000000000010000006D
:105A3800000000000000000000000000000000005E
:105A4800010000000100000000000000000000004C
:105A5800000000000100000000000000000000003D
:105A6800000000000000000000000000010000002D
:105A7800000000000000000000000000010000001D
:105A8800000000000000000000000000000000000E
:105A980001000000010000000000000000000000FC
:105AA80000000000010000000100000001000000EB
:105AB80001000000010000000000000000000000DC
:105AC80000000000000000000000000000000000CE
