:020000040800F2
:10000000BC3A012071070008CD070008CD070008A1
:10001000CD070008CD070008CD070008000000004C
:10002000000000000000000000000000CD070008F4
:10003000CD07000800000000CD070008CD0700082C
:10004000CD070008CD070008CD070008CD07000840
:10005000CD070008CD070008CD070008CD07000830
:10006000CD070008CD070008CD070008CD07000820
:10007000CD070008CD070008CD070008CD07000810
:10008000CD070008CD070008CD070008CD07000800
:10009000CD070008CD070008CD070008CD070008F0
:1000A000CD070008CD070008CD070008CD070008E0
:1000B000ED640008CD070008CD070008CD07000853
:1000C000CD070008CD070008CD070008CD070008C0
:1000D000CD070008CD07000835060008CD07000849
:1000E000CD070008CD070008CD070008CD070008A0
:1000F000CD070008CD070008CD070008CD07000890
:10010000CD070008CD070008CD070008CD0700087F
:10011000CD070008CD070008CD070008CD0700086F
:10012000CD070008CD070008CD070008CD0700085F
:10013000CD070008CD070008CD070008CD0700084F
:10014000CD070008CD070008CD070008CD0700083F
:10015000A9650008CD070008CD070008CD070008F5
:10016000CD070008CD070008CD070008CD0700081F
:10017000CD070008CD070008CD070008CD0700080F
:10018000CD070008CD07000880B582B000AF7860C9
:100190000021786800F0C0FA786806F0B3FC00BF70
:1001A0000837BD4680BD00BF80B58AB000AF78601B
:1001B000396000237B6200233B620023FB61002344
:1001C000BB617B681B8A9BB27B627B6A23F44053D2
:1001D0007B623B68DB881A467B6A13437B627B6ADF
:1001E0009AB27B681A827B689B899BB27B627B6A2E
:1001F00023F4B05323F00C037B623B689A883B687E
:100200001B8913439AB23B685B8913439BB21A461E
:100210007B6A13437B627B6A9AB27B689A817B68B4
:100220009B8A9BB27B627B6A23F440737B623B6850
:100230009B891A467B6A13437B627B6A9AB27B680E
:100240009A8207F10803184600F0DAFA7B68304A10
:10025000934203D07B682F4A934202D17B693B6271
:1002600001E03B693B627B689B899BB21BB2002B20
:100270000CDA3A6A13469B0013449A001A443B680E
:100280001B685B00B2FBF3F3FB610BE03A6A1346B9
:100290009B0013449A001A443B681B689B00B2FB06
:1002A000F3F3FB61FB691C4AA2FB03235B091B01FF
:1002B0007B627B6A1B09642202FB03F3FA69D31A8F
:1002C000BB617B689B899BB21BB2002B0CDABB69BC
:1002D000DB003233104AA2FB03235B0903F0070360
:1002E0007A6A13437B620BE0BB691B0132330A4A13
:1002F000A2FB03235B0903F00F037A6A13437B62BB
:100300007B6A9AB27B681A8100BF2837BD4680BDE0
:1003100000100140001401401F85EB5180B483B0F0
:1003200000AF78600B46FB70FB78002B08D07B6831
:100330009B899BB243F400539AB27B689A8107E091
:100340007B689B899BB223F400539AB27B689A81A5
:1003500000BF0C37BD4680BC704700BF80B483B07F
:1003600000AF78600B467B807B88C3F308039AB2AA
:100370007B689A8000BF0C37BD4680BC704700BFC9
:1003800080B487B000AF78600B467B8013467B70EB
:1003900000233B610023FB600023BB6000237B61E3
:1003A0007B687B617B88DBB25B09DBB23B617B886E
:1003B00003F01F03FB600122FB6802FA03F3BB603A
:1003C0003B69012B03D17B690C337B6109E03B69FD
:1003D000022B03D17B6910337B6102E07B6914330C
:1003E0007B617B78002B06D07B697A691168BA68DB
:1003F0000A431A6006E07B697A691168BA68D243D9
:100400000A401A6000BF1C37BD4680BC704700BF61
:1004100080B485B000AF78600B467B800023FB730F
:100420007B681B889AB27B8813409BB2002B02D05A
:100430000123FB7301E00023FB73FB7B1846143799
:10044000BD4680BC704700BF80B487B000AF786005
:100450000B467B800023FB6000237B610023BB6095
:100460000023FB747B88DBB25B09DBB2BB607B885B
:1004700003F01F037B6101227B6902FA03F37B61B6
:10048000BB68012B07D17B689B899BB21A467B69AD
:1004900013407B6111E0BB68022B07D17B681B8A8C
:1004A0009BB21A467B6913407B6106E07B689B8A9E
:1004B0009BB21A467B6913407B617B881B0A9BB207
:1004C000FB600122FB6802FA03F3FB607B681B8878
:1004D0009BB21A46FB681340FB607B69002B05D07A
:1004E000FB68002B02D00123FB7401E00023FB74A6
:1004F000FB7C18461C37BD4680BC704780B485B075
:1005000000AF78600B467B800023FB810023BB811A
:100510007B881B0AFB81FB89012202FA03F3BB8162
:10052000BB89DB439AB27B681A8000BF1437BD4693
:1005300080BC704780B586B000AF01214FF4003019
:1005400000F026FA0121012000F004FA0C233B619F
:1005500002233B750023BB750123FB7502237B75CA
:1005600007F110031946164805F08AFA07220221FE
:10057000134805F013FB07220321114805F00EFB79
:100580004FF4E1333B600023BB800023FB8000235A
:100590003B810023BB810C237B813B4619460948E4
:1005A000FFF702FE012240F225510648FFF7E8FE60
:1005B00001210448FFF7B2FE00BF1837BD4680BDD9
:1005C000000002400044004080B582B000AF034606
:1005D000FB7100BF80210848FFF71AFF0346002B7C
:1005E000F8D0FB799BB219460348FFF7B7FE00BF6E
:1005F0000837BD4680BD00BF0044004080B584B0D0
:1006000000AF78600023FB6009E0FB687A68134460
:100610001B781846FFF7D8FFFB680133FB60FB68C7
:100620007A6813441B78002BEFD100BF1037BD460A
:1006300080BD00BF80B582B000AF40F22551274891
:10064000FFF702FF0346002B44D040F22551234818
:10065000FFF754FF214B9B889BB2FB70FB78402B2C
:1006600005D9FB785A2B02D8FB782033FB70FB7836
:100670000D2B1DD800237B600BE0194A7B681344C7
:100680001B789BB219461548FFF768FE7B6801335B
:100690007B60144B1B687A689A42EEDB114B002298
:1006A0001A60FB789BB219460C48FFF757FE09E029
:1006B0000C4B1B680A49FA78CA540A4B1B68013371
:1006C000084A136000BF40210448FFF7A1FE03461B
:1006D000002BF8D000BF0837BD4680BD0044004065
:1006E000AC0400204404002080B582B000AFFF239A
:1006F000FB7120210748FFF78BFE0346012B03D136
:10070000044B9B889BB2FB71FB7918460837BD46AA
:1007100080BD00BF0044004080B582B000AF78606B
:100720003960FFF7E1FF03461A467B681A707B6861
:100730001B78FF2B17D07B681B780A2B13D03B68E4
:10074000002B04D07B681B781846FFF73DFF7B68C1
:100750001B780D2B03D17B6800221A7005E07B68A3
:1007600001337B60DDE700BFDBE70837BD4680BDB6
:1007700080B582B000AF104B7B60104B3B6007E050
:100780003B681A1D3A607A68111D796012681A6018
:100790003B680B4A9342F3D30A480B494FF00002DF
:1007A0008842B8BF40F8042BFADB00F013F800BF12
:1007B0000837BD4680BD00BF7C92000800000020C5
:1007C0004404002044040020C032012080B400AF63
:1007D000FEE700BF80B500AF05F028FAFFF7AAFEDC
:1007E00005F0CEFC002005F00BFD0348FFF706FFE7
:1007F0000248FFF7C9FCFBE75085000848040020C9
:1008000080B489B000AF78600023BB6100237B61B6
:100810000023FB6102233B610023FB600223BB60DA
:10082000484B9B6803F00C03BB61BB69042B07D0EA
:10083000082B09D0002B3FD17B68434A1A603FE068
:100840007B68424A1A603BE03E4B5B6803F48003DE
:100850009B0DFB603B4B5B6803F03F03BB60FB6899
:10086000002B0DD0394ABB68B2FBF3F2354B596807
:1008700047F6C0730B409B0903FB02F3FB610CE0DE
:10088000314ABB68B2FBF3F22E4B596847F6C0738E
:100890000B409B0903FB02F3FB612A4B5B6803F4EB
:1008A00040331B0C01335B003B61FA693B69B2FBCF
:1008B000F3F27B681A6003E07B68234A1A6000BF8A
:1008C000204B9B6803F0F003BB61BB691B09BB6154
:1008D0001F4ABB6913441B78DBB27B617B681A68D3
:1008E0007B69DA407B685A60164B9B6803F4E053DF
:1008F000BB61BB699B0ABB61154ABB6913441B788A
:10090000DBB27B617B685A687B69DA407B689A60FE
:100910000C4B9B6803F46043BB61BB695B0BBB6121
:100920000B4ABB6913441B78DBB27B617B685A6856
:100930007B69DA407B68DA6000BF2437BD4680BC43
:10094000704700BF003802400024F40000127A0013
:100950000000002080B483B000AF78600B46FB70CD
:10096000FB78002B06D00949084B1A6B7B681343B0
:100970000B6306E00549054B1A6B7B68DB431340AC
:100980000B6300BF0C37BD4680BC70470038024087
:1009900080B483B000AF78600B46FB70FB78002B0F
:1009A00006D00949084B1A6C7B6813430B6406E0B8
:1009B0000549054B1A6C7B68DB4313400B6400BF91
:1009C0000C37BD4680BC70470038024080B483B00D
:1009D00000AF78600B46FB70FB78002B06D009490E
:1009E000084B5A6C7B6813434B6406E00549054B82
:1009F0005A6C7B68DB4313404B6400BF0C37BD4629
:100A000080BC704700380240B0B594B000AFF860C9
:100A1000B9607A603B60F86807F086F9F864B868F6
:100A200007F082F9B864786807F07EF9786438686E
:100A300007F07AF93864386E07F076F938630023E6
:100A40007B63FA6C7B6CD31A83EAE372A2EBE372EA
:100A5000B96C3B6CCB1A002BB8BF5B429A420DDAE3
:100A6000FB6CFB62BB6CFB64FB6ABB647B6CBB62B4
:100A70003B6C7B64BB6A3B6401237B63FA6C7B6CDD
:100A80009A420BDDFB6C7B627B6CFB647B6A7B6454
:100A9000BB6C3B623B6CBB643B6A3B640023BB6347
:100AA00071E0FA6CBB6B1344FB617A6CBB6B134453
:100AB000BB61FB69FB635FE0FA6BFB69D31A184605
:100AC00006F08EFF0446BA69FB69D31A184606F091
:100AD00087FF03461946204607F08AF803467B61E4
:100AE000B86C06F003FC04460D46786906F010FC6D
:100AF00002460B464FF00000274906F0A9FA0246CD
:100B00000B462046294606F057FC03460C46254670
:100B10001C46386C06F064FF03467969184606F0F7
:100B2000B3FF0346184606F0F3FB02460B46204689
:100B3000294606F08FFA03460C461846214606F071
:100B40004DFE03463B617B6B012B09D13B699BB298
:100B5000FA6B91B27A6ED2B2184605F073FB08E0D8
:100B6000FB6B9BB23A6991B27A6ED2B2184605F02D
:100B700069FBFB6B0133FB63FA6BBB699A429BDB3E
:100B8000BB6B0133BB63BA6B3B6B9A4289DB00BF23
:100B90005037BD46B0BD00BF0000F03F80B58AB001
:100BA00000AFF860B9607A603B60F86807F0BCF8A5
:100BB000F861B86807F0B8F8B861786807F0B4F879
:100BC0007861386807F0B0F838613B695B427B6256
:100BD0003FE07B695B423B6234E03B6A3A6A02FB7E
:100BE00003F33A6902FB03F33A6902FB03F27B6AFF
:100BF000796A01FB03F3796901FB03F3796901FB6E
:100C000003F31A443B69396901FB03F3796901FB7A
:100C100003F3796901FB03F39A4210DCFB699AB292
:100C20003B6A9BB2134498B2BB699AB27B6A9BB28F
:100C300013449BB23A6BD2B2194605F003FB3B6AF0
:100C400001333B623A6A7B699A42C6DD7B6A0133B3
:100C50007B627A6A3B699A42BBDD00BF2837BD469A
:100C600080BD00BF80B58AB000AFF860B9607A601F
:100C70003B60F86807F058F8F861B86807F054F876
:100C8000B861786807F050F87861386807F04CF878
:100C90003861FB697B6215E03B693B620BE07B6A74
:100CA0009BB23A6A91B23A6BD2B2184605F0CAFAD0
:100CB0003B6A01333B623A6ABB699A42EFDB7B6A6B
:100CC00001337B627A6A7B699A42E5DB00BF283791
:100CD000BD4680BD80B58CB002AFF860B9607A6067
:100CE0003B60F86807F020F87862B86807F01CF8F5
:100CF0003862786807F018F8F861386807F014F877
:100D0000B861386B07F010F87861786B07F00CF871
:100D10003861BB6B019301230093BB69FA69396A9F
:100D2000786A00F019F8BB6B0193012300933B69CB
:100D30007A69B969F86900F00FF8BB6B0193012378
:100D400000933B6A7A6A3969786900F005F800BF58
:100D50002837BD4680BD00BFB0B590B000AFF86089
:100D6000B9607A603B6000237B63FA687B68D31AC2
:100D700083EAE372A2EBE372B9683B68CB1A002BFB
:100D8000B8BF5B429A420DDAFB683B63BB68FB600D
:100D90003B6BBB607B68FB623B687B60FB6A3B60D4
:100DA00001237B63FA687B689A420BDDFB68BB62B8
:100DB0007B68FB60BB6A7B60BB687B623B68BB6037
:100DC0007B6A3B600023BB6371E0FA68BB6B134432
:100DD0003B627A68BB6B1344FB613B6AFB635FE079
:100DE000FA6B3B6AD31A184606F0FAFD0446FA6914
:100DF0003B6AD31A184606F0F3FD0346194620460F
:100E000006F0F6FE0346BB61B86806F06FFA0446CA
:100E10000D46B86906F07CFA02460B464FF000001A
:100E2000274906F015F902460B462046294606F0EA
:100E3000C3FA03460C4625461C46386806F0D0FD2A
:100E40000346B969184606F01FFE0346184606F029
:100E50005FFA02460B462046294606F0FBF8034699
:100E60000C461846214606F0B9FC03467B617B6BB5
:100E7000012B09D17B699BB2FA6B91B27A6DD2B228
:100E8000184605F0DFF908E0FB6B9BB27A6991B276
:100E90007A6DD2B2184605F0D5F9FB6B0133FB63CE
:100EA000FA6BFB699A429BDBBB6B0133BB63BA6B8A
:100EB0003B6D9A4289DB00BF4037BD46B0BD00BFE5
:100EC0000000F03F90B5ADF5255D83B000AF07F1B0
:100ED00048043C3C206007F10800016007F108016C
:100EE00004390A6007F10802083A136007F1480361
:100EF0003C3B186806F018FF07F5255303F104037F
:100F0000186007F10803186806F00EFF07F5245370
:100F100003F130031860002307F52552136017E032
:100F200007F525531A6807F10803043B1B681344AF
:100F3000197807F5245207F525531B6813440A4610
:100F40001A7007F525531B68013307F52552136006
:100F500007F525531B68272BE2DD07F51C5303F12A
:100F6000200318464FF4C8731A46002106F07AFF92
:100F700007F51C5303F1200307F5255202F118026F
:100F800012681A6107F51C5303F1200307F5255277
:100F900002F1180212685A6107F51C5303F120038D
:100FA00007F5255202F1180212685A6307F51C531F
:100FB00003F1200307F5255202F1180212681A64A2
:100FC00007F51C5303F1200307F5255202F118021F
:100FD00012689A6507F51C5303F1200307F52552A3
:100FE00002F118021268DA6607F51C5303F12003B8
:100FF00007F5255202F118021268C3F8802007F5A0
:101000001C5303F1200307F5255202F11802126860
:10101000C3F8942007F51C5303F1200307F525526C
:1010200002F118021268C3F8A42007F51C5303F15B
:10103000200307F5255202F118021268C3F8C020F8
:1010400007F51C5303F1200307F5255202F118029E
:101050001268C3F8CC2007F51C5303F1200307F5F1
:10106000255202F118021268C3F8D02007F51C536C
:1010700003F1200307F5255202F118021268C3F8A4
:10108000D42007F51C5303F1200307F5255202F184
:1010900018021268C3F8D82007F51C5303F1200387
:1010A00007F5255202F118021268C3F8DC2007F593
:1010B0001C5303F1200307F5255202F118021268B0
:1010C000C3F8E02007F51C5303F1200307F5255270
:1010D00002F118021268C3F8E42007F51C5303F16B
:1010E000200307F5255202F118021268C3F8E82020
:1010F00007F51C5303F1200307F5255202F11802EE
:101100001268C3F8F42007F51C5303F1200307F518
:10111000255202F118021268C3F8102107F51C537A
:1011200003F1200307F5255202F118021268C3F8F3
:101130001C2107F51C5303F1200307F5255202F18A
:1011400018021268C3F8382107F51C5303F1200375
:1011500007F5255202F118021268C3F8442107F579
:101160001C5303F1200307F5255202F118021268FF
:10117000C3F8602107F5165303F1100300221A602B
:1011800007F5165303F1100300225A6007F51653B2
:1011900003F1100300229A6007F5165303F11003C0
:1011A0000022DA6007F5165303F1100300221A61DA
:1011B00007F5165303F1100300225A6107F5165381
:1011C00003F1100300229A6107F5165303F110038F
:1011D0000022DA6107F5165303F1100300221A62A8
:1011E00007F5165303F1100300225A6207F5165350
:1011F00003F1100300229A6207F5165303F110035E
:1012000007F5255202F118021268DA6207F5165343
:1012100003F1100307F5255202F1180212681A6350
:1012200007F5165303F1100307F5255202F11802D2
:1012300012685A6307F5165303F1100307F5255298
:1012400002F1180212689A6307F5165303F11003AE
:1012500007F5255202F118021268DA6307F51653F2
:1012600003F1100300221A6407F5165303F110036B
:1012700000225A6407F5165303F1100300229A6402
:1012800007F5165303F110030022DA6407F516532D
:1012900003F1100300221A6507F5165303F110033A
:1012A00007F5255202F1180212685A6507F5165320
:1012B00003F1100300229A6507F5165303F110039A
:1012C0000022DA6507F5165303F1100300221A66AF
:1012D00007F5165303F1100300225A6607F516535B
:1012E00003F1100307F5255202F1180212689A66FD
:1012F00007F5165303F110030022DA6607F51653BB
:1013000003F1100300221A6707F5165303F11003C7
:1013100000225A6707F5165303F1100300229A675B
:1013200007F5165303F1100307F5255202F11802D1
:101330001268DA6707F5165303F110030022C3F8A9
:10134000802007F5165303F110030022C3F8842010
:1013500007F5165303F110030022C3F8882007F5A0
:10136000165303F110030022C3F88C2007F516531F
:1013700003F1100307F5255202F118021268C3F8B1
:10138000902007F5165303F110030022C3F89420B0
:1013900007F5165303F110030022C3F8982007F550
:1013A000165303F110030022C3F89C2007F51653CF
:1013B00003F110030022C3F8A02007F5165303F130
:1013C000100307F5255202F118021268C3F8A42091
:1013D00007F5165303F1100307F5255202F1180221
:1013E0001268C3F8A82007F5165303F1100307F598
:1013F000255202F118021268C3F8AC2007F5165303
:1014000003F1100307F5255202F118021268C3F820
:10141000B02007F5165303F1100307F5255202F12A
:1014200018021268C3F8B42007F5165303F110032D
:101430000022C3F8B82007F5165303F11003002269
:10144000C3F8BC2007F5165303F110030022C3F8BC
:10145000C02007F5165303F110030022C3F8C4207F
:1014600007F5165303F110030022C3F8C82007F54F
:10147000165303F1100307F5255202F11802126802
:10148000C3F8CC2007F5165303F110030022C3F86C
:10149000D02007F5165303F110030022C3F8D4201F
:1014A00007F5165303F110030022C3F8D82007F5FF
:1014B000165303F110030022C3F8DC2007F516537E
:1014C00003F1100307F5255202F118021268C3F860
:1014D000E02007F5165303F1100307F5255202F13A
:1014E00018021268C3F8E42007F5165303F110033D
:1014F0000022C3F8E82007F5165303F11003002279
:10150000C3F8EC2007F5165303F110030022C3F8CB
:10151000F02007F5165303F1100307F5255202F1E9
:1015200018021268C3F8F42007F5165303F11003EC
:101530000022C3F8F82007F5165303F11003002228
:10154000C3F8FC2007F5165303F110030022C3F87B
:10155000002107F5165303F110030022C3F80421FC
:1015600007F5165303F110030022C3F8082107F50D
:10157000165303F1100307F5255202F11802126801
:10158000C3F80C2107F5165303F110030022C3F82A
:10159000102107F5165303F110030022C3F814219C
:1015A00007F5165303F110030022C3F8182107F5BD
:1015B000165303F1100307F5255202F118021268C1
:1015C000C3F81C2107F5165303F110030022C3F8DA
:1015D000202107F5165303F110030022C3F824213C
:1015E00007F5165303F110030022C3F8282107F56D
:1015F000165303F110030022C3F82C2107F51653EC
:1016000003F1100307F5255202F118021268C3F81E
:10161000302107F5165303F1100307F5255202F1A7
:1016200018021268C3F8342107F5165303F11003AA
:101630000022C3F8382107F5165303F110030022E6
:10164000C3F83C2107F5165303F110030022C3F839
:10165000402107F5165303F1100307F5255202F157
:1016600018021268C3F8442107F5165303F110035A
:1016700007F5255202F118021268C3F8482107F550
:10168000165303F1100307F5255202F118021268F0
:10169000C3F84C2107F5165303F1100307F5255243
:1016A00002F118021268C3F8502107F5165303F12E
:1016B000100307F5255202F118021268C3F85421ED
:1016C00007F5165303F110030022C3F8582107F55C
:1016D000165303F110030022C3F85C2107F51653DB
:1016E00003F110030022C3F8602107F5165303F13C
:1016F00010030022C3F8642107F5165303F1100309
:101700000022C3F8682107F5165303F110030022E5
:10171000C3F86C2107F5165303F110030022C3F838
:10172000702107F5165303F110030022C3F874214A
:1017300007F5165303F110030022C3F8782107F5CB
:10174000165303F110030022C3F87C2107F516534A
:1017500003F110030022C3F8802107F5165303F1AB
:1017600010030022C3F8842107F5165303F1100378
:101770000022C3F8882107F5165303F11003002255
:10178000C3F88C2107F5105318464FF4C8731A4656
:10179000002106F067FB07F5105307F5255202F10B
:1017A000180212685A6307F5105307F5255202F123
:1017B000180212689A6307F5105307F5255202F1D3
:1017C00018021268DA6307F5105307F5255202F183
:1017D000180212681A6407F5105307F5255202F132
:1017E000180212689A6507F5105307F5255202F1A1
:1017F00018021268DA6607F5105307F5255202F150
:1018000018021268DA6707F5105307F5255202F13E
:1018100018021268C3F8982007F5105307F52552EF
:1018200002F118021268C3F8A42007F5105307F557
:10183000255202F118021268C3F8CC2007F51053A4
:1018400007F5255202F118021268C3F8F42007F5D3
:10185000105307F5255202F118021268C3F810213F
:1018600007F5105307F5255202F118021268C3F864
:10187000202107F5105307F5255202F118021268CE
:10188000C3F8342107F5105307F5255202F1180269
:101890001268C3F84C2107F5105307F5255202F1E1
:1018A00018021268C3F8502107F5105307F52552A6
:1018B00002F118021268C3F8542107F5105307F516
:1018C000255202F118021268C3F8582107F509538E
:1018D00003F1300318464FF4C8731A46002106F08E
:1018E000C1FA07F5095303F1300307F5255202F158
:1018F00018021268DA6207F5095303F1300307F59D
:10190000255202F1180212681A6307F5095303F110
:10191000300307F5255202F1180212685A6307F5E1
:10192000095303F1300307F5255202F1180212683A
:101930009A6307F5095303F1300307F5255202F1C5
:1019400018021268DA6307F5095303F1300307F54B
:10195000255202F1180212681A6407F5095303F1BF
:10196000300307F5255202F1180212685A6507F58F
:10197000095303F1300307F5255202F118021268EA
:10198000DA6607F5095303F1300307F5255202F132
:1019900018021268DA6707F5095303F1300307F5F7
:1019A000255202F118021268C3F8982007F509536E
:1019B00003F1300307F5255202F118021268C3F84B
:1019C000A42007F5095303F1300307F5255202F16E
:1019D00018021268C3F8C02007F5095303F1300359
:1019E00007F5255202F118021268C3F8CC2007F55A
:1019F000095303F1300307F5255202F1180212686A
:101A0000C3F8E82007F5095303F1300307F5255221
:101A100002F118021268C3F8F42007F5095303F124
:101A2000300307F5255202F118021268C3F810219D
:101A300007F5095303F1300307F5255202F11802A7
:101A40001268C3F81C2107F5095303F1300307F5A9
:101A5000255202F118021268C3F8342107F5095320
:101A600003F1300307F5255202F118021268C3F89A
:101A7000442107F5095303F1300307F5255202F11C
:101A800018021268C3F8482107F5095303F130031F
:101A900007F5255202F118021268C3F84C2107F528
:101AA000095303F1300307F5255202F118021268B9
:101AB000C3F8502107F5095303F1300307F5255208
:101AC00002F118021268C3F8542107F5095303F113
:101AD000300307F5255202F118021268C3F85821A5
:101AE00007F5035303F1200300221A6007F503539F
:101AF00003F1200300225A6007F5035303F120038A
:101B000000229A6007F5035303F120030022DA60F4
:101B100007F5035303F1200300221A6107F503536D
:101B200003F1200300225A6107F5035303F1200358
:101B300000229A6107F5035303F120030022DA61C2
:101B400007F5035303F1200300221A6207F503533C
:101B500003F1200300225A6207F5035303F1200327
:101B600000229A6207F5035303F1200307F525527B
:101B700002F118021268DA6207F5035303F1200339
:101B800007F5255202F1180212681A6307F503538C
:101B900003F1200307F5255202F1180212685A6377
:101BA00007F5035303F1200307F5255202F118024C
:101BB00012689A6307F5035303F1200307F52552D2
:101BC00002F118021268DA6307F5035303F12003E8
:101BD00007F5255202F1180212681A6407F503533B
:101BE00003F1200307F5255202F1180212685A6426
:101BF00007F5035303F1200307F5255202F11802FC
:101C000012689A6407F5035303F120030022DA6493
:101C100007F5035303F1200300221A6507F5035368
:101C200003F1200307F5255202F1180212685A65E4
:101C300007F5035303F1200300229A6507F50353C8
:101C400003F120030022DA6507F5035303F12003B3
:101C500000221A6607F5035303F1200300225A6697
:101C600007F5035303F1200300229A6607F5035397
:101C700003F120030022DA6607F5035303F1200382
:101C800000221A6707F5035303F1200300225A6765
:101C900007F5035303F1200300229A6707F5035366
:101CA00003F1200307F5255202F118021268DA67E2
:101CB00007F5035303F120030022C3F8802007F542
:101CC000035303F120030022C3F8842007F50353D4
:101CD00003F120030022C3F8882007F5035303F122
:101CE00020030022C3F88C2007F5035303F12003DF
:101CF0000022C3F8902007F5035303F120030022CC
:101D0000C3F8942007F5035303F120030022C3F81E
:101D1000982007F5035303F120030022C3F89C2009
:101D200007F5035303F120030022C3F8A02007F5B1
:101D3000035303F1200307F5255202F1180212683C
:101D4000C3F8A42007F5035303F1200307F5255238
:101D500002F118021268C3F8A82007F5035303F133
:101D6000200307F5255202F118021268C3F8AC20CF
:101D700007F5035303F1200307F5255202F118027A
:101D80001268C3F8B02007F5035303F120030022C3
:101D9000C3F8B42007F5035303F120030022C3F86E
:101DA000B82007F5035303F120030022C3F8BC2039
:101DB00007F5035303F120030022C3F8C02007F501
:101DC000035303F120030022C3F8C42007F5035393
:101DD00003F120030022C3F8C82007F5035303F1E1
:101DE000200307F5255202F118021268C3F8CC202F
:101DF00007F5035303F120030022C3F8D02007F5B1
:101E0000035303F120030022C3F8D42007F5035342
:101E100003F120030022C3F8D82007F5035303F190
:101E200020030022C3F8DC2007F5035303F120034D
:101E30000022C3F8E02007F5035303F1200300223A
:101E4000C3F8E42007F5035303F120030022C3F88D
:101E5000E82007F5035303F120030022C3F8EC2028
:101E600007F5035303F120030022C3F8F02007F520
:101E7000035303F1200307F5255202F118021268FB
:101E8000C3F8F42007F5035303F120030022C3F83D
:101E9000F82007F5035303F120030022C3F8FC20C8
:101EA00007F5035303F120030022C3F8002107F5CF
:101EB000035303F120030022C3F8042107F5035361
:101EC00003F120030022C3F8082107F5035303F1AF
:101ED00020030022C3F80C2107F5035303F120036C
:101EE0000022C3F8102107F5035303F12003002259
:101EF000C3F8142107F5035303F120030022C3F8AC
:101F0000182107F5035303F1200307F5255202F1C9
:101F100018021268C3F81C2107F5035303F12003CC
:101F20000022C3F8202107F5035303F12003002208
:101F3000C3F8242107F5035303F120030022C3F85B
:101F4000282107F5035303F120030022C3F82C21B5
:101F500007F5035303F120030022C3F8302107F5EE
:101F6000035303F120030022C3F8342107F5035380
:101F700003F120030022C3F8382107F5035303F1CE
:101F800020030022C3F83C2107F5035303F120038B
:101F90000022C3F8402107F5035303F1200307F59E
:101FA000255202F118021268C3F8442107F50353C1
:101FB00003F1200307F5255202F118021268C3F855
:101FC000482107F5035303F1200307F5255202F1D9
:101FD00018021268C3F84C2107F5035303F12003DC
:101FE00007F5255202F118021268C3F8502107F5CF
:101FF000035303F1200307F5255202F1180212687A
:10200000C3F8542107F5035303F1200307F52552C4
:1020100002F118021268C3F8582107F5035303F1BF
:10202000200307F5255202F118021268C3F85C215B
:1020300007F5035303F1200307F5255202F11802B7
:102040001268C3F8602107F5035303F1200300224F
:10205000C3F8642107F5035303F120030022C3F8FA
:10206000682107F5035303F120030022C3F86C2114
:1020700007F5035303F120030022C3F8702107F58D
:10208000035303F120030022C3F8742107F503531F
:1020900003F120030022C3F8782107F5035303F16D
:1020A00020030022C3F87C2107F5035303F120032A
:1020B0000022C3F8802107F5035303F12003002217
:1020C000C3F8842107F5035303F120030022C3F86A
:1020D000882107F5035303F120030022C3F88C2164
:1020E00007F5FA5303F1100318464FF4C8731A4664
:1020F000002105F0B7FE07F5FA5303F1100307F5C9
:10210000255202F1180212681A6307F5FA5303F117
:10211000100307F5255202F1180212685A6307F5F9
:10212000FA5303F1100307F5255202F11802126861
:102130009A6307F5FA5303F1100307F5255202F1EC
:1021400018021268DA6307F5FA5303F1100307F572
:10215000255202F1180212681A6407F5FA5303F1C6
:10216000100307F5255202F1180212685A6407F5A8
:10217000FA5303F1100307F5255202F11802126811
:102180009A6507F5FA5303F1100307F5255202F19A
:1021900018021268C3F8802007F5FA5303F1100300
:1021A00007F5255202F118021268C3F8A82007F5B6
:1021B000FA5303F1100307F5255202F118021268D1
:1021C000C3F8AC2007F5FA5303F1100307F52552C5
:1021D00002F118021268C3F8B02007F5FA5303F1B0
:1021E000100307F5255202F118021268C3F8D02037
:1021F00007F5FA5303F1100307F5255202F118020F
:102200001268C3F8F82007F5FA5303F1100307F535
:10221000255202F118021268C3F8202107F5FA537B
:1022200003F1100307F5255202F118021268C3F8F2
:10223000482107F5EE5318464FF4C8731A4600219B
:1022400005F010FE07F5EE5307F5255202F11802CE
:1022500012685A6307F5EE5307F5255202F118028A
:1022600012689A6307F5EE5307F5255202F118023A
:102270001268DA6307F5EE5307F5255202F11802EA
:1022800012681A6407F5EE5307F5255202F1180299
:1022900012689A6507F5EE5307F5255202F1180208
:1022A0001268DA6607F5EE5307F5255202F11802B7
:1022B0001268DA6707F5EE5307F5255202F11802A6
:1022C0001268C3F8A42007F5EE5307F5255202F172
:1022D00018021268C3F8CC2007F5EE5307F5255213
:1022E00002F118021268C3F8E02007F5EE5307F573
:1022F000255202F118021268C3F8E42007F5EE53E4
:1023000007F5255202F118021268C3F8E82007F514
:10231000EE5307F5255202F118021268C3F8F420B3
:1023200007F5EE5307F5255202F118021268C3F8BB
:102330000C2107F5EE5307F5255202F11802126839
:10234000C3F8202107F5EE5307F5255202F11802D4
:102350001268C3F8302107F5EE5307F5255202F154
:1023600018021268C3F84C2107F5EE5307F5255201
:1023700002F118021268C3F8502107F5EE5307F571
:10238000255202F118021268C3F8542107F5E153EF
:1023900003F1100318464FF4C8731A46002105F0E4
:1023A00061FD07F5E15303F1100307F5255202F132
:1023B00018021268DA6207F5E15303F1100307F51A
:1023C000255202F1180212689A6407F5E15303F1ED
:1023D000100307F5255202F1180212685A6507F535
:1023E000E15303F1100307F5255202F118021268B8
:1023F0001A6707F5E15303F1100307F5255202F1BF
:1024000018021268DA6707F5E15303F1100307F5C4
:10241000255202F118021268C3F8982007F5E1531B
:1024200003F1100307F5255202F118021268C3F8F0
:10243000A42007F5E15303F1100307F5255202F13B
:1024400018021268C3F8C02007F5E15303F1100326
:1024500007F5255202F118021268C3F8CC2007F5DF
:10246000E15303F1100307F5255202F11802126837
:10247000C3F8D02007F5E15303F1100307F5255207
:1024800002F118021268C3F8D42007F5E15303F1F2
:10249000100307F5255202F118021268C3F8D8207C
:1024A00007F5E15303F1100307F5255202F1180275
:1024B0001268C3F8DC2007F5E15303F1100307F5B8
:1024C000255202F118021268C3F8E02007F5E15323
:1024D00003F1100307F5255202F118021268C3F840
:1024E000E42007F5E15303F1100307F5255202F14B
:1024F00018021268C3F8E82007F5E15303F110034E
:1025000007F5255202F118021268C3F8F42007F506
:10251000E15303F1100307F5255202F11802126886
:10252000C3F8102107F5E15303F1100307F5255215
:1025300002F118021268C3F81C2107F5E15303F1F8
:10254000100307F5255202F118021268C3F838216A
:1025500007F5E15303F1100307F5255202F11802C4
:102560001268C3F8442107F5E15303F1100307F59E
:10257000255202F118021268C3F8602107F5D553FD
:1025800018464FF4C8731A46002105F06BFC07F596
:10259000D55307F5255202F118021268DA6207F5E1
:1025A000D55307F5255202F1180212681A6307F590
:1025B000D55307F5255202F1180212685A6307F540
:1025C000D55307F5255202F1180212689A6307F5F0
:1025D000D55307F5255202F118021268DA6307F5A0
:1025E000D55307F5255202F1180212681A6407F54F
:1025F000D55307F5255202F1180212685A6407F5FF
:10260000D55307F5255202F1180212681A6607F52C
:10261000D55307F5255202F118021268C3F8882035
:1026200007F5D55307F5255202F118021268C3F8D1
:10263000B02007F5D55307F5255202F118021268AC
:10264000C3F8D82007F5D55307F5255202F1180233
:102650001268C3F8002107F5D55307F5255202F19A
:1026600018021268C3F8282107F5D55307F525523B
:1026700002F118021268C3F8442107F5D55307F593
:10268000255202F118021268C3F8482107F5D55304
:1026900007F5255202F118021268C3F84C2107F51C
:1026A000D55307F5255202F118021268C3F85021DC
:1026B00007F5D55307F5255202F118021268C3F841
:1026C000542107F5D55307F5255202F11802126877
:1026D000C3F8582107F5D55307F5255202F1180222
:1026E0001268C3F85C2107F5C95303F10803183BCE
:1026F00018464FF4C8731A46002105F0B3FB07F5DE
:10270000C95303F10803183B07F5255202F11802DB
:1027100012689A6307F5C95303F10803183B07F5DC
:10272000255202F118021268DA6307F5C95303F162
:102730000803183B07F5255202F1180212681A64C3
:1027400007F5C95303F10803183B07F5255202F1B9
:10275000180212685A6407F5C95303F10803183BBD
:1027600007F5255202F1180212689A6407F5C95359
:1027700003F10803183B07F5255202F1180212680D
:102780001A6707F5C95303F10803183B07F52552EB
:1027900002F118021268C3F8982007F5C95303F133
:1027A0000803183B07F5255202F118021268C3F816
:1027B000C02007F5C95303F10803183B07F525525C
:1027C00002F118021268C3F8E82007F5C95303F1B3
:1027D0000803183B07F5255202F118021268C3F8E6
:1027E000F82007F5C95303F10803183B07F52552F4
:1027F00002F118021268C3F8102107F5C95303F15A
:102800000803183B07F5255202F118021268C3F8B5
:10281000242107F5C95303F10803183B07F5255296
:1028200002F118021268C3F8342107F5C95303F105
:102830000803183B07F5255202F118021268C3F885
:10284000502107F5C95303F10803183B07F525523A
:1028500002F118021268C3F8542107F5C95303F1B5
:102860000803183B07F5255202F118021268C3F855
:10287000582107F5BC5303F10803083B18464FF4F1
:10288000C8731A46002105F0EDFA07F5BC5303F1B1
:102890000803083B07F5255202F1180212681A6373
:1028A00007F5BC5303F10803083B07F5255202F175
:1028B000180212685A6407F5BC5303F10803083B79
:1028C00007F5255202F1180212689A6507F5BC5304
:1028D00003F10803083B07F5255202F118021268BC
:1028E0009A6607F5BC5303F10803083B07F5255228
:1028F00002F118021268C3F8802007F5BC5303F1F7
:102900000803083B07F5255202F118021268C3F8C4
:102910008C2007F5BC5303F10803083B07F525524B
:1029200002F118021268C3F8A82007F5BC5303F19E
:102930000803083B07F5255202F118021268C3F894
:10294000AC2007F5BC5303F10803083B07F52552FB
:1029500002F118021268C3F8B02007F5BC5303F166
:102960000803083B07F5255202F118021268C3F864
:10297000D02007F5BC5303F10803083B07F52552A7
:1029800002F118021268C3F8D42007F5BC5303F112
:102990000803083B07F5255202F118021268C3F834
:1029A000F82007F5BC5303F10803083B07F525524F
:1029B00002F118021268C3F8002107F5BC5303F1B5
:1029C0000803083B07F5255202F118021268C3F804
:1029D000042107F5BC5303F10803083B07F5255212
:1029E00002F118021268C3F8202107F5BC5303F165
:1029F0000803083B07F5255202F118021268C3F8D4
:102A0000302107F5BC5303F10803083B07F52552B5
:102A100002F118021268C3F8482107F5BC5303F10C
:102A20000803083B07F5255202F118021268C3F8A3
:102A30005C2107F5B05303F10803183B18464FF427
:102A4000C8731A46002105F00DFA07F5B05303F1DB
:102A50000803183B07F5255202F1180212681A63A1
:102A600007F5B05303F10803183B07F5255202F1AF
:102A7000180212689A6507F5B05303F10803183B72
:102A800007F5255202F118021268C3F8802007F5F5
:102A9000B05303F10803183B07F5255202F1180261
:102AA0001268C3F8A82007F5B05303F10803183BD8
:102AB00007F5255202F118021268C3F8D02007F575
:102AC000B05303F10803183B07F5255202F1180231
:102AD0001268C3F8F82007F5B05303F10803183B58
:102AE00007F5255202F118021268C3F8202107F5F4
:102AF000B05303F10803183B07F5255202F1180201
:102B00001268C3F8482107F5B05303F10803183BD6
:102B100007F5255202F118021268C3F84C2107F597
:102B2000B05303F10803183B07F5255202F11802D0
:102B30001268C3F8502107F5B05303F10803183B9E
:102B400007F5255202F118021268C3F8542107F55F
:102B5000B05303F10803183B07F5255202F11802A0
:102B60001268C3F8582107F5B05303F10803183B66
:102B700007F5255202F118021268C3F85C2107F527
:102B8000A35303F10803083B18464FF4C8731A46D1
:102B9000002105F067F907F5A35303F10803083B8B
:102BA00007F5255202F118021268DA6207F5A353FD
:102BB00003F10803083B07F5255202F118021268D9
:102BC0001A6307F5A35303F10803083B07F52552E1
:102BD00002F1180212685A6407F5A35303F10803BF
:102BE000083B07F5255202F1180212689A6407F5AE
:102BF000A35303F10803083B07F5255202F118021D
:102C000012685A6507F5A35303F10803083B07F55B
:102C1000255202F118021268DA6507F5A35303F191
:102C20000803083B07F5255202F1180212689A665C
:102C300007F5A35303F10803083B07F5255202F1FA
:102C4000180212681A6707F5A35303F10803083B3B
:102C500007F5255202F118021268DA6707F5A35347
:102C600003F10803083B07F5255202F11802126828
:102C7000C3F8842007F5A35303F10803083B07F5C5
:102C8000255202F118021268C3F8902007F5A353E9
:102C900003F10803083B07F5255202F118021268F8
:102CA000C3F8982007F5A35303F10803083B07F581
:102CB000255202F118021268C3F8A42007F5A353A5
:102CC00003F10803083B07F5255202F118021268C8
:102CD000C3F8B02007F5A35303F10803083B07F539
:102CE000255202F118021268C3F8B42007F5A35365
:102CF00003F10803083B07F5255202F11802126898
:102D0000C3F8C02007F5A35303F10803083B07F5F8
:102D1000255202F118021268C3F8CC2007F5A3531C
:102D200003F10803083B07F5255202F11802126867
:102D3000C3F8E82007F5A35303F10803083B07F5A0
:102D4000255202F118021268C3F8F42007F5A353C4
:102D500003F10803083B07F5255202F11802126837
:102D6000C3F8102107F5A35303F10803083B07F547
:102D7000255202F118021268C3F81C2107F5A3536B
:102D800003F10803083B07F5255202F11802126807
:102D9000C3F8382107F5A35303F10803083B07F5EF
:102DA000255202F118021268C3F8442107F5A35313
:102DB00003F10803083B07F5255202F118021268D7
:102DC000C3F8602107F5975303F10803183B184631
:102DD0004FF4C8731A46002105F044F807F59753DD
:102DE00003F10803183B07F5255202F11802126897
:102DF000DA6207F5975303F10803183B07F52552EC
:102E000002F1180212689A6407F5975303F1080358
:102E1000183B07F5255202F1180212685A6507F5AA
:102E2000975303F10803183B07F5255202F11802E6
:102E300012689A6507F5975303F10803183B07F5E5
:102E4000255202F1180212681A6707F5975303F129
:102E50000803183B07F5255202F118021268DA67D9
:102E600007F5975303F10803183B07F5255202F1C4
:102E700018021268C3F8842007F5975303F108037A
:102E8000183B07F5255202F118021268C3F8982082
:102E900007F5975303F10803183B07F5255202F194
:102EA00018021268C3F8A42007F5975303F108032A
:102EB000183B07F5255202F118021268C3F8B0203A
:102EC00007F5975303F10803183B07F5255202F164
:102ED00018021268C3F8C02007F5975303F10803DE
:102EE000183B07F5255202F118021268C3F8CC20EE
:102EF00007F5975303F10803183B07F5255202F134
:102F000018021268C3F8DC2007F5975303F1080391
:102F1000183B07F5255202F118021268C3F8E820A1
:102F200007F5975303F10803183B07F5255202F103
:102F300018021268C3F8F42007F5975303F1080349
:102F4000183B07F5255202F118021268C3F8082150
:102F500007F5975303F10803183B07F5255202F1D3
:102F600018021268C3F8102107F5975303F10803FC
:102F7000183B07F5255202F118021268C3F81C210C
:102F800007F5975303F10803183B07F5255202F1A3
:102F900018021268C3F8342107F5975303F10803A8
:102FA000183B07F5255202F118021268C3F83821C0
:102FB00007F5975303F10803183B07F5255202F173
:102FC00018021268C3F8442107F5975303F1080368
:102FD000183B07F5255202F118021268C3F8602168
:102FE00007F58A5303F10803083B18464FF4C873EA
:102FF0001A46002104F036FF07F58A5303F108034F
:10300000083B07F5255202F1180212685A6307F5CA
:103010008A5303F10803083B07F5255202F1180211
:1030200012689A6307F58A5303F10803083B07F512
:10303000255202F118021268DA6307F58A5303F188
:103040000803083B07F5255202F1180212681A64BA
:1030500007F58A5303F10803083B07F5255202F1EF
:10306000180212689A6507F58A5303F10803083BB2
:1030700007F5255202F118021268DA6607F58A533D
:1030800003F10803083B07F5255202F11802126804
:10309000DA6707F58A5303F10803083B07F5255261
:1030A00002F118021268C3F8982007F58A5303F159
:1030B0000803083B07F5255202F118021268C3F80D
:1030C000A42007F58A5303F10803083B07F52552AE
:1030D00002F118021268C3F8C02007F58A5303F101
:1030E0000803083B07F5255202F118021268C3F8DD
:1030F000CC2007F58A5303F10803083B07F5255256
:1031000002F118021268C3F8E82007F58A5303F1A8
:103110000803083B07F5255202F118021268C3F8AC
:10312000F42007F58A5303F10803083B07F52552FD
:1031300002F118021268C3F8102107F58A5303F14F
:103140000803083B07F5255202F118021268C3F87C
:10315000202107F58A5303F10803083B07F52552A0
:1031600002F118021268C3F8342107F58A5303F1FB
:103170000803083B07F5255202F118021268C3F84C
:103180004C2107F58A5303F10803083B07F5255244
:1031900002F118021268C3F8502107F58A5303F1AF
:1031A0000803083B07F5255202F118021268C3F81C
:1031B000542107F58A5303F10803083B07F525520C
:1031C00002F118021268C3F8582107F6C873183BB9
:1031D00018464FF4C8731A46002104F043FE07F660
:1031E000C873183B07F5255202F1180212681A63DA
:1031F00007F6C873183B07F5255202F1180212684A
:103200005A6307F6C873183B07F5255202F11802F6
:1032100012689A6307F6C873183B07F5255202F146
:1032200018021268DA6307F6C873183B07F52552CF
:1032300002F1180212681A6407F6C873183B07F502
:10324000255202F1180212689A6507F6C873183BF6
:1032500007F5255202F118021268DA6607F6C873FC
:10326000183B07F5255202F118021268C3F88020B6
:1032700007F6C873183B07F5255202F118021268C9
:10328000C3F8942007F6C873183B07F5255202F1DE
:1032900018021268C3F8A82007F6C873183B07F590
:1032A000255202F118021268C3F8AC2007F6C87361
:1032B000183B07F5255202F118021268C3F8B02036
:1032C00007F6C873183B07F5255202F11802126879
:1032D000C3F8B42007F6C873183B07F5255202F16E
:1032E00018021268C3F8B82007F6C873183B07F530
:1032F000255202F118021268C3F8D02007F6C873ED
:10330000183B07F5255202F118021268C3F8F8209D
:1033100007F6C873183B07F5255202F11802126828
:10332000C3F8202107F6C873183B07F5255202F1B0
:1033300018021268C3F8482107F62863083B1846AC
:103340004FF4C8731A46002104F08CFD07F6286379
:10335000083B07F5255202F1180212685A6307F676
:103360002863083B07F5255202F1180212689A6398
:1033700007F62863083B07F5255202F11802126888
:10338000DA6307F62863083B07F5255202F11802B5
:1033900012681A6407F62863083B07F5255202F104
:1033A000180212689A6507F62863083B07F525524C
:1033B00002F118021268DA6607F62863083B07F57F
:1033C000255202F118021268DA6707F62863083BF3
:1033D00007F5255202F118021268C3F8982007F683
:1033E0002863083B07F5255202F118021268C3F85A
:1033F000A42007F62863083B07F5255202F11802BE
:103400001268C3F8C02007F62863083B07F5255269
:1034100002F118021268C3F8CC2007F62863083BB3
:1034200007F5255202F118021268C3F8E82007F6E2
:103430002863083B07F5255202F118021268C3F809
:10344000F42007F62863083B07F5255202F118021D
:103450001268C3F8082107F62863083B07F52552D0
:1034600002F118021268C3F8102107F62863083B1E
:1034700007F5255202F118021268C3F8202107F659
:103480002863083B07F5255202F118021268C3F8B9
:10349000342107F62863083B07F5255202F118028C
:1034A0001268C3F84C2107F62863083B07F525523C
:1034B00002F118021268C3F8502107F62863083B8E
:1034C00007F5255202F118021268C3F8542107F6D5
:1034D0002863083B07F5255202F118021268C3F869
:1034E000582107F62863083B07F5255202F1180218
:1034F0001268C3F8602107F6A843183B00221A603F
:1035000007F6A843183B00225A6007F6A843183B69
:1035100000229A6007F6A843183B0022DA6007F6FB
:10352000A843183B00221A6107F6A843183B002263
:103530005A6107F6A843183B00229A6107F6A84390
:10354000183B0022DA6107F6A843183B00221A62F2
:1035500007F6A843183B00225A6207F6A843183B17
:1035600000229A6207F6A843183B07F5255202F19C
:1035700018021268DA6207F6A843183B07F52552CD
:1035800002F1180212681A6307F6A843183B07F500
:10359000255202F1180212685A6307F6A843183B35
:1035A00007F5255202F1180212689A6307F6A8433C
:1035B000183B07F5255202F118021268DA6307F684
:1035C000A843183B07F5255202F1180212681A6445
:1035D00007F6A843183B00225A6407F6A843183B95
:1035E00000229A6407F6A843183B0022DA6407F623
:1035F000A843183B00221A6507F6A843183B07F5B5
:10360000255202F1180212685A6507F6A843183BC2
:1036100000229A6507F6A843183B0022DA6507F6F0
:10362000A843183B00221A6607F6A843183B00225D
:103630005A6607F6A843183B00229A6607F6A84385
:10364000183B07F5255202F118021268DA6607F6F0
:10365000A843183B00221A6707F6A843183B00222C
:103660005A6707F6A843183B00229A6707F6A84353
:10367000183B07F5255202F118021268DA6707F6BF
:10368000A843183B0022C3F8802007F6A843183B44
:103690000022C3F8842007F6A843183B0022C3F891
:1036A000882007F6A843183B0022C3F88C2007F6B1
:1036B000A843183B0022C3F8902007F6A843183B04
:1036C00007F5255202F118021268C3F8942007F694
:1036D000A843183B0022C3F8982007F6A843183BDC
:1036E0000022C3F89C2007F6A843183B0022C3F829
:1036F000A02007F6A843183B07F5255202F118024F
:103700001268C3F8A42007F6A843183B07F5255212
:1037100002F118021268C3F8A82007F6A843183B64
:1037200007F5255202F118021268C3F8AC2007F61B
:10373000A843183B07F5255202F118021268C3F896
:10374000B02007F6A843183B07F5255202F11802EE
:103750001268C3F8B42007F6A843183B07F52552B2
:1037600002F118021268C3F8B82007F6A843183B04
:103770000022C3F8BC2007F6A843183B0022C3F878
:10378000C02007F6A843183B0022C3F8C42007F660
:10379000A843183B0022C3F8C82007F6A843183BEB
:1037A00007F5255202F118021268C3F8CC2007F67B
:1037B000A843183B07F5255202F118021268C3F816
:1037C000D02007F6A843183B07F5255202F118024E
:1037D0001268C3F8D42007F6A843183B0022C3F8A8
:1037E000D82007F6A843183B0022C3F8DC2007F6D0
:1037F000A843183B0022C3F8E02007F6A843183B73
:103800000022C3F8E42007F6A843183B0022C3F8BF
:10381000E82007F6A843183B0022C3F8EC2007F67F
:10382000A843183B0022C3F8F02007F6A843183B32
:1038300007F5255202F118021268C3F8F42007F6C2
:10384000A843183B0022C3F8F82007F6A843183B0A
:1038500007F5255202F118021268C3F8FC2007F69A
:10386000A843183B07F5255202F118021268C3F865
:10387000002107F6A843183B07F5255202F118026C
:103880001268C3F8042107F6A843183B0022C3F8C6
:10389000082107F6A843183B0022C3F80C2107F6BD
:1038A000A843183B0022C3F8102107F6A843183B91
:1038B0000022C3F8142107F6A843183B0022C3F8DE
:1038C000182107F6A843183B07F5255202F1180204
:1038D0001268C3F81C2107F6A843183B0022C3F85E
:1038E000202107F6A843183B0022C3F8242107F63D
:1038F000A843183B0022C3F8282107F6A843183B29
:1039000007F5255202F118021268C3F82C2107F6B8
:10391000A843183B07F5255202F118021268C3F8B4
:10392000302107F6A843183B0022C3F8342107F6DC
:10393000A843183B0022C3F8382107F6A843183BD8
:103940000022C3F83C2107F6A843183B0022C3F825
:10395000402107F6A843183B07F5255202F118024B
:103960001268C3F8442107F6A843183B0022C3F8A5
:10397000482107F6A843183B0022C3F84C2107F65C
:10398000A843183B0022C3F8502107F6A843183B70
:103990000022C3F8542107F6A843183B07F5255227
:1039A00002F118021268C3F8582107F6A843183B21
:1039B00007F5255202F118021268C3F85C2107F6D8
:1039C000A843183B0022C3F8602107F6A843183B20
:1039D0000022C3F8642107F6A843183B0022C3F86D
:1039E000682107F6A843183B0022C3F86C2107F6AC
:1039F000A843183B0022C3F8702107F6A843183BE0
:103A00000022C3F8742107F6A843183B0022C3F82C
:103A1000782107F6A843183B0022C3F87C2107F65B
:103A2000A843183B0022C3F8802107F6A843183B9F
:103A30000022C3F8842107F6A843183B0022C3F8EC
:103A4000882107F6A843183B0022C3F88C2107F60B
:103A50000833083B18464FF4C8731A46002104F097
:103A600001FA07F60833083B07F5255202F1180260
:103A70001268DA6507F60833083B07F5255202F1AC
:103A8000180212681A6607F60833083B07F5255234
:103A900002F1180212685A6607F60833083B07F568
:103AA000255202F1180212689A6607F60833083B9D
:103AB00007F5255202F118021268DA6607F6083394
:103AC000083B07F5255202F118021268C3F880205E
:103AD00007F60833083B07F5255202F11802126871
:103AE000C3F8A82007F60833083B07F5255202F172
:103AF00018021268C3F8D42007F60833083B07F50C
:103B0000255202F118021268C3F8D82007F60833CC
:103B1000083B07F5255202F118021268C3F8DC20B1
:103B200007F60833083B07F5255202F11802126820
:103B3000C3F8E02007F60833083B07F5255202F1E9
:103B400018021268C3F80C2107F60833083B07F582
:103B5000255202F118021268C3F8342107F608331F
:103B6000083B07F5255202F118021268C3F84821F4
:103B700007F60833083B07F5255202F118021268D0
:103B8000C3F84C2107F60833083B07F5255202F12C
:103B900018021268C3F8502107F60833083B07F5EE
:103BA000255202F118021268C3F8542107F60833AF
:103BB000083B07F5255202F118021268C3F8582194
:103BC00007F68813183B18464FF4C8731A460021AD
:103BD00004F048F907F68813183B07F5255202F15F
:103BE00018021268DA6207F68813183B07F52552A7
:103BF00002F1180212681A6307F68813183B07F5DA
:103C0000255202F1180212685A6307F68813183B0E
:103C100007F5255202F1180212689A6307F6881315
:103C2000183B07F5255202F118021268DA6307F60D
:103C30008813183B07F5255202F1180212681A641E
:103C400007F68813183B07F5255202F1180212688F
:103C50005A6407F68813183B07F5255202F118023B
:103C600012681A6607F68813183B07F5255202F109
:103C700018021268C3F8882007F68813183B07F566
:103C8000255202F118021268C3F8B02007F6881313
:103C9000183B07F5255202F118021268C3F8D82024
:103CA00007F68813183B07F5255202F1180212682F
:103CB000C3F8002107F68813183B07F5255202F1D7
:103CC00018021268C3F8282107F68813183B07F575
:103CD000255202F118021268C3F8502107F60803B2
:103CE000283B18464FF4C8731A46002104F0BAF86E
:103CF00007F60803283B07F5255202F1180212685F
:103D0000DA6207F60803283B07F5255202F118028C
:103D100012685A6407F60803283B07F5255202F19A
:103D2000180212685A6507F60803283B07F5255262
:103D300002F118021268DA6607F60803283B07F555
:103D4000255202F118021268DA6707F60803283BC9
:103D500007F5255202F118021268C3F8942007F6FD
:103D60000803283B07F5255202F118021268C3F830
:103D7000A42007F60803283B07F5255202F1180294
:103D80001268C3F8BC2007F60803283B07F5255244
:103D900002F118021268C3F8CC2007F60803283B8A
:103DA00007F5255202F118021268C3F8E42007F65D
:103DB0000803283B07F5255202F118021268C3F8E0
:103DC000F42007F60803283B07F5255202F11802F4
:103DD0001268C3F80C2107F60803283B07F52552A3
:103DE00002F118021268C3F8202107F60803283BE5
:103DF00007F5255202F118021268C3F8302107F6C0
:103E00000803283B07F5255202F118021268C3F88F
:103E10004C2107F60803283B07F5255202F118024A
:103E20001268C3F8502107F60803283B07F525520E
:103E300002F118021268C3F8542107F5D163383B28
:103E400018464FF4C8731A46002104F00BF807F522
:103E5000D163383B07F5255202F118021268DA6285
:103E600007F5D163383B07F5255202F118021268B5
:103E70009A6407F5D163383B07F5255202F1180221
:103E800012685A6507F5D163383B07F5255202F1F0
:103E9000180212681A6707F5D163383B07F52552F7
:103EA00002F118021268DA6707F5D163383B07F5AB
:103EB000255202F118021268C3F8982007F5D16361
:103EC000383B07F5255202F118021268C3F8A82002
:103ED00007F5D163383B07F5255202F11802126845
:103EE000C3F8BC2007F5D163383B07F5255202F132
:103EF00018021268C3F8D02007F5D163383B07F5E4
:103F0000255202F118021268C3F8E42007F5D163C4
:103F1000383B07F5255202F118021268C3F8FC205D
:103F200007F5D163383B07F5255202F118021268F4
:103F3000C3F8082107F5D163383B07F5255202F194
:103F400018021268C3F8242107F5D163383B07F53E
:103F5000255202F118021268C3F8302107F5D16327
:103F6000383B07F5255202F118021268C3F85021B8
:103F700007F5D163383B07F5255202F118021268A4
:103F8000C3F8542107F59963083B00221A6007F52E
:103F90009963083B00225A6007F59963083B0022A9
:103FA0009A6007F59963083B0022DA6007F5996388
:103FB000083B00221A6107F59963083B00225A6109
:103FC00007F59963083B00229A6107F59963083B5E
:103FD0000022DA6107F59963083B00221A6207F5AF
:103FE0009963083B00225A6207F59963083B002257
:103FF0009A6207F59963083B07F5255202F118020A
:104000001268DA6207F59963083B00221A6307F524
:104010009963083B00225A6307F59963083B07F54B
:10402000255202F1180212689A6307F59963083B5A
:104030000022DA6307F59963083B00221A6407F54A
:104040009963083B07F5255202F1180212685A6479
:1040500007F59963083B00229A6407F59963083BCA
:104060000022DA6407F59963083B00221A6507F518
:104070009963083B07F5255202F1180212685A6548
:1040800007F59963083B00229A6507F59963083B99
:104090000022DA6507F59963083B07F5255202F11E
:1040A000180212681A6607F59963083B00225A66DF
:1040B00007F59963083B00229A6607F59963083B68
:1040C00007F5255202F118021268DA6607F59963BE
:1040D000083B00221A6707F59963083B00225A67DC
:1040E00007F59963083B00229A6707F59963083B37
:1040F00007F5255202F118021268DA6707F599638D
:10410000083B0022C3F8802007F59963083B002292
:10411000C3F8842007F59963083B07F5255202F19F
:1041200018021268C3F8882007F59963083B00223B
:10413000C3F88C2007F59963083B0022C3F8902050
:1041400007F59963083B07F5255202F1180212683A
:10415000C3F8942007F59963083B0022C3F8982020
:1041600007F59963083B0022C3F89C2007F5996383
:10417000083B0022C3F8A02007F59963083B07F528
:10418000255202F118021268C3F8A42007F59963BA
:10419000083B0022C3F8A82007F59963083B07F500
:1041A000255202F118021268C3F8AC2007F5996392
:1041B000083B0022C3F8B02007F59963083B07F5D8
:1041C000255202F118021268C3F8B42007F599636A
:1041D000083B0022C3F8B82007F59963083B07F5B0
:1041E000255202F118021268C3F8BC2007F5996342
:1041F000083B0022C3F8C02007F59963083B002262
:10420000C3F8C42007F59963083B0022C3F8C8200F
:1042100007F59963083B07F5255202F11802126869
:10422000C3F8CC2007F59963083B0022C3F8D020DF
:1042300007F59963083B07F5255202F11802126849
:10424000C3F8D42007F59963083B0022C3F8D820AF
:1042500007F59963083B07F5255202F11802126829
:10426000C3F8DC2007F59963083B0022C3F8E0207F
:1042700007F59963083B07F5255202F11802126809
:10428000C3F8E42007F59963083B0022C3F8E8204F
:1042900007F59963083B0022C3F8EC2007F5996302
:1042A000083B0022C3F8F02007F59963083B07F5A7
:1042B000255202F118021268C3F8F42007F5996339
:1042C000083B0022C3F8F82007F59963083B07F57F
:1042D000255202F118021268C3F8FC2007F5996311
:1042E000083B0022C3F8002107F59963083B07F556
:1042F000255202F118021268C3F8042107F59963E8
:10430000083B0022C3F8082107F59963083B07F52D
:10431000255202F118021268C3F80C2107F59963BF
:10432000083B0022C3F8102107F59963083B0022DF
:10433000C3F8142107F59963083B0022C3F818213C
:1043400007F59963083B07F5255202F11802126838
:10435000C3F81C2107F59963083B0022C3F820210C
:1043600007F59963083B07F5255202F11802126818
:10437000C3F8242107F59963083B0022C3F82821DC
:1043800007F59963083B07F5255202F118021268F8
:10439000C3F82C2107F59963083B0022C3F83021AC
:1043A00007F59963083B07F5255202F118021268D8
:1043B000C3F8342107F59963083B0022C3F838217C
:1043C00007F59963083B0022C3F83C2107F5996380
:1043D000083B0022C3F8402107F59963083B0022FF
:1043E000C3F8442107F59963083B07F5255202F10C
:1043F00018021268C3F8482107F59963083B0022A8
:10440000C3F84C2107F59963083B0022C3F85021FB
:1044100007F59963083B0022C3F8542107F5996317
:10442000083B07F5255202F118021268C3F858211B
:1044300007F59963083B0022C3F85C2107F59963EF
:10444000083B0022C3F8602107F59963083B00226E
:10445000C3F8642107F59963083B0022C3F868217B
:1044600007F59963083B0022C3F86C2107F59963AF
:10447000083B0022C3F8702107F59963083B00222E
:10448000C3F8742107F59963083B0022C3F878212B
:1044900007F59963083B0022C3F87C2107F599636F
:1044A000083B0022C3F8802107F59963083B0022EE
:1044B000C3F8842107F59963083B0022C3F88821DB
:1044C00007F59963083B0022C3F88C2107F5527366
:1044D000183B18464FF4C8731A46002103F0C2FC7B
:1044E00007F55273183B07F5255202F118021268BE
:1044F000DA6207F55273183B07F5255202F11802EC
:1045000012689A6407F55273183B07F5255202F1B9
:10451000180212689A6507F55273183B07F5255281
:1045200002F118021268DA6607F55273183B07F5B4
:10453000255202F118021268C3F8842007F552735D
:10454000183B07F5255202F118021268C3F89020B3
:1045500007F55273183B07F5255202F1180212684D
:10456000C3F8B02007F55273183B07F5255202F146
:1045700018021268C3F8B42007F55273183B07F508
:10458000255202F118021268C3F8D82007F55273B9
:10459000183B07F5255202F118021268C3F8DC2017
:1045A00007F55273183B07F5255202F118021268FD
:1045B000C3F8FC2007F55273183B07F5255202F1AA
:1045C00018021268C3F8082107F55273183B07F563
:1045D000255202F118021268C3F8202107F5527320
:1045E000183B07F5255202F118021268C3F834216E
:1045F00007F55273183B07F5255202F118021268AD
:10460000C3F8442107F55273183B07F5255202F110
:1046100018021268C3F8602107F5E473283B1846B6
:104620004FF4C8731A46002103F01CFC07F5E4732D
:10463000283B07F5255202F118021268DA6207F5E5
:10464000E473283B07F5255202F1180212689A64B8
:1046500007F5E473283B07F5255202F118021268AA
:104660009A6507F5E473283B07F5255202F1180215
:104670001268DA6607F5E473283B07F5255202F164
:1046800018021268C3F8842007F5E473283B07F585
:10469000255202F118021268C3F8902007F5E4735E
:1046A000283B07F5255202F118021268C3F8B02022
:1046B00007F5E473283B07F5255202F1180212684A
:1046C000C3F8B42007F5E473283B07F5255202F13F
:1046D00018021268C3F8D82007F5E473283B07F5E1
:1046E000255202F118021268C3F8DC2007F5E473C2
:1046F000283B07F5255202F118021268C3F8002181
:1047000007F5E473283B07F5255202F118021268F9
:10471000C3F8042107F5E473283B07F5255202F19D
:1047200018021268C3F8282107F5E473283B07F53F
:10473000255202F118021268C3F82C2107F5E47320
:10474000283B07F5255202F118021268C3F85021E0
:1047500007F5E473283B07F5255202F118021268A9
:10476000C3F8542107F14803383B18464FF4C87387
:104770001A46002103F076FB07F14803383B07F5A2
:10478000255202F118021268DA6207F14803383B39
:1047900007F5255202F1180212681A6307F148035F
:1047A000383B07F5255202F1180212685A6307F1E7
:1047B0004803383B07F5255202F1180212689A6344
:1047C00007F14803383B07F5255202F11802126839
:1047D000DA6307F14803383B07F5255202F1180266
:1047E00012681A6407F14803383B07F5255202F1B5
:1047F000180212685A6407F14803383B07F525523E
:1048000002F1180212689A6407F14803383B07F571
:10481000255202F118021268DA6607F14803383BA4
:1048200007F5255202F118021268C3F8902007F12B
:104830004803383B07F5255202F118021268C3F805
:10484000B42007F14803383B07F5255202F118025E
:104850001268C3F8D82007F14803383B07F5255202
:1048600002F118021268C3F8FC2007F14803383B34
:1048700007F5255202F118021268C3F8202107F14A
:104880004803383B07F5255202F118021268C3F8B5
:10489000442107F14803383B07F5255202F118027D
:1048A0001268C3F8482107F14803383B07F5255241
:1048B00002F118021268C3F84C2107F14803383B93
:1048C00007F5255202F118021268C3F8502107F1CA
:1048D0004803383B07F5255202F118021268C3F865
:1048E000542107F14803383B07F5255202F118021D
:1048F0001268C3F8582107F14803383B07F52552E1
:1049000002F118021268C3F85C2107F14803383B32
:1049100007F5255202F118021268C3F8602100233E
:1049200007F5245202F12F021370002307F52452D9
:1049300002F12802136007F52453184603F0C0FC67
:10494000034607F5245202F128021360002307F5FD
:10495000245202F13402136000F083BE07F52452A2
:1049600007F5245303F134031B6813441B7807F540
:10497000245202F12F021370002307F5245202F192
:104980003802136000F04FBE002307F5245202F1F5
:104990003C02136000F034BE07F5245303F12F03EB
:1049A0001B78613B192B00F2FE8501A252F823F01F
:1049B000194A00088D4A0008014B0008714B000895
:1049C000E54B0008594C0008CD4C00083D4D00084F
:1049D000B14D00081F4E0008934E0008074F000815
:1049E0007B4F0008EF4F000863500008D7500008C5
:1049F00047510008B7510008275200089752000895
:104A00000753000877530008E7530008575400087D
:104A1000C75400083755000807F5245303F13C0339
:104A20001B689AB207F5255303F104031B689BB278
:104A3000134498B207F5245303F138031B689AB264
:104A400007F5245303F130031B689BB213449BB258
:104A50000A339CB207F51C5101F1200107F52453DC
:104A600003F138031A6813469B0013445B0007F5F3
:104A7000245202F13C021268134451F82330DBB295
:104A80001A46214601F0DEFB00F0AFBD07F52453C6
:104A900003F13C031B689AB207F5255303F10403A5
:104AA0001B689BB2134498B207F5245303F13803F3
:104AB0001B689AB207F5245303F130031B689BB2BD
:104AC00013449BB20A339CB207F5165101F1100151
:104AD00007F5245303F138031A6813469B00134467
:104AE0005B0007F5245202F13C021268134451F8AE
:104AF0002330DBB21A46214601F0A4FB00F075BD5D
:104B000007F5245303F13C031B689AB207F52553BC
:104B100003F104031B689BB2134498B207F52453B6
:104B200003F138031B689AB207F5245303F13003ED
:104B30001B689BB213449BB20A339CB207F5105119
:104B400007F5245303F138031A6813469B001344F6
:104B50005B0007F5245202F13C021268134451F83D
:104B60002330DBB21A46214601F06CFB00F03DBD5C
:104B700007F5245303F13C031B689AB207F525534C
:104B800003F104031B689BB2134498B207F5245346
:104B900003F138031B689AB207F5245303F130037D
:104BA0001B689BB213449BB20A339CB207F50951B0
:104BB00001F1300107F5245303F138031A68134655
:104BC0009B0013445B0007F5245202F13C0212687B
:104BD000134451F82330DBB21A46214601F032FB70
:104BE00000F003BD07F5245303F13C031B689AB2A0
:104BF00007F5255303F104031B689BB2134498B2D5
:104C000007F5245303F138031B689AB207F52453C0
:104C100003F130031B689BB213449BB20A339CB26E
:104C200007F5035101F1200107F5245303F138037F
:104C30001A6813469B0013445B0007F5245202F1E7
:104C40003C021268134451F82330DBB21A46214665
:104C500001F0F8FA00F0C9BC07F5245303F13C0356
:104C60001B689AB207F5255303F104031B689BB236
:104C7000134498B207F5245303F138031B689AB222
:104C800007F5245303F130031B689BB213449BB216
:104C90000A339CB207F5FA5101F1100107F52453CC
:104CA00003F138031A6813469B0013445B0007F5B1
:104CB000245202F13C021268134451F82330DBB253
:104CC0001A46214601F0BEFA00F08FBC07F52453C6
:104CD00003F13C031B689AB207F5255303F1040363
:104CE0001B689BB2134498B207F5245303F13803B1
:104CF0001B689AB207F5245303F130031B689BB27B
:104D000013449BB20A339CB207F5EE5107F52453C6
:104D100003F138031A6813469B0013445B0007F540
:104D2000245202F13C021268134451F82330DBB2E2
:104D30001A46214601F086FA00F057BC07F52453C5
:104D400003F13C031B689AB207F5255303F10403F2
:104D50001B689BB2134498B207F5245303F1380340
:104D60001B689AB207F5245303F130031B689BB20A
:104D700013449BB20A339CB207F5E15101F11001D3
:104D800007F5245303F138031A6813469B001344B4
:104D90005B0007F5245202F13C021268134451F8FB
:104DA0002330DBB21A46214601F04CFA00F01DBC5C
:104DB00007F5245303F13C031B689AB207F525530A
:104DC00003F104031B689BB2134498B207F5245304
:104DD00003F138031B689AB207F5245303F130033B
:104DE0001B689BB213449BB20A339CB207F5D551A2
:104DF00007F5245303F138031A6813469B00134444
:104E00005B0007F5245202F13C021268134451F88A
:104E10002330DBB21A46214601F014FAE5E307F528
:104E2000245303F13C031B689AB207F5255303F1A1
:104E300004031B689BB2134498B207F5245303F193
:104E400038031B689AB207F5245303F130031B683B
:104E50009BB213449BB20A339CB207F5C95202F1CC
:104E60000802183A07F5245303F1380319680B4672
:104E70009B000B445B0007F5245101F13C010968DC
:104E80000B4452F82330DBB21A46214601F0DAF91E
:104E9000ABE307F5245303F13C031B689AB207F513
:104EA000255303F104031B689BB2134498B207F522
:104EB000245303F138031B689AB207F5245303F116
:104EC00030031B689BB213449BB20A339CB207F5B4
:104ED000BC5202F10802083A07F5245303F13803E3
:104EE00019680B469B000B445B0007F5245101F148
:104EF0003C0109680B4452F82330DBB21A462146C4
:104F000001F0A0F971E307F5245303F13C031B689A
:104F10009AB207F5255303F104031B689BB21344AF
:104F200098B207F5245303F138031B689AB207F5CA
:104F3000245303F130031B689BB213449BB20A3322
:104F40009CB207F5B05202F10802183A07F5245353
:104F500003F1380319680B469B000B445B0007F50F
:104F6000245101F13C0109680B4452F82330DBB2B3
:104F70001A46214601F066F937E307F5245303F199
:104F80003C031B689AB207F5255303F104031B6821
:104F90009BB2134498B207F5245303F138031B68FE
:104FA0009AB207F5245303F130031B689BB21344F4
:104FB0009BB20A339CB207F5A35202F10802083AE9
:104FC00007F5245303F1380319680B469B000B4483
:104FD0005B0007F5245101F13C0109680B4452F8CC
:104FE0002330DBB21A46214601F02CF9FDE207F529
:104FF000245303F13C031B689AB207F5255303F1D0
:1050000004031B689BB2134498B207F5245303F1C1
:1050100038031B689AB207F5245303F130031B6869
:105020009BB213449BB20A339CB207F5975202F12C
:105030000802183A07F5245303F1380319680B46A0
:105040009B000B445B0007F5245101F13C0109680A
:105050000B4452F82330DBB21A46214601F0F2F835
:10506000C3E207F5245303F13C031B689AB207F52A
:10507000255303F104031B689BB2134498B207F550
:10508000245303F138031B689AB207F5245303F144
:1050900030031B689BB213449BB20A339CB207F5E2
:1050A0008A5202F10802083A07F5245303F1380343
:1050B00019680B469B000B445B0007F5245101F176
:1050C0003C0109680B4452F82330DBB21A462146F2
:1050D00001F0B8F889E207F5245303F13C031B689B
:1050E0009AB207F5255303F104031B689BB21344DE
:1050F00098B207F5245303F138031B689AB207F5F9
:10510000245303F130031B689BB213449BB20A3350
:105110009CB207F6C872183A07F5245303F1380316
:1051200019680B469B000B445B0007F5245101F105
:105130003C0109680B4452F82330DBB21A46214681
:1051400001F080F851E207F5245303F13C031B689A
:105150009AB207F5255303F104031B689BB213446D
:1051600098B207F5245303F138031B689AB207F588
:10517000245303F130031B689BB213449BB20A33E0
:105180009CB207F62862083A07F5245303F1380366
:1051900019680B469B000B445B0007F5245101F195
:1051A0003C0109680B4452F82330DBB21A46214611
:1051B00001F048F819E207F5245303F13C031B689A
:1051C0009AB207F5255303F104031B689BB21344FD
:1051D00098B207F5245303F138031B689AB207F518
:1051E000245303F130031B689BB213449BB20A3370
:1051F0009CB207F6A842183A07F5245303F1380386
:1052000019680B469B000B445B0007F5245101F124
:105210003C0109680B4452F82330DBB21A462146A0
:1052200001F010F8E1E107F5245303F13C031B689A
:105230009AB207F5255303F104031B689BB213448C
:1052400098B207F5245303F138031B689AB207F5A7
:10525000245303F130031B689BB213449BB20A33FF
:105260009CB207F60832083A07F5245303F13803D5
:1052700019680B469B000B445B0007F5245101F1B4
:105280003C0109680B4452F82330DBB21A46214630
:1052900000F0D8FFA9E107F5245303F13C031B6894
:1052A0009AB207F5255303F104031B689BB213441C
:1052B00098B207F5245303F138031B689AB207F537
:1052C000245303F130031B689BB213449BB20A338F
:1052D0009CB207F68812183A07F5245303F13803F5
:1052E00019680B469B000B445B0007F5245101F144
:1052F0003C0109680B4452F82330DBB21A462146C0
:1053000000F0A0FF71E107F5245303F13C031B6893
:105310009AB207F5255303F104031B689BB21344AB
:1053200098B207F5245303F138031B689AB207F5C6
:10533000245303F130031B689BB213449BB20A331E
:105340009CB207F60802283A07F5245303F1380304
:1053500019680B469B000B445B0007F5245101F1D3
:105360003C0109680B4452F82330DBB21A4621464F
:1053700000F068FF39E107F5245303F13C031B6893
:105380009AB207F5255303F104031B689BB213443B
:1053900098B207F5245303F138031B689AB207F556
:1053A000245303F130031B689BB213449BB20A33AE
:1053B0009CB207F5D162383A07F5245303F138035C
:1053C00019680B469B000B445B0007F5245101F163
:1053D0003C0109680B4452F82330DBB21A462146DF
:1053E00000F030FF01E107F5245303F13C031B6893
:1053F0009AB207F5255303F104031B689BB21344CB
:1054000098B207F5245303F138031B689AB207F5E5
:10541000245303F130031B689BB213449BB20A333D
:105420009CB207F59962083A07F5245303F1380353
:1054300019680B469B000B445B0007F5245101F1F2
:105440003C0109680B4452F82330DBB21A4621466E
:1054500000F0F8FEC9E007F5245303F13C031B6894
:105460009AB207F5255303F104031B689BB213445A
:1054700098B207F5245303F138031B689AB207F575
:10548000245303F130031B689BB213449BB20A33CD
:105490009CB207F55272183A07F5245303F138030A
:1054A00019680B469B000B445B0007F5245101F182
:1054B0003C0109680B4452F82330DBB21A462146FE
:1054C00000F0C0FE91E007F5245303F13C031B6894
:1054D0009AB207F5255303F104031B689BB21344EA
:1054E00098B207F5245303F138031B689AB207F505
:1054F000245303F130031B689BB213449BB20A335D
:105500009CB207F5E472283A07F5245303F13803F7
:1055100019680B469B000B445B0007F5245101F111
:105520003C0109680B4452F82330DBB21A4621468D
:1055300000F088FE59E007F5245303F13C031B6893
:105540009AB207F5255303F104031B689BB2134479
:1055500098B207F5245303F138031B689AB207F594
:10556000245303F130031B689BB213449BB20A33EC
:105570009CB207F14802383A07F5245303F1380387
:1055800019680B469B000B445B0007F5245101F1A1
:105590003C0109680B4452F82330DBB21A4621461D
:1055A00000F050FE21E007F5245303F13C031B6893
:1055B0009AB207F5255303F104031B689BB2134409
:1055C00098B207F5245303F138031B689AB207F524
:1055D000245303F130031B689BB213449BB20A337C
:1055E0009BB20022194600F02DFE07F5245303F16B
:1055F0003C031B68013307F5245202F13C0213609F
:1056000007F5245303F13C031B68092B7FF7C4A95A
:1056100007F5245303F138031B68013307F52452BF
:1056200002F13802136007F5245303F138031B68B5
:10563000092B7FF7A9A907F5245303F134031B684D
:10564000013307F5245202F13402136007F52553A4
:1056500003F104031B680A3307F5255202F1040223
:10566000136007F5245303F134031A6807F5245334
:1056700003F128031B689A42FFF670A900BF07F5E3
:1056800025570C37BD4690BD90B5ADF68C1D00AFCB
:1056900007F10C03186007F1080319603B1D1A603D
:1056A00007F10C03186802F03FFBC7F87C0907F10B
:1056B0000803186802F038FBC7F878093B1D186822
:1056C00002F032FBC7F8740907F2E473B24A1846D5
:1056D00011464FF4C8731A4602F02AFB07F25463CE
:1056E000AE4A184611464FF4C8731A4602F020FB22
:1056F00007F2C443AA4A184611464FF4C8731A4623
:1057000002F016FB07F54D73A64A184611464FF4F2
:10571000C8731A4602F00CFB07F5D273A24A18466A
:1057200011464FF4C8731A4602F002FB07F1140346
:105730009E4A184611464FF4C8731A4602F0F8FA0A
:105740000023C7F880391CE10023C7F884390EE133
:10575000D7F87C39013B052B00F2EE8001A252F80C
:1057600023F000BF7D570008C757000811580008F4
:105770005B580008A5580008EF580008D7F884398E
:105780009AB2D7F878399BB2134498B2D7F88039D7
:105790009AB2D7F874399BB213449BB20A339CB2C5
:1057A00007F2E471D7F8802913469B0013445B008D
:1057B000D7F88429134451F82330DBB21A46214626
:1057C00000F040FDCEE0D7F884399AB2D7F87839A6
:1057D0009BB2134498B2D7F880399AB2D7F874398B
:1057E0009BB213449BB20A339CB207F25461D7F8C0
:1057F000802913469B0013445B00D7F88429134487
:1058000051F82330DBB21A46214600F01BFDA9E017
:10581000D7F884399AB2D7F878399BB2134498B242
:10582000D7F880399AB2D7F874399BB213449BB237
:105830000A339CB207F2C441D7F8802913469B0073
:1058400013445B00D7F88429134451F82330DBB2AA
:105850001A46214600F0F6FC84E0D7F884399AB263
:10586000D7F878399BB2134498B2D7F880399AB2F6
:10587000D7F874399BB213449BB20A339CB207F534
:105880004D71D7F8802913469B0013445B00D7F86D
:105890008429134451F82330DBB21A46214600F024
:1058A000D1FC5FE0D7F884399AB2D7F878399BB247
:1058B000134498B2D7F880399AB2D7F874399BB2AA
:1058C00013449BB20A339CB207F5D271D7F88029F2
:1058D00013469B0013445B00D7F88429134451F806
:1058E0002330DBB21A46214600F0ACFC3AE0D7F890
:1058F00084399AB2D7F878399BB2134498B2D7F862
:1059000080399AB2D7F874399BB213449BB20A33E8
:105910009CB207F11401D7F8802913469B00134469
:105920005B00D7F88429134451F82330DBB21A46C0
:10593000214600F087FC15E0D7F884399AB2D7F8F1
:1059400078399BB2134498B2D7F880399AB2D7F815
:1059500074399BB213449BB20A339BB2E0221946BE
:1059600000F070FCD7F884390133C7F88439D7F8D0
:105970008439092B7FF7ECAED7F880390133C7F8AB
:105980008039D7F88039092B7FF7DEAE00BF07F6E4
:105990008C17BD4690BD00BF68850008F8860008DA
:1059A00088880008188A0008A88B0008388D00082D
:1059B00080B582B000AF78600748FAF71FFE7868BC
:1059C000FAF71CFE7B68DBB2184600F019FC00BF3A
:1059D0000837BD4680BD00BFC88E0008000000002B
:1059E00090B58BB000AF786007F110031846FAF756
:1059F00007FF3B697B62204B7B62786A01F066FCA3
:105A00004FF000021D4B01F0D7FC03460C46184630
:105A1000214617A3D3E9002301F0F8FD03460C4605
:105A2000184621464FF000024FF0804301F0EEFD92
:105A300003460C461846214601F0F8FE03463B6239
:105A40000CE00023FB6002E0FB680133FB60FA68B6
:105A50003B6A9A42F8D37B68013B7B607B68002BF2
:105A6000EFDC00BF2C37BD4690BD00BFAFF3008018
:105A7000000000000094C14080F0FA020000F43FF2
:105A800080B487B000AF7860396000237B61002369
:105A90003B610023FB6000237B6176E001227B6990
:105AA00002FA03F33B613B681A683B691340FB60F1
:105AB000FA683B699A4265D17B681A687B695B002A
:105AC000032101FA03F3DB431A407B681A607B6809
:105AD0001A683B681B7919467B695B0001FA03F37E
