:020000040800F2
:10000000A43A012071070008CD070008CD070008B9
:10001000CD070008CD070008CD070008000000004C
:10002000000000000000000000000000CD070008F4
:10003000CD07000800000000CD070008CD0700082C
:10004000CD070008CD070008CD070008CD07000840
:10005000CD070008CD070008CD070008CD07000830
:10006000CD070008CD070008CD070008CD07000820
:10007000CD070008CD070008CD070008CD07000810
:10008000CD070008CD070008CD070008CD07000800
:10009000CD070008CD070008CD070008CD070008F0
:1000A000CD070008CD070008CD070008CD070008E0
:1000B00081140008CD070008CD070008CD0700080F
:1000C000CD070008CD070008CD070008CD070008C0
:1000D000CD070008CD07000835060008CD07000849
:1000E000CD070008CD070008CD070008CD070008A0
:1000F000CD070008CD070008CD070008CD07000890
:10010000CD070008CD070008CD070008CD0700087F
:10011000CD070008CD070008CD070008CD0700086F
:10012000CD070008CD070008CD070008CD0700085F
:10013000CD070008CD070008CD070008CD0700084F
:10014000CD070008CD070008CD070008CD0700083F
:100150003D150008CD070008CD070008CD070008B1
:10016000CD070008CD070008CD070008CD0700081F
:10017000CD070008CD070008CD070008CD0700080F
:10018000CD070008CD07000880B582B000AF7860C9
:100190000021786800F0C0FA786801F07DFC00BFAB
:1001A0000837BD4680BD00BF80B58AB000AF78601B
:1001B000396000237B6200233B620023FB61002344
:1001C000BB617B681B8A9BB27B627B6A23F44053D2
:1001D0007B623B68DB881A467B6A13437B627B6ADF
:1001E0009AB27B681A827B689B899BB27B627B6A2E
:1001F00023F4B05323F00C037B623B689A883B687E
:100200001B8913439AB23B685B8913439BB21A461E
:100210007B6A13437B627B6A9AB27B689A817B68B4
:100220009B8A9BB27B627B6A23F440737B623B6850
:100230009B891A467B6A13437B627B6A9AB27B680E
:100240009A8207F10803184600F0E0FA7B68304A0A
:10025000934203D07B682F4A934202D17B693B6271
:1002600001E03B693B627B689B899BB21BB2002B20
:100270000CDA3A6A13469B0013449A001A443B680E
:100280001B685B00B2FBF3F3FB610BE03A6A1346B9
:100290009B0013449A001A443B681B689B00B2FB06
:1002A000F3F3FB61FB691C4AA2FB03235B091B01FF
:1002B0007B627B6A1B09642202FB03F3FA69D31A8F
:1002C000BB617B689B899BB21BB2002B0CDABB69BC
:1002D000DB003233104AA2FB03235B0903F0070360
:1002E0007A6A13437B620BE0BB691B0132330A4A13
:1002F000A2FB03235B0903F00F037A6A13437B62BB
:100300007B6A9AB27B681A8100BF2837BD4680BDE0
:1003100000100140001401401F85EB5180B483B0F0
:1003200000AF78600B46FB70FB78002B08D07B6831
:100330009B899BB243F400539AB27B689A8107E091
:100340007B689B899BB223F400539AB27B689A81A5
:1003500000BF0C37BD4680BC704700BF80B483B07F
:1003600000AF78600B467B807B88C3F308039AB2AA
:100370007B689A8000BF0C37BD4680BC704700BFC9
:1003800080B487B000AF78600B467B8013467B70EB
:1003900000233B610023FB600023BB6000237B61E3
:1003A0007B687B617B88DBB25B09DBB23B617B886E
:1003B00003F01F03FB600122FB6802FA03F3BB603A
:1003C0003B69012B03D17B690C337B6109E03B69FD
:1003D000022B03D17B6910337B6102E07B6914330C
:1003E0007B617B78002B06D07B697A691168BA68DB
:1003F0000A431A6006E07B697A691168BA68D243D9
:100400000A401A6000BF1C37BD4680BC704700BF61
:1004100080B485B000AF78600B467B800023FB730F
:100420007B681B889AB27B8813409BB2002B02D05A
:100430000123FB7301E00023FB73FB7B1846143799
:10044000BD4680BC704700BF80B487B000AF786005
:100450000B467B800023FB6000237B610023BB6095
:100460000023FB747B88DBB25B09DBB2BB607B885B
:1004700003F01F037B6101227B6902FA03F37B61B6
:10048000BB68012B07D17B689B899BB21A467B69AD
:1004900013407B6111E0BB68022B07D17B681B8A8C
:1004A0009BB21A467B6913407B6106E07B689B8A9E
:1004B0009BB21A467B6913407B617B881B0A9BB207
:1004C000FB600122FB6802FA03F3FB607B681B8878
:1004D0009BB21A46FB681340FB607B69002B05D07A
:1004E000FB68002B02D00123FB7401E00023FB74A6
:1004F000FB7C18461C37BD4680BC704780B485B075
:1005000000AF78600B467B800023FB810023BB811A
:100510007B881B0AFB81FB89012202FA03F3BB8162
:10052000BB89DB439AB27B681A8000BF1437BD4693
:1005300080BC704780B586B000AF01214FF4003019
:1005400000F02CFA0121012000F00AFA0C233B6193
:1005500002233B750023BB750123FB7502237B75CA
:1005600007F110031946164800F054FA0722022139
:10057000134800F0DDFA07220321114800F0D8FAF1
:100580004FF4E1333B600023BB800023FB8000235A
:100590003B810023BB810C237B813B4619460948E4
:1005A000FFF702FE012240F225510648FFF7E8FE60
:1005B00001210448FFF7B2FE00BF1837BD4680BDD9
:1005C000000002400044004080B582B000AF034606
:1005D000FB7100BF80210848FFF71AFF0346002B7C
:1005E000F8D0FB799BB219460348FFF7B7FE00BF6E
:1005F0000837BD4680BD00BF0044004080B584B0D0
:1006000000AF78600023FB6009E0FB687A68134460
:100610001B781846FFF7D8FFFB680133FB60FB68C7
:100620007A6813441B78002BEFD100BF1037BD460A
:1006300080BD00BF80B582B000AF40F22551274891
:10064000FFF702FF0346002B44D040F22551234818
:10065000FFF754FF214B9B889BB2FB70FB78402B2C
:1006600005D9FB785A2B02D8FB782033FB70FB7836
:100670000D2B1DD800237B600BE0194A7B681344C7
:100680001B789BB219461548FFF768FE7B6801335B
:100690007B60144B1B687A689A42EEDB114B002298
:1006A0001A60FB789BB219460C48FFF757FE09E029
:1006B0000C4B1B680A49FA78CA540A4B1B68013371
:1006C000084A136000BF40210448FFF7A1FE03461B
:1006D000002BF8D000BF0837BD4680BD0044004065
:1006E000A40400203C04002080B582B000AFFF23AA
:1006F000FB7120210748FFF78BFE0346012B03D136
:10070000044B9B889BB2FB71FB7918460837BD46AA
:1007100080BD00BF0044004080B582B000AF78606B
:100720003960FFF7E1FF03461A467B681A707B6861
:100730001B78FF2B17D07B681B780A2B13D03B68E4
:10074000002B04D07B681B781846FFF73DFF7B68C1
:100750001B780D2B03D17B6800221A7005E07B68A3
:1007600001337B60DDE700BFDBE70837BD4680BDB6
:1007700080B582B000AF104B7B60104B3B6007E050
:100780003B681A1D3A607A68111D796012681A6018
:100790003B680B4A9342F3D30A480B494FF00002DF
:1007A0008842B8BF40F8042BFADB00F013F800BF12
:1007B0000837BD4680BD00BF982200080000002019
:1007C0003C0400203C040020A432012080B400AF8F
:1007D000FEE700BF80B500AF00F0F2F9FFF7AAFE18
:1007E00000F098FC002000F0D5FC0A220A210A2023
:1007F00000F0F2FC0348FFF701FF0348FFF7C4FCD9
:10080000FBE700BF2C2100084004002080B489B021
:1008100000AF78600023BB6100237B610023FB6194
:1008200002233B610023FB600223BB60484B9B68B3
:1008300003F00C03BB61BB69042B07D0082B09D064
:10084000002B3FD17B68434A1A603FE07B68424AF5
:100850001A603BE03E4B5B6803F480039B0DFB603A
:100860003B4B5B6803F03F03BB60FB68002B0DD084
:10087000394ABB68B2FBF3F2354B596847F6C0738F
:100880000B409B0903FB02F3FB610CE0314ABB68A0
:10089000B2FBF3F22E4B596847F6C0730B409B092D
:1008A00003FB02F3FB612A4B5B6803F440331B0C30
:1008B00001335B003B61FA693B69B2FBF3F27B6891
:1008C0001A6003E07B68234A1A6000BF204B9B68D4
:1008D00003F0F003BB61BB691B09BB611F4ABB6925
:1008E00013441B78DBB27B617B681A687B69DA4052
:1008F0007B685A60164B9B6803F4E053BB61BB698D
:100900009B0ABB61154ABB6913441B78DBB27B6150
:100910007B685A687B69DA407B689A600C4B9B68FD
:1009200003F46043BB61BB695B0BBB610B4ABB69F2
:1009300013441B78DBB27B617B685A687B69DA40C1
:100940007B68DA6000BF2437BD4680BC704700BFBB
:10095000003802400024F40000127A000000002059
:1009600080B483B000AF78600B46FB70FB78002B3F
:1009700006D00949084B1A6B7B6813430B6306E0EA
:100980000549054B1A6B7B68DB4313400B6300BFC3
:100990000C37BD4680BC70470038024080B483B03D
:1009A00000AF78600B46FB70FB78002B06D009493E
:1009B000084B1A6C7B6813430B6406E00549054B32
:1009C0001A6C7B68DB4313400B6400BF0C37BD46D9
:1009D00080BC70470038024080B483B000AF7860BC
:1009E0000B46FB70FB78002B06D00949084B5A6C6C
:1009F0007B6813434B6406E00549054B5A6C7B68E2
:100A0000DB4313404B6400BF0C37BD4680BC7047CE
:100A10000038024080B487B000AF786039600023AE
:100A20007B6100233B610023FB6000237B6176E058
:100A300001227B6902FA03F33B613B681A683B6958
:100A40001340FB60FA683B699A4265D17B681A687B
:100A50007B695B00032101FA03F3DB431A407B68E7
:100A60001A607B681A683B681B7919467B695B00D2
:100A700001FA03F31A437B681A603B681B79012B68
:100A800003D03B681B79022B2ED17B689A687B6967
:100A90005B00032101FA03F3DB431A407B689A6091
:100AA0007B689A683B685B7919467B695B0001FA51
:100AB00003F31A437B689A607B685A687B699BB230
:100AC000012101FA03F3DB431A407B685A607B681B
:100AD0005A683B689B7919467B699BB201FA03F31C
:100AE0009BB21A437B685A607B68DA687B699BB269
:100AF0005B00032101FA03F3DB431A407B68DA60F1
:100B00007B68DA683B68DB7919467B695B0001FA30
:100B100003F31A437B68DA607B6901337B617B698D
:100B20000F2B85D900BF1C37BD4680BC704700BF66
:100B300080B485B000AF78600B467B8013467B7035
:100B40000023FB600023BB607A787B8803F00703F7
:100B50009B0002FA03F3FB607B88DB089BB218461C
:100B60007B88DB089BB21A467B68083253F8222048
:100B70007B8803F007039B000F2101FA03F3DB439B
:100B800002EA03017B6800F1080243F822107B8827
:100B9000DB089BB21A467B68083253F82220FB68B8
:100BA0001343BB607B88DB089BB21A467B68083224
:100BB000B96843F8221000BF1437BD4680BC7047A7
:100BC00080B500AF124A124B1B6843F0010313605B
:100BD0000F4B00229A600E4A0D4B1B6823F0847362
:100BE00023F4803313600A4B0A4A5A60084A084BC0
:100BF0001B6823F480231360054B0022DA6000F0A9
:100C00000DF8054B4FF000629A6000BF80BD00BF39
:100C1000003802401030002400ED00E080B483B0C2
:100C200000AF00237B6000233B60354A344B1B68D8
:100C300043F480331360324B1B6803F400333B6092
:100C40007B6801337B603B68002B03D17B68B3F585
:100C5000A06FF0D12A4B1B6803F40033002B02D0A5
:100C600001233B6001E000233B603B68012B42D144
:100C7000234A234B1B6C43F080531364214A214BBE
:100C80001B6843F4804313601D4A1D4B9B689360AF
:100C90001B4A1B4B9B6843F400439360184A184B54
:100CA0009B6843F4A0539360154B174A5A60144A4B
:100CB000134B1B6843F08073136000BF104B1B681D
:100CC00003F00073002BF9D0104B40F205621A605C
:100CD0000B4A0B4B9B6823F003039360084A084BB5
:100CE0009B6843F00203936000BF054B9B6803F0D1
:100CF0000C03082BF9D100BF0C37BD4680BC7047F0
:100D0000003802400070004008544007003C024098
:100D100080B483B000AF78607B681B6823F0010269
:100D20007B681A607B6800221A607B6800225A6028
:100D30007B6800229A607B680022DA607B68002270
:100D40001A617B6821225A617B68454A934203D12C
:100D5000444B3D229A607EE07B68434A934204D133
:100D6000404B4FF474629A6075E07B683F4A93424F
:100D700004D13C4B4FF474129A606CE07B683C4A9F
:100D8000934204D1374B4FF074629A6063E07B6802
:100D9000384A934203D1334B374ADA605BE07B68D1
:100DA000364A934203D12F4B354ADA6053E07B68D1
:100DB000344A934203D12B4B334ADA604BE07B68D1
:100DC000324A934204D1274B4FF03D52DA6042E061
:100DD0007B682F4A934203D12E4B3D229A603AE022
:100DE0007B682D4A934204D12A4B4FF474629A6077
:100DF00031E07B68294A934204D1264B4FF47412A8
:100E00009A6028E07B68264A934204D1214B4FF038
:100E100074629A601FE07B68224A934203D11D4BA3
:100E2000154ADA6017E07B681F4A934203D1194BD9
:100E3000134ADA600FE07B681C4A934203D1154BDA
:100E4000114ADA6007E07B68194A934203D1114BDB
:100E50004FF03D52DA6000BF0C37BD4680BC704792
:100E60001060024000600240286002404060024082
:100E700058600240706002403D00002088600240DF
:100E8000400F0020A060024000003D20B8600240FA
:100E90001064024000640240286402404064024042
:100EA000586402407064024088640240A0640240BA
:100EB000B864024080B485B000AF78603960002328
:100EC000FB607B681B68FB60FA68244B1340FB6087
:100ED0003B681A683B68DB681A433B685B691A43E6
:100EE0003B689B691A433B68DB691A433B681B6A92
:100EF0001A433B685B6A1A433B689B6A1A433B6828
:100F00005B6B1A433B689B6B1343FA681343FB60AC
:100F10007B68FA681A607B685B69FB60FB6823F09A
:100F20000703FB603B68DA6A3B681B6B1343FA6894
:100F30001343FB607B68FA685A613B681A697B68F7
:100F40005A603B685A687B689A603B689A687B681D
:100F5000DA6000BF1437BD4680BC70473F801CF08C
:100F600080B483B000AF78600B46FB70FB78002B39
:100F700006D07B681B6843F001027B681A6005E0BD
:100F80007B681B6823F001027B681A6000BF0C3786
:100F9000BD4680BC704700BF80B485B000AFF8602C
:100FA000B9601346FB71BB6803F08003002B0FD0C0
:100FB000FB79002B06D0FB685B6943F08002FB687D
:100FC0005A6105E0FB685B6923F08002FB685A61A7
:100FD000BB68802B14D0FB79002B08D0FB681A6803
:100FE000BB6803F01E031A43FB681A6008E0FB6845
:100FF0001A68BB6803F01E03DB431A40FB681A60E3
:1010000000BF1437BD4680BC704700BF80B487B0B6
:1010100000AF786039600023FB750023FB6000237C
:10102000BB607B68214A934202D8214B3B6101E0BF
:10103000204B3B613B6823F0F02323F0C313002BCC
:101040000AD03B68DB0A03F01E03FB607B681A686A
:10105000FB681340BB6004E07B685B6903F08003BE
:10106000BB603B6803F00053002B03D03B695B6817
:10107000FB6002E03B691B68FB60FB6823F0F02328
:1010800023F08213FB60FA683B681340002B05D005
:10109000BB68002B02D00123FB7501E00023FB7528
:1010A000FB7D18461C37BD4680BC70470F6402406C
:1010B000006002400064024080B485B000AF7860F8
:1010C00039607B68104A934202D8104BFB6001E004
:1010D0000F4BFB603B6803F00053002B07D03B68CD
:1010E00023F0F02323F08213FA68D36006E03B6814
:1010F00023F0F02323F08213FA68936000BF1437C3
:10110000BD4680BC704700BF0F64024000600240D3
:101110000064024080B582B000AF1B4B00221A80F1
:10112000194B00225A60184B00229A600023BB80A2
:1011300017E00023FB800DE0BA8813469B001344A0
:101140009B011A44FB881344104A0021D154FB88A8
:101150000133FB80FB88B3F5A07FEDD9BB88013359
:10116000BB80BB88EF2BE4D900F05CF800F0AEF850
:1011700000F03EF900F010F9054B1B68024A93603D
:1011800000BF0837BD4680BD0805002014050020BB
:101190008864024080B584B000AF0346FB71002331
:1011A000BB8112E00023FB8108E0FA79B989FB8951
:1011B000184600F011F8FB890133FB81FB89B3F578
:1011C000A07FF2D3BB890133BB81BB89EF2BE9D967
:1011D00000BF1037BD4680BD80B483B000AF03466A
:1011E000FB800B46BB801346FB70FB88B3F5A07FEA
:1011F00001D30023FB80BB88EF2B01D90023BB80E8
:10120000BA8813469B0013449B011A44FB8813447D
:101210000349FA78CA5400BF0C37BD4680BC7047FA
:101220001405002080B582B000AF01211020FFF727
:1012300097FB4FF47F433B6001233B710023BB715D
:101240000123FB7103237B713B4619461D48FFF7C1
:10125000E1FB1C4B4FF47F425A8301210220FFF730
:101260007FFB4FF400633B6002233B7103237B71E0
:101270000023BB710123FB713B4619461248FFF75F
:10128000C9FB01220B211048FFF752FC012102206B
:10129000FFF766FB4FF480533B6001233B71002353
:1012A000BB710123FB7103237B713B461946064842
:1012B000FFF7B0FB044B4FF480521A8300BF08378E
:1012C000BD4680BD001002400004024080B588B0D9
:1012D00000AF01210120FFF77FFB0B23BB6100233F
:1012E000BB820023BB830023FB8207F11403194652
:1012F000284800F0A9F901210120FFF74FFB40F633
:101300006B23BB610023BB820023BB830023FB82D2
:1013100007F1140319464FF0804000F095F960235F
:101320003B8001237B804FF4D273BB600223BB81DF
:101330003B4619464FF0804000F030FA08214FF04C
:10134000804000F017FB60233B8001237B804FF43B
:10135000A073BB600223BB813B4619464FF080401F
:1013600000F0A2FA08214FF0804000F01FFB01219D
:10137000084800F0D3F901214FF0804000F0CEF989
:1013800001214FF0804000F0E9F900BF2037BD4651
:1013900080BD00BF0000014080B582B000AF0122D7
:1013A00010211248FFF7F8FD44233B7100237B71A5
:1013B0000023BB710123FB713B1D184600F0E4F8CC
:1013C000012208214FF0804000F00EFB1C233B71EE
:1013D00000237B710023BB710123FB713B1D184669
:1013E00000F0D2F800BF0837BD4680BD88640240D7
:1013F00080B590B000AF01214FF48000FFF7B0FA44
:1014000000211B48FFF7ACFD1948FFF781FC4FF0A6
:1014100040637B60174BBB60174BFB6040233B6115
:1014200040F241137B610023BB614FF48063FB6199
:1014300000233B6200237B620023BB624FF44033F6
:10144000FB6200233B6301237B630023BB63002318
:10145000FB633B1D19460648FFF72CFD01224FF4A4
:101460008071064800F0F4FA00BF4037BD4680BDE9
:10147000886402401510024014050020000001405D
:1014800080B500AF08214FF0804000F0D1FA264B24
:101490001B8801339AB2244B1A80234B1B88B3F567
:1014A000037F05D9204B00221A80204A1E4B5A6028
:1014B0001D4B1B88012B04D81D4B4FF480525A83BF
:1014C00003E01B4B4FF480521A83174B1B88232BCE
:1014D00027D9154B1B8840F20222934221D8154A86
:1014E000114B9B681360134A0F4B5B68D360124A21
:1014F000114B1B889BB243F001039BB213800D4A32
:101500000C4B1B6843F001031360074B1B8803F06F
:101510000103002B05D0044B5B6803F24113024A20
:10152000536000BF80BD00BF0805002014050020E7
:1015300000040240886402400000014080B500AF12
:101540000D490E48FFF762FD0346002B12D00A49F1
:101550000A48FFF7B1FD0A4A094B1B889BB223F0EA
:1015600001039BB21380054B00221A60054B4FF418
:101570007F425A8300BF80BD0088002088640240FB
:10158000000001400010024080B485B000AF7860D8
:101590000023FB730023BB730F237B737B68DB7813
:1015A000002B38D0264BDB68DB4303F4E0631B0AD7
:1015B000FB73FB7BC3F10403BB737A7BFB7B42FAB7
:1015C00003F37B737B685B781A46BB7B02FA03F3F9
:1015D000FB737B689A787B7B1340DAB2FB7B134307
:1015E000FB73FB7B1B01FB73164A7B681B78134460
:1015F000FA7B83F80023134A7B681B785B09DBB214
:1016000018467B681B7803F01F03012101FA03F3DE
:1016100042F820300FE00B497B681B785B09DBB296
:1016200018467B681B7803F01F0301229A4000F1E3
:10163000200341F8232000BF1437BD4680BC70470B
:1016400000ED00E000E100E080B485B000AF78601C
:1016500039600023FB817B681B88FB817B68284AFB
:10166000934213D07B68274A93420FD07B68B3F133
:10167000804F0BD07B68244A934207D07B68234A73
:10168000934203D07B68224A934208D1FB8923F01E
:101690007003FB813B685A88FB891343FB817B689D
:1016A0001C4A93420CD07B681B4A934208D0FB89AA
:1016B00023F44073FB813B681A89FB891343FB8148
:1016C0007B68FA891A803B685A687B68DA623B68F3
:1016D0001A887B681A857B68094A934203D07B6825
:1016E000084A934204D13B689B7A9AB27B681A8677
:1016F0007B6801229A8200BF1437BD4680BC7047C8
:1017000000000140000401400004004000080040C7
:10171000000C0040001000400014004080B483B072
:1017200000AF78600B46FB70FB78002B08D07B681D
:101730001B889BB243F080039AB27B681A8007E053
:101740007B681B889BB223F080039AB27B681A8067
:1017500000BF0C37BD4680BC704700BF80B483B06B
:1017600000AF78600B46FB70FB78002B08D07B68DD
:101770001B889BB243F001039AB27B681A8007E092
:101780007B681B889BB223F001039AB27B681A80A6
:1017900000BF0C37BD4680BC704700BF80B485B029
:1017A00000AF7860396000237B810023FB81002338
:1017B000BB817B681B8C9BB223F480739AB27B68DD
:1017C0001A847B681B8CFB817B689B88BB817B6850
:1017D0009B8B7B817B8923F070037B817B8923F04A
:1017E00003037B813B681A887B8913437B81FB89D8
:1017F00023F40073FB813B689B891B029AB2FB892F
:101800001343FB813B685B881B029AB2FB8913433D
:10181000FB817B68224A934203D07B68214A934232
:101820002BD1FB8923F40063FB813B68DB891B021E
:101830009AB2FB891343FB81FB8923F48063FB810C
:101840003B689B881B029AB2FB891343FB81BB89CF
:1018500023F48053BB81BB8923F40053BB813B68D5
:101860001B8A1B019AB2BB891343BB813B685B8A0D
:101870001B019AB2BB891343BB817B68BA899A80EA
:101880007B687A899A833B689A687B68DA637B68AD
:10189000FA891A8400BF1437BD4680BC704700BF68
:1018A000000001400004014080B485B000AF7860C2
:1018B00039600023BB8100237B810023FB817B688F
:1018C0001B8C9BB223F480539AB27B681A847B688A
:1018D0001B8C7B817B689B88FB817B689B8BBB819E
:1018E000BB8923F4E043BB81BB8923F44073BB81F4
:1018F0003B681B881B029AB2BB891343BB817B895F
:1019000023F400537B813B689B891B039AB27B893C
:1019100013437B813B685B881B039AB27B8913432B
:101920007B817B68114A934203D07B68104A9342C3
:101930000AD1FB8923F48043FB813B681B8A9B010E
:101940009AB2FB891343FB817B68FA899A807B6892
:10195000BA899A833B689A687B681A647B687A893B
:101960001A8400BF1437BD4680BC70470000014098
:101970000004014080B485B000AF78600B467B80E6
:101980000023FB817B689B8BFB81FB8923F0080391
:10199000FB81FA897B881343FB817B68FA899A83F0
:1019A00000BF1437BD4680BC704700BF80B485B00F
:1019B00000AF78600B467B800023FB817B689B8BAC
:1019C000FB81FB8923F40063FB817B881B029AB2B5
:1019D000FB891343FB817B68FA899A8300BF143724
:1019E000BD4680BC704700BF80B483B000AF786054
:1019F0000B467B8013467B707B78002B08D07B687E
:101A00009B899AB27B8813439AB27B689A8109E0DA
:101A10007B689B899AB27B88DB439BB213409AB266
:101A20007B689A8100BF0C37BD4680BC704700BF01
:101A300080B483B000AF78600B467B807B88DB434B
:101A40009AB27B681A8200BF0C37BD4680BC7047D3
:101A500080B483B000AF78600B467B8013467B7008
:101A60007B78002B08D07B689B899AB27B881343D4
:101A70009AB27B689A8109E07B689B899AB27B88DD
:101A8000DB439BB213409AB27B689A8100BF0C374C
:101A9000BD4680BC704700BF80B584B000AF7860A1
:101AA0000023BB601049786800F006FBF860BB6853
:101AB0005A1CBA60F968184600F018F80BE00A4999
:101AC000002000F0F9FAF860BB685A1CBA60F968A7
:101AD000184600F00BF8FB68002BF0D100F0A8F8D6
:101AE00000BF1037BD4680BD4421000880B582B0DC
:101AF00000AF786039607B68072B6BD801A252F881
:101B000023F000BF251B00083B1B0008511B0008E9
:101B1000671B00087D1B0008931B0008A91B000819
:101B2000BF1B00083148FEF769FD3968304800F0F6
:101B300065FA2F48FEF762FD53E02E48FEF75EFD82
:101B400039682D4800F05AFA2B48FEF757FD48E057
:101B50002A48FEF753FD3968294800F04FFA284813
:101B6000FEF74CFD3DE02748FEF748FD3968264862
:101B700000F044FA2448FEF741FD32E02348FEF726
:101B80003DFD3968224800F039FA2148FEF736FD5C
:101B900027E02048FEF732FD39681F4800F02EFA92
:101BA0001D48FEF72BFD1CE01C48FEF727FD396899
:101BB0001B4800F023FA1A48FEF720FD11E01948EF
:101BC000FEF71CFD3968184800F018FA1648FEF7B1
:101BD00015FD06E01548FEF711FD3868FEF70EFD0D
:101BE00000BF00BF0837BD4680BD00BF48210008C8
:101BF0000432012050210008183201205821000829
:101C00002C320120602100084032012068210008A8
:101C10005432012070210008683201207821000828
:101C20007C32012084210008903201208C210008A0
:101C300080B500AF2848FEF7E1FC2848FEF7DEFC3F
:101C40002749264800F070F80346002B03D12548A9
:101C5000FEF7D4FC09E02449204800F065F803466B
:101C6000002B02D12148FEF7C9FC21491B4800F096
:101C70005BF80346002B03D11E48FEF7BFFC09E0CA
:101C80001D49164800F050F80346002B02D11B48AE
:101C9000FEF7B4FC1A49114800F046F80346002B41
:101CA00003D11848FEF7AAFC09E017490B4800F0D9
:101CB0003BF80346002B02D11448FEF79FFC144961
:101CC000064800F031F80346002B02D11148FEF718
:101CD00095FC00BF80BD00BFA42100080432012094
:101CE000C0210008C8210008DC210008E421000808
:101CF000F8210008042200081C22000828220008FD
:101D000040220008482200085C22000864220008E3
:101D10007822000880220008000000000000000077
:101D2000A2EB0300704700BF02780B78012A28BF9E
:101D30009A42F5D16DE9044540EA0104CDE9026714
:101D40006FF0000C4FEA447212B380EA010414F001
:101D5000070F6AD100F0070420F0070004F0030524
:101D600021F007014FEAC505F0E8042314F0040F41
:101D7000F1E804670CFA05F462EA040266EA040674
:101D80000AD063EA0403624667EA0407664603E092
:101D9000F0E80423F1E8046782FA4CF582EA0604CD
:101DA000A4FA8CF46CBB83FA4CF583EA0705A5FA18
:101DB0008CF595B950E9022351E9026782FA4CF596
:101DC00082EA0604A4FA8CF483FA4CF583EA070548
:101DD000A5FA8CF52543DBD09CB92DBAB5FA85F46C
:101DE00024F0070427FA04F1DDE9026723FA04F37B
:101DF00003F0FF0001F0FF01FDE80445A0EB010046
:101E0000704724BAB4FA84F424F0070426FA04F1E3
:101E1000DDE9026722FA04F202F0FF0001F0FF019F
:101E2000FDE80445A0EB0100704714F0030F3CD11E
:101E300010F0030428D150F8082B51F8083B82FA1F
:101E40004CF582EA0305A5FA8CF55DB950F8042C2F
:101E500051F8043C82FA4CF582EA0305A5FA8CF5A8
:101E6000002DE8D02DBAB5FA85F424F0070423FA42
:101E700004F122FA04F202F0FF0001F0FF01FDE894
:101E80000445A0EB010070474FEAC40420F00300B2
:101E900050F8082B21F0030151F8083B0CFA04F428
:101EA00062EA040263EA0403C9E710F003041AD0EB
:101EB000A1EB040120F00300E40750F8042B06D046
:101EC0000FD28B785FFAA2F4E41A06D12BB1CB784B
:101ED0005FFAB2F4E41A00D11BB920465DF8104B4A
:101EE000704701F1040150F8042BCC0721F00301E5
:101EF00051F8043B48D824D222F07F4482FA4CF5B2
:101F000094EA1325A5FA8CF50AD165B951F8043B7A
:101F100084EA0204B4EB036F0ED150F8042BEBE714
:101F20004FEA132355E035F07F454DD10878FDE8A1
:101F30000445C0F1000070474FEA126203F0FF034E
:101F400047E002EA1C4482FA4CF594EA1345A5FAEC
:101F50008CF50AD165B951F8043B84EA0204B4EB6C
:101F6000034F0CD150F8042BEBE74FEA134330E05A
:101F700015EA1C4528D10B884FEA124229E04FEAA6
:101F8000124203EA1C4324E002F0FF0482FA4CF5FB
:101F900094EA1365A5FA8CF50AD165B951F8043BAA
:101FA00084EA0204B4EB032F09D150F8042BEBE7C9
:101FB0004FEA13630DE015F0FF0F05D10B684FEAF0
:101FC000122223F07F4304E04FF00000FDE80445B7
:101FD000704712BA1BBA82FA4CF482EA0304A4FADC
:101FE0008CF5B5FA85F402FA04F203FA04F34FEA29
:101FF0001260FDE80445A0EB1360704780EA01021F
:10200000844612F0030F4FD111F0030F32D14DF877
:10201000044D11F0040F51F8043B0BD0A3F1013231
:102020009A4312F0803F04BF4CF8043B51F8043B44
:1020300016D100BF51F8044BA3F101329A4312F0BC
:10204000803FA4F101320BD14CF8043BA24312F0C3
:10205000803F04BF51F8043B4CF8044BEAD02346C0
:102060000CF8013B13F0FF0F4FEA3323F8D15DF872
:10207000044B704711F0010F06D011F8012B0CF83A
:10208000012B002A08BF704711F0020FBFD031F8B2
:10209000022B12F0FF0F16BF2CF8022B8CF8002039
:1020A00012F47F4FB3D1704711F8012B0CF8012BBC
:1020B000002AF9D1704700BF024B1A6801235C3235
:1020C00000F002B838040020F0B420B307460D46F3
:1020D00017F8016B01E0A64216D015F8014B002C51
:1020E000F9D1EEB13E460C4616F8015B00E073B143
:1020F00014F8013B9D42FAD15DB100233B7016609C
:1021000006463046F0BC704763B13846DEE73746D6
:10211000E8E72E46F3E710680028D7D10646F0E737
:102120001660EEE7176006460370EAE754797065BB
:10213000206965747320696E20646520756172740E
:102140000A0000002C0000000A2045656E3D0000DA
:102150000A20547765653D000A20447269653D0098
:102160000A20566965723D000A2056696A663D007C
:102170000A205A65733D00000A205A6576656E3D57
:10218000000000000A20416368743D000A20546585
:10219000207665656C20617267756D656E74656E1D
:1021A0003A0000000A20696E2068616E646C654622
:1021B00069727374417267756D656E743A200000C0
:1021C0006C696A6E000000000A2048696A20686530
:1021D000656674206C696A6E00000000656C6C694D
:1021E000707300000A2048696A206865656674207B
:1021F000656C6C69707300007265636874686F6504
:102200006B0000000A2048696A20686565667420D2
:102210007265636874686F656B000000647269655D
:10222000686F656B000000000A2048696A206865D5
:102230006566742064726965686F656B00000000F4
:1022400074656B73740000000A2048696A20686531
:102250006566742074656B73740000006269746D48
:10226000617000000A2048696A206865656674200C
:102270006269746D617000007761636874000000CA
:102280000A2048696A20686565667420776163681A
:0822900074000000430000008F
:102298000000000001020304010203040607080904
:1022A80000000000FC02002064030020CC03002092
:1022B8000000000000000000000000000000000016
:1022C8000000000000000000000000000000000006
:1022D8000000000094220008000000000000000038
:1022E80000000000000000000000000000000000E6
:1022F80000000000000000000000000000000000D6
:1023080000000000000000000000000000000000C5
:1023180000000000000000000000000000000000B5
:1023280000000000000000000000000000000000A5
:102338000000000000000000000000000000000095
:102348000000000000000000010000000000000084
:102358000E33CDAB34126DE6ECDE05000B00000049
:102368000000000000000000000000000000000065
:102378000000000000000000000000000000000055
:102388000000000000000000000000000000000045
:102398000000000000000000000000000000000035
:0C26C800000000000000000010000020D6
:0400000508000000EF
:00000001FF
