:020000040800F2
:10000000AC3A012071070008CD070008CD070008B1
:10001000CD070008CD070008CD070008000000004C
:10002000000000000000000000000000CD070008F4
:10003000CD07000800000000CD070008CD0700082C
:10004000CD070008CD070008CD070008CD07000840
:10005000CD070008CD070008CD070008CD07000830
:10006000CD070008CD070008CD070008CD07000820
:10007000CD070008CD070008CD070008CD07000810
:10008000CD070008CD070008CD070008CD07000800
:10009000CD070008CD070008CD070008CD070008F0
:1000A000CD070008CD070008CD070008CD070008E0
:1000B0003D620008CD070008CD070008CD07000805
:1000C000CD070008CD070008CD070008CD070008C0
:1000D000CD070008CD07000835060008CD07000849
:1000E000CD070008CD070008CD070008CD070008A0
:1000F000CD070008CD070008CD070008CD07000890
:10010000CD070008CD070008CD070008CD0700087F
:10011000CD070008CD070008CD070008CD0700086F
:10012000CD070008CD070008CD070008CD0700085F
:10013000CD070008CD070008CD070008CD0700084F
:10014000CD070008CD070008CD070008CD0700083F
:10015000F9620008CD070008CD070008CD070008A8
:10016000CD070008CD070008CD070008CD0700081F
:10017000CD070008CD070008CD070008CD0700080F
:10018000CD070008CD07000880B582B000AF7860C9
:100190000021786800F0C0FA786806F05BFB00BFC9
:1001A0000837BD4680BD00BF80B58AB000AF78601B
:1001B000396000237B6200233B620023FB61002344
:1001C000BB617B681B8A9BB27B627B6A23F44053D2
:1001D0007B623B68DB881A467B6A13437B627B6ADF
:1001E0009AB27B681A827B689B899BB27B627B6A2E
:1001F00023F4B05323F00C037B623B689A883B687E
:100200001B8913439AB23B685B8913439BB21A461E
:100210007B6A13437B627B6A9AB27B689A817B68B4
:100220009B8A9BB27B627B6A23F440737B623B6850
:100230009B891A467B6A13437B627B6A9AB27B680E
:100240009A8207F10803184600F0DAFA7B68304A10
:10025000934203D07B682F4A934202D17B693B6271
:1002600001E03B693B627B689B899BB21BB2002B20
:100270000CDA3A6A13469B0013449A001A443B680E
:100280001B685B00B2FBF3F3FB610BE03A6A1346B9
:100290009B0013449A001A443B681B689B00B2FB06
:1002A000F3F3FB61FB691C4AA2FB03235B091B01FF
:1002B0007B627B6A1B09642202FB03F3FA69D31A8F
:1002C000BB617B689B899BB21BB2002B0CDABB69BC
:1002D000DB003233104AA2FB03235B0903F0070360
:1002E0007A6A13437B620BE0BB691B0132330A4A13
:1002F000A2FB03235B0903F00F037A6A13437B62BB
:100300007B6A9AB27B681A8100BF2837BD4680BDE0
:1003100000100140001401401F85EB5180B483B0F0
:1003200000AF78600B46FB70FB78002B08D07B6831
:100330009B899BB243F400539AB27B689A8107E091
:100340007B689B899BB223F400539AB27B689A81A5
:1003500000BF0C37BD4680BC704700BF80B483B07F
:1003600000AF78600B467B807B88C3F308039AB2AA
:100370007B689A8000BF0C37BD4680BC704700BFC9
:1003800080B487B000AF78600B467B8013467B70EB
:1003900000233B610023FB600023BB6000237B61E3
:1003A0007B687B617B88DBB25B09DBB23B617B886E
:1003B00003F01F03FB600122FB6802FA03F3BB603A
:1003C0003B69012B03D17B690C337B6109E03B69FD
:1003D000022B03D17B6910337B6102E07B6914330C
:1003E0007B617B78002B06D07B697A691168BA68DB
:1003F0000A431A6006E07B697A691168BA68D243D9
:100400000A401A6000BF1C37BD4680BC704700BF61
:1004100080B485B000AF78600B467B800023FB730F
:100420007B681B889AB27B8813409BB2002B02D05A
:100430000123FB7301E00023FB73FB7B1846143799
:10044000BD4680BC704700BF80B487B000AF786005
:100450000B467B800023FB6000237B610023BB6095
:100460000023FB747B88DBB25B09DBB2BB607B885B
:1004700003F01F037B6101227B6902FA03F37B61B6
:10048000BB68012B07D17B689B899BB21A467B69AD
:1004900013407B6111E0BB68022B07D17B681B8A8C
:1004A0009BB21A467B6913407B6106E07B689B8A9E
:1004B0009BB21A467B6913407B617B881B0A9BB207
:1004C000FB600122FB6802FA03F3FB607B681B8878
:1004D0009BB21A46FB681340FB607B69002B05D07A
:1004E000FB68002B02D00123FB7401E00023FB74A6
:1004F000FB7C18461C37BD4680BC704780B485B075
:1005000000AF78600B467B800023FB810023BB811A
:100510007B881B0AFB81FB89012202FA03F3BB8162
:10052000BB89DB439AB27B681A8000BF1437BD4693
:1005300080BC704780B586B000AF01214FF4003019
:1005400000F026FA0121012000F004FA0C233B619F
:1005500002233B750023BB750123FB7502237B75CA
:1005600007F110031946164805F032F90722022157
:10057000134805F0BBF907220321114805F0B6F92D
:100580004FF4E1333B600023BB800023FB8000235A
:100590003B810023BB810C237B813B4619460948E4
:1005A000FFF702FE012240F225510648FFF7E8FE60
:1005B00001210448FFF7B2FE00BF1837BD4680BDD9
:1005C000000002400044004080B582B000AF034606
:1005D000FB7100BF80210848FFF71AFF0346002B7C
:1005E000F8D0FB799BB219460348FFF7B7FE00BF6E
:1005F0000837BD4680BD00BF0044004080B584B0D0
:1006000000AF78600023FB6009E0FB687A68134460
:100610001B781846FFF7D8FFFB680133FB60FB68C7
:100620007A6813441B78002BEFD100BF1037BD460A
:1006300080BD00BF80B582B000AF40F22551274891
:10064000FFF702FF0346002B44D040F22551234818
:10065000FFF754FF214B9B889BB2FB70FB78402B2C
:1006600005D9FB785A2B02D8FB782033FB70FB7836
:100670000D2B1DD800237B600BE0194A7B681344C7
:100680001B789BB219461548FFF768FE7B6801335B
:100690007B60144B1B687A689A42EEDB114B002298
:1006A0001A60FB789BB219460C48FFF757FE09E029
:1006B0000C4B1B680A49FA78CA540A4B1B68013371
:1006C000084A136000BF40210448FFF7A1FE03461B
:1006D000002BF8D000BF0837BD4680BD0044004065
:1006E000AC0400204404002080B582B000AFFF239A
:1006F000FB7120210748FFF78BFE0346012B03D136
:10070000044B9B889BB2FB71FB7918460837BD46AA
:1007100080BD00BF0044004080B582B000AF78606B
:100720003960FFF7E1FF03461A467B681A707B6861
:100730001B78FF2B17D07B681B780A2B13D03B68E4
:10074000002B04D07B681B781846FFF73DFF7B68C1
:100750001B780D2B03D17B6800221A7005E07B68A3
:1007600001337B60DDE700BFDBE70837BD4680BDB6
:1007700080B582B000AF104B7B60104B3B6007E050
:100780003B681A1D3A607A68111D796012681A6018
:100790003B680B4A9342F3D30A480B494FF00002DF
:1007A0008842B8BF40F8042BFADB00F013F800BF12
:1007B0000837BD4680BD00BF708B000800000020D8
:1007C0004404002044040020AC32012080B400AF77
:1007D000FEE700BF80B500AF05F0D0F8FFF7AAFE36
:1007E00005F076FB002005F0B3FB0348FFF706FF9A
:1007F0000248FFF7C9FCFBE78C7F00084804002093
:1008000080B489B000AF78600023BB6100237B61B6
:100810000023FB6102233B610023FB600223BB60DA
:10082000484B9B6803F00C03BB61BB69042B07D0EA
:10083000082B09D0002B3FD17B68434A1A603FE068
:100840007B68424A1A603BE03E4B5B6803F48003DE
:100850009B0DFB603B4B5B6803F03F03BB60FB6899
:10086000002B0DD0394ABB68B2FBF3F2354B596807
:1008700047F6C0730B409B0903FB02F3FB610CE0DE
:10088000314ABB68B2FBF3F22E4B596847F6C0738E
:100890000B409B0903FB02F3FB612A4B5B6803F4EB
:1008A00040331B0C01335B003B61FA693B69B2FBCF
:1008B000F3F27B681A6003E07B68234A1A6000BF8A
:1008C000204B9B6803F0F003BB61BB691B09BB6154
:1008D0001F4ABB6913441B78DBB27B617B681A68D3
:1008E0007B69DA407B685A60164B9B6803F4E053DF
:1008F000BB61BB699B0ABB61154ABB6913441B788A
:10090000DBB27B617B685A687B69DA407B689A60FE
:100910000C4B9B6803F46043BB61BB695B0BBB6121
:100920000B4ABB6913441B78DBB27B617B685A6856
:100930007B69DA407B68DA6000BF2437BD4680BC43
:10094000704700BF003802400024F40000127A0013
:100950000000002080B483B000AF78600B46FB70CD
:10096000FB78002B06D00949084B1A6B7B681343B0
:100970000B6306E00549054B1A6B7B68DB431340AC
:100980000B6300BF0C37BD4680BC70470038024087
:1009900080B483B000AF78600B46FB70FB78002B0F
:1009A00006D00949084B1A6C7B6813430B6406E0B8
:1009B0000549054B1A6C7B68DB4313400B6400BF91
:1009C0000C37BD4680BC70470038024080B483B00D
:1009D00000AF78600B46FB70FB78002B06D009490E
:1009E000084B5A6C7B6813434B6406E00549054B82
:1009F0005A6C7B68DB4313404B6400BF0C37BD4629
:100A000080BC704700380240B0B596B000AFF860C7
:100A1000B9607A603B60F86806F01EFF7865B868D8
:100A200006F01AFF3865786806F016FFF864386833
:100A300006F012FFB864B86E06F00EFFB863F86EE9
:100A400006F00AFF78630023FB637A6DFB6CD31A10
:100A500083EAE372A2EBE372396DBB6CCB1A002B15
:100A6000B8BF5B429A420DDA7B6D3B633B6D7B65A1
:100A70003B6B3B65FB6CFB62BB6CFB64FB6ABB6462
:100A80000123FB637A6DFB6C9A420BDD7B6DBB62CD
:100A9000FB6C7B65BB6AFB643B6D7B62BB6C3B653F
:100AA0007B6ABB6400233B6471E07A6D3B6C13444A
:100AB0003B62FA6C3B6C1344FB613B6A7B645FE016
:100AC0007A6C3B6AD31A184606F022FD0446FA698E
:100AD0003B6AD31A184606F01BFD0346194620460A
:100AE00006F01EFE0346BB61386D06F097F904461A
:100AF0000D46B86906F0A4F902460B464FF0000017
:100B0000274906F03DF802460B462046294606F0E6
:100B1000EBF903460C4625461C46B86C06F0F8FC7B
:100B20000346B969184606F047FD0346184606F025
:100B300087F902460B462046294606F023F803466D
:100B40000C461846214606F0E1FB03467B61FB6B31
:100B5000012B09D17B699BB27A6C91B27A6BD2B2CC
:100B6000184605F017FA08E07B6C9BB27A6991B2DF
:100B70007A6BD2B2184605F00DFA7B6C01337B64B8
:100B80007A6CFB699A429BDB3B6C01333B643A6CA9
:100B9000BB6B9A4289DB00BF5837BD46B0BD00BF72
:100BA0000000F03F80B58CB000AFF860B9607A60AB
:100BB0003B60F86806F050FE7862B86806F04CFEBC
:100BC0003862786806F048FEF861386806F044FE3E
:100BD000B861B86B06F040FE7861BB695B42FB62AE
:100BE0003FE0FB695B42BB6234E0BB6ABA6A02FB6E
:100BF00003F3BA6902FB03F3BA6902FB03F2FB6A6F
:100C0000F96A01FB03F3F96901FB03F3F96901FBDD
:100C100003F31A44BB69B96901FB03F3F96901FBEA
:100C200003F3F96901FB03F39A4210DC7B6A9AB281
:100C3000BB6A9BB2134498B23B6A9AB2FB6A9BB2FE
:100C400013449BB27A69D2B2194605F0A3F9BB6A84
:100C50000133BB62BA6AFB699A42C6DDFB6A0133A3
:100C6000FB62FA6ABB699A42BBDD00BF3037BD4602
:100C700080BD00BF80B58CB000AFF860B9607A600D
:100C80003B60F86806F0E8FD7862B86806F0E4FDBD
:100C90003862786806F0E0FDF861386806F0DCFD3F
:100CA000B861B86B06F0D8FD78617B6AFB6215E02D
:100CB000BB69BB620BE0FB6A9BB2BA6A91B27A690C
:100CC000D2B2184605F066F9BB6A0133BB62BA6A54
:100CD0003B6A9A42EFDBFB6A0133FB62FA6AFB690B
:100CE0009A42E5DB00BF3037BD4680BD80B58EB08F
:100CF00002AFF860B9607A603B60F86806F0ACFD5E
:100D0000F862B86806F0A8FDB862786806F0A4FD3D
:100D10007862386806F0A0FD3862B86B06F09CFD7A
:100D2000F861F86B06F098FDB861386C06F094FD38
:100D300078617B690193012300933B6A7A6AB96AFF
:100D4000F86A00F019F87B69019301230093BB69ED
:100D5000FA69396A786A00F00FF87B690193012318
:100D60000093BB6AFA6AB969F86900F005F800BF38
:100D70003037BD4680BD00BFB0B590B000AFF86061
:100D8000B9607A603B6000237B63FA687B68D31AA2
:100D900083EAE372A2EBE372B9683B68CB1A002BDB
:100DA000B8BF5B429A420DDAFB683B63BB68FB60ED
:100DB0003B6BBB607B68FB623B687B60FB6A3B60B4
:100DC00001237B63FA687B689A420BDDFB68BB6298
:100DD0007B68FB60BB6A7B60BB687B623B68BB6017
:100DE0007B6A3B600023BB6371E0FA68BB6B134412
:100DF0003B627A68BB6B1344FB613B6AFB635FE059
:100E0000FA6B3B6AD31A184606F082FB0446FA696D
:100E10003B6AD31A184606F07BFB03461946204668
:100E200006F07EFC0346BB61B86805F0F7FF044698
:100E30000D46B86906F004F802460B464FF0000074
:100E4000274905F09DFE02460B462046294606F03E
:100E50004BF803460C4625461C46386806F058FBFE
:100E60000346B969184606F0A7FB0346184605F085
:100E7000E7FF02460B462046294605F083FE03465F
:100E80000C461846214606F041FA03467B617B6B0F
:100E9000012B09D17B699BB2FA6B91B27A6DD2B208
:100EA000184605F077F808E0FB6B9BB27A6991B2BF
:100EB0007A6DD2B2184605F06DF8FB6B0133FB6317
:100EC000FA6BFB699A429BDBBB6B0133BB63BA6B6A
:100ED0003B6D9A4289DB00BF4037BD46B0BD00BFC5
:100EE0000000F03F90B5ADF5235D85B000AF07F190
:100EF0001004043C206007F110000838016007F17D
:100F000010010C390A6007F11002103A136007F162
:100F10001003043B186806F09FFC07F5235303F108
:100F20000403186007F11003083B186806F094FCEE
:100F300007F52353186007F5235303F120031868BE
:100F400006F08AFC07F5225303F13C03186007F50D
:100F50001C5303F1200318464FF4C8731A460021AE
:100F600006F018FD07F51C5303F1200307F5225284
:100F700002F13C0212681A6107F51C5303F12003C9
:100F800007F5225202F13C0212685A6107F51C5320
:100F900003F1200307F5225202F13C0212685A6362
:100FA00007F51C5303F1200307F5225202F13C021E
:100FB00012681A6407F51C5303F1200307F5225247
:100FC00002F13C0212689A6507F51C5303F12003F5
:100FD00007F5225202F13C021268DA6607F51C534B
:100FE00003F1200307F5225202F13C021268C3F814
:100FF000802007F51C5303F1200307F5225202F16C
:101000003C021268C3F8942007F51C5303F1200337
:1010100007F5225202F13C021268C3F8A42007F53A
:101020001C5303F1200307F5225202F13C0212681F
:10103000C3F8C02007F51C5303F1200307F5225223
:1010400002F13C021268C3F8CC2007F51C5303F1EF
:10105000200307F5225202F13C021268C3F8D020A7
:1010600007F51C5303F1200307F5225202F13C025D
:101070001268C3F8D42007F51C5303F1200307F5C9
:10108000225202F13C021268C3F8D82007F51C5323
:1010900003F1200307F5225202F13C021268C3F863
:1010A000DC2007F51C5303F1200307F5225202F15F
:1010B0003C021268C3F8E02007F51C5303F120033B
:1010C00007F5225202F13C021268C3F8E42007F54A
:1010D0001C5303F1200307F5225202F13C0212686F
:1010E000C3F8E82007F51C5303F1200307F522524B
:1010F00002F13C021268C3F8F42007F51C5303F117
:10110000200307F5225202F13C021268C3F81021B5
:1011100007F51C5303F1200307F5225202F13C02AC
:101120001268C3F81C2107F51C5303F1200307F5CF
:10113000225202F13C021268C3F8382107F51C5311
:1011400003F1200307F5225202F13C021268C3F8B2
:10115000442107F51C5303F1200307F5225202F145
:101160003C021268C3F8602107F5165303F110031F
:1011700000221A6007F5165303F1100300225A608B
:1011800007F5165303F1100300229A6007F5165372
:1011900003F110030022DA6007F5165303F1100380
:1011A00000221A6107F5165303F1100300225A6159
:1011B00007F5165303F1100300229A6107F5165341
:1011C00003F110030022DA6107F5165303F110034F
:1011D00000221A6207F5165303F1100300225A6227
:1011E00007F5165303F1100300229A6207F5165310
:1011F00003F1100307F5225202F13C021268DA6291
:1012000007F5165303F1100307F5225202F13C02D1
:1012100012681A6307F5165303F1100307F52252FB
:1012200002F13C0212685A6307F5165303F11003EA
:1012300007F5225202F13C0212689A6307F5165331
:1012400003F1100307F5225202F13C021268DA633F
:1012500007F5165303F1100300221A6407F516531D
:1012600003F1100300225A6407F5165303F110032B
:1012700000229A6407F5165303F110030022DA6482
:1012800007F5165303F1100300221A6507F51653EC
:1012900003F1100307F5225202F13C0212685A656D
:1012A00007F5165303F1100300229A6507F516534C
:1012B00003F110030022DA6507F5165303F110035A
:1012C00000221A6607F5165303F1100300225A662E
:1012D00007F5165303F1100307F5225202F13C0201
:1012E00012689A6607F5165303F110030022DA66B6
:1012F00007F5165303F1100300221A6707F516537A
:1013000003F1100300225A6707F5165303F1100387
:1013100000229A6707F5165303F1100307F52252CE
:1013200002F13C021268DA6707F5165303F1100365
:101330000022C3F8802007F5165303F110030022A2
:10134000C3F8842007F5165303F110030022C3F8F5
:10135000882007F5165303F110030022C3F88C20F0
:1013600007F5165303F1100307F5225202F13C0270
:101370001268C3F8902007F5165303F110030022FA
:10138000C3F8942007F5165303F110030022C3F8A5
:10139000982007F5165303F110030022C3F89C2090
:1013A00007F5165303F110030022C3F8A02007F538
:1013B000165303F1100307F5225202F13C021268A2
:1013C000C3F8A42007F5165303F1100307F52252C2
:1013D00002F13C021268C3F8A82007F5165303F186
:1013E000100307F5225202F13C021268C3F8AC2048
:1013F00007F5165303F1100307F5225202F13C02E0
:101400001268C3F8B02007F5165303F1100307F56F
:10141000225202F13C021268C3F8B42007F51653B9
:1014200003F110030022C3F8B82007F5165303F1A7
:1014300010030022C3F8BC2007F5165303F1100374
:101440000022C3F8C02007F5165303F11003002251
:10145000C3F8C42007F5165303F110030022C3F8A4
:10146000C82007F5165303F1100307F5225202F1C5
:101470003C021268C3F8CC2007F5165303F11003A1
:101480000022C3F8D02007F5165303F11003002201
:10149000C3F8D42007F5165303F110030022C3F854
:1014A000D82007F5165303F110030022C3F8DC20FF
:1014B00007F5165303F1100307F5225202F13C021F
:1014C0001268C3F8E02007F5165303F1100307F57F
:1014D000225202F13C021268C3F8E42007F51653C9
:1014E00003F110030022C3F8E82007F5165303F1B7
:1014F00010030022C3F8EC2007F5165303F1100384
:101500000022C3F8F02007F5165303F1100307F586
:10151000225202F13C021268C3F8F42007F5165378
:1015200003F110030022C3F8F82007F5165303F166
:1015300010030022C3F8FC2007F5165303F1100333
:101540000022C3F8002107F5165303F1100300220F
:10155000C3F8042107F5165303F110030022C3F862
:10156000082107F5165303F1100307F5225202F183
:101570003C021268C3F80C2107F5165303F110035F
:101580000022C3F8102107F5165303F110030022BF
:10159000C3F8142107F5165303F110030022C3F812
:1015A000182107F5165303F1100307F5225202F133
:1015B0003C021268C3F81C2107F5165303F110030F
:1015C0000022C3F8202107F5165303F1100300226F
:1015D000C3F8242107F5165303F110030022C3F8C2
:1015E000282107F5165303F110030022C3F82C211C
:1015F00007F5165303F1100307F5225202F13C02DE
:101600001268C3F8302107F5165303F1100307F5EC
:10161000225202F13C021268C3F8342107F5165336
:1016200003F110030022C3F8382107F5165303F124
:1016300010030022C3F83C2107F5165303F11003F1
:101640000022C3F8402107F5165303F1100307F5F4
:10165000225202F13C021268C3F8442107F51653E6
:1016600003F1100307F5225202F13C021268C3F89D
:10167000482107F5165303F1100307F5225202F132
:101680003C021268C3F84C2107F5165303F110030E
:1016900007F5225202F13C021268C3F8502107F507
:1016A000165303F1100307F5225202F13C021268AF
:1016B000C3F8542107F5165303F110030022C3F8B1
:1016C000582107F5165303F110030022C3F85C21DB
:1016D00007F5165303F110030022C3F8602107F544
:1016E000165303F110030022C3F8642107F51653C3
:1016F00003F110030022C3F8682107F5165303F124
:1017000010030022C3F86C2107F5165303F11003F0
:101710000022C3F8702107F5165303F110030022CD
:10172000C3F8742107F5165303F110030022C3F820
:10173000782107F5165303F110030022C3F87C212A
:1017400007F5165303F110030022C3F8802107F5B3
:10175000165303F110030022C3F8842107F5165332
:1017600003F110030022C3F8882107F5165303F193
:1017700010030022C3F88C2107F5105318464FF4CC
:10178000C8731A46002106F005F907F5105307F54E
:10179000225202F13C0212685A6307F5105307F512
:1017A000225202F13C0212689A6307F5105307F5C2
:1017B000225202F13C021268DA6307F5105307F572
:1017C000225202F13C0212681A6407F5105307F521
:1017D000225202F13C0212689A6507F5105307F590
:1017E000225202F13C021268DA6607F5105307F53F
:1017F000225202F13C021268DA6707F5105307F52E
:10180000225202F13C021268C3F8982007F51053E7
:1018100007F5225202F13C021268C3F8A42007F532
:10182000105307F5225202F13C021268C3F8CC2093
:1018300007F5105307F5225202F13C021268C3F873
:10184000F42007F5105307F5225202F13C0212680A
:10185000C3F8102107F5105307F5225202F13C029C
:101860001268C3F8202107F5105307F5225202F140
:101870003C021268C3F8342107F5105307F52252D1
:1018800002F13C021268C3F84C2107F5105307F52A
:10189000225202F13C021268C3F8502107F510539E
:1018A00007F5225202F13C021268C3F8542107F5F1
:1018B000105307F5225202F13C021268C3F8582176
:1018C00007F5095303F1300318464FF4C8731A465D
:1018D000002106F05FF807F5095303F1300307F51F
:1018E000225202F13C021268DA6207F5095303F151
:1018F000300307F5225202F13C0212681A6307F521
:10190000095303F1300307F5225202F13C02126839
:101910005A6307F5095303F1300307F5225202F128
:101920003C0212689A6307F5095303F1300307F587
:10193000225202F13C021268DA6307F5095303F1FF
:10194000300307F5225202F13C0212681A6407F5CF
:10195000095303F1300307F5225202F13C021268E9
:101960005A6507F5095303F1300307F5225202F1D6
:101970003C021268DA6607F5095303F1300307F5F4
:10198000225202F13C021268DA6707F5095303F1AB
:10199000300307F5225202F13C021268C3F8982086
:1019A00007F5095303F1300307F5225202F13C0217
:1019B0001268C3F8A42007F5095303F1300307F5B3
:1019C000225202F13C021268C3F8C02007F5095305
:1019D00003F1300307F5225202F13C021268C3F80A
:1019E000CC2007F5095303F1300307F5225202F129
:1019F0003C021268C3F8E82007F5095303F13003ED
:101A000007F5225202F13C021268C3F8F42007F5F0
:101A1000095303F1300307F5225202F13C02126828
:101A2000C3F8102107F5095303F1300307F52252DB
:101A300002F13C021268C3F81C2107F5095303F1B7
:101A4000300307F5225202F13C021268C3F8342138
:101A500007F5095303F1300307F5225202F13C0266
:101A60001268C3F8442107F5095303F1300307F561
:101A7000225202F13C021268C3F8482107F50953CB
:101A800003F1300307F5225202F13C021268C3F859
:101A90004C2107F5095303F1300307F5225202F1F7
:101AA0003C021268C3F8502107F5095303F13003D3
:101AB00007F5225202F13C021268C3F8542107F5DF
:101AC000095303F1300307F5225202F13C02126878
:101AD000C3F8582107F5035303F1200300221A60CD
:101AE00007F5035303F1200300225A6007F503535F
:101AF00003F1200300229A6007F5035303F120034A
:101B00000022DA6007F5035303F1200300221A6173
:101B100007F5035303F1200300225A6107F503532D
:101B200003F1200300229A6107F5035303F1200318
:101B30000022DA6107F5035303F1200300221A6241
:101B400007F5035303F1200300225A6207F50353FC
:101B500003F1200300229A6207F5035303F12003E7
:101B600007F5225202F13C021268DA6207F50353CC
:101B700003F1200307F5225202F13C0212681A63B6
:101B800007F5035303F1200307F5225202F13C024B
:101B900012685A6307F5035303F1200307F5225235
:101BA00002F13C0212689A6307F5035303F1200324
:101BB00007F5225202F13C021268DA6307F503537B
:101BC00003F1200307F5225202F13C0212681A6465
:101BD00007F5035303F1200307F5225202F13C02FB
:101BE00012685A6407F5035303F1200307F52252E4
:101BF00002F13C0212689A6407F5035303F12003D3
:101C00000022DA6407F5035303F1200300221A656A
:101C100007F5035303F1200307F5225202F13C02BA
:101C200012685A6507F5035303F1200300229A65F1
:101C300007F5035303F120030022DA6507F5035388
:101C400003F1200300221A6607F5035303F1200372
:101C500000225A6607F5035303F1200300229A6617
:101C600007F5035303F120030022DA6607F5035357
:101C700003F1200300221A6707F5035303F1200341
:101C800000225A6707F5035303F1200300229A67E5
:101C900007F5035303F1200307F5225202F13C023A
:101CA0001268DA6707F5035303F120030022C3F833
:101CB000802007F5035303F120030022C3F884209A
:101CC00007F5035303F120030022C3F8882007F52A
:101CD000035303F120030022C3F88C2007F50353BC
:101CE00003F120030022C3F8902007F5035303F10A
:101CF00020030022C3F8942007F5035303F12003C7
:101D00000022C3F8982007F5035303F120030022B3
:101D1000C3F89C2007F5035303F120030022C3F806
:101D2000A02007F5035303F1200307F5225202F127
:101D30003C021268C3F8A42007F5035303F1200303
:101D400007F5225202F13C021268C3F8A82007F5F9
:101D5000035303F1200307F5225202F13C021268FB
:101D6000C3F8AC2007F5035303F1200307F5225213
:101D700002F13C021268C3F8B02007F5035303F1E7
:101D800020030022C3F8B42007F5035303F1200316
:101D90000022C3F8B82007F5035303F12003002203
:101DA000C3F8BC2007F5035303F120030022C3F856
:101DB000C02007F5035303F120030022C3F8C42019
:101DC00007F5035303F120030022C3F8C82007F5E9
:101DD000035303F1200307F5225202F13C0212687B
:101DE000C3F8CC2007F5035303F120030022C3F806
:101DF000D02007F5035303F120030022C3F8D420B9
:101E000007F5035303F120030022C3F8D82007F598
:101E1000035303F120030022C3F8DC2007F503532A
:101E200003F120030022C3F8E02007F5035303F178
:101E300020030022C3F8E42007F5035303F1200335
:101E40000022C3F8E82007F5035303F12003002222
:101E5000C3F8EC2007F5035303F120030022C3F875
:101E6000F02007F5035303F1200307F5225202F196
:101E70003C021268C3F8F42007F5035303F1200372
:101E80000022C3F8F82007F5035303F120030022D2
:101E9000C3F8FC2007F5035303F120030022C3F825
:101EA000002107F5035303F120030022C3F80421A6
:101EB00007F5035303F120030022C3F8082107F5B7
:101EC000035303F120030022C3F80C2107F5035349
:101ED00003F120030022C3F8102107F5035303F197
:101EE00020030022C3F8142107F5035303F1200354
:101EF0000022C3F8182107F5035303F1200307F567
:101F0000225202F13C021268C3F81C2107F5035368
:101F100003F120030022C3F8202107F5035303F146
:101F200020030022C3F8242107F5035303F1200303
:101F30000022C3F8282107F5035303F120030022F0
:101F4000C3F82C2107F5035303F120030022C3F843
:101F5000302107F5035303F120030022C3F8342195
:101F600007F5035303F120030022C3F8382107F5D6
:101F7000035303F120030022C3F83C2107F5035368
:101F800003F120030022C3F8402107F5035303F1B6
:101F9000200307F5225202F13C021268C3F84421E3
:101FA00007F5035303F1200307F5225202F13C0227
:101FB0001268C3F8482107F5035303F1200307F51E
:101FC000225202F13C021268C3F84C2107F5035378
:101FD00003F1200307F5225202F13C021268C3F814
:101FE000502107F5035303F1200307F5225202F1B4
:101FF0003C021268C3F8542107F5035303F1200390
:1020000007F5225202F13C021268C3F8582107F585
:10201000035303F1200307F5225202F13C02126838
:10202000C3F85C2107F5035303F1200307F522529F
:1020300002F13C021268C3F8602107F5035303F173
:1020400020030022C3F8642107F5035303F12003A2
:102050000022C3F8682107F5035303F1200300228F
:10206000C3F86C2107F5035303F120030022C3F8E2
:10207000702107F5035303F120030022C3F87421F4
:1020800007F5035303F120030022C3F8782107F575
:10209000035303F120030022C3F87C2107F5035307
:1020A00003F120030022C3F8802107F5035303F155
:1020B00020030022C3F8842107F5035303F1200312
:1020C0000022C3F8882107F5035303F120030022FF
:1020D000C3F88C2107F5FA5303F1100318464FF4A7
:1020E000C8731A46002105F055FC07F5FA5303F1B1
:1020F000100307F5225202F13C0212681A6307F539
:10210000FA5303F1100307F5225202F13C02126860
:102110005A6307F5FA5303F1100307F5225202F14F
:102120003C0212689A6307F5FA5303F1100307F5AE
:10213000225202F13C021268DA6307F5FA5303F106
:10214000100307F5225202F13C0212681A6407F5E7
:10215000FA5303F1100307F5225202F13C02126810
:102160005A6407F5FA5303F1100307F5225202F1FE
:102170003C0212689A6507F5FA5303F1100307F55C
:10218000225202F13C021268C3F8802007F5FA538C
:1021900003F1100307F5225202F13C021268C3F862
:1021A000A82007F5FA5303F1100307F5225202F1B4
:1021B0003C021268C3F8AC2007F5FA5303F1100390
:1021C00007F5225202F13C021268C3F8B02007F56D
:1021D000FA5303F1100307F5225202F13C02126890
:1021E000C3F8D02007F5FA5303F1100307F5225284
:1021F00002F13C021268C3F8F82007F5FA5303F124
:10220000100307F5225202F13C021268C3F82021A4
:1022100007F5FA5303F1100307F5225202F13C02CD
:102220001268C3F8482107F5EE5318464FF4C873F7
:102230001A46002105F0AEFB07F5EE5307F52252D2
:1022400002F13C0212685A6307F5EE5307F5225279
:1022500002F13C0212689A6307F5EE5307F5225229
:1022600002F13C021268DA6307F5EE5307F52252D9
:1022700002F13C0212681A6407F5EE5307F5225288
:1022800002F13C0212689A6507F5EE5307F52252F7
:1022900002F13C021268DA6607F5EE5307F52252A6
:1022A00002F13C021268DA6707F5EE5307F5225295
:1022B00002F13C021268C3F8A42007F5EE5307F5BB
:1022C000225202F13C021268C3F8CC2007F5EE530B
:1022D00007F5225202F13C021268C3F8E02007F52C
:1022E000EE5307F5225202F13C021268C3F8E420D3
:1022F00007F5EE5307F5225202F13C021268C3F8CB
:10230000E82007F5EE5307F5225202F13C0212686D
:10231000C3F8F42007F5EE5307F5225202F13C0210
:102320001268C3F80C2107F5EE5307F5225202F1AB
:102330003C021268C3F8202107F5EE5307F522523C
:1023400002F13C021268C3F8302107F5EE5307F59D
:10235000225202F13C021268C3F84C2107F5EE53F9
:1023600007F5225202F13C021268C3F8502107F52A
:10237000EE5307F5225202F13C021268C3F85421D1
:1023800007F5E15303F1100318464FF4C8731A46DA
:10239000002105F0FFFA07F5E15303F1100307F5FB
:1023A000225202F13C021268DA6207F5E15303F1AE
:1023B000100307F5225202F13C0212689A6407F5F5
:1023C000E15303F1100307F5225202F13C021268B7
:1023D0005A6507F5E15303F1100307F5225202F1A4
:1023E0003C0212681A6707F5E15303F1100307F581
:1023F000225202F13C021268DA6707F5E15303F159
:10240000100307F5225202F13C021268C3F898202B
:1024100007F5E15303F1100307F5225202F13C02E4
:102420001268C3F8A42007F5E15303F1100307F580
:10243000225202F13C021268C3F8C02007F5E153B2
:1024400003F1100307F5225202F13C021268C3F8AF
:10245000CC2007F5E15303F1100307F5225202F1F6
:102460003C021268C3F8D02007F5E15303F11003D2
:1024700007F5225202F13C021268C3F8D42007F596
:10248000E15303F1100307F5225202F13C021268F6
:10249000C3F8D82007F5E15303F1100307F52252E2
:1024A00002F13C021268C3F8DC2007F5E15303F1A6
:1024B000100307F5225202F13C021268C3F8E02033
:1024C00007F5E15303F1100307F5225202F13C0234
:1024D0001268C3F8E42007F5E15303F1100307F590
:1024E000225202F13C021268C3F8E82007F5E153DA
:1024F00003F1100307F5225202F13C021268C3F8FF
:10250000F42007F5E15303F1100307F5225202F11D
:102510003C021268C3F8102107F5E15303F11003E0
:1025200007F5225202F13C021268C3F81C2107F59C
:10253000E15303F1100307F5225202F13C02126845
:10254000C3F8382107F5E15303F1100307F52252D0
:1025500002F13C021268C3F8442107F5E15303F18C
:10256000100307F5225202F13C021268C3F8602101
:1025700007F5D55318464FF4C8731A46002105F0E5
:1025800009FA07F5D55307F5225202F13C02126809
:10259000DA6207F5D55307F5225202F13C021268C0
:1025A0001A6307F5D55307F5225202F13C0212686F
:1025B0005A6307F5D55307F5225202F13C0212681F
:1025C0009A6307F5D55307F5225202F13C021268CF
:1025D000DA6307F5D55307F5225202F13C0212687F
:1025E0001A6407F5D55307F5225202F13C0212682E
:1025F0005A6407F5D55307F5225202F13C021268DE
:102600001A6607F5D55307F5225202F13C0212680B
:10261000C3F8882007F5D55307F5225202F13C0292
:102620001268C3F8B02007F5D55307F5225202F11E
:102630003C021268C3F8D82007F5D55307F522529B
:1026400002F13C021268C3F8002107F5D55307F5E3
:10265000225202F13C021268C3F8282107F5D55333
:1026600007F5225202F13C021268C3F8442107F533
:10267000D55307F5225202F13C021268C3F84821F3
:1026800007F5D55307F5225202F13C021268C3F850
:102690004C2107F5D55307F5225202F13C0212688E
:1026A000C3F8502107F5D55307F5225202F13C0239
:1026B0001268C3F8542107F5D55307F5225202F1E9
:1026C0003C021268C3F8582107F5D55307F522528A
:1026D00002F13C021268C3F85C2107F5C85303F10C
:1026E000100318464FF4C8731A46002105F052F93A
:1026F00007F5C85303F1100307F5225202F13C021B
:1027000012689A6307F5C85303F1100307F52252C4
:1027100002F13C021268DA6307F5C85303F11003B3
:1027200007F5225202F13C0212681A6407F5C853F9
:1027300003F1100307F5225202F13C0212685A64B9
:1027400007F5C85303F1100307F5225202F13C02CA
:1027500012689A6407F5C85303F1100307F5225273
:1027600002F13C0212681A6707F5C85303F110031F
:1027700007F5225202F13C021268C3F8982007F5CF
:10278000C85303F1100307F5225202F13C0212680C
:10279000C3F8C02007F5C85303F1100307F5225210
:1027A00002F13C021268C3F8E82007F5C85303F1B0
:1027B000100307F5225202F13C021268C3F8F82018
:1027C00007F5C85303F1100307F5225202F13C024A
:1027D0001268C3F8102107F5C85303F1100307F579
:1027E000225202F13C021268C3F8242107F5C853B3
:1027F00003F1100307F5225202F13C021268C3F8FC
:10280000342107F5C85303F1100307F5225202F1F2
:102810003C021268C3F8502107F5C85303F11003B6
:1028200007F5225202F13C021268C3F8542107F561
:10283000C85303F1100307F5225202F13C0212685B
:10284000C3F8582107F5BC5303F11003103B184699
:102850004FF4C8731A46002105F09CF807F5BC53E5
:1028600003F11003103B07F5225202F13C021268FB
:102870001A6307F5BC5303F11003103B07F522520E
:1028800002F13C0212685A6407F5BC5303F11003CD
:10289000103B07F5225202F13C0212689A6507F5D7
:1028A000BC5303F11003103B07F5225202F13C0226
:1028B00012689A6607F5BC5303F11003103B07F545
:1028C000225202F13C021268C3F8802007F5BC5383
:1028D00003F11003103B07F5225202F13C0212688B
:1028E000C3F88C2007F5BC5303F11003103B07F528
:1028F000225202F13C021268C3F8A82007F5BC532B
:1029000003F11003103B07F5225202F13C0212685A
:10291000C3F8AC2007F5BC5303F11003103B07F5D7
:10292000225202F13C021268C3F8B02007F5BC53F2
:1029300003F11003103B07F5225202F13C0212682A
:10294000C3F8D02007F5BC5303F11003103B07F583
:10295000225202F13C021268C3F8D42007F5BC539E
:1029600003F11003103B07F5225202F13C021268FA
:10297000C3F8F82007F5BC5303F11003103B07F52B
:10298000225202F13C021268C3F8002107F5BC5341
:1029900003F11003103B07F5225202F13C021268CA
:1029A000C3F8042107F5BC5303F11003103B07F5EE
:1029B000225202F13C021268C3F8202107F5BC53F1
:1029C00003F11003103B07F5225202F13C0212689A
:1029D000C3F8302107F5BC5303F11003103B07F592
:1029E000225202F13C021268C3F8482107F5BC5399
:1029F00003F11003103B07F5225202F13C0212686A
:102A0000C3F85C2107F5AF5303F1100318464FF4E8
:102A1000C8731A46002104F0BDFF07F5AF5303F158
:102A2000100307F5225202F13C0212681A6307F5FF
:102A3000AF5303F1100307F5225202F13C02126872
:102A40009A6507F5AF5303F1100307F5225202F11F
:102A50003C021268C3F8802007F5AF5303F110035E
:102A600007F5225202F13C021268C3F8A82007F5CC
:102A7000AF5303F1100307F5225202F13C02126832
:102A8000C3F8D02007F5AF5303F1100307F5225226
:102A900002F13C021268C3F8F82007F5AF5303F1C6
:102AA000100307F5225202F13C021268C3F82021FC
:102AB00007F5AF5303F1100307F5225202F13C0270
:102AC0001268C3F8482107F5AF5303F1100307F567
:102AD000225202F13C021268C3F84C2107F5AF53B1
:102AE00003F1100307F5225202F13C021268C3F809
:102AF000502107F5AF5303F1100307F5225202F1FD
:102B00003C021268C3F8542107F5AF5303F11003D8
:102B100007F5225202F13C021268C3F8582107F56A
:102B2000AF5303F1100307F5225202F13C02126881
:102B3000C3F85C2107F5A35303F11003103B1846BB
:102B40004FF4C8731A46002104F024FF07F5A3537D
:102B500003F11003103B07F5225202F13C02126808
:102B6000DA6207F5A35303F11003103B07F5225275
:102B700002F13C0212681A6307F5A35303F1100334
:102B8000103B07F5225202F13C0212685A6407F525
:102B9000A35303F11003103B07F5225202F13C024C
:102BA00012689A6407F5A35303F11003103B07F56D
:102BB000225202F13C0212685A6507F5A35303F151
:102BC0001003103B07F5225202F13C021268DA654D
:102BD00007F5A35303F11003103B07F5225202F14E
:102BE0003C0212689A6607F5A35303F11003103BE9
:102BF00007F5225202F13C0212681A6707F5A35347
:102C000003F11003103B07F5225202F13C02126857
:102C1000DA6707F5A35303F11003103B07F52252BF
:102C200002F13C021268C3F8842007F5A35303F1B4
:102C30001003103B07F5225202F13C021268C3F860
:102C4000902007F5A35303F11003103B07F5225220
:102C500002F13C021268C3F8982007F5A35303F170
:102C60001003103B07F5225202F13C021268C3F830
:102C7000A42007F5A35303F11003103B07F52252DC
:102C800002F13C021268C3F8B02007F5A35303F128
:102C90001003103B07F5225202F13C021268C3F800
:102CA000B42007F5A35303F11003103B07F522529C
:102CB00002F13C021268C3F8C02007F5A35303F1E8
:102CC0001003103B07F5225202F13C021268C3F8D0
:102CD000CC2007F5A35303F11003103B07F5225254
:102CE00002F13C021268C3F8E82007F5A35303F190
:102CF0001003103B07F5225202F13C021268C3F8A0
:102D0000F42007F5A35303F11003103B07F52252FB
:102D100002F13C021268C3F8102107F5A35303F136
:102D20001003103B07F5225202F13C021268C3F86F
:102D30001C2107F5A35303F11003103B07F52252A2
:102D400002F13C021268C3F8382107F5A35303F1DE
:102D50001003103B07F5225202F13C021268C3F83F
:102D6000442107F5A35303F11003103B07F522524A
:102D700002F13C021268C3F8602107F5965303F193
:102D8000100318464FF4C8731A46002104F002FEDF
:102D900007F5965303F1100307F5225202F13C02A6
:102DA0001268DA6207F5965303F1100307F5225211
:102DB00002F13C0212689A6407F5965303F110037E
:102DC00007F5225202F13C0212685A6507F5965344
:102DD00003F1100307F5225202F13C0212689A65D2
:102DE00007F5965303F1100307F5225202F13C0256
:102DF00012681A6707F5965303F1100307F522527C
:102E000002F13C021268DA6707F5965303F11003EA
:102E100007F5225202F13C021268C3F8842007F53C
:102E2000965303F1100307F5225202F13C02126897
:102E3000C3F8982007F5965303F1100307F52252C3
:102E400002F13C021268C3F8A42007F5965303F17F
:102E5000100307F5225202F13C021268C3F8B020B9
:102E600007F5965303F1100307F5225202F13C02D5
:102E70001268C3F8C02007F5965303F1100307F555
:102E8000225202F13C021268C3F8CC2007F5965397
:102E900003F1100307F5225202F13C021268C3F855
:102EA000DC2007F5965303F1100307F5225202F1D7
:102EB0003C021268C3F8E82007F5965303F11003AB
:102EC00007F5225202F13C021268C3F8F42007F51C
:102ED000965303F1100307F5225202F13C021268E7
:102EE000C3F8082107F5965303F1100307F52252A2
:102EF00002F13C021268C3F8102107F5965303F162
:102F0000100307F5225202F13C021268C3F81C219B
:102F100007F5965303F1100307F5225202F13C0224
:102F20001268C3F8342107F5965303F1100307F52F
:102F3000225202F13C021268C3F8382107F5965379
:102F400003F1100307F5225202F13C021268C3F8A4
:102F5000442107F5965303F1100307F5225202F1BD
:102F60003C021268C3F8602107F58A5303F110038D
:102F7000103B18464FF4C8731A46002104F00AFDAE
:102F800007F58A5303F11003103B07F5225202F1B3
:102F90003C0212685A6307F58A5303F11003103B91
:102FA00007F5225202F13C0212689A6307F58A5330
:102FB00003F11003103B07F5225202F13C021268A4
:102FC000DA6307F58A5303F11003103B07F5225229
:102FD00002F13C0212681A6407F58A5303F11003E8
:102FE000103B07F5225202F13C0212689A6507F580
:102FF0008A5303F11003103B07F5225202F13C0201
:103000001268DA6607F58A5303F11003103B07F5DF
:10301000225202F13C021268DA6707F58A5303F183
:103020001003103B07F5225202F13C021268C3F86C
:10303000982007F58A5303F11003103B07F522523D
:1030400002F13C021268C3F8A42007F58A5303F189
:103050001003103B07F5225202F13C021268C3F83C
:10306000C02007F58A5303F11003103B07F52252E5
:1030700002F13C021268C3F8CC2007F58A5303F131
:103080001003103B07F5225202F13C021268C3F80C
:10309000E82007F58A5303F11003103B07F522528D
:1030A00002F13C021268C3F8F42007F58A5303F1D9
:1030B0001003103B07F5225202F13C021268C3F8DC
:1030C000102107F58A5303F11003103B07F5225234
:1030D00002F13C021268C3F8202107F58A5303F17C
:1030E0001003103B07F5225202F13C021268C3F8AC
:1030F000342107F58A5303F11003103B07F52252E0
:1031000002F13C021268C3F84C2107F58A5303F11F
:103110001003103B07F5225202F13C021268C3F87B
:10312000502107F58A5303F11003103B07F5225293
:1031300002F13C021268C3F8542107F58A5303F1E7
:103140001003103B07F5225202F13C021268C3F84B
:10315000582107F57B6318464FF4C8731A460021BF
:1031600004F018FC07F57B6307F5225202F13C02DC
:1031700012681A6307F57B6307F5225202F13C02DD
:1031800012685A6307F57B6307F5225202F13C028D
:1031900012689A6307F57B6307F5225202F13C023D
:1031A0001268DA6307F57B6307F5225202F13C02ED
:1031B00012681A6407F57B6307F5225202F13C029C
:1031C00012689A6507F57B6307F5225202F13C020B
:1031D0001268DA6607F57B6307F5225202F13C02BA
:1031E0001268C3F8802007F57B6307F5225202F1CD
:1031F0003C021268C3F8942007F57B6307F522525E
:1032000002F13C021268C3F8A82007F57B6307F5BA
:10321000225202F13C021268C3F8AC2007F57B632E
:1032200007F5225202F13C021268C3F8B02007F5FC
:103230007B6307F5225202F13C021268C3F8B42006
:1032400007F57B6307F5225202F13C021268C3F8CE
:10325000B82007F57B6307F5225202F13C021268A1
:10326000C3F8D02007F57B6307F5225202F13C0238
:103270001268C3F8F82007F57B6307F5225202F1C4
:103280003C021268C3F8202107F57B6307F5225240
:1032900002F13C021268C3F8482107F56363103B52
:1032A00018464FF4C8731A46002104F073FB07F563
:1032B0006363103B07F5225202F13C0212685A6325
:1032C00007F56363103B07F5225202F13C021268D6
:1032D0009A6307F56363103B07F5225202F13C0243
:1032E0001268DA6307F56363103B07F5225202F1B7
:1032F0003C0212681A6407F56363103B07F522521B
:1033000002F13C0212689A6507F56363103B07F50A
:10331000225202F13C021268DA6607F56363103B41
:1033200007F5225202F13C021268DA6707F563637F
:10333000103B07F5225202F13C021268C3F89820B4
:1033400007F56363103B07F5225202F13C02126855
:10335000C3F8A42007F56363103B07F5225202F17E
:103360003C021268C3F8C02007F56363103B07F501
:10337000225202F13C021268C3F8CC2007F56363C5
:10338000103B07F5225202F13C021268C3F8E82014
:1033900007F56363103B07F5225202F13C02126805
:1033A000C3F8F42007F56363103B07F5225202F1DE
:1033B0003C021268C3F8082107F56363103B07F568
:1033C000225202F13C021268C3F8102107F5636330
:1033D000103B07F5225202F13C021268C3F820218B
:1033E00007F56363103B07F5225202F13C021268B5
:1033F000C3F8342107F56363103B07F5225202F14D
:103400003C021268C3F84C2107F56363103B07F5D3
:10341000225202F13C021268C3F8502107F563639F
:10342000103B07F5225202F13C021268C3F8542106
:1034300007F56363103B07F5225202F13C02126864
:10344000C3F8582107F56363103B07F5225202F1D8
:103450003C021268C3F8602107F5496300221A6034
:1034600007F5496300225A6007F5496300229A6014
:1034700007F549630022DA6007F5496300221A6103
:1034800007F5496300225A6107F5496300229A61F2
:1034900007F549630022DA6107F5496300221A62E1
:1034A00007F5496300225A6207F5496300229A62D0
:1034B00007F5496307F5225202F13C021268DA620D
:1034C00007F5496307F5225202F13C0212681A63BC
:1034D00007F5496307F5225202F13C0212685A636C
:1034E00007F5496307F5225202F13C0212689A631C
:1034F00007F5496307F5225202F13C021268DA63CC
:1035000007F5496307F5225202F13C0212681A647A
:1035100007F5496300225A6407F5496300229A645B
:1035200007F549630022DA6407F5496300221A654A
:1035300007F5496307F5225202F13C0212685A6509
:1035400007F5496300229A6507F549630022DA65A9
:1035500007F5496300221A6607F5496300225A6697
:1035600007F5496300229A6607F5496307F5225279
:1035700002F13C021268DA6607F5496300221A6715
:1035800007F5496300225A6707F5496300229A67E5
:1035900007F5496307F5225202F13C021268DA6727
:1035A00007F549630022C3F8802007F5496300222C
:1035B000C3F8842007F549630022C3F8882007F583
:1035C00049630022C3F88C2007F549630022C3F841
:1035D000902007F5496307F5225202F13C02126878
:1035E000C3F8942007F549630022C3F8982007F533
:1035F00049630022C3F89C2007F549630022C3F801
:10360000A02007F5496307F5225202F13C02126837
:10361000C3F8A42007F5496307F5225202F13C02E2
:103620001268C3F8A82007F5496307F5225202F192
:103630003C021268C3F8AC2007F5496307F5225233
:1036400002F13C021268C3F8B02007F5496307F5A0
:10365000225202F13C021268C3F8B42007F5496314
:1036600007F5225202F13C021268C3F8B82007F5B0
:1036700049630022C3F8BC2007F549630022C3F860
:10368000C02007F549630022C3F8C42007F5496349
:103690000022C3F8C82007F5496307F5225202F15A
:1036A0003C021268C3F8CC2007F5496307F52252A3
:1036B00002F13C021268C3F8D02007F5496307F510
:1036C000225202F13C021268C3F8D42007F5496384
:1036D0000022C3F8D82007F549630022C3F8DC2094
:1036E00007F549630022C3F8E02007F5496300228B
:1036F000C3F8E42007F549630022C3F8E82007F582
:1037000049630022C3F8EC2007F549630022C3F89F
:10371000F02007F5496307F5225202F13C021268D6
:10372000C3F8F42007F549630022C3F8F82007F531
:10373000496307F5225202F13C021268C3F8FC20EB
:1037400007F5496307F5225202F13C021268C3F8FB
:10375000002107F5496307F5225202F13C02126885
:10376000C3F8042107F549630022C3F8082107F5CF
:1037700049630022C3F80C2107F549630022C3F80E
:10378000102107F549630022C3F8142107F54963A6
:103790000022C3F8182107F5496307F5225202F108
:1037A0003C021268C3F81C2107F549630022C3F8E4
:1037B000202107F549630022C3F8242107F5496356
:1037C0000022C3F8282107F5496307F5225202F1C8
:1037D0003C021268C3F82C2107F5496307F5225211
:1037E00002F13C021268C3F8302107F54963002258
:1037F000C3F8342107F549630022C3F8382107F5DF
:1038000049630022C3F83C2107F549630022C3F84D
:10381000402107F5496307F5225202F13C02126884
:10382000C3F8442107F549630022C3F8482107F58E
:1038300049630022C3F84C2107F549630022C3F80D
:10384000502107F549630022C3F8542107F5496365
:1038500007F5225202F13C021268C3F8582107F51D
:10386000496307F5225202F13C021268C3F85C2159
:1038700007F549630022C3F8602107F54963002278
:10388000C3F8642107F549630022C3F8682107F5EE
:1038900049630022C3F86C2107F549630022C3F88D
:1038A000702107F549630022C3F8742107F54963C5
:1038B0000022C3F8782107F549630022C3F87C2170
:1038C00007F549630022C3F8802107F54963002208
:1038D000C3F8842107F549630022C3F8882107F55E
:1038E00049630022C3F88C2107F53163103B184669
:1038F0004FF4C8731A46002104F04CF807F5316301
:10390000103B07F5225202F13C021268DA6507F516
:103910003163103B07F5225202F13C0212681A662D
:1039200007F53163103B07F5225202F13C021268A1
:103930005A6607F53163103B07F5225202F13C024B
:1039400012689A6607F53163103B07F5225202F1BF
:103950003C021268DA6607F53163103B07F5225224
:1039600002F13C021268C3F8802007F53163103B76
:1039700007F5225202F13C021268C3F8A82007F5AD
:103980003163103B07F5225202F13C021268C3F882
:10399000D42007F53163103B07F5225202F13C02B7
:1039A0001268C3F8D82007F53163103B07F522529F
:1039B00002F13C021268C3F8DC2007F53163103BCA
:1039C00007F5225202F13C021268C3F8E02007F525
:1039D0003163103B07F5225202F13C021268C3F832
:1039E0000C2107F53163103B07F5225202F13C022E
:1039F0001268C3F8342107F53163103B07F52252F2
:103A000002F13C021268C3F8482107F53163103B0C
:103A100007F5225202F13C021268C3F84C2107F567
:103A20003163103B07F5225202F13C021268C3F8E1
:103A3000502107F53163103B07F5225202F13C0299
:103A40001268C3F8542107F53163103B07F5225281
:103A500002F13C021268C3F8582107F517631846B3
:103A60004FF4C8731A46002103F094FF07F517635B
:103A700007F5225202F13C021268DA6207F5176379
:103A800007F5225202F13C0212681A6307F5176328
:103A900007F5225202F13C0212685A6307F51763D8
:103AA00007F5225202F13C0212689A6307F5176388
:103AB00007F5225202F13C021268DA6307F5176338
:103AC00007F5225202F13C0212681A6407F51763E7
:103AD00007F5225202F13C0212685A6407F5176397
:103AE00007F5225202F13C0212681A6607F51763C5
:103AF00007F5225202F13C021268C3F8882007F54C
:103B0000176307F5225202F13C021268C3F8B02095
:103B100007F5176307F5225202F13C021268C3F859
:103B2000D82007F5176307F5225202F13C0212680C
:103B3000C3F8002107F5176307F5225202F13C0292
:103B40001268C3F8282107F5176307F5225202F11E
:103B50003C021268C3F8502107F50163303B184658
:103B60004FF4C8731A46002103F014FF07F50163F0
:103B7000303B07F5225202F13C021268DA6207F587
:103B80000163303B07F5225202F13C0212685A648D
:103B900007F50163303B07F5225202F13C0212683F
:103BA0005A6507F50163303B07F5225202F13C02EA
:103BB0001268DA6607F50163303B07F5225202F11D
:103BC0003C021268DA6707F50163303B07F52252C1
:103BD00002F13C021268C3F8942007F50163303B00
:103BE00007F5225202F13C021268C3F8A42007F53F
:103BF0000163303B07F5225202F13C021268C3F820
:103C0000BC2007F50163303B07F5225202F13C026C
:103C10001268C3F8CC2007F50163303B07F5225248
:103C200002F13C021268C3F8E42007F50163303B5F
:103C300007F5225202F13C021268C3F8F42007F59E
:103C40000163303B07F5225202F13C021268C3F8CF
:103C50000C2107F50163303B07F5225202F13C02CB
:103C60001268C3F8202107F50163303B07F52252A3
:103C700002F13C021268C3F8302107F50163303BC2
:103C800007F5225202F13C021268C3F84C2107F5F5
:103C90000163303B07F5225202F13C021268C3F87F
:103CA000502107F50163303B07F5225202F13C0237
:103CB0001268C3F8542107F5CA6318464FF4C87355
:103CC0001A46002103F066FE07F5CA6307F5225283
:103CD00002F13C021268DA6207F5CA6307F5225264
:103CE00002F13C0212689A6407F5CA6307F5225292
:103CF00002F13C0212685A6507F5CA6307F52252C1
:103D000002F13C0212681A6707F5CA6307F52252EE
:103D100002F13C021268DA6707F5CA6307F522521E
:103D200002F13C021268C3F8982007F5CA6307F550
:103D3000225202F13C021268C3F8A82007F5CA63B8
:103D400007F5225202F13C021268C3F8BC2007F5C5
:103D5000CA6307F5225202F13C021268C3F8D02070
:103D600007F5CA6307F5225202F13C021268C3F854
:103D7000E42007F5CA6307F5225202F13C021268FB
:103D8000C3F8FC2007F5CA6307F5225202F13C0292
:103D90001268C3F8082107F5CA6307F5225202F139
:103DA0003C021268C3F8242107F5CA6307F52252C2
:103DB00002F13C021268C3F8302107F5CA6307F527
:103DC000225202F13C021268C3F8502107F5CA637F
:103DD00007F5225202F13C021268C3F8542107F59C
:103DE0009A63103B00221A6007F59A63103B002289
:103DF0005A6007F59A63103B00229A6007F59A63B0
:103E0000103B0022DA6007F59A63103B00221A612A
:103E100007F59A63103B00225A6107F59A63103B3D
:103E200000229A6107F59A63103B0022DA6107F5D8
:103E30009A63103B00221A6207F59A63103B002236
:103E40005A6207F59A63103B00229A6207F59A635B
:103E5000103B07F5225202F13C021268DA6207F5C4
:103E60009A63103B00221A6307F59A63103B002205
:103E70005A6307F59A63103B07F5225202F13C02A0
:103E800012689A6307F59A63103B0022DA6307F51C
:103E90009A63103B00221A6407F59A63103B07F5FA
:103EA000225202F13C0212685A6407F59A63103BF1
:103EB00000229A6407F59A63103B0022DA6407F542
:103EC0009A63103B00221A6507F59A63103B07F5C9
:103ED000225202F13C0212685A6507F59A63103BC0
:103EE00000229A6507F59A63103B0022DA6507F510
:103EF0009A63103B07F5225202F13C0212681A66DF
:103F000007F59A63103B00225A6607F59A63103B47
:103F100000229A6607F59A63103B07F5225202F1D8
:103F20003C021268DA6607F59A63103B00221A67B2
:103F300007F59A63103B00225A6707F59A63103B16
:103F400000229A6707F59A63103B07F5225202F1A7
:103F50003C021268DA6707F59A63103B0022C3F847
:103F6000802007F59A63103B0022C3F8842007F5F0
:103F70009A63103B07F5225202F13C021268C3F823
:103F8000882007F59A63103B0022C3F88C2007F5C0
:103F90009A63103B0022C3F8902007F59A63103B08
:103FA00007F5225202F13C021268C3F8942007F58B
:103FB0009A63103B0022C3F8982007F59A63103BE0
:103FC0000022C3F89C2007F59A63103B0022C3F837
:103FD000A02007F59A63103B07F5225202F13C023C
:103FE0001268C3F8A42007F59A63103B0022C3F8B7
:103FF000A82007F59A63103B07F5225202F13C0214
:104000001268C3F8AC2007F59A63103B0022C3F88E
:10401000B02007F59A63103B07F5225202F13C02EB
:104020001268C3F8B42007F59A63103B0022C3F866
:10403000B82007F59A63103B07F5225202F13C02C3
:104040001268C3F8BC2007F59A63103B0022C3F83E
:10405000C02007F59A63103B0022C3F8C42007F57F
:104060009A63103B0022C3F8C82007F59A63103BFF
:1040700007F5225202F13C021268C3F8CC2007F582
:104080009A63103B0022C3F8D02007F59A63103BD7
:1040900007F5225202F13C021268C3F8D42007F55A
:1040A0009A63103B0022C3F8D82007F59A63103BAF
:1040B00007F5225202F13C021268C3F8DC2007F532
:1040C0009A63103B0022C3F8E02007F59A63103B87
:1040D00007F5225202F13C021268C3F8E42007F50A
:1040E0009A63103B0022C3F8E82007F59A63103B5F
:1040F0000022C3F8EC2007F59A63103B0022C3F8B6
:10410000F02007F59A63103B07F5225202F13C02BA
:104110001268C3F8F42007F59A63103B0022C3F835
:10412000F82007F59A63103B07F5225202F13C0292
:104130001268C3F8FC2007F59A63103B0022C3F80D
:10414000002107F59A63103B07F5225202F13C0269
:104150001268C3F8042107F59A63103B0022C3F8E4
:10416000082107F59A63103B07F5225202F13C0241
:104170001268C3F80C2107F59A63103B0022C3F8BC
:10418000102107F59A63103B0022C3F8142107F5AC
:104190009A63103B0022C3F8182107F59A63103B7D
:1041A00007F5225202F13C021268C3F81C2107F500
:1041B0009A63103B0022C3F8202107F59A63103B55
:1041C00007F5225202F13C021268C3F8242107F5D8
:1041D0009A63103B0022C3F8282107F59A63103B2D
:1041E00007F5225202F13C021268C3F82C2107F5B0
:1041F0009A63103B0022C3F8302107F59A63103B05
:1042000007F5225202F13C021268C3F8342107F587
:104210009A63103B0022C3F8382107F59A63103BDC
:104220000022C3F83C2107F59A63103B0022C3F833
:10423000402107F59A63103B0022C3F8442107F59B
:104240009A63103B07F5225202F13C021268C3F850
:10425000482107F59A63103B0022C3F84C2107F56B
:104260009A63103B0022C3F8502107F59A63103B74
:104270000022C3F8542107F59A63103B07F5225238
:1042800002F13C021268C3F8582107F59A63103B0B
:104290000022C3F85C2107F59A63103B0022C3F8A3
:1042A000602107F59A63103B0022C3F8642107F5EB
:1042B0009A63103B0022C3F8682107F59A63103B0C
:1042C0000022C3F86C2107F59A63103B0022C3F863
:1042D000702107F59A63103B0022C3F8742107F59B
:1042E0009A63103B0022C3F8782107F59A63103BCC
:1042F0000022C3F87C2107F59A63103B0022C3F823
:10430000802107F59A63103B0022C3F8842107F54A
:104310009A63103B0022C3F8882107F59A63103B8B
:104320000022C3F88C2107F55473203B18464FF444
:10433000C8731A46002103F02DFB07F55473203B88
:1043400007F5225202F13C021268DA6207F5547353
:10435000203B07F5225202F13C0212689A6407F5ED
:104360005473203B07F5225202F13C0212689A6511
:1043700007F55473203B07F5225202F13C02126804
:10438000DA6607F55473203B07F5225202F13C022E
:104390001268C3F8842007F55473203B07F52252B6
:1043A00002F13C021268C3F8902007F55473203BD9
:1043B00007F5225202F13C021268C3F8B02007F55B
:1043C0005473203B07F5225202F13C021268C3F8F5
:1043D000B42007F55473203B07F5225202F13C024A
:1043E0001268C3F8D82007F55473203B07F5225212
:1043F00002F13C021268C3F8DC2007F55473203B3D
:1044000007F5225202F13C021268C3F8FC2007F5BE
:104410005473203B07F5225202F13C021268C3F8A4
:10442000082107F55473203B07F5225202F13C02A4
:104430001268C3F8202107F55473203B07F5225278
:1044400002F13C021268C3F8342107F55473203B93
:1044500007F5225202F13C021268C3F8442107F525
:104460005473203B07F5225202F13C021268C3F854
:10447000602107F5E873303B18464FF4C8731A46BD
:10448000002103F087FA07F5E873303B07F5225265
:1044900002F13C021268DA6207F5E873303B07F577
:1044A000225202F13C0212689A6407F5E873303B2D
:1044B00007F5225202F13C0212689A6507F5E8738B
:1044C000303B07F5225202F13C021268DA6607F52A
:1044D000E873303B07F5225202F13C021268C3F840
:1044E000842007F5E873303B07F5225202F13C02C5
:1044F0001268C3F8902007F5E873303B07F52252A5
:1045000002F13C021268C3F8B02007F5E873303BB3
:1045100007F5225202F13C021268C3F8B42007F5F5
:10452000E873303B07F5225202F13C021268C3F8EF
:10453000D82007F5E873303B07F5225202F13C0220
:104540001268C3F8DC2007F5E873303B07F5225208
:1045500002F13C021268C3F8002107F5E873303B12
:1045600007F5225202F13C021268C3F8042107F554
:10457000E873303B07F5225202F13C021268C3F89F
:10458000282107F5E873303B07F5225202F13C027F
:104590001268C3F82C2107F5E873303B07F5225267
:1045A00002F13C021268C3F8502107F5E873303B72
:1045B00007F5225202F13C021268C3F8542107F1B8
:1045C000100318464FF4C8731A46002103F0E2F9AD
:1045D00007F1100307F5225202F13C021268DA6279
:1045E00007F1100307F5225202F13C0212681A6328
:1045F00007F1100307F5225202F13C0212685A63D8
:1046000007F1100307F5225202F13C0212689A6387
:1046100007F1100307F5225202F13C021268DA6337
:1046200007F1100307F5225202F13C0212681A64E6
:1046300007F1100307F5225202F13C0212685A6496
:1046400007F1100307F5225202F13C0212689A6446
:1046500007F1100307F5225202F13C021268DA66F4
:1046600007F1100307F5225202F13C021268C3F869
:10467000902007F1100307F5225202F13C02126864
:10468000C3F8B42007F1100307F5225202F13C02EF
:104690001268C3F8D82007F1100307F5225202F17F
:1046A0003C021268C3F8FC2007F1100307F5225200
:1046B00002F13C021268C3F8202107F1100307F54C
:1046C000225202F13C021268C3F8442107F11003A0
:1046D00007F5225202F13C021268C3F8482107F1A3
:1046E000100307F5225202F13C021268C3F84C2174
:1046F00007F1100307F5225202F13C021268C3F8D9
:10470000502107F1100307F5225202F13C02126812
:10471000C3F8542107F1100307F5225202F13C02BD
:104720001268C3F8582107F1100307F5225202F16D
:104730003C021268C3F85C2107F1100307F522520E
:1047400002F13C021268C3F86021002307F52252EF
:1047500002F13B021370002307F5225202F13402EA
:10476000136007F5225303F130031A6807F11003B1
:104770000C3B1B6813441B7807F5225202F13B02E5
:104780001370002307F5235202F10802136000F0B2
:1047900011BE002307F5235202F10C02136000F052
:1047A000F6BD07F5225303F13B031B78613B192B40
:1047B00000F2C28501A252F823F000BF254800088C
:1047C000954800080549000871490008E1490008BA
:1047D000514A0008C14A00082D4B00089B4B0008B5
:1047E000054C0008734C0008E34C0008514D0008CC
:1047F000C14D00082F4E00089F4E0008094F0008C9
:10480000754F0008DF4F00084B500008B5500008F6
:10481000215100088B510008F7510008635200082D
:10482000CF52000807F5235303F10C031B689AB21B
:1048300007F5235303F104031B689BB2134498B29A
:1048400007F5235303F108031B689AB207F52353B6
:104850001B689BB213449BB20A339CB207F51C51F0
:1048600001F1200107F5235303F108031A681346E9
:104870009B0013445B0007F5235202F10C021268FF
:10488000134451F82330DBB21A46214601F082FB73
:1048900000F072BD07F5235303F10C031B689AB2B5
:1048A00007F5235303F104031B689BB2134498B22A
:1048B00007F5235303F108031B689AB207F5235346
:1048C0001B689BB213449BB20A339CB207F5165186
:1048D00001F1100107F5235303F108031A68134689
:1048E0009B0013445B0007F5235202F10C0212688F
:1048F000134451F82330DBB21A46214601F04AFB3B
:1049000000F03ABD07F5235303F10C031B689AB27C
:1049100007F5235303F104031B689BB2134498B2B9
:1049200007F5235303F108031B689AB207F52353D5
:104930001B689BB213449BB20A339CB207F510511B
:1049400007F5235303F108031A6813469B00134429
:104950005B0007F5235202F10C021268134451F870
:104960002330DBB21A46214601F014FB00F004BDEF
:1049700007F5235303F10C031B689AB207F5235381
:1049800003F104031B689BB2134498B207F5235349
:1049900003F108031B689AB207F523531B689BB207
:1049A00013449BB20A339CB207F5095101F130015F
:1049B00007F5235303F108031A6813469B001344B9
:1049C0005B0007F5235202F10C021268134451F800
:1049D0002330DBB21A46214601F0DCFA00F0CCBCF1
:1049E00007F5235303F10C031B689AB207F5235311
:1049F00003F104031B689BB2134498B207F52353D9
:104A000003F108031B689AB207F523531B689BB296
:104A100013449BB20A339CB207F5035101F1200104
:104A200007F5235303F108031A6813469B00134448
:104A30005B0007F5235202F10C021268134451F88F
:104A40002330DBB21A46214601F0A4FA00F094BCF0
:104A500007F5235303F10C031B689AB207F52353A0
:104A600003F104031B689BB2134498B207F5235368
:104A700003F108031B689AB207F523531B689BB226
:104A800013449BB20A339CB207F5FA5101F11001AD
:104A900007F5235303F108031A6813469B001344D8
:104AA0005B0007F5235202F10C021268134451F81F
:104AB0002330DBB21A46214601F06CFA00F05CBCF0
:104AC00007F5235303F10C031B689AB207F5235330
:104AD00003F104031B689BB2134498B207F52353F8
:104AE00003F108031B689AB207F523531B689BB2B6
:104AF00013449BB20A339CB207F5EE5107F52353DA
:104B000003F108031A6813469B0013445B0007F582
:104B1000235202F10C021268134451F82330DBB225
:104B20001A46214601F036FA00F026BC07F5235359
:104B300003F10C031B689AB207F5235303F1040336
:104B40001B689BB2134498B207F5235303F1080383
:104B50001B689AB207F523531B689BB213449BB2A0
:104B60000A339CB207F5E15101F1100107F5235317
:104B700003F108031A6813469B0013445B0007F512
:104B8000235202F10C021268134451F82330DBB2B5
:104B90001A46214601F0FEF9EEE307F5235303F12F
:104BA0000C031B689AB207F5235303F104031B6837
:104BB0009BB2134498B207F5235303F108031B6813
:104BC0009AB207F523531B689BB213449BB20A3376
:104BD0009CB207F5D55107F5235303F108031A6872
:104BE00013469B0013445B0007F5235202F10C02AD
:104BF0001268134451F82330DBB21A46214601F003
:104C0000C9F9B9E307F5235303F10C031B689AB202
:104C100007F5235303F104031B689BB2134498B2B6
:104C200007F5235303F108031B689AB207F52353D2
:104C30001B689BB213449BB20A339CB207F5C85160
:104C400001F1100107F5235303F108031A68134615
:104C50009B0013445B0007F5235202F10C0212681B
:104C6000134451F82330DBB21A46214601F092F981
:104C700082E307F5235303F10C031B689AB207F58F
:104C8000235303F104031B689BB2134498B207F546
:104C9000235303F108031B689AB207F523531B68DB
:104CA0009BB213449BB20A339CB207F5BC5202F18B
:104CB0001002103A07F5235303F1080319680B4655
:104CC0009B000B445B0007F5235101F10C010968BF
:104CD0000B4452F82330DBB21A46214601F05AF950
:104CE0004AE307F5235303F10C031B689AB207F557
:104CF000235303F104031B689BB2134498B207F5D6
:104D0000235303F108031B689AB207F523531B686A
:104D10009BB213449BB20A339CB207F5AF5101F129
:104D2000100107F5235303F108031A6813469B008B
:104D300013445B0007F5235202F10C02126813447E
:104D400051F82330DBB21A46214601F023F913E370
:104D500007F5235303F10C031B689AB207F523539D
:104D600003F104031B689BB2134498B207F5235365
:104D700003F108031B689AB207F523531B689BB223
:104D800013449BB20A339CB207F5A35202F11002FE
:104D9000103A07F5235303F1080319680B469B00EB
:104DA0000B445B0007F5235101F10C0109680B442A
:104DB00052F82330DBB21A46214601F0EBF8DBE271
:104DC00007F5235303F10C031B689AB207F523532D
:104DD00003F104031B689BB2134498B207F52353F5
:104DE00003F108031B689AB207F523531B689BB2B3
:104DF00013449BB20A339CB207F5965101F110019E
:104E000007F5235303F108031A6813469B00134464
:104E10005B0007F5235202F10C021268134451F8AB
:104E20002330DBB21A46214601F0B4F8A4E207F5BC
:104E3000235303F10C031B689AB207F5235303F1C4
:104E400004031B689BB2134498B207F5235303F184
:104E500008031B689AB207F523531B689BB21344DF
:104E60009BB20A339CB207F58A5202F11002103A43
:104E700007F5235303F1080319680B469B000B4405
:104E80005B0007F5235101F10C0109680B4452F84E
:104E90002330DBB21A46214601F07CF86CE207F5BC
:104EA000235303F10C031B689AB207F5235303F154
:104EB00004031B689BB2134498B207F5235303F114
:104EC00008031B689AB207F523531B689BB213446F
:104ED0009BB20A339CB207F57B6107F5235303F1BC
:104EE00008031A6813469B0013445B0007F523521E
:104EF00002F10C021268134451F82330DBB21A4657
:104F0000214601F047F837E207F5235303F10C037C
:104F10001B689AB207F5235303F104031B689BB285
:104F2000134498B207F5235303F108031B689AB2A0
:104F300007F523531B689BB213449BB20A339CB200
:104F400007F56362103A07F5235303F10803196864
:104F50000B469B000B445B0007F5235101F10C014C
:104F600009680B4452F82330DBB21A46214601F09F
:104F700011F801E207F5235303F10C031B689AB201
:104F800007F5235303F104031B689BB2134498B243
:104F900007F5235303F108031B689AB207F523535F
:104FA0001B689BB213449BB20A339CB207F549615C
:104FB00007F5235303F108031A6813469B001344B3
:104FC0005B0007F5235202F10C021268134451F8FA
:104FD0002330DBB21A46214600F0DCFFCCE107F5B6
:104FE000235303F10C031B689AB207F5235303F113
:104FF00004031B689BB2134498B207F5235303F1D3
:1050000008031B689AB207F523531B689BB213442D
:105010009BB20A339CB207F53162103A07F523536D
:1050200003F1080319680B469B000B445B0007F56E
:10503000235101F10C0109680B4452F82330DBB213
:105040001A46214600F0A6FF96E107F5235303F127
:105050000C031B689AB207F5235303F104031B6882
:105060009BB2134498B207F5235303F108031B685E
:105070009AB207F523531B689BB213449BB20A33C1
:105080009CB207F5176107F5235303F108031A686B
:1050900013469B0013445B0007F5235202F10C02F8
:1050A0001268134451F82330DBB21A46214600F04F
:1050B00071FF61E107F5235303F10C031B689AB2FA
:1050C00007F5235303F104031B689BB2134498B202
:1050D00007F5235303F108031B689AB207F523531E
:1050E0001B689BB213449BB20A339CB207F5016262
:1050F000303A07F5235303F1080319680B469B0068
:105100000B445B0007F5235101F10C0109680B44C6
:1051100052F82330DBB21A46214600F03BFF2BE168
:1051200007F5235303F10C031B689AB207F52353C9
:1051300003F104031B689BB2134498B207F5235391
:1051400003F108031B689AB207F523531B689BB24F
:1051500013449BB20A339CB207F5CA6107F5235387
:1051600003F108031A6813469B0013445B0007F51C
:10517000235202F10C021268134451F82330DBB2BF
:105180001A46214600F006FFF6E007F5235303F127
:105190000C031B689AB207F5235303F104031B6841
:1051A0009BB2134498B207F5235303F108031B681D
:1051B0009AB207F523531B689BB213449BB20A3380
:1051C0009CB207F59A62103A07F5235303F10803DE
:1051D00019680B469B000B445B0007F5235101F156
:1051E0000C0109680B4452F82330DBB21A46214601
:1051F00000F0D0FEC0E007F5235303F10C031B6859
:105200009AB207F5235303F104031B689BB21344BE
:1052100098B207F5235303F108031B689AB207F508
:1052200023531B689BB213449BB20A339CB207F50D
:105230005472203A07F5235303F1080319680B460B
:105240009B000B445B0007F5235101F10C01096839
:105250000B4452F82330DBB21A46214600F09AFE86
:105260008AE007F5235303F10C031B689AB207F594
:10527000235303F104031B689BB2134498B207F550
:10528000235303F108031B689AB207F523531B68E5
:105290009BB213449BB20A339CB207F5E872303AD2
:1052A00007F5235303F1080319680B469B000B44D1
:1052B0005B0007F5235101F10C0109680B4452F81A
:1052C0002330DBB21A46214600F064FE54E007F5B5
:1052D000235303F10C031B689AB207F5235303F120
:1052E00004031B689BB2134498B207F5235303F1E0
:1052F00008031B689AB207F523531B689BB213443B
:105300009BB20A339CB207F1100107F5235303F156
:1053100008031A6813469B0013445B0007F52352E9
:1053200002F10C021268134451F82330DBB21A4622
:10533000214600F02FFE1FE007F5235303F10C0375
:105340001B689AB207F5235303F104031B689BB251
:10535000134498B207F5235303F108031B689AB26C
:1053600007F523531B689BB213449BB20A339BB2CD
:105370000022194600F00EFE07F5235303F10C033B
:105380001B68013307F5235202F10C02136007F585
:10539000235303F10C031B68092B7FF702AA07F5BF
:1053A000235303F108031B68013307F5235202F16D
:1053B0000802136007F5235303F108031B68092B48
:1053C0007FF7E7A900BF07F523571437BD4690BD07
:1053D00090B5ADF68C1D00AF07F10C03186007F116
:1053E000080319603B1D1A6007F10C03186802F0EE
:1053F00033FAC7F87C0907F10803186802F02CFAA1
:10540000C7F878093B1D186802F026FAC7F8740936
:1054100007F2E473B24A184611464FF4C8731A46AD
:1054200002F01EFA07F25463AE4A184611464FF4D2
:10543000C8731A4602F014FA07F2C443AA4A18467F
:1054400011464FF4C8731A4602F00AFA07F54D7375
:10545000A64A184611464FF4C8731A4602F000FADD
:1054600007F5D273A24A184611464FF4C8731A467C
:1054700002F0F6F907F114039E4A184611464FF45C
:10548000C8731A4602F0ECF90023C7F880391CE112
:105490000023C7F884390EE1D7F87C39013B052B8E
:1054A00000F2EE8001A252F823F000BFC5540008BC
:1054B0000F55000859550008A3550008ED55000880
:1054C00037560008D7F884399AB2D7F878399BB2A2
:1054D000134498B2D7F880399AB2D7F874399BB28E
:1054E00013449BB20A339CB207F2E471D7F88029C7
:1054F00013469B0013445B00D7F88429134451F8EA
:105500002330DBB21A46214600F044FDCEE0D7F846
:1055100084399AB2D7F878399BB2134498B2D7F845
:1055200080399AB2D7F874399BB213449BB20A33CC
:105530009CB207F25461D7F8802913469B001344AC
:105540005B00D7F88429134451F82330DBB21A46A4
:10555000214600F01FFDA9E0D7F884399AB2D7F8A8
:1055600078399BB2134498B2D7F880399AB2D7F8F9
:1055700074399BB213449BB20A339CB207F2C44104
:10558000D7F8802913469B0013445B00D7F8842981
:10559000134451F82330DBB21A46214600F0FAFCDE
:1055A00084E0D7F884399AB2D7F878399BB213449B
:1055B00098B2D7F880399AB2D7F874399BB21344AD
:1055C0009BB20A339CB207F54D71D7F88029134678
:1055D0009B0013445B00D7F88429134451F823300F
:1055E000DBB21A46214600F0D5FC5FE0D7F88439DB
:1055F0009AB2D7F878399BB2134498B2D7F8803969
:105600009AB2D7F874399BB213449BB20A339CB256
:1056100007F5D271D7F8802913469B0013445B002D
:10562000D7F88429134451F82330DBB21A462146B7
:1056300000F0B0FC3AE0D7F884399AB2D7F878395C
:105640009BB2134498B2D7F880399AB2D7F874391C
:105650009BB213449BB20A339CB207F11401D7F8F2
:10566000802913469B0013445B00D7F88429134418
:1056700051F82330DBB21A46214600F08BFC15E0CE
:10568000D7F884399AB2D7F878399BB2134498B2D4
:10569000D7F880399AB2D7F874399BB213449BB2C9
:1056A0000A339BB2E022194600F074FCD7F8843923
:1056B0000133C7F88439D7F88439092B7FF7ECAE6A
:1056C000D7F880390133C7F88039D7F88039092BEA
:1056D0007FF7DEAE00BF07F68C17BD4690BD00BF5A
:1056E000A47F000834810008C482000854840008A4
:1056F000E48500087487000880B584B000AF786046
:105700000948FAF77BFF7868FAF778FF786802F0C3
:10571000A3F8F860FB68DBB2184600F019FC00BF84
:105720001037BD4680BD00BF04890008000000009E
:1057300090B58BB000AF786007F110031846FBF707
:105740005FF83B697B62204B7B62786A01F056FB15
:105750004FF000021D4B01F0C7FB03460C461846F4
:10576000214617A3D3E9002301F0E8FC03460C46C9
:10577000184621464FF000024FF0804301F0DEFC56
:1057800003460C461846214601F0E8FD03463B62FD
:105790000CE00023FB6002E0FB680133FB60FA6869
:1057A0003B6A9A42F8D37B68013B7B607B68002BA5
:1057B000EFDC00BF2C37BD4690BD00BFAFF30080CB
:1057C000000000000094C14080F0FA020000F43FA5
:1057D00080B487B000AF7860396000237B6100231C
:1057E0003B610023FB6000237B6176E001227B6943
:1057F00002FA03F33B613B681A683B691340FB60A4
:10580000FA683B699A4265D17B681A687B695B00DC
:10581000032101FA03F3DB431A407B681A607B68BB
:105820001A683B681B7919467B695B0001FA03F330
:105830001A437B681A603B681B79012B03D03B68D5
:105840001B79022B2ED17B689A687B695B00032150
:1058500001FA03F3DB431A407B689A607B689A681D
:105860003B685B7919467B695B0001FA03F31A43D5
:105870007B689A607B685A687B699BB2012101FA58
:1058800003F3DB431A407B685A607B685A683B68C5
:105890009B7919467B699BB201FA03F39BB21A43C9
:1058A0007B685A607B68DA687B699BB25B00032186
:1058B00001FA03F3DB431A407B68DA607B68DA683D
:1058C0003B68DB7919467B695B0001FA03F31A43F5
:1058D0007B68DA607B6901337B617B690F2B85D93B
:1058E00000BF1C37BD4680BC704700BF80B485B088
:1058F00000AF78600B467B8013467B700023FB6013
:105900000023BB607A787B8803F007039B0002FAD0
:1059100003F3FB607B88DB089BB218467B88DB08BF
:105920009BB21A467B68083253F822207B8803F02A
:1059300007039B000F2101FA03F3DB4302EA030193
:105940007B6800F1080243F822107B88DB089BB2D9
:105950001A467B68083253F82220FB681343BB6069
:105960007B88DB089BB21A467B680832B96843F82B
:10597000221000BF1437BD4680BC704780B500AF11
:10598000124A124B1B6843F0010313600F4B0022B5
:105990009A600E4A0D4B1B6823F0847323F4803306
:1059A00013600A4B0A4A5A60084A084B1B6823F4E2
:1059B00080231360054B0022DA6000F00DF8054BE0
:1059C0004FF000629A6000BF80BD00BF0038024007
:1059D0001030002400ED00E080B483B000AF00235D
:1059E0007B6000233B60354A344B1B6843F48033B3
:1059F0001360324B1B6803F400333B607B68013358
:105A00007B603B68002B03D17B68B3F5A06FF0D1BE
:105A10002A4B1B6803F40033002B02D001233B60A8
:105A200001E000233B603B68012B42D1234A234B1A
:105A30001B6C43F080531364214A214B1B6843F4D1
:105A4000804313601D4A1D4B9B6893601B4A1B4B90
:105A50009B6843F400439360184A184B9B6843F4D7
:105A6000A0539360154B174A5A60144A134B1B6896
:105A700043F08073136000BF104B1B6803F000738A
:105A8000002BF9D0104B40F205621A600B4A0B4B09
:105A90009B6823F003039360084A084B9B6843F01C
:105AA0000203936000BF054B9B6803F00C03082BB7
:105AB000F9D100BF0C37BD4680BC704700380240AA
:105AC0000070004008544007003C024080B483B09E
:105AD00000AF78607B681B6823F001027B681A6066
