:020000040800F2
:10000000246D01205D070008B9070008B907000842
:10001000B9070008B9070008B90700080000000088
:10002000000000000000000000000000B907000808
:10003000B907000800000000B9070008B907000868
:10004000B9070008B9070008B9070008B907000890
:10005000B9070008B9070008B9070008B907000880
:10006000B9070008B9070008B9070008B907000870
:10007000B9070008B9070008B9070008B907000860
:10008000B9070008B9070008B9070008B907000850
:10009000B9070008B9070008B9070008B907000840
:1000A000B9070008B9070008B9070008B907000830
:1000B000452B0008B9070008B9070008B907000870
:1000C000B9070008B9070008B9070008B907000810
:1000D000B9070008B907000825060008B907000895
:1000E000B9070008B9070008B9070008B9070008F0
:1000F000B9070008B9070008B9070008B9070008E0
:10010000B9070008B9070008B9070008B9070008CF
:10011000B9070008B9070008B9070008B9070008BF
:10012000B9070008B9070008B9070008B9070008AF
:10013000B9070008B9070008B9070008B90700089F
:10014000B9070008B9070008B9070008B90700088F
:10015000FD2B0008B9070008B9070008B907000817
:10016000B9070008B9070008B9070008B90700086F
:10017000B9070008B9070008B9070008B90700085F
:10018000B9070008B907000880B582B000AF7860F1
:100190007868002100F0B6FA786802F0DBFF0837D3
:1001A000BD4680BD80B58AB000AF7860396000235D
:1001B0007B6200233B620023FB610023BB617B6801
:1001C0001B8A9BB27B627B6A23F440537B623B6851
:1001D000DB887A6A13437B627B6A9AB27B681A82F5
:1001E0007B689B899BB27B627B6A23F4B05323F0CC
:1001F0000C037B623B689A883B681B8913439AB265
:100200003B685B8913439BB27A6A13437B627B6AC8
:100210009AB27B689A817B689B8A9BB27B627B6A7D
:1002200023F440737B623B689B897A6A13437B6249
:100230007B6A9AB27B689A8207F10803184600F03D
:10024000D1FA7A68314B9A4203D07A68304B9A429D
:1002500002D17B693B6201E03B693B627B689B8921
:100260009BB29BB21BB2002B0CDA3A6A13469B007E
:1002700013449A001A443B681B685B00B2FBF3F31B
:10028000FB610BE03A6A13469B0013449A001A4440
:100290003B681B689B00B2FBF3F3FB61FA691D4BE3
:1002A000A3FB02135B091B017B627B6A1B096422AF
:1002B00002FB03F3FA69D31ABB617B689B899BB28B
:1002C0009BB21BB2002B0DDABB69DB0003F13202DB
:1002D000104BA3FB02135B0903F007037A6A134375
:1002E0007B620CE0BB691B0103F13202094BA3FBEB
:1002F00002135B0903F00F037A6A13437B627B6A84
:100300009AB27B681A812837BD4680BD0010014033
:10031000001401401F85EB5180B483B000AF7860BA
:100320000B46FB70FB78002B08D07B689B899BB247
:1003300043F400539AB27B689A8107E07B689B89FB
:100340009BB223F400539AB27B689A810C37BD4666
:100350005DF8047B704700BF80B483B000AF786065
:100360000B467B807B88C3F308039AB27B689A8034
:100370000C37BD465DF8047B704700BF80B487B082
:1003800000AF786013460A467A807B7000233B6199
:100390000023FB600023BB6000237B617B687B61E3
:1003A0007B88DBB25B09DBB23B617B8803F01F0318
:1003B000FB60FB68012202FA03F3BB603B69012B7F
:1003C00003D17B690C337B6109E03B69022B03D1CC
:1003D0007B6910337B6102E07B6914337B617B783E
:1003E000002B06D07B697A691168BA680A431A60E3
:1003F00006E07B697A691168BA68D2430A401A60DC
:100400001C37BD465DF8047B704700BF80B485B0E3
:1004100000AF78600B467B800023FB737B681B88F2
:100420009AB27B8813409BB2002B02D00123FB734E
:1004300001E00023FB73FB7B18461437BD465DF8D3
:10044000047B704780B487B000AF78600B467B8038
:100450000023FB6000237B610023BB600023FB744F
:100460007B88DBB25B09DBB2BB607B8803F01F03D8
:100470007B617B69012202FA03F37B61BB68012B7C
:1004800006D17B689B899BB27A6913407B610FE040
:10049000BB68022B06D17B681B8A9BB27A6913402A
:1004A0007B6105E07B689B8A9BB27A6913407B6124
:1004B0007B881B0A9BB2FB60FB68012202FA03F3F4
:1004C000FB607B681B889BB2FA681340FB607B690A
:1004D000002B05D0FB68002B02D00123FB7401E048
:1004E0000023FB74FB7C18461C37BD465DF8047B7B
:1004F000704700BF80B485B000AF78600B467B804A
:100500000023FB810023BB817B881B0AFB81FB89C5
:10051000012202FA03F3BB81BB89DB439AB27B68F9
:100520001A801437BD465DF8047B704780B586B0ED
:1005300000AF4FF40030012100F01CFA012001212E
:1005400000F0FAF90C233B6102233B750023BB75D5
:100550000123FB7502237B7507F11003164819462A
:1005600001F0BCFD14480221072201F045FE1248AB
:100570000321072201F040FE4FF4E1333B600023EA
:10058000BB800023FB8000233B810023BB810C2325
:100590007B813B4609481946FFF704FE074840F2B5
:1005A00025510122FFF7EAFE04480121FFF7B4FEBE
:1005B0001837BD4680BD00BF000002400044004027
:1005C00080B582B000AF0346FB7100BF07488021B1
:1005D000FFF71CFF0346002BF8D0FB799BB20348C2
:1005E0001946FFF7B9FE0837BD4680BD00440040FC
:1005F00080B584B000AF78600023FB6009E0FB6841
:100600007A6813441B781846FFF7DAFFFB6801335A
:10061000FB60FB687A6813441B78002BEFD110371E
:10062000BD4680BD80B582B000AF274840F225515D
:10063000FFF708FF0346002B43D0234840F2255123
:10064000FFF758FF204B9B889BB2FB70FB78402B39
:1006500005D9FB785A2B02D8FB782033FB70FB7846
:100660000D2B1CD800237B600AE0184A7B681344DA
:100670001B7815481946FFF76FFE7B6801337B60D6
:10068000134B1B687A689A42EFDB114B00221A6009
:10069000FB789BB20C481946FFF75EFE09E00C4B55
:1006A0001B680A4AF978D154094B1B685A1C084B3D
:1006B0001A6000BF04484021FFF7A8FE0346002B44
:1006C000F8D00837BD4680BD004400400C640120CE
:1006D0004436002080B582B000AFFF23FB7108488C
:1006E0002021FFF793FE0346012B03D1044B9B8887
:1006F0009BB2FB71FB7918460837BD4680BD00BF31
:100700000044004080B582B000AF78603960FFF7E8
:10071000E1FF03461A467B681A707B681B78FF2B43
:1007200003D07B681B780A2B01D100BFEFE73B6841
:10073000002B04D07B681B781846FFF741FF7B68CD
:100740001B780D2B03D17B6800221A7003E07B68B5
:1007500001337B60DBE70837BD4680BD80B582B0E2
:1007600000AF104B7B60104B3B6007E03B681A1DED
:100770003A607A68111D796012681A603A680B4B0A
:100780009A42F3D30A480B494FF000028842B8BF9F
:1007900040F8042BFFF6FAAF00F012F80837BD4618
:1007A00080BD00BF204A0008000000204436002021
:1007B000443600202465012080B400AFFEE700BF6E
:1007C00080B500AF01F080FC002002F045F803483E
:1007D000FFF70EFF0248FFF7D7FCFBE7884700084A
:1007E0004836002080B489B000AF78600023BB6138
:1007F00000237B610023FB6102233B610023FB603C
:100800000223BB60484B9B6803F00C03BB61BB69D0
:10081000042B07D0082B09D0002B3FD17B68434A1B
:100820001A603FE07B68424A1A603BE03E4B5B68DF
:1008300003F480039B0DFB603B4B5B6803F03F03BD
:10084000BB60FB68002B0DD0394ABB68B2FBF3F2EA
:10085000354B596847F6C0730B409B0903FB02F305
:10086000FB610CE0314ABB68B2FBF3F22E4B5968D6
:1008700047F6C0730B409B0903FB02F3FB612A4B55
:100880005B6803F440331B0C01335B003B61FA6986
:100890003B69B2FBF3F27B681A6003E07B68234A92
:1008A0001A6000BF204B9B6803F0F003BB61BB697B
:1008B0001B09BB611F4ABB6913441B78DBB27B6118
:1008C0007B681A687B69DA407B685A60164B9B68C4
:1008D00003F4E053BB61BB699B0ABB61154ABB696A
:1008E00013441B78DBB27B617B685A687B69DA4012
:1008F0007B689A600C4B9B6803F46043BB61BB69E7
:100900005B0BBB610B4ABB6913441B78DBB27B6199
:100910007B685A687B69DA407B68DA602437BD46B9
:100920005DF8047B704700BF003802400024F400EB
:1009300000127A000000002080B483B000AF78601D
:100940000B46FB70FB78002B06D0094B084A116B55
:100950007A680A431A6306E0054B054A116B7A6808
:10096000D2430A401A630C37BD465DF8047B7047DA
:100970000038024080B483B000AF78600B46FB7053
:10098000FB78002B06D0094B084A116C7A680A43A1
:100990001A6406E0054B054A116C7A68D2430A4096
:1009A0001A640C37BD465DF8047B7047003802407E
:1009B00080B483B000AF78600B46FB70FB78002BEF
:1009C00006D0094B084A516C7A680A435A6406E01B
:1009D000054B054A516C7A68D2430A405A640C3779
:1009E000BD465DF8047B704700380240B0B594B056
:1009F00000AFF860B9607A603B60F86803F054FCBF
:100A0000F864B86803F050FCB864786803F04CFCF4
:100A10007864386803F048FC3864386E03F044FCAE
:100A2000386300237B63FA6C7B6CD31A83EAE3722E
:100A3000A2EBE372B96C3B6CCB1A002BB8BF5B42E4
:100A40009A420DDAFB6CFB62BB6CFB64FB6ABB6415
:100A50007B6CBB623B6C7B64BB6A3B6401237B6346
:100A6000FA6C7B6C9A420BDDFB6C7B627B6CFB64EB
:100A70007B6A7B64BB6C3B623B6CBB643B6A3B64E4
:100A80000023BB6375E0FA6CBB6B1344FB617A6CAB
:100A9000BB6B1344BB61FB69FB6363E0FA6BFB69EF
:100AA000D31A184603F05CFA0446BA69FB69D31AF4
:100AB000184603F055FA03462046194603F058FB42
:100AC00003467B61B86C02F0D1FE04460D4678699E
:100AD00002F0DEFE02460B464FF00000284902F00D
:100AE00077FD02460B462046294602F025FF0246C6
:100AF0000B4614461D46386C03F032FA034618467E
:100B0000796903F081FA0346184602F0C1FE0246F5
:100B10000B462046294602F05DFD02460B46104674
:100B2000194603F01BF903463B617B6B012B0BD18C
:100B30003B6999B2FB6B9AB27B6EDBB208461146F9
:100B40001A4601F0ADFE0AE0FB6B99B23B699AB21E
:100B50007B6EDBB2084611461A4601F0A1FEFB6B24
:100B60000133FB63FA6BBB699A4297DBBB6B0133C2
:100B7000BB63BA6B3B6B9A4285DB5037BD46B0BD59
:100B80000000F03F80B58AB000AFF860B9607A60CD
:100B90003B60F86803F088FBF861B86803F084FBF9
:100BA000B861786803F080FB7861386803F07CFBFB
:100BB00038613B695B427B6241E07B695B423B623F
:100BC00036E03B6A3A6A02FB03F33A6902FB03F33D
:100BD0003A6902FB03F27B6A796A01FB03F37969E4
:100BE00001FB03F3796901FB03F31A443B6939699B
:100BF00001FB03F3796901FB03F3796901FB03F35B
:100C00009A4212DCFB699AB23B6A9BB2134499B2D6
:100C1000BB699AB27B6A9BB213449AB23B6BDBB25C
:100C2000084611461A4601F03BFE3B6A01333B621F
:100C30003A6A7B699A42C4DD7B6A01337B627A6AD5
:100C40003B699A42B9DD2837BD4680BD80B58CB07E
:100C500000AFF860B9607A603B60F86803F024FB8D
:100C6000F862B86803F020FBB862786803F01CFBF8
:100C70007862386803F018FB38623A6ABB6A9A42B5
:100C800005DD3B6A7B61BB6A3B627B69BB627A6A5A
:100C9000FB6A9A4205DA7B6A3B61FB6A7B623B69CD
:100CA000FB62FB6AFB6117E03B6ABB610DE0FB691D
:100CB00099B2BB699AB2BB6BDBB2084611461A46C1
:100CC00001F0EEFDBB690133BB61BA69BB6A9A42B0
:100CD000EDDBFB690133FB61FA697B6A9A42E3DB76
:100CE0003037BD4680BD00BF80B58CB002AFF86024
:100CF000B9607A603B60F86803F0D6FA7862B86849
:100D000003F0D2FA3862786803F0CEFAF8613868F6
:100D100003F0CAFAB861386B03F0C6FA7861786BF1
:100D200003F0C2FA386101230093BB6B0193786A28
:100D3000396AFA69BB6900F017F801230093BB6BAD
:100D40000193F869B9697A693B6900F00DF80123EC
:100D50000093BB6B0193786939697A6A3B6A00F04A
:100D600003F82837BD4680BDB0B590B000AFF8603D
:100D7000B9607A603B6000237B63FA687B68D31AB2
:100D800083EAE372A2EBE372B9683B68CB1A002BEB
:100D9000B8BF5B429A420DDAFB683B63BB68FB60FD
:100DA0003B6BBB607B68FB623B687B60FB6A3B60C4
:100DB00001237B63FA687B689A420BDDFB68BB62A8
:100DC0007B68FB60BB6A7B60BB687B623B68BB6027
:100DD0007B6A3B600023BB6375E0FA68BB6B13441E
:100DE0003B627A68BB6B1344FB613B6AFB6363E065
:100DF000FA6B3B6AD31A184603F0B2F80446FA6954
:100E00003B6AD31A184603F0ABF80346204619464E
:100E100003F0AEF90346BB61B86802F027FD044653
:100E20000D46B86902F034FD02460B464FF0000053
:100E3000284902F0CDFB02460B462046294602F027
:100E40007BFD02460B4614461D46386803F088F8C1
:100E500003461846B96903F0D7F80346184602F06E
:100E600017FD02460B462046294602F0B3FB024618
:100E70000B461046194602F071FF03467B617B6BFF
:100E8000012B0BD17B6999B2FB6B9AB27B6DDBB204
:100E9000084611461A4601F003FD0AE0FB6B99B2C1
:100EA0007B699AB27B6DDBB2084611461A4601F0A7
:100EB000F7FCFB6B0133FB63FA6BFB699A4297DB30
:100EC000BB6B0133BB63BA6B3B6D9A4285DB40372A
:100ED000BD46B0BD0000F03F90B599B000AFF860DE
:100EE000B9607A603B60F86803F0DEF9F865B868CD
:100EF00003F0DAF9B865FB6D7B6400237B650BE0DA
:100F00007B6D7A6813441A7807F114017B6D0B44EA
:100F10001A707B6D01337B657B6D272BF0DD002321
:100F200087F843300023FB6307F11403184603F0EE
:100F30002BFB0346FB630023BB6400F04EBFFB6D3D
:100F4000B3F59B7F04DD7B6CFB65BB6D0A33BB6532
:100F500007F11402BB6C13441B7887F8433000235D
:100F6000FB6400F030BF00233B6500F025BF97F81D
:100F70004330613B192B00F21C8701A252F823F089
:100F8000E90F00086F100008F51000087B11000839
:100F9000011200089D12000823130008A91300087D
:100FA0002F140008B514000851150008D3150008C7
:100FB00055160008D716000859170008F117000841
:100FC00073180008F518000877190008F9190008C7
:100FD000911A0008131B0008951B0008171C000835
:100FE000991C0008311D0008A749FA6C13469B00A4
:100FF00013445B003A6D134451F82330012B0AD19E
:10100000A149FA6C13469B0013445B003A6D1344EC
:101010003A6F41F823209C49FA6C13469B00134415
:101020005B003A6D134451F82330002B1DD03B6D0B
:101030009AB2FB6D9BB2134498B2FB6C9AB2BB6D33
:101040009BB213449BB20A3399B28F4CFA6C13468D
:101050009B0013445B003A6D134454F82330DBB219
:101060001A4601F01DFC00F0A4BE00F0A2BE8749A4
:10107000FA6C13469B0013445B003A6D134451F81D
:101080002330012B0AD18149FA6C13469B0013448B
:101090005B003A6D13443A6F41F823207B49FA6CA8
:1010A00013469B0013445B003A6D134451F8233000
:1010B000002B1DD03B6D9AB2FB6D9BB2134498B2CE
:1010C000FB6C9AB2BB6D9BB213449BB20A3399B2CC
:1010D0006E4CFA6C13469B0013445B003A6D13444C
:1010E00054F82330DBB21A4601F0DAFB00F061BE9F
:1010F00000F05FBE6649FA6C13469B0013445B0028
:101100003A6D134451F82330012B0AD16049FA6C2F
:1011100013469B0013445B003A6D13443A6F41F849
:1011200023205B49FA6C13469B0013445B003A6D25
:10113000134451F82330002B1DD03B6D9AB2FB6D48
:101140009BB2134498B2FB6C9AB2BB6D9BB2134432
:101150009BB20A3399B24E4CFA6C13469B0013446F
:101160005B003A6D134454F82330DBB21A4601F0A9
:1011700097FB00F01EBE00F01CBE4649FA6C1346F9
:101180009B0013445B003A6D134451F82330012B4C
:101190000AD14049FA6C13469B0013445B003A6D38
:1011A00013443A6F41F823203A49FA6C13469B00E6
:1011B00013445B003A6D134451F82330002B1DD0CB
:1011C0003B6D9AB2FB6D9BB2134498B2FB6C9AB222
:1011D000BB6D9BB213449BB20A3399B22D4CFA6C8F
:1011E00013469B0013445B003A6D134454F82330BC
:1011F000DBB21A4601F054FB00F0DBBD00F0D9BDB4
:101200002549FA6C13469B0013445B003A6D134466
:1012100051F82330012B0AD11F49FA6C13469B0069
:1012200013445B003A6D13443A6F41F823201A4986
:10123000FA6C13469B0013445B003A6D134451F85B
:101240002330002B1DD03B6D9AB2FB6D9BB2134433
:1012500098B2FB6C9AB2BB6D9BB213449BB20A333B
:1012600099B20D4CFA6C13469B0013445B003A6D27
:10127000134454F82330DBB21A4601F011FB00F09E
:1012800098BD00F096BD00BF70090020000B002043
:10129000900C0020200E0020B00F0020A749FA6C0F
:1012A00013469B0013445B003A6D134451F82330FE
:1012B000012B0AD1A149FA6C13469B0013445B0031
:1012C0003A6D13443A6F41F823209C49FA6C134657
:1012D0009B0013445B003A6D134451F82330002BFC
:1012E0001DD03B6D9AB2FB6D9BB2134498B2FB6C60
:1012F0009AB2BB6D9BB213449BB20A3399B28F4C26
:10130000FA6C13469B0013445B003A6D134454F887
:101310002330DBB21A4601F0C3FA00F04ABD00F0F8
:1013200048BD8749FA6C13469B0013445B003A6D35
:10133000134451F82330012B0AD18149FA6C13462A
:101340009B0013445B003A6D13443A6F41F823202D
:101350007B49FA6C13469B0013445B003A6D1344BF
:1013600051F82330002B1DD03B6D9AB2FB6D9BB220
:10137000134498B2FB6C9AB2BB6D9BB213449BB200
:101380000A3399B26E4CFA6C13469B0013445B000F
:101390003A6D134454F82330DBB21A4601F080FA58
:1013A00000F007BD00F005BD6649FA6C13469B00CE
:1013B00013445B003A6D134451F82330012B0AD1DA
:1013C0006049FA6C13469B0013445B003A6D13446A
:1013D0003A6F41F823205B49FA6C13469B00134493
:1013E0005B003A6D134451F82330002B1DD03B6D48
:1013F0009AB2FB6D9BB2134498B2FB6C9AB2BB6D70
:101400009BB213449BB20A3399B24E4CFA6C13460A
:101410009B0013445B003A6D134454F82330DBB255
:101420001A4601F03DFA00F0C4BC00F0C2BC4649C7
:10143000FA6C13469B0013445B003A6D134451F859
:101440002330012B0AD14049FA6C13469B00134408
:101450005B003A6D13443A6F41F823203A49FA6C25
:1014600013469B0013445B003A6D134451F823303C
:10147000002B1DD03B6D9AB2FB6D9BB2134498B20A
:10148000FB6C9AB2BB6D9BB213449BB20A3399B208
:101490002D4CFA6C13469B0013445B003A6D1344C9
:1014A00054F82330DBB21A4601F0FAF900F081BC9F
:1014B00000F07FBC2549FA6C13469B0013445B0087
:1014C0003A6D134451F82330012B0AD11F49FA6CAD
:1014D00013469B0013445B003A6D13443A6F41F886
:1014E00023201A49FA6C13469B0013445B003A6DA3
:1014F000134451F82330002B1DD03B6D9AB2FB6D85
:101500009BB2134498B2FB6C9AB2BB6D9BB213446E
:101510009BB20A3399B20D4CFA6C13469B001344EC
:101520005B003A6D134454F82330DBB21A4601F0E5
:10153000B7F900F03EBC00F03CBC00BF40110020F9
:10154000D012002060140020F01500208017002029
:10155000A249FA6C13469B0013445B003A6D134496
:1015600051F82330012B0AD19C49FA6C13469B0099
:1015700013445B003A6D13443A6F41F823209749B6
:10158000FA6C13469B0013445B003A6D134451F808
:101590002330002B1CD03B6D9AB2FB6D9BB21344E1
:1015A00098B2FB6C9AB2BB6D9BB213449BB20A33E8
:1015B00099B28A4CFA6C13469B0013445B003A6D57
:1015C000134454F82330DBB21A4601F069F9F0E312
:1015D000EFE38349FA6C13469B0013445B003A6DBA
:1015E000134451F82330012B0AD17D49FA6C13467C
:1015F0009B0013445B003A6D13443A6F41F823207B
:101600007749FA6C13469B0013445B003A6D134410
:1016100051F82330002B1CD03B6D9AB2FB6D9BB26E
:10162000134498B2FB6C9AB2BB6D9BB213449BB24D
:101630000A3399B26A4CFA6C13469B0013445B0060
:101640003A6D134454F82330DBB21A4601F028F9FE
:10165000AFE3AEE36349FA6C13469B0013445B00AF
:101660003A6D134451F82330012B0AD15D49FA6CCD
:1016700013469B0013445B003A6D13443A6F41F8E4
:1016800023205849FA6C13469B0013445B003A6DC3
:10169000134451F82330002B1CD03B6D9AB2FB6DE4
:1016A0009BB2134498B2FB6C9AB2BB6D9BB21344CD
:1016B0009BB20A3399B24B4CFA6C13469B0013440D
:1016C0005B003A6D134454F82330DBB21A4601F044
:1016D000E7F86EE36DE34449FA6C13469B0013444C
:1016E0005B003A6D134451F82330012B0AD13E4977
:1016F000FA6C13469B0013445B003A6D13443A6F37
:1017000041F823203849FA6C13469B0013445B00D0
:101710003A6D134451F82330002B1CD03B6D9AB224
:10172000FB6D9BB2134498B2FB6C9AB2BB6D9BB23B
:1017300013449BB20A3399B22B4CFA6C13469B00AC
:1017400013445B003A6D134454F82330DBB21A465D
:1017500001F0A6F82DE32CE32449FA6C13469B0014
:1017600013445B003A6D134451F82330012B0AD126
:101770001E49FA6C13469B0013445B003A6D1344F8
:101780003A6F41F823201949FA6C13469B00134421
:101790005B003A6D134451F82330002B1CD03B6D95
:1017A0009AB2FB6D9BB2134498B2FB6C9AB2BB6DBC
:1017B0009BB213449BB20A3399B20C4CFA6C134699
:1017C0009B0013445B003A6D134454F82330DBB2A2
:1017D0001A4601F065F8ECE2EBE200BF10190020B8
:1017E000A01A0020301C0020C01D0020501F002027
:1017F000A249FA6C13469B0013445B003A6D1344F4
:1018000051F82330012B0AD19C49FA6C13469B00F6
:1018100013445B003A6D13443A6F41F82320974913
:10182000FA6C13469B0013445B003A6D134451F865
:101830002330002B1CD03B6D9AB2FB6D9BB213443E
:1018400098B2FB6C9AB2BB6D9BB213449BB20A3345
:1018500099B28A4CFA6C13469B0013445B003A6DB4
:10186000134454F82330DBB21A4601F019F8A0E211
:101870009FE28349FA6C13469B0013445B003A6D68
:10188000134451F82330012B0AD17D49FA6C1346D9
:101890009B0013445B003A6D13443A6F41F82320D8
:1018A0007749FA6C13469B0013445B003A6D13446E
:1018B00051F82330002B1CD03B6D9AB2FB6D9BB2CC
:1018C000134498B2FB6C9AB2BB6D9BB213449BB2AB
:1018D0000A3399B26A4CFA6C13469B0013445B00BE
:1018E0003A6D134454F82330DBB21A4600F0D8FFA7
:1018F0005FE25EE26349FA6C13469B0013445B00AF
:101900003A6D134451F82330012B0AD15D49FA6C2A
:1019100013469B0013445B003A6D13443A6F41F841
:1019200023205849FA6C13469B0013445B003A6D20
:10193000134451F82330002B1CD03B6D9AB2FB6D41
:101940009BB2134498B2FB6C9AB2BB6D9BB213442A
:101950009BB20A3399B24B4CFA6C13469B0013446A
:101960005B003A6D134454F82330DBB21A4600F0A2
:1019700097FF1EE21DE24449FA6C13469B00134494
:101980005B003A6D134451F82330012B0AD13E49D4
:10199000FA6C13469B0013445B003A6D13443A6F94
:1019A00041F823203849FA6C13469B0013445B002E
:1019B0003A6D134451F82330002B1CD03B6D9AB282
:1019C000FB6D9BB2134498B2FB6C9AB2BB6D9BB299
:1019D00013449BB20A3399B22B4CFA6C13469B000A
:1019E00013445B003A6D134454F82330DBB21A46BB
:1019F00000F056FFDDE1DCE12449FA6C13469B0060
:101A000013445B003A6D134451F82330012B0AD183
:101A10001E49FA6C13469B0013445B003A6D134455
:101A20003A6F41F823201949FA6C13469B0013447E
:101A30005B003A6D134451F82330002B1CD03B6DF2
:101A40009AB2FB6D9BB2134498B2FB6C9AB2BB6D19
:101A50009BB213449BB20A3399B20C4CFA6C1346F6
:101A60009B0013445B003A6D134454F82330DBB2FF
:101A70001A4600F015FF9CE19BE100BFE02000202A
:101A80007022002000240020902500202027002024
:101A9000A249FA6C13469B0013445B003A6D134451
:101AA00051F82330012B0AD19C49FA6C13469B0054
:101AB00013445B003A6D13443A6F41F82320974971
:101AC000FA6C13469B0013445B003A6D134451F8C3
:101AD0002330002B1CD03B6D9AB2FB6D9BB213449C
:101AE00098B2FB6C9AB2BB6D9BB213449BB20A33A3
:101AF00099B28A4CFA6C13469B0013445B003A6D12
:101B0000134454F82330DBB21A4600F0C9FE50E10A
:101B10004FE18349FA6C13469B0013445B003A6D16
:101B2000134451F82330012B0AD17D49FA6C134636
:101B30009B0013445B003A6D13443A6F41F8232035
:101B40007749FA6C13469B0013445B003A6D1344CB
:101B500051F82330002B1CD03B6D9AB2FB6D9BB229
:101B6000134498B2FB6C9AB2BB6D9BB213449BB208
:101B70000A3399B26A4CFA6C13469B0013445B001B
:101B80003A6D134454F82330DBB21A4600F088FE55
:101B90000FE10EE16349FA6C13469B0013445B00AE
:101BA0003A6D134451F82330012B0AD15D49FA6C88
:101BB00013469B0013445B003A6D13443A6F41F89F
:101BC00023205849FA6C13469B0013445B003A6D7E
:101BD000134451F82330002B1CD03B6D9AB2FB6D9F
:101BE0009BB2134498B2FB6C9AB2BB6D9BB2134488
:101BF0009BB20A3399B24B4CFA6C13469B001344C8
:101C00005B003A6D134454F82330DBB21A4600F0FF
:101C100047FECEE0CDE04449FA6C13469B001344E6
:101C20005B003A6D134451F82330012B0AD13E4931
:101C3000FA6C13469B0013445B003A6D13443A6FF1
:101C400041F823203849FA6C13469B0013445B008B
:101C50003A6D134451F82330002B1CD03B6D9AB2DF
:101C6000FB6D9BB2134498B2FB6C9AB2BB6D9BB2F6
:101C700013449BB20A3399B22B4CFA6C13469B0067
:101C800013445B003A6D134454F82330DBB21A4618
:101C900000F006FE8DE08CE02449FA6C13469B00B0
:101CA00013445B003A6D134451F82330012B0AD1E1
:101CB0001E49FA6C13469B0013445B003A6D1344B3
:101CC0003A6F41F823201949FA6C13469B001344DC
:101CD0005B003A6D134451F82330002B1CD03B6D50
:101CE0009AB2FB6D9BB2134498B2FB6C9AB2BB6D77
:101CF0009BB213449BB20A3399B20C4CFA6C134654
:101D00009B0013445B003A6D134454F82330DBB25C
:101D10001A4600F0C5FD4CE04BE000BFB0280020A3
:101D2000402A0020D02B0020602D0020F02E002023
:101D30002E49FA6C13469B0013445B003A6D134422
:101D400051F82330012B0AD12849FA6C13469B0025
:101D500013445B003A6D13443A6F41F82320234942
:101D6000FA6C13469B0013445B003A6D134451F820
:101D70002330002B1CD03B6D9AB2FB6D9BB21344F9
:101D800098B2FB6C9AB2BB6D9BB213449BB20A3300
:101D900099B2164CFA6C13469B0013445B003A6DE3
:101DA000134454F82330DBB21A4600F079FDFFE704
:101DB00000BF3B6D01333B653B6D092B7FF7D7A817
:101DC000FB6C0133FB64FB6C092B7FF7CCA8BB6C6D
:101DD0000133BB64FB6D0A33FB65BA6CFB6B9A4243
:101DE000FFF6ADA86437BD4690BD00BF803000202F
:101DF00090B58BB000AFF860B9607A60F86802F017
:101E000053FAF861B86802F04FFAB861786802F0E6
:101E10004BFA786100233B62E1E000237B62D7E06C
:101E2000FB69052B00F2BE8001A252F823F000BF2F
:101E3000491E0008831E0008BD1E0008F71E00088A
:101E4000311F00086B1F00087B6A9AB2BB699BB206
:101E5000134498B23B6A9AB27B699BB213449BB21B
:101E60000A3399B2614C3A6A13469B0013445B00F3
:101E70007A6A134454F82330DBB21A4600F010FD9E
:101E8000A3E07B6A9AB2BB699BB2134498B23B6AE7
:101E90009AB27B699BB213449BB20A3399B2544CF9
:101EA0003A6A13469B0013445B007A6A134454F861
:101EB0002330DBB21A4600F0F3FC86E07B6A9AB26C
:101EC000BB699BB2134498B23B6A9AB27B699BB2DE
:101ED00013449BB20A3399B2464C3A6A13469B00AC
:101EE00013445B007A6A134454F82330DBB21A4679
:101EF00000F0D6FC69E07B6A9AB2BB699BB21344DE
:101F000098B23B6A9AB27B699BB213449BB20A3384
:101F100099B2394C3A6A13469B0013445B007A6AC3
:101F2000134454F82330DBB21A4600F0B9FC4CE0FD
:101F30007B6A9AB2BB699BB2134498B23B6A9AB26D
:101F40007B699BB213449BB20A3399B22B4C3A6A19
:101F500013469B0013445B007A6A134454F8233001
:101F6000DBB21A4600F09CFC2FE07B6A9AB2BB6998
:101F70009BB2134498B23B6A9AB27B699BB21344FA
:101F80009BB20A3399B21E4C3A6A13469B00134423
:101F90005B007A6A134454F82330DBB21A4600F02F
:101FA0007FFC12E07B6A9AB2BB699BB213449AB27F
:101FB0003B6A99B27B699BB20B449BB20A339BB2DA
:101FC00010461946E02200F06BFC7B6A01337B620D
:101FD0007B6A092B7FF724AF3B6A01333B623B6A84
:101FE000092B7FF71AAF2C37BD4690BD100000209B
:101FF000A001002030030020C00400205006002073
:10200000E007002080B582B000AF78607B68DBB26B
:10201000184600F021FC0837BD4680BD00000000D6
:1020200080B58AB000AF7860786802F03DF97862D8
:1020300007F10C031846FEF7D5FBFB683B62204B0B
:102040003B62386A01F002FC02460B461046194614
:102050004FF000021B4B01F06FFC02460B4610468E
:10206000194615A3D3E9002301F090FD02460B4663
:10207000104619464FF000024FF0804301F086FDF4
:1020800002460B461046194601F090FE0346FB61DE
:102090000CE00023BB6002E0BB680133BB60BA68A0
:1020A000FB699A42F8D37B6A013B7B627B6A002B17
:1020B000EFDC2837BD4680BD000000000094C14021
:1020C00080F0FA020000F43F80B500AF00F0DAF8CB
:1020D000FEF72CFA00F080FB80BD00BF80B487B013
:1020E00000AF7860396000237B6100233B610023EF
:1020F000FB6000237B6176E07B69012202FA03F337
:102100003B613B681A683B691340FB60FA683B69B6
:102110009A4265D17B681A687B695B00032101FAEA
:1021200003F3DB431A407B681A607B681A683B68DC
:102130001B7919467B695B0001FA03F31A437B683C
:102140001A603B681B79012B03D03B681B79022B7B
:102150002ED17B689A687B695B00032101FA03F347
:10216000DB431A407B689A607B689A683B685B79BE
:1021700019467B695B0001FA03F31A437B689A6096
:102180007B685A687B699BB2012101FA03F3DB4348
:102190001A407B685A607B685A683B689B7919468D
:1021A0007B699BB201FA03F39BB21A437B685A60C6
:1021B0007B68DA687B699BB25B00032101FA03F359
:1021C000DB431A407B68DA607B68DA683B68DB795E
:1021D00019467B695B0001FA03F31A437B68DA60F6
:1021E0007B6901337B617B690F2B85D91C37BD4629
:1021F0005DF8047B704700BF80B485B000AF7860A5
:1022000013460A467A807B700023FB600023BB6084
:102210007A787B8803F007039B0002FA03F3FB60E4
:102220007B88DB089BB21A467B88DB089BB2194689
:102230007B68083153F821107B8803F007039B006B
:102240000F2000FA03F3DB4319407B68083243F8A0
:1022500022107B88DB089BB21A467B68083253F851
:102260002220FB681343BB607B88DB089BB21A46C5
:102270007B680832B96843F822101437BD465DF810
:10228000047B704780B500AF114B114A126842F0D1
:1022900001021A600E4B00229A600D4A0C4B1B681B
:1022A00023F0847323F480331360094B094A5A6086
:1022B000074B074A126822F480221A60044B00225E
:1022C000DA6000F00BF8044B4FF000629A6080BDBA
:1022D000003802401030002400ED00E080B483B0EC
:1022E00000AF00237B6000233B60354B344A12680B
:1022F00042F480321A60324B1B6803F400333B60B7
:102300007B6801337B603B68002B03D17B68B3F5AE
:10231000A06FF0D12A4B1B6803F40033002B02D0CE
:1023200001233B6001E000233B603B68012B42D16D
:10233000234B234A126C42F080521A64214B214AEB
:10234000126842F480421A601D4B1D4A92689A60DE
:102350001B4B1B4A926842F400429A60184B184A81
:10236000926842F4A0529A60154B174A5A60144B77
:10237000134A126842F080721A6000BF104B1B684B
:1023800003F00073002BF9D0104B40F205621A6085
:102390000B4B0B4A926822F003029A60084B084AE2
:1023A000926842F002029A6000BF054B9B6803F0FE
:1023B0000C03082BF9D10C37BD465DF8047B704740
:1023C000003802400070004008544007003C0240C2
:1023D00080B483B000AF78607B681B6823F0010293
:1023E0007B681A607B6800221A607B6800225A6052
:1023F0007B6800229A607B680022DA607B6800229A
:102400001A617B6821225A617A68454B9A4203D14E
:10241000444B3D229A607EE07A68434B9A4204D155
:10242000404B4FF474629A6075E07A683F4B9A4271
:1024300004D13C4B4FF474129A606CE07A683C4BC8
:102440009A4204D1374B4FF074629A6063E07A6825
:10245000384B9A4203D1334B374ADA605BE07A68F3
:10246000364B9A4203D12F4B354ADA6053E07A68F3
:10247000344B9A4203D12B4B334ADA604BE07A68F3
:10248000324B9A4204D1274B4FF03D52DA6042E082
:102490007A682F4B9A4203D12E4B3D229A603AE044
:1024A0007A682D4B9A4204D12A4B4FF474629A6099
:1024B00031E07A68294B9A4204D1264B4FF47412CA
:1024C0009A6028E07A68264B9A4204D1214B4FF05B
:1024D00074629A601FE07A68224B9A4203D11D4BC6
:1024E000154ADA6017E07A681F4B9A4203D1194BFC
:1024F000134ADA600FE07A681C4B9A4203D1154BFD
:10250000114ADA6007E07A68194B9A4203D1114BFD
:102510004FF03D52DA600C37BD465DF8047B7047E2
:1025200010600240006002402860024040600240AB
:1025300058600240706002403D0000208860024008
:10254000400F0020A060024000003D20B860024023
:10255000106402400064024028640240406402406B
:10256000586402407064024088640240A0640240E3
:10257000B864024080B485B000AF78603960002351
:10258000FB607B681B68FB60FA68244B1340FB60B0
:102590003B681A683B68DB681A433B685B691A430F
:1025A0003B689B691A433B68DB691A433B681B6ABB
:1025B0001A433B685B6A1A433B689B6A1A433B6851
:1025C0005B6B1A433B689B6B1343FA681343FB60D6
:1025D0007B68FA681A607B685B69FB60FB6823F0C4
:1025E0000703FB603B68DA6A3B681B6B1343FA68BE
:1025F0001343FB607B68FA685A613B681A697B6821
:102600005A603B685A687B689A603B689A687B6846
:10261000DA601437BD465DF8047B70473F801CF0DC
:1026200080B483B000AF78600B46FB70FB78002B62
:1026300006D07B681B6843F001027B681A6005E0E6
:102640007B681B6823F001027B681A600C37BD466B
:102650005DF8047B704700BF80B485B000AFF860C0
:10266000B9601346FB71BB6803F08003002B0FD0E9
:10267000FB79002B06D0FB685B6943F08002FB68A6
:102680005A6105E0FB685B6923F08002FB685A61D0
:10269000BB68802B14D0FB79002B08D0FB681A682C
:1026A000BB6803F01E031A43FB681A6008E0FB686E
:1026B0001A68BB6803F01E03DB431A40FB681A600C
:1026C0001437BD465DF8047B704700BF80B487B007
:1026D00000AF786039600023FB750023FB600023A6
:1026E000BB607A68224B9A4202D8224B3B6101E0E0
:1026F000214B3B613B6823F0F02323F0C313002BF5
:102700000AD03B68DB0A03F01E03FB607B681A6893
:10271000FB681340BB6004E07B685B6903F08003E7
:10272000BB603B6803F00053002B03D03B695B6840
:10273000FB6002E03B691B68FB60FB6823F0F02351
:1027400023F08213FB60FA683B681340002B05D02E
:10275000BB68002B02D00123FB7501E00023FB7551
:10276000FB7D18461C37BD465DF8047B704700BFF3
:102770000F640240006002400064024080B485B0F3
:1027800000AF786039607A68104B9A4202D8104BDB
:10279000FB6001E00F4BFB603B6803F00053002B34
:1027A00007D03B6823F0F02323F08213FA68D3604C
:1027B00006E03B6823F0F02323F08213FA6893606D
:1027C0001437BD465DF8047B704700BF0F640240BC
:1027D000006002400064024080B582B000AF1B4B35
:1027E00000221A80194B00225A60184B00229A606E
:1027F0000023BB8017E00023FB800DE0BA8813465E
:102800009B0013449B011A44FB881344104A002187
:10281000D154FB880133FB80FB88B3F5A07FEDD951
:10282000BB880133BB80BB88EF2BE4D900F05EF896
:1028300000F0B0F800F03EF900F010F9054B1A680E
:10284000024B9A600837BD4680BD00BF103700209C
:102850001C3700208864024080B584B000AF034676
:10286000FB710023BB8114E00023FB810AE0F9899E
:10287000BA89FB79084611461A4600F011F8FB891F
:102880000133FB81FB89B3F5A07FF0D3BB89013312
:10289000BB81BB89EF2BE7D91037BD4680BD00BF98
:1028A00080B483B000AF13460246FA800A46BA806D
:1028B000FB70FB88B3F5A07F01D30023FB80BB88AE
:1028C000EF2B01D90023BB80BA8813469B00134429
:1028D0009B011A44FB881344034AF978D1540C37FE
:1028E000BD465DF8047B70471C37002080B582B080
:1028F00000AF10200121FEF71FF84FF47F433B602B
:1029000001233B710023BB710123FB7103237B7106
:102910003B461E481946FFF7E1FB1C4B4FF47F4234
:102920005A8302200121FEF707F84FF400633B6051
:1029300002233B7103237B710023BB710123FB71D5
:102940003B4613481946FFF7C9FB11480B210122EA
:10295000FFF752FC02200121FDF7EEFF4FF48053F8
:102960003B6001233B710023BB710123FB710323F7
:102970007B713B4606481946FFF7B0FB044B4FF40A
:1029800080521A830837BD4680BD00BF0010024048
:102990000004024080B588B000AF01200121FEF79D
:1029A00007F80B23BB610023BB820023BB830023FA
:1029B000FB8207F114032848194600F0A3F901200F
:1029C0000121FDF7D7FF40F66B23BB610023BB82DB
:1029D0000023BB830023FB8207F114034FF08040E8
:1029E000194600F08FF960233B8001237B804FF470
:1029F000D273BB600223BB813B464FF08040194637
:102A000000F02AFA4FF08040082100F011FB60230B
:102A10003B8001237B804FF4A073BB600223BB810A
:102A20003B464FF08040194600F09CFA4FF0804042
:102A3000082100F019FB0848012100F0CDF94FF002
:102A40008040012100F0C8F94FF08040012100F0E2
:102A5000E3F92037BD4680BD0000014080B582B05B
:102A600000AF134810210122FFF7F6FD44233B710C
:102A700000237B710023BB710123FB713B1D1846B2
:102A800000F0E2F84FF080400821012200F00AFB3C
:102A90001C233B7100237B710023BB710123FB715D
:102AA0003B1D184600F0D0F80837BD4680BD00BF7A
:102AB0008864024080B590B000AF4FF480000121DF
:102AC000FDF73AFF1B480021FFF7AAFD1948FFF761
:102AD0007FFC4FF040637B60174BBB60174BFB6084
:102AE00040233B6140F241137B610023BB614FF403
:102AF0008063FB6100233B6200237B620023BB6297
:102B00004FF44033FB6200233B6301237B630023CC
:102B1000BB630023FB633B1D06481946FFF72AFDF4
:102B200007484FF48071012200F0F0FA4037BD46AB
:102B300080BD00BF88640240151002401C37002091
:102B40000000014080B500AF4FF08040082100F048
:102B5000CDFA254B1B8801339AB2234B1A80224BA6
:102B60001B88B3F5037F05D91F4B00221A801F4A2B
:102B70001D4B5A601C4B1B88012B04D81C4B4FF477
:102B800080525A8303E01A4B4FF480521A83164B3B
:102B90001B88232B27D9144B1A8840F202239A4210
:102BA00021D8144B104A92681A60124B0E4A526890
:102BB000DA60114B104A128892B242F0010292B2CE
:102BC0001A800C4B0B4A126842F001021A60064B45
:102BD0001B8803F00103002B05D0034B5B6803F255
:102BE0004112014B5A6080BD103700201C37002075
:102BF00000040240886402400000014080B500AF3C
:102C00000D480E49FFF762FD0346002B12D00A481B
:102C10000A49FFF7B3FD0A4B094A128892B222F023
:102C2000010292B21A80044B00221A60054B4FF445
:102C30007F425A8380BD00BF886402400088002024
:102C4000000001400010024080B485B000AF786001
:102C50000023FB730023BB730F237B737B68DB783C
:102C6000002B37D0254BDB68DB4303F4E0631B0A02
:102C7000FB73FB7BC3F10403BB737A7BFB7B42FAE0
:102C800003F37B737B685B781A46BB7B02FA03F322
:102C9000FB737B689A787B7B1340DAB2FB7B134330
:102CA000FB73FB7B1B01FB73154A7B681B7813448A
:102CB000FA7B83F80023124B7A6812785209D2B259
:102CC0007968097801F01F01012000FA01F143F849
:102CD00022100EE00A4B7A6812785209D2B2796853
:102CE000097801F01F01012000FA01F1203243F8B8
:102CF00022101437BD465DF8047B704700ED00E0FC
:102D000000E100E080B485B000AF78603960002356
:102D1000FB817B681B88FB817A68284B9A4213D021
:102D20007A68274B9A420FD07B68B3F1804F0BD063
:102D30007A68244B9A4207D07A68234B9A4203D090
:102D40007A68224B9A4208D1FB8923F07003FB81F9
:102D50003B685A88FB891343FB817A681C4B9A4273
:102D60000CD07A681B4B9A4208D0FB8923F440733D
:102D7000FB813B681A89FB891343FB817B68FA89D5
:102D80001A803B685A687B68DA623B681A887B68FD
:102D90001A857A68094B9A4203D07A68084B9A429E
:102DA00004D13B689B7A1A467B681A867B680122AD
:102DB0009A821437BD465DF8047B704700000140DD
:102DC000000401400004004000080040000C0040E6
:102DD000001000400014004080B483B000AF786061
:102DE0000B46FB70FB78002B08D07B681B889BB2DE
:102DF00043F080039AB27B681A8007E07B681B88E7
:102E00009BB223F080039AB27B681A800C37BD46D0
:102E10005DF8047B704700BF80B483B000AF78607A
:102E20000B46FB70FB78002B08D07B681B889BB29D
:102E300043F001039AB27B681A8007E07B681B8825
:102E40009BB223F001039AB27B681A800C37BD460F
:102E50005DF8047B704700BF80B485B000AF786038
:102E6000396000237B810023FB810023BB817B68C9
:102E70001B8C9BB223F480739AB27B681A847B68A4
:102E80001B8CFB817B689B88BB817B689B8B7B81D8
:102E90007B8923F070037B817B8923F003037B8193
:102EA0003B681A887B8913437B81FB8923F4007379
:102EB000FB813B689B891B029AB2FB891343FB8110
:102EC0003B685B881B029AB2FB891343FB817A68DB
:102ED000224B9A4203D07A68214B9A422BD1FB892C
:102EE00023F40063FB813B68DB891B029AB2FB89F8
:102EF0001343FB81FB8923F48063FB813B689B8840
:102F00001B029AB2FB891343FB81BB8923F48053D4
:102F1000BB81BB8923F40053BB813B681B8A1B0127
:102F20009AB2BB891343BB813B685B8A1B019AB28F
:102F3000BB891343BB817B68BA899A807B687A8995
:102F40009A833B689A687B68DA637B68FA891A849B
:102F50001437BD465DF8047B704700BF0000014098
:102F60000004014080B485B000AF78603960002370
:102F7000BB8100237B810023FB817B681B8C9BB280
:102F800023F480539AB27B681A847B681B8C7B8104
:102F90007B689B88FB817B689B8BBB81BB8923F40F
:102FA000E043BB81BB8923F44073BB813B681B8832
:102FB0001B029AB2BB891343BB817B8923F4005364
:102FC0007B813B689B891B039AB27B8913437B817E
:102FD0003B685B881B039AB27B8913437B817A68C9
:102FE000114B9A4203D07A68104B9A420AD1FB895E
:102FF00023F48043FB813B681B8A9B019AB2FB89C7
:103000001343FB817B68FA899A807B68BA899A832B
:103010003B689A687B681A647B687A891A841437DB
:10302000BD465DF8047B704700000140000401408C
:1030300080B485B000AF78600B467B800023FB81B5
:103040007B689B8BFB81FB8923F00803FB81FA895A
:103050007B881343FB817B68FA899A831437BD46CA
:103060005DF8047B704700BF80B485B000AF786026
:103070000B467B800023FB817B689B8BFB81FB895C
:1030800023F40063FB817B881B029AB2FB89134304
:10309000FB817B68FA899A831437BD465DF8047B0F
:1030A000704700BF80B483B000AF786013460A4613
:1030B0007A807B707B78002B08D07B689B899AB2E2
:1030C0007B8813439AB27B689A8109E07B689B896D
:1030D0009AB27B88DB439BB213409AB27B689A8199
:1030E0000C37BD465DF8047B704700BF80B483B0E9
:1030F00000AF78600B467B807B88DB439AB27B68AD
:103100001A820C37BD465DF8047B704780B483B0EB
:1031100000AF786013460A467A807B707B78002B7C
:1031200008D07B689B899AB27B8813439AB27B68EC
:103130009A8109E07B689B899AB27B88DB439BB2CA
:1031400013409AB27B689A810C37BD465DF8047BC8
:10315000704700BF80B584B000AF78600023BB60CB
:103160007868104901F040FAF860BB685A1CBA60F0
:103170001846F96800F018F80BE00020094901F042
:1031800033FAF860BB685A1CBA601846F96800F058
:103190000BF8FB68002BF0D100F058F91037BD4652
:1031A00080BD00BFA047000880B582B000AF786046
:1031B00039607B68072B6BD801A252F823F000BF5F
:1031C000E1310008F73100080D3200082332000811
:1031D000393200084F320008653200087B3200089F
:1031E0002F48FDF705FA2F48396801F06FF92D488F
:1031F000FDF7FEF950E02C48FDF7FAF92B48396845
:1032000001F064F92948FDF7F3F945E02848FDF796
:10321000EFF92848396801F059F92648FDF7E8F92F
:103220003AE02548FDF7E4F92448396801F04EF901
:103230002248FDF7DDF92FE02148FDF7D9F92148B3
:10324000396801F043F91F48FDF7D2F924E01E4820
:10325000FDF7CEF91D48396801F038F91B48FDF734
:10326000C7F919E01A48FDF7C3F91A48396801F09F
:103270002DF91848FDF7BCF90EE01748FDF7B8F92D
:103280001648396801F022F91448FDF7B1F903E056
:103290001348FDF7ADF900BF0837BD4680BD00BF3C
:1032A000A447000870640120AC4700088464012032
:1032B000B447000898640120BC470008AC640120B2
:1032C000C4470008D4640120CC470008E86401200A
:1032D000D4470008FC640120E04700081065012085
:1032E000E847000880B582B000AF78607868474949
:1032F00000F0DEFF0346002B01D1002381E0786857
:10330000434900F0D5FF0346002B01D1032378E0A9
:103310007868404900F0CCFF0346002B01D16F23B1
:103320006FE078683C4900F0C3FF0346002B01D1F1
:103330001C2366E07868394900F0BAFF0346002B89
:1033400001D17D235DE07868354900F0B1FF034687
:10335000002B01D11F2354E07868324900F0A8FF08
:103360000346002B01D17F234BE078682E4900F003
:103370009FFF0346002B01D1E02342E078682B49F0
:1033800000F096FF0346002B01D1ED2339E0786869
:10339000274900F08DFF0346002B01D1E32330E0E5
:1033A0007868244900F084FF0346002B01D1EF2305
:1033B00027E07868204900F07BFF0346002B01D10D
:1033C000FC231EE078681D4900F072FF0346002BC5
:1033D00001D1442315E07868194900F069FF0346DC
:1033E000002B01D16E230CE07868164900F060FFD5
:1033F0000346002B01D1FF2303E01348FDF7F8F843
:10340000002318460837BD4680BD00BF04480008A9
:103410000C48000814480008204800082848000804
:10342000344800083C480008484800085048000854
:103430005C48000864480008744800087C4800089C
:10344000844800088C4800089048000880B58AB07D
:1034500004AF4C484C4900F02BFF0346002B0ED123
:103460004A48FFF73FFF7861494B00937B6901931E
:1034700048484949494A4A4BFDF7B8FA7FE0414874
:10348000484900F015FF0346002B0CD14048FFF7D8
:1034900029FF38613B6900933E483F493F4A404B12
:1034A000FDF770FB6BE037483F4900F001FF034632
:1034B000002B0CD13648FFF715FFF860FB6800932E
:1034C00034483549354A364BFDF7C0FB57E02D48A7
:1034D000364900F0EDFE0346002B10D13448FFF7CB
:1034E00001FFB8602A4B0093284B0193BB680293FD
:1034F00028482949294A2A4BFDF7F6FB3FE0214895
:103500002C4900F0D5FE0346002B0ED12048FFF7D2
:10351000E9FE78607B6800931C4B01931D481E49AF
:103520001E4A1F4BFDF7D8FC29E01648224900F03F
:10353000BFFE0346002B05D116481749174AFEF770
:1035400057FC1CE00F481D4900F0B2FE0346002B5B
:1035500007D11048FFF7C6FE38603868FEF752FD05
:103560000DE00848164900F0A3FE0346002B03D1E6
:103570000848FEF755FD02E01248FDF739F8183704
:10358000BD4680BD70640120A8480008FC6401208D
:10359000E86401208464012098640120AC64012067
:1035A000D4640120B0480008B8480008C4480008A6
:1035B00010650120D0480008D8480008E0480008FD
:1035C000EC480008F448000881F0004102E000BF28
:1035D00083F0004330B54FEA41044FEA430594EAD3
:1035E000050F08BF90EA020F1FBF54EA000C55EA0E
:1035F000020C7FEA645C7FEA655C00F0E2804FEADF
:103600005454D4EB5555B8BF6D420CDD2C4480EAC0
:10361000020281EA030382EA000083EA010180EAF0
:10362000020281EA0303362D88BF30BD11F0004F3E
:103630004FEA01314FF4801C4CEA113102D0404274
:1036400061EB410113F0004F4FEA03334CEA1333AF
:1036500002D0524263EB430394EA050F00F0A780C7
:10366000A4F10104D5F1200E0DDB02FA0EFC22FAC2
:1036700005F2801841F1000103FA0EF2801843FAB6
:1036800005F359410EE0A5F120050EF1200E012AA7
:1036900003FA0EFC28BF4CF0020C43FA05F3C018E5
:1036A00051EBE37101F0004507D54FF0000EDCF15E
:1036B000000C7EEB00006EEB0101B1F5801F1BD307
:1036C000B1F5001F0CD349085FEA30004FEA3C0C0B
:1036D00004F101044FEA445212F5800F80F09A8001
:1036E000BCF1004F08BF5FEA500C50F1000041EB05
:1036F000045141EA050130BD5FEA4C0C404141EB09
:10370000010111F4801FA4F10104E9D191F0000F2F
:1037100004BF01460020B1FA81F308BF2033A3F1B2
:103720000B03B3F120020CDA0C3208DD02F1140CA9
:10373000C2F10C0201FA0CF021FA02F10CE002F1E4
:103740001402D8BFC2F1200C01FA02F120FA0CFCDD
:10375000DCBF41EA0C019040E41AA2BF01EB045126
:10376000294330BD6FEA04041F3C1CDA0C340EDC24
:1037700004F11404C4F1200220FA04F001FA02F367
:1037800040EA030021FA04F345EA030130BDC4F125
:103790000C04C4F1200220FA02F001FA04F340EA1A
:1037A0000300294630BD21FA04F0294630BD94F0CB
:1037B000000F83F4801306BF81F480110134013DB2
:1037C0004EE77FEA645C18BF7FEA655C29D094EA23
:1037D000050F08BF90EA020F05D054EA000C04BFA1
:1037E0001946104630BD91EA030F1EBF002100208C
:1037F00030BD5FEA545C05D14000494128BF41F02B
:10380000004130BD14F580043CBF01F5801130BD8E
:1038100001F0004545F0FE4141F470014FF0000019
:1038200030BD7FEA645C1ABF194610467FEA655CCA
:103830001CBF0B46024650EA013406BF52EA03356C
:1038400091EA030F41F4002130BD00BF90F0000F5A
:1038500004BF0021704730B54FF4806404F1320496
:103860004FF000054FF0000150E700BF90F0000F4F
:1038700004BF0021704730B54FF4806404F1320476
:1038800010F0004548BF40424FF000013EE700BF46
:1038900042004FEAE2014FEA31014FEA02701FBFD6
:1038A00012F07F4393F07F4F81F06051704792F0A8
:1038B000000F14BF93F07F4F704730B54FF4607422
:1038C00001F0004521F0004120E700BF50EA01026D
:1038D00008BF704730B54FF000050AE050EA01021A
:1038E00008BF704730B511F0004502D5404261EB8A
:1038F00041014FF4806404F132045FEA915C3FF4CB
:10390000DCAE4FF003025FEADC0C18BF03325FEA63
:10391000DC0C18BF033202EBDC02C2F1200300FA18
:1039200003FC20FA02F001FA03FE40EA0E0021FA3D
:1039300002F11444C1E600BF70B54FF0FF0C4CF427
:10394000E06C1CEA11541DBF1CEA135594EA0C0FDD
:1039500095EA0C0F00F0DEF82C4481EA030621EA18
:103960004C5123EA4C5350EA013518BF52EA033553
:1039700041F4801143F4801338D0A0FB02CE4FF005
:103980000005E1FB02E506F00042E0FB03E54FF035
:103990000006E1FB03569CF0000F18BF4EF0010E2D
:1039A000A4F1FF04B6F5007F64F5407404D25FEA29
:1039B0004E0E6D4146EB060642EAC62141EA5551DC
:1039C0004FEAC52040EA5E504FEACE2EB4F1FD0C1E
:1039D00088BFBCF5E06F1ED8BEF1004F08BF5FEA9C
:1039E000500E50F1000041EB045170BD06F000464E
:1039F00046EA010140EA020081EA0301B4EB5C04FB
:103A0000C2BFD4EB0C0541EA045170BD41F48011F2
:103A10004FF0000E013C00F3AB8014F1360FDEBF17
:103A2000002001F0004170BDC4F10004203C35DAF3
:103A30000C341BDC04F11404C4F1200500FA05F376
:103A400020FA04F001FA05F240EA020001F0004217
:103A500021F0004110EBD37021FA04F642EB06018D
:103A60005EEA430E08BF20EAD37070BDC4F10C04B7
:103A7000C4F1200500FA04F320FA05F001FA04F27B
:103A800040EA020001F0004110EBD37041F1000167
:103A90005EEA430E08BF20EAD37070BDC4F1200572
:103AA00000FA05F24EEA020E20FA04F301FA05F2DA
:103AB00043EA020321FA04F001F0004121FA04F282
:103AC00020EA020000EBD3705EEA430E08BF20EA52
:103AD000D37070BD94F0000F0FD101F0004640008C
:103AE00041EB010111F4801F08BF013CF7D041EA0E
:103AF000060195F0000F18BF704703F00046520012
:103B000043EB030313F4801F08BF013DF7D043EAE2
:103B10000603704794EA0C0F0CEA135518BF95EA98
:103B20000C0F0CD050EA410618BF52EA4306D1D11F
:103B300081EA030101F000414FF0000070BD50EA3E
:103B4000410606BF1046194652EA430619D094EAC8
:103B50000C0F02D150EA013613D195EA0C0F05D1B2
:103B600052EA03361CBF104619460AD181EA030106
:103B700001F0004141F0FE4141F470014FF00000BE
:103B800070BD41F0FE4141F4780170BD70B54FF059
:103B9000FF0C4CF4E06C1CEA11541DBF1CEA1355D9
:103BA00094EA0C0F95EA0C0F00F0A7F8A4EB0504BB
:103BB00081EA030E52EA03354FEA013100F08880B2
:103BC0004FEA03334FF0805545EA131343EA12637B
:103BD0004FEA022245EA111545EA10654FEA002630
:103BE0000EF000419D4208BF964244F1FD0404F5E9
:103BF000407402D25B084FEA3202B61A65EB030545
:103C00005B084FEA32024FF480104FF4002CB6EB01
:103C1000020E75EB030E22BFB61A754640EA0C0081
:103C20005B084FEA3202B6EB020E75EB030E22BFC1
:103C3000B61A754640EA5C005B084FEA3202B6EB02
:103C4000020E75EB030E22BFB61A754640EA9C00C1
:103C50005B084FEA3202B6EB020E75EB030E22BF91
:103C6000B61A754640EADC0055EA060E18D04FEA4F
:103C7000051545EA16754FEA06164FEAC30343EAEF
:103C800052734FEAC2025FEA1C1CC0D111F4801FBC
:103C90000BD141EA00014FF000004FF0004CB6E7B5
:103CA00011F4801F04BF01430020B4F1FD0C88BF54
:103CB000BCF5E06F3FF6AFAEB5EB030C04BFB6EB5F
:103CC000020C5FEA500C50F1000041EB045170BD52
:103CD0000EF0004E4EEA113114EB5C04C2BFD4EB7F
:103CE0000C0541EA045170BD41F480114FF0000E03
:103CF000013C90E645EA060E8DE60CEA135594EA7F
:103D00000C0F08BF95EA0C0F3FF43BAF94EA0C0F81
:103D10000AD150EA01347FF434AF95EA0C0F7FF4F6
:103D200025AF104619462CE795EA0C0F06D152EA4A
:103D300003353FF4FDAE1046194622E750EA41062E
:103D400018BF52EA43067FF4C5AE50EA41047FF43F
:103D50000DAF52EA43057FF4EBAE12E74FEA4102A2
:103D600012F5001215D211D56FF47873B3EB6252CD
:103D700012D94FEAC12343F0004343EA505311F0F4
:103D8000004F23FA02F018BF404270474FF0000086
:103D9000704750EA013005D111F0004008BF6FF0C4
:103DA000004070474FF00000704700BF4A0011D23A
:103DB00012F5001211D20DD56FF47873B3EB625285
:103DC0000ED44FEAC12343F0004343EA505323FA91
:103DD00002F070474FF00000704750EA013002D106
:103DE0004FF0FF3070474FF00000704780F0004008
:103DF00002E000BF81F0004142001FBF5FEA4103C3
:103E000092EA030F7FEA226C7FEA236C6AD04FEAC2
:103E10001262D2EB1363C1BFD21841404840414007
:103E2000B8BF5B42192B88BF704710F0004F40F4B9
:103E3000000020F07F4018BF404211F0004F41F4D5
:103E4000000121F07F4118BF494292EA030F3FD0A1
:103E5000A2F1010241FA03FC10EB0C00C3F12003B4
:103E600001FA03F100F0004302D5494260EB400043
:103E7000B0F5000F13D3B0F1807F06D340084FEAAE
:103E8000310102F10102FE2A51D2B1F1004F40EBA3
:103E9000C25008BF20F0010040EA0300704749000B
:103EA00040EB000010F4000FA2F10102EDD1B0FAD6
:103EB00080FCACF1080CB2EB0C0200FA0CF0AABFCB
:103EC00000EBC25052421843BCBFD0401843704769
:103ED00092F0000F81F4000106BF80F4000001326F
:103EE000013BB5E74FEA41037FEA226C18BF7FEA46
:103EF000236C21D092EA030F04D092F0000F08BF88
:103F00000846704790EA010F1CBF0020704712F06E
:103F10007F4F04D1400028BF40F00040704712F1AD
:103F200000723CBF00F50000704700F0004343F012
:103F3000FE4040F4000070477FEA226216BF084648
:103F40007FEA23630146420206BF5FEA412390EA0B
:103F5000010F40F4800070474FF0000304E000BF01
:103F600010F0004348BF40425FEA000C08BF7047B2
:103F700043F0964301464FF000001CE050EA010276
:103F800008BF70474FF000030AE000BF50EA01028B
:103F900008BF704711F0004302D5404261EB410178
:103FA0005FEA010C02BF84460146002043F0B6439D
:103FB00008BFA3F18053A3F50003BCFA8CF2083AC2
:103FC000A3EBC25310DB01FA02FC634400FA02FCCB
:103FD000C2F12002BCF1004F20FA02F243EB0200D2
:103FE00008BF20F00100704702F1200201FA02FC34
:103FF000C2F1200250EA4C0021FA02F243EB020027
:1040000008BF20EADC7070474FF0FF0C1CEAD0526A
:104010001EBF1CEAD15392EA0C0F93EA0C0F6FD02B
:104020001A4480EA010C400218BF5FEA41211ED009
:104030004FF0006343EA501043EA5111A0FB0131F5
:104040000CF00040B1F5000F3EBF490041EAD371CA
:104050005B0040EA010062F17F02FD2A1DD8B3F146
:10406000004F40EBC25008BF20F00100704790F0B5
:10407000000F0CF0004C08BF49024CEA502040EA07
:1040800051207F3AC2BFD2F1FF0340EAC2507047CD
:1040900040F400004FF00003013A5DDC12F1190F0B
:1040A000DCBF00F000407047C2F10002410021FA7D
:1040B00002F1C2F1200200FA02FC5FEA310040F195
:1040C000000053EA4C0308BF20EADC70704792F00E
:1040D000000F00F0004C02BF400010F4000F013A46
:1040E000F9D040EA0C0093F0000F01F0004C02BF41
:1040F000490011F4000F013BF9D041EA0C018FE7B0
:104100000CEAD15392EA0C0F18BF93EA0C0F0AD0B5
:1041100030F0004C18BF31F0004CD8D180EA0100DB
:1041200000F00040704790F0000F17BF90F0004F74
:10413000084691F0000F91F0004F14D092EA0C0F56
:1041400001D142020FD193EA0C0F03D14B0218BFE9
:10415000084608D180EA010000F0004040F0FE402F
:1041600040F40000704740F0FE4040F440007047CB
:104170004FF0FF0C1CEAD0521EBF1CEAD15392EA4A
:104180000C0F93EA0C0F69D0A2EB030280EA010C3A
:1041900049024FEA402037D04FF0805343EA1111D3
:1041A00043EA10130CF000408B4238BF5B0042F131
:1041B0007D024FF4000C8B4224BF5B1A40EA0C00D6
:1041C000B3EB510F24BFA3EB510340EA5C00B3EB08
:1041D000910F24BFA3EB910340EA9C00B3EBD10FF6
:1041E00024BFA3EBD10340EADC001B0118BF5FEA48
:1041F0001C1CE0D1FD2A3FF650AF8B4240EBC25071
:1042000008BF20F0010070470CF0004C4CEA502031
:104210007F32C2BFD2F1FF0340EAC250704740F480
:1042200000004FF00003013A37E792F0000F00F072
:10423000004C02BF400010F4000F013AF9D040EAF0
:104240000C0093F0000F01F0004C02BF490011F484
:10425000000F013BF9D041EA0C0195E70CEAD1537C
:1042600092EA0C0F08D142027FF47DAF93EA0C0F63
:104270007FF470AF084676E793EA0C0F04D14B0247
:104280003FF44CAF08466EE730F0004C18BF31F0F9
:10429000004CCAD130F000427FF45CAF31F00043F3
:1042A0007FF43CAF5FE700BF00210A2200F060BA54
:1042B00040EA010C1CF0070F23D1BDF1100DCDE930
:1042C0000245CDE900676FF000064FF0000700BF20
:1042D000F0E80223F1E80245A24282FA46FCA7FA7E
:1042E00086FC08BFBCF1000F40F0D780AB4283FAD8
:1042F00046FCA7FA86FC08BFBCF1000F40F0CA805C
:10430000E6E710F0030C21D020F0030050F8042B56
:104310005FEACC7C08D00FD211F801CB5FFA92F3A0
:10432000B3EB0C0C10D17BB111F801CB5FFAA2F307
:10433000B3EB0C0C08D13BB111F801CB5FFAB2F32F
:10434000B3EB0C0C00D10BB960467047BDF1100DFA
:10435000CDE90245CDE900676FF000064FF0000798
:1043600011F0030C2DD110F0040F0DD050F8042BD8
:1043700051F8044BA24282FA46FCA7FA86FC08BF19
:10438000BCF1000F40F0898011F0040F9FD051F86C
:10439000045B00BFF0E80223AA4282FA46FCA7FAB7
:1043A00086FC08BFBCF1000F71D1F1E80245A342C1
:1043B00083FA46FCA7FA86FC08BFBCF1000F63D164
:1043C000E8E721F00301BCF1020F1ED03BDA51F8FF
:1043D000045B00BF50F8043B4FEA152583FA46FC06
:1043E000A7FA86FCB7EB0C2F03EA162208BFAA42F5
:1043F0004DD151F8045BBCF1000F82EA03034FEA90
:10440000056208BF93423CD1E4E751F8045B00BF6A
:1044100050F8043B4FEA154583FA46FCA7FA86FCA0
:10442000B7EB0C4F03EA164208BFAA422FD151F84E
:10443000045BBCF1000F82EA03034FEA054208BFA8
:1044400093421ED1E4E751F8045B00BF50F8043BEF
:104450004FEA156583FA46FCA7FA86FCB7EB0C6FAA
:1044600003EA166208BFAA4211D151F8045BBCF1FD
:10447000000F82EA03034FEA052208BF934200D1EE
:10448000E4E719BA12BA0AE019BA22BA07E011BA77
:104490002ABA04E019BA2ABA01E011BA22BA9CFA7F
:1044A0008CF0DDE90067DDE902451DF1100D38B142
:1044B000B0FA80F0C0F1180021FA00F122FA00F2FF
:1044C0000120914298BF8041704700BF80EA0102FD
:1044D000844612F0030F4FD111F0030F32D14DF883
:1044E000044D11F0040F51F8043B0BD0A3F101323D
:1044F0009A4312F0803F04BF4CF8043B51F8043B50
:1045000016D100BF51F8044BA3F101329A4312F0C7
:10451000803FA4F101320BD14CF8043BA24312F0CE
:10452000803F04BF51F8043B4CF8044BEAD02346CB
:104530000CF8013B13F0FF0F4FEA3323F8D15DF87D
:10454000044B704711F0010F06D011F8012B0CF845
:10455000012B002A08BF704711F0020FBFD031F8BD
:10456000022B12F0FF0F16BF2CF8022B8CF8002044
:1045700012F47F4FB3D1704711F8012B0CF8012BC7
:10458000002AF9D1704700BF20F0030110F00300AA
:10459000C0F1000051F8043B00F1040C4FEACC0CD0
:1045A0006FF000021CBF22FA0CF213434FF0010C13
:1045B0004CEA0C2C4CEA0C4CA3EB0C0222EA030252
:1045C00012EACC1204BF51F8043B0430F4D013F0CB
:1045D000FF0F1FBF013013F47F4F013013F47F0F23
:1045E00018BF0130704700BF024B1A6801235C32CC
:1045F00000F002B840360020F0B420B307460D4664
:1046000017F8016B01E0A64216D015F8014B002CFB
:10461000F9D1EEB13E460C4616F8015B00E073B1ED
:1046200014F8013BAB42FAD15DB100233B70166038
:1046300006463046F0BC704763B13846DEE7374681
:10464000E8E72E46F3E710680028D7D10646F0E7E2
:104650001660EEE7176006460370EAE72DE9F00FF3
:10466000424C82B0D4F800C001900E4600E02646CD
:10467000344614F8015B0CEB0500407800F00800AC
:1046800000F0FF0A0028F2D12D2D5BD02B2D04BFA6
:104690007578B41C33F010003CD09946BAF1000F85
:1046A0000CBF6FF0004B4FF0004BBBFBF9F800273D
:1046B00009FB18BB38460CE0303DAB4219DD7E1CCF
:1046C00005D0404523D820D009FB0050012714F81D
:1046D000015B0CEB0506767816F0040FECD116F0B2
:1046E000030606D0012E14BF57263726AD1BAB425A
:1046F000E5DC7B1C15D0BAF1000F21D10AB1EFB96E
:10470000116002B0BDE8F00F70475D45DCDD4FF091
:10471000FF37DCE7302D1AD0002BBED10A23994693
:10472000BCE70199BAF1000F4FF022030CBF6FF004
:1047300000404FF000400B60002AE2D0611EDFE72E
:104740004042DBE7B41C75784FF0010AA2E72078FD
:1047500000F0DF00582803D0002B9ED108239CE7EF
:10476000102365789946023498E700BF1032002084
:1047700030B4044C0D46134601462A46206830BC2E
:10478000FFF76CBF4036002054797065206965746E
:104790007320696E20646520756172740A000000E0
:1047A0002C0000000A2045656E3D00000A20547769
:1047B00065653D000A20447269653D000A2056691E
:1047C00065723D000A2056696A663D000A205A65F6
:1047D000733D00000A205A6576656E3D00000000BA
:1047E0000A20416368743D000A204572726F723A74
:1047F000205465207665656C20617267756D656E05
:1048000074656E007A77617274000000626C617585
:10481000770000006C69636874626C6175770000F2
:1048200067726F656E0000006C6963687467726F11
:10483000656E0000637961616E0000006C696368F9
:1048400074637961616E0000726F6F640000000034
:104850006C69636874726F6F640000006D616765F6
:104860006E7461006C696368746D6167656E746114
:10487000000000006765656C0000000062727569E9
:104880006E0000006772696A730000007769740047
:104890000A204572726F723A206B6C657572206FD8
:1048A0006E62656B656E64006C696A6E0000000084
:1048B000656C6C69707300007265636874686F651D
:1048C0006B00000064726965686F656B0000000032
:1048D00074656B73740000006269746D6170000030
:1048E000636C65617273636865726D00776163689C
:1048F000740000000A204572726F723A206F6E6277
:10490000656B656E7420656572737465206172678E
:10491000756D656E7400000000202020202020208E
:10492000202028282828282020202020202020205F
:10493000202020202020202020881010101010106F
:1049400010101010101010101004040404040404BB
:104950000404041010101010101041414141414155
:104960000101010101010101010101010101010137
:104970000101010110101010101042424242424247
:104980000202020202020202020202020202020207
:1049900002020202101010102000000000000000AF
:1049A0000000000000000000000000000000000007
:1049B00000000000000000000000000000000000F7
:1049C00000000000000000000000000000000000E7
:1049D00000000000000000000000000000000000D7
:1049E00000000000000000000000000000000000C7
:1049F00000000000000000000000000000000000B7
:104A000000000000000000000000000000000000A6
:104A10000000000000000000000000004300000053
:104A20000000000001020304010203040607080954
:104A3000FF000000FF000000FF000000FF0000007A
:104A40000300000003000000FF000000FF00000062
:104A5000FF000000FF000000FF000000FF0000005A
:104A6000FF000000FF00000003000000FF00000046
:104A700003000000FF000000FF000000FF00000036
:104A8000FF000000FF000000FF000000FF0000002A
:104A900003000000FF000000FF0000000300000012
:104AA000FF000000FF000000030000000300000002
:104AB000030000000300000003000000FF000000EE
:104AC000FF000000FF00000003000000FF000000E6
:104AD00003000000FF000000FF000000FF000000D6
:104AE000FF000000FF000000FF000000FF000000CA
:104AF000FF0000000300000003000000FF000000B2
:104B0000FF000000FF000000FF000000FF000000A9
:104B1000FF000000FF000000FF0000000300000095
:104B20000300000003000000030000000300000079
:104B300003000000FF000000FF000000FF00000075
:104B400003000000FF000000FF000000FF00000065
:104B5000FF000000FF00000003000000FF00000055
:104B6000FF00000003000000FF000000FF00000045
:104B7000FF000000FF000000FF000000FF00000039
:104B800003000000FF00000003000000FF00000021
:104B9000FF000000FF000000FF000000FF00000019
:104BA000FF000000FF000000030000000300000001
:104BB000FF000000FF000000FF000000FF000000F9
:104BC000FF000000FF000000FF000000FF000000E9
:104BD0000300000003000000FF000000FF000000D1
:104BE000FF000000FF000000FF000000FF000000C9
:104BF000FF00000003000000FF000000FF000000B5
:104C000003000000FF000000FF000000FF000000A4
:104C1000FF000000FF00000003000000FF00000094
:104C2000FF000000FF000000FF0000000300000084
:104C3000FF000000FF000000FF0000000300000074
:104C4000FF000000FF000000FF000000FF00000068
:104C5000FF000000FF00000003000000FF00000054
:104C600003000000FF000000FF000000FF00000044
:104C7000FF000000FF000000FF000000FF00000038
:104C8000FF0000000300000003000000030000001C
:104C90000300000003000000FF000000FF00000010
:104CA00003000000030000000300000003000000F8
:104CB000FF000000FF000000FF00000003000000F4
:104CC000FF000000FF00000003000000FF000000E4
:104CD000FF000000FF000000FF000000FF000000D8
:104CE000FF00000003000000FF000000FF000000C4
:104CF00003000000FF000000FF000000FF000000B4
:104D0000FF000000FF000000FF00000003000000A3
:104D1000FF000000FF00000003000000FF00000093
:104D2000FF000000FF000000FF000000FF00000087
:104D3000FF0000000300000003000000030000006B
:104D400003000000FF000000FF000000FF00000063
:104D5000FF000000FF000000FF000000FF00000057
:104D60000300000003000000FF000000FF0000003F
:104D7000FF000000FF000000FF000000FF00000037
:104D8000FF00000003000000FF000000030000001F
:104D9000FF000000FF000000FF000000FF00000017
:104DA000FF000000FF00000003000000FF00000003
:104DB000FF00000003000000FF000000FF000000F3
:104DC000FF000000FF000000FF00000003000000E3
:104DD000FF000000FF000000FF00000003000000D3
:104DE00003000000030000000300000003000000B7
:104DF00003000000FF000000FF000000FF000000B3
:104E0000FF000000FF000000FF000000FF000000A6
:104E1000FF0000000300000003000000FF0000008E
:104E2000FF000000FF000000FF000000FF00000086
:104E3000FF000000FF000000FF0000000300000072
:104E4000FF00000003000000FF000000FF00000062
:104E5000FF0000000300000003000000030000004A
:104E60000300000003000000FF000000FF0000003E
:104E700003000000FF000000FF000000030000002E
:104E8000FF000000FF000000FF000000FF00000026
:104E9000FF000000FF000000FF0000000300000012
:104EA000FF00000003000000FF000000FF00000002
:104EB000FF000000FF000000FF000000FF000000F6
:104EC000FF000000FF0000000300000003000000DE
:104ED000FF000000FF000000FF000000FF000000D6
:104EE000FF000000FF000000FF00000003000000C2
:104EF000030000000300000003000000FF000000AA
:104F0000FF000000FF000000FF000000FF000000A5
:104F1000FF00000003000000FF000000FF00000091
:104F200003000000FF000000FF000000FF00000081
:104F3000FF000000FF000000FF0000000300000071
:104F4000FF000000FF00000003000000FF00000061
:104F5000FF000000FF000000FF000000FF00000055
:104F6000FF00000003000000FF000000FF00000041
:104F700003000000FF000000FF000000FF00000031
:104F80000300000003000000030000000300000015
:104F9000FF000000FF00000003000000030000000D
:104FA000030000000300000003000000FF000000F9
:104FB000FF000000FF000000FF000000FF000000F5
:104FC000FF000000FF000000FF00000003000000E1
:104FD000FF00000003000000FF000000FF000000D1
:104FE000FF000000FF000000FF000000FF000000C5
:104FF00003000000FF000000FF000000FF000000B1
:1050000003000000FF000000FF000000FF000000A0
:10501000FF00000003000000FF000000FF00000090
:10502000FF000000FF000000FF0000000300000080
:10503000FF000000FF00000003000000FF00000070
:10504000FF000000FF000000FF000000FF00000064
:10505000FF000000FF00000003000000030000004C
:10506000FF000000FF000000FF000000FF00000044
:10507000FF000000FF000000FF0000000300000030
:10508000030000000300000003000000FF00000018
:10509000FF000000FF000000FF000000FF00000014
:1050A00003000000FF000000FF000000FF00000000
:1050B000FF00000003000000FF000000FF000000F0
:1050C000FF00000003000000FF000000FF000000E0
:1050D000FF000000FF000000FF000000FF000000D4
:1050E00003000000FF00000003000000FF000000BC
:1050F000FF00000003000000FF000000FF000000B0
:1051000003000000FF000000FF000000030000009B
:1051100003000000FF000000FF000000FF0000008F
:10512000FF000000FF000000FF000000FF00000083
:10513000FF0000000300000003000000FF0000006B
:10514000FF000000FF000000FF000000FF00000063
:10515000FF000000FF000000FF000000030000004F
:1051600003000000FF000000FF000000030000003B
:10517000FF000000FF00000003000000FF0000002F
:10518000FF00000003000000FF000000030000001B
:10519000FF000000FF00000003000000030000000B
:1051A000FF000000FF00000003000000FF000000FF
:1051B000FF000000FF00000003000000FF000000EF
:1051C000FF000000FF000000FF00000003000000DF
:1051D000FF000000FF000000FF000000FF000000D3
:1051E000FF000000030000000300000003000000B7
:1051F00003000000FF000000FF000000FF000000AF
:10520000FF000000FF000000FF000000030000009E
:10521000030000000300000003000000FF00000086
:10522000FF000000FF000000FF000000FF00000082
:1052300003000000FF000000FF000000FF0000006E
:10524000FF00000003000000FF000000FF0000005E
:10525000FF00000003000000FF000000FF0000004E
:10526000FF000000FF000000FF000000FF00000042
:1052700003000000FF00000003000000FF0000002A
:10528000FF00000003000000FF000000FF0000001E
:1052900003000000FF000000FF000000030000000A
:1052A00003000000FF000000FF000000FF000000FE
:1052B000FF000000FF000000FF000000FF000000F2
:1052C000FF0000000300000003000000FF000000DA
:1052D000FF000000FF0000000300000003000000CA
:1052E000FF000000FF000000FF00000003000000BE
:1052F00003000000FF000000FF00000003000000AA
:10530000FF000000FF00000003000000FF0000009D
:10531000FF00000003000000FF0000000300000089
:10532000FF000000FF000000FF000000FF00000081
:10533000FF000000FF00000003000000FF0000006D
:10534000FF000000FF00000003000000FF0000005D
:10535000FF000000FF000000FF000000030000004D
:10536000FF000000FF000000FF000000FF00000041
:10537000FF00000003000000030000000300000025
:1053800003000000FF000000FF000000FF0000001D
:10539000000000000000000000000000000000000D
:1053A00000000000000000000000000000000000FD
:1053B00000000000000000000000000000000000ED
:1053C00000000000000000000100000001000000DB
:1053D00000000000000000000000000000000000CD
:1053E00000000000000000000000000001000000BC
:1053F00000000000000000000100000000000000AC
:10540000000000000000000000000000000000009C
:10541000010000000000000000000000000000008B
:10542000000000000100000000000000000000007B
:10543000000000000100000000000000000000006B
:10544000000000000000000000000000000000005C
:10545000010000000000000000000000010000004A
:105460000100000001000000010000000100000038
:105470000100000001000000010000000000000029
:10548000000000000100000000000000000000001B
:10549000000000000000000000000000000000000C
:1054A00001000000000000000000000001000000FA
:1054B00000000000000000000000000000000000EC
:1054C00000000000000000000100000000000000DB
:1054D00000000000010000000000000000000000CB
:1054E00000000000000000000000000000000000BC
:1054F00001000000000000000000000000000000AB
:10550000000000000000000000000000000000009B
:10551000000000000000000000000000000000008B
:10552000000000000000000000000000000000007B
:10553000000000000000000000000000000000006B
:10554000000000000000000000000000010000005A
:105550000100000001000000010000000100000047
:10556000000000000000000000000000000000003B
:10557000000000000100000000000000000000002A
:10558000000000000000000001000000000000001A
:10559000000000000000000000000000010000000A
:1055A00000000000000000000000000000000000FB
:1055B00001000000000000000000000000000000EA
:1055C00000000000010000000100000001000000D8
:1055D00001000000010000000000000000000000C9
:1055E00000000000000000000000000001000000BA
:1055F00000000000000000000000000000000000AB
:105600000100000001000000000000000000000098
:105610000000000001000000000000000000000089
:105620000000000000000000000000000100000079
:105630000000000000000000000000000100000069
:10564000000000000000000000000000000000005A
:105650000100000001000000000000000000000048
:105660000000000001000000010000000100000037
:105670000100000001000000000000000000000028
:10568000000000000000000000000000000000001A
:10569000000000000000000000000000000000000A
:1056A00000000000000000000000000000000000FA
:1056B00000000000000000000000000000000000EA
:1056C00000000000000000000000000000000000DA
:1056D00000000000000000000000000000000000CA
:1056E00000000000010000000100000001000000B7
:1056F00001000000000000000000000000000000A9
:105700000000000000000000010000000000000098
:105710000000000000000000000000000100000088
:105720000000000000000000000000000100000078
:105730000000000000000000000000000000000069
:105740000000000000000000010000000000000058
:105750000000000001000000000000000000000048
:105760000000000000000000000000000000000039
:105770000000000000000000000000000100000028
:105780000000000000000000000000000000000019
:105790000000000000000000000000000000000009
:1057A00000000000010000000000000000000000F8
:1057B00000000000000000000000000000000000E9
:1057C00001000000000000000000000000000000D8
:1057D00001000000000000000000000000000000C8
:1057E00000000000010000000000000000000000B8
:1057F00000000000000000000000000001000000A8
:105800000100000001000000010000000000000095
:105810000000000000000000000000000000000088
:105820000000000000000000000000000000000078
:105830000000000000000000000000000000000068
:105840000000000000000000000000000000000058
:105850000000000000000000000000000000000048
:105860000000000000000000000000000100000037
:105870000100000001000000010000000100000024
:105880000100000000000000000000000000000017
:105890000000000001000000000000000000000007
:1058A00000000000000000000000000001000000F7
:1058B00000000000000000000000000001000000E7
:1058C00000000000000000000000000000000000D8
:1058D00000000000000000000100000000000000C7
:1058E00000000000010000000000000000000000B7
:1058F00000000000000000000000000000000000A8
:105900000100000000000000000000000100000095
:105910000000000000000000000000000000000087
:105920000000000000000000010000000000000076
:105930000000000001000000000000000000000066
:105940000000000000000000000000000000000057
:105950000100000000000000000000000100000045
:105960000000000000000000000000000000000037
:105970000000000001000000000000000000000026
:105980000000000001000000010000000100000014
:105990000100000001000000010000000000000004
:1059A00000000000000000000000000000000000F7
:1059B00000000000000000000000000000000000E7
:1059C00000000000000000000000000000000000D7
:1059D00000000000000000000000000000000000C7
:1059E00000000000000000000000000000000000B7
:1059F00000000000000000000000000001000000A6
:105A00000100000001000000010000000100000092
:105A10000100000001000000010000000000000083
:105A20000000000001000000000000000000000075
:105A30000000000000000000000000000000000066
:105A40000000000000000000000000000100000055
:105A50000000000000000000000000000000000046
:105A60000000000000000000000000000000000036
:105A70000000000001000000010000000100000023
:105A80000100000000000000000000000000000015
:105A90000000000000000000000000000100000005
:105AA00000000000000000000000000000000000F6
:105AB00000000000000000000000000000000000E6
:105AC00000000000010000000000000000000000D5
:105AD00000000000000000000000000000000000C6
